S02B0000416C6C5F4D65676152665F41746D656761323536726672325F384D687A5F4763632F4578652F417000
S2840000000C9480260C9483EE0C94AFEE0C94DBEE0C9407EF0C9433EF0C945FEF0C948BEF0C94B7EF0C94BD260C94BD260C94BD260C94BD260C9494EA0C94BD260C94EAEA0C94BD260C94BD260C94BD260C94BD260C94BD260C94BD260C94BD260C94BD260C94E2F00C944DED0C94F0EC0C941FED0C94BD260C9473F00C944AF00C94BD2648
S2840000800C94BD260C94BD260C94BD260C94BD260C94E7ED0C948AED0C94B9ED0C94E3EF0C94BD260C94BD260C9490DB0C94F3DD0C94BD260C94BD260C94BD260C94BD260C94BD260C94BD260C94BD260C94BD260C94BD260C94BD260C94BD260C94BD260C94BD260C94BD260C94BD260C94BD260C944FDE0C94BD260C94BD260C9477DE33
S2840001000C94BD260C94BD260C94BD260C94BD260C94BD260C94BD260C94BD260C949FDE0C94BD260C94BD260C94BD260C94BD260C94BD260000000000000000000000000000000000000000000000000000000000000000000000000000000000000000000000000000000000000000000000000000000000000000000000000000000039
S2840001800000000000000000000000000000000000000000000000000000000000000000000000000000000000000000000000000000000000000000000000000000000000000000000000000000000000000000000000000000000000000000000000000000000000000000000000000000000000000000000000000000000000000000FA
S284000200000000000000000000000000000000000000000000000000000000000000000000000000000000000000000000000000000000000000000000000000000000000000000000000000000000000000000000000000000000000000000000000000000000000000000000000000000000000000000000000000000000000000000079
S2840002800000000000000000000000000000000000000000000000000000000000000000000000000000000000000000000000000000000000000000000000000000000000000000000000000000000000000000000000000000000000000000000000000000000000000000000000000000000000000000000000000000000000000000F9
S284000300000000000000000000000000000000000000000000000000000000000000000000000000000000000000000000000000000000000000000000000000000000000000000000000000000000000000000000000000000000000000000000000000000000000000000000000000000000000000000000000000000000000000000078
S284004400DE0D16001900D10B030018000D07BD001700331201001600E712080015007412010014006B1202001300D712010026007A1201001E006A1201000F00F11201000E00DB1201000D00E31202000C00341201000B002E1202000A00511211000900471201000800461201000700451201000600D81201000500E11201000400D9113B
S284004480040003006212080002002C1201000100111208000000704712002E00944715002D00BE4719002C00F04704002A00F84711002900194E3E4D574E574E574E434D4D4D574E574E554D5A4D824D8B4D574E904D984DA24D574EAB4DB04D574EB94DF44D064E574EF94D014E194E194E194E104E104E104E104E104E104E104E104EB7
S284004500104E104E104E104E104E104E104E104E104ECC4D104E574E574E574E574E574E574E574E574E574E574E574E574E574E574E104E0B4E194E104EC64D1B4E194E324E404E474E194E194E194EB34F204FF54FF54FF54F264F2B4FC94FF54F2E4F314F424F474FF54F4A4F4D4F504FF54F554F584FC94F5D4FA74FBC4FF54FAA4FDF
S284004580AD4F244FB04FB04FC94FC94FC94FC94FC94FC94FC94FC94FC94FC94FC94FC94FC94FC94FC94FC94FC94F8D4FC94FF54FF54FF54FF54FF54FF54FF54FF54FF54FF54FF54FF54FF54FF54FC94FBF4FC24FC94F854FD14FDA4FD44FD74FF54FE84FED4FF34FFA50FC500751FE50005102510451D9500A510C51D9500F51645167514B
S2840046006B516E517251765179517D517D51BF55FD55FD55FD55C655E355D455DB550E56CD55EA55EA55F155FD550556095669566C566F566F5671567B5675567856885673567E5680568256855671587458955877587B5895587F5895588A588D589358FC5BA95CB85CB75BFF5CFF5CB45CB85CBD5CEB5CD45CFF5CFF5CEB5CEA5BED5C80
S284004680F194F994109582958295D994E69482958295829530953F955C9568958295D6940495A2946F996F999898A098A098AD98AD98CA98CA98CA98289928992899C3996F9950A7A2A776A77AA77AA77AA77AA77AA77EA77EA7EDB9F0B991BA91BAF5B991BAFFB9E8BAE8BAE8BAE8BAE8BAE8BAE8BAE8BAE8BA91BA91BAE8BAE8B9FAB9A6
S28400470091BA38C586C586C586C586C586C575C55FC57DC586C56FC586C579C581C55BC736C814C93FC97EC9AACAF3CA16D116D116D116D116D116D116D116D116D12ACA38CA16D116D15FCAF5C80DD315D327D330D332D334D336D339D30CD484D484D432D43BD44BD454D457D45AD45DD463D40000010002000300040005000600070092
S284004780080009000A000B000C000D000E000F001E00180000000100020003000400050006000700080009000A000B000C000D000E000F001E00130014001500160000000100020003000400050006000700080009000A000B000C000D000E000F001E0013001400150016001700180019002600130014001500160000000100020003008C
S2840048000400050006000700080009000A000B000C000D000E000F001E00760500000D07000067060000CA0700000107000000000000F40700005E0D0000B60D0000080B00005A0B0000240B0000910B0000D40B0000180D00000000000000000000D10B0000DE0D0000000000000000000000000000000000000000000000000000000097
S284004880000000000000000000000000000000000000000000000000000000000000F40D00001C0E0000FB0500006A4A02006E4A0100714A01006F4A0200744A0100754A0100764A0100774A0100784A0100794A01007A4A0200724A02007C4A01007D4A0100964A0200874A0100884A0100894A0100924A04007E4A01007F4A0400834A68
S2840049000100844A01008E4A01008F4A0100904A0200000000000000000000000000000000000000000000000000000000000000000000000000000000000000000000000000854A0100864A0100984A0100994A01009A4A01009B4A0100000000008A4A04006C4A0200111208001B120100281204002C120100DF120100E0120100E7125C
S2840049800800E31202006B12020074120100DB120100F1120100E1120100301201003112010032120100331201002E1202003412010035120100DD120100DC120100EC110100ED11010062120800D9110400481204003D1204004112040045120100461201004712010051121100D81201004C1201004D120400D7110100EE1102006A1204
S284004A0001002D1201000000000000000000D81101000000000000000000000000000000000000000000000000000000000000000000000000000000000000000000361205003B1201003C120100000000000000000000000000000000000000000000000000000000001C12010085006C0001000007050007040205040204000308FF14B5
S284004A800000000108030303020A901A00000100000000000203141061620003001E000003013412000303000002000000000003031027000010270000000001E803000004E80300001041746D656C2020202020202020202020FECAAAAAAAAAAA1A000203010080000000000000000000000000000000000005FF00000000000000000019
S284004B000000000000000000000000000000000000000000000000000000000000000000000000000000000000000000000000000000000000000000000000000000000000000000000000000000000000000000000000000000000000000000000000000000000000000202010002020508080000FFFF34120000000000000000020201C9
S284004B800C3F484400000000000000000000000002337B117601077396C77001017396C7700101F27A1C8E0101777A7B9D0101777A4A9D01072C7AB7700101D4799B8301010000000001070000000001010000000001030000B16801040000B168010500000000010600000000010D00000000010173960000000100000000010E0000005C
S284004C0000010700000000010A00000000010000000000010100000000010100000000000000009E74000900009E74000C00009E74000000009E74003577077D3294D8A63E73689A4A78F078C471AD7FF285D774A49DD1774372327100000000FC70757F0000000066667669FC66D166F56600006D667B66EA6674666C69246668686F6882
S284004C80DE68606803670000C6690201020303020201010101010101010102020101010201020202020202010202020202020103030202032DA5599B10948C9C00008FA30F8D28A800000000EBB485B90AC356BC26D1EFC146E046E046E046E0B8E17FDF68F165EAA4DCE2DB43E89AEBE7E774E6EFE447E099E1C5E2D8E097E1C3E2D6E03A
S284004D00112480915417823159F084B780FD04C08F718093541707C081E08093541703C081E18093541714BE809160008861809360001092600011241FBECFEFD1E8DEBFCDBF00E00CBF12E0A0E0B2E0E2E6F7EE01E00BBF02C007900D92AC3DB107D9F727E1ACEDB2E001C01D92A435B207E1F70E94ED2F0E940330FDCF0C9400007F935D
S284004D807FB7F8949D9AA5988AEF4DD08AEF4BD09D9886E448D081E0959980E08F9380EF42D08F917FBF7F9108957F937FB7F8949D9AA59886E037D09D988AE034D0889495990894881F8F9384E62DD08F917FBF7F9108959F937F9398E0E7DF879577959A959923D1F7872F7F919F9108957F937FB7F894A5989D9A8F9386E014D08F91BD
S284004E00879508F49D988F9384E60DD08F919D987FBF7F9108959F9398E0E9DF9A959923E1F79F91089500000000000000008A958823C9F708955F937F937FB7F894CF93DF93C0E0D0E07F935091B2007091B2007517E1F3739521965091B2005717D9F77F91CE01DF91CF917FBF7F915F9108952FB7F8948091410490914204906190930F
S284004E804204809341042FBF0895E0E8F0E0808182608083A1E8B0E08C9188618C938C9181608C9380E29EE490938700809386008081806880836C9A0895A0E0B0E08093E2029093E302A093E402B093E50281E08093E60288E397E29093E8028093E7028CED92E00C94CDDF08958091F202882319F0813019F1089592D08CED95E0909302
S284004F00890080938800C1DF0E94593080E98093EF0282E08093F0021092F10281E08093F2022FB7F8948091410490914204906190934204809341042FBF089580E90E94C7DE41E06BE071E080E90E94EEDE64E670E089EE92E00E94F8DE89EE92E00E94D3DE84EF91E0A9CF089508950895089508951F93CF93DF93109222041092230401
S284004F801091EF03112309F446C08091ED03E0EFF3E01333E0F4212F30E0CAEFD0E0AF01405F5340421753075CF490E0DC01AD50BD4F4C9141930196BE010E9430F2EFCF8093ED03109322041092EF0318C02AEF30E090E0DC01AD50BD4F4C9141930196B9010E9430F294E0E232F90791F78093ED0382E38093220412531093EF0381E00F
S284005000809323044091220450E060EF73E08CE195E00E942EE3DF91CF911F91089588EC809327051092280589E190E090932A058093290586E080932B0510922C0510922D0510923C05109231051092300510923305109232051092350510923405109237051092360589EB97E290933B0580933A058CE195E00C94CFE20895A2E0B0E0FC
S284005080E4E4F8E20C94B4F26C0100913D0510913E05E12CF12C8091410590914205E816F906A8F45801B8016C5F7F4F42E050E0CE0101960E947AF30A5F1F4F29813A812C153D0539F08FEFE81AF80AE4CF80E090E001C0C5012296EAE00C94D0F2ADE0B0E0E5E7F8E20C94B6F27C016B0123E0969587952A95E1F7FC01E35CFA4F228D4A
S28400510030E0B70167707727062E02C0369527950A94E2F78E010F5F1F4F20FF42C027E0E7E5F5E0D80101900D922A95E1F7A0E020E030E04A2F50E048175907D8F4F801E40FF51F4081542F569555754575540F452F4695469543735373450F4083E42FEF7042954F7050E04E0F511D240F351FAF5FE0CFE0E0D801A80FB91F4E2F50E072
S2840051804617570780F44C9150E00E2E02C0569547950A94E2F741705527240F351FEF5FEDCF2FEF3FEF1B870A8746E0429FC001439F900D112404969987888786E090E09D878C8761E27AE2CE01089672D18D819E81E816F90639F084E090EA9093710580937005E1D589819A81F601918380832D96E8E00C94D2F2A6E0B0E0E2E0F9E277
S2840052000C94B8F27C018B0180E090E0FC0133E0F695E7953A95E1F7EE0DFF1D6081AC0147705527262F30E0042E02C0369527950A94E2F720FF0DC021E030E001C0220F4A95EAF720952623208318DF009731F431C0019683339105C9F62CC046E050E0BC01CE0101960E947AF389819A81F80193838283B8018D819E8131DFF8018081E6
S28400528091810596918380838B819C819583848382819381892B39F480E090EA909371058093700581D58D819E81F7019087878381E006C08FEF9FEFF7019087878380E02696E6E00C94D4F2A8E0B0E0EAE6F9E20C94B2F27C01A0903F05B0904005FC01868182FD09C000E010E0812C76E0972ECC24C394D12C0CC047E050E06FEF70E004
S284005300C7010E94AAF36DC0882483940F5F1F4F80914305909144050817190708F05BC0909EB001919E700D11246A0D7B1D46E050E0CE0101960E947AF32D813E81F90163E0F695E7956A95E1F7EE0DFF1D408127703327842F90E0022E02C0969587950A94E2F780FFD2CFC60102C0880F991F2A95E2F79C01209524232083812C882D54
S28400538090E02B813C818217930708F0BDCF880F991F69817A81680F791F42E050E0CE0107960E947AF38F819885FC0153E0F695E7955A95E1F7EE0DFF1D87709927960102C0220F331F8A95E2F7C9019081982B90838394D4CF882021F000E010E0812C97CF2896ECE00C94CEF2CF93DF93EC018FEF9FEF98878F8387E0FB01DE01019079
S2840054000D928A95E1F7CE015FDFE7E5F5E0919188818923899385E0EE35F807C1F7DF91CF91089580916B0590916C05A7C208951092680582E19AE290936A058093690508950895E0E5F5E0DC013D91CD012081232B2193B5E0E735FB07B1F780916D05846080936D0508950E946DE6882311F0DFD5FACF0895A2E0B0E0E1E4FAE20C9448
S284005480BAF28B0189839A83EFDFB80189819A810E9490E5019631F08AE20132180721F4E3DF02C081E001C080E02296E4E00C94D6F2A2E0B0E0EFE5FAE20C94BAF28B0189839A83D1DFB80189819A810E941DE5019631F08AE20132180721F4C5DF02C081E001C080E02296E4E00C94D6F2A2E1B0E0EDE7FAE20C94AFF280916D05982F74
S284005500926090936D0582FF0AC060E575E084E294E06BDF80916D058B7F80936D05CC24C394D12C7E013DE0E30EF11C55E0A52EB12C4E0182E1880E911CBE01695F7F4F84E294E059DE882309F462C060902B0470902C04F30163E0F695E7956A95E1F7E35CFA4FC30187709927960102C0220F331F8A95E2F7C901809593898923838BAC
S284005580FC82EB82BE82AD828F81988505979A83898361E27AE2CE0101968BDF4B855C8569857A8580E05ED0582E8D8558123AC08889998968167906A9F52B853C858E859F852817390771F59C828B82DE82CD8200E010E02B853C850217130708F0ADCF2F813885200F311F3A83298361E27AE2CE0101965EDFAB81BC81E985FA85E00FCA
S284005600F11F9C91808198130DC00F5F1F4FE2CF80916D058D7F80936D0560E070E08FE001D21CC05D86798A688A8B859C859F878E87FC82EB8285E090E09E838D838F81988505979A83898367E77AE2CE01079612DF61E27AE2CE0101960DDF6296EFE00C94CBF2FB01460F571FE417F50719F09191890FFACF08954F925F927F928F92F2
S2840056809F92AF92BF92CF92DF92EF92FF920F931F93CF93DF93CDB7DEB762970FB6F894DEBF0FBECDBF80E094E490933E0580933D0586E994E49093400580933F0506E914E400501444C80166E070E00E941CF2892B39F080E290EA909371058093700563D326E030E0C801B9010E941CF24091410550914205642B752B709342056093A2
S284005700410504EB14E406591444C801B9010E941CF2892B39F081E290EA909371058093700542D3C80166E070E00E941CF28091430590914405682B792B709344056093430500913D0510913E051092450510924605109247051092480587E0E7E5F5E0DF011D928A95E9F7D12CEE24E394F12C80914105909142052D2D30E0281739073F
S284005780C8F546E050E0B801CE0101960E947AF32B813C812B5F3F4F8091450590914605A0914705B0914805820F931FA11DB11D8093450590934605A0934705B09348058D819E81FC0133E0F695E7953A95E1F7E35CFA4F87709927970102C0220F331F8A95E2F7C901928D982B928F0A5F1F4FD394BECF26E0289F6001299FD00C1124C9
S28400580034E0C30ED11CE12CF12CCE010796988B8F8786E090E09A8B898BA12CB12C00E010E096E0792E22E2822E20EA922EF80183E0F695E7958A95E1F7E35CFA4F828D90E098012770332702C0969587952A95E2F780FF41C07A9CC0017B9C900D112404969E878D8761E27AE2CE010D9621DE8B859C858017910749F48F819885A985B7
S284005880BA858C159D05AE05BF0559F01C870B87CF82D886E986FA8661E27AE2CE010D96EADDC801EBDB2C01009729F4909271058092700579D246E050E0B201CE0101960E947AF38B819C810596C80ED91EE11CF11C8FEFA81AB80A0F5F1F4F0333110509F0A5CFA5DD62960FB6F894DEBF0FBECDBFDF91CF911F910F91FF90EF90DF90CE
S284005900CF90BF90AF909F908F907F905F904F90089520E0FC013191CF01311105C02F5F2730C1F780E0089581E0089527E0FB0111922A95E9F7FC0123E0F695E7952A95E1F7E60FF71F8770992721E030E001C0220F8A95EAF78081822B8083CB01B4CC0895A7E5B5E0FC013D9120812323219325E0AE35B207C1F7CCCF0895A7E0B0E0CE
S284005980E4ECFCE20C94BBF2BE016F5F7F4FCEDFCE010196E6DFCE010196BBDF182F882339F0CE0101964EDD80916D0581FF9FDD812F2796E3E00C94D7F208950895A2E0B0E0E5EEFCE20C94BCF280912D048823E9F0BE016F5F7F4F81E290E01DD4BE016E5F7F4F8DE190E017D48981823071F48A8181110BC08EED9CE29093360480936B
S284005A0035048EE294E00E94DEBE02C00E94F7DC2296E2E00C94D8F280912D0408950C946CE80895A0E0B0E0E8E1FDE20C94B4F2B82E7B01082F10E093E0169507959A95E1F78770C1E0D0E001C0CC0F8A95EAF7AC2E8FE38B1538F484E090E89093710580937005A1D1F801E95CFB4F80818C2311F1C0913F04D091400485E0C82E80E852
S284005A80D82E2097C1F0FE01E00FF11F82818A2171F02A853B85232B29F4D0927105C092700582D1EA85FB85B7018B2D19950990D881C02DE6CFCDB7DEB7EAE00C94D0F2E82FF0E023E0F695E7952A95E1F7E95CFB4F208130E0877041E050E002C0440F551F8A95E2F72423352381E0232B09F480E00895282F30E043E0369527954A95AB
S284005B00E1F7620F731F877021E030E001C0220F8A95EAF7FB019281922381E009F480E008951F93CF93DF93182FEB01803438F023E030E8309371052093700535D1BE01812FD8DF81112AC0BE018FE394E09AD081110BC088E0FE013296DF011D928A95E9F7BE018FE394E09DD0412F50E063E0569547956A95E1F7177021E030E001C05E
S284005B80220F1A95EAF7C40FD51F8A81822B8A83FA01E95CFB4F8081822B8083DF91CF911F9108951F93CF93DF93182FEB01803438F023E030E83093710520937005F4D0BE01812F97DF882369F1212F30E073E0369527957A95E1F7177041E050E0012E01C0440F0A94EAF7942F9095C20FD31F8A8189238A83E0913F04F09140043097D2
S284005C0059F0DF01A20FB31F12968C91842351F40190F081E02DF3CFF901E95CFB4F808189238083DF91CF911F910895DC01ED91FC911197309721F0208131812D933C93CF01089561157105A1F0DC01ED91FC911197E617F70759F4208131812D933C930FC0808191818617970729F0FC013097C1F780E00895DB018D919C9191838083C0
S284005C8081E00895DC01ED91FC91309739F0E617F70731F00190F081E02DF7CF80E0089581E008950F931F93CF93DF938C01EB01E9DF882349F080E090E890937105809370055AD080E014C019821882D801ED91FC911197309719F4CD93DC9308C080819181009711F0FC01FACFD183C08381E0DF91CF911F910F910895CF93DF93FC0116
S284005D0082819381009781F40E941FE0C22FD32F0E94FA4F44E0FC0121913191CF01C227D3274150C1F7CE010E946FF381E0809306028EE092E00E94CDDFDF91CF91089580E092E00C946B50089580910602882369F08EE092E00E94FDDF8DE79EE290930D0280930C0210920602EACF08958EE092E00C94FDDF089582E090E0909373050F
S284005D808093720580917005909171059093750580937405E0916E05F0916F05309719F082E795E01995089583E090E0909373058093720580917005909171059093750580937405E0916E05F0916F05309719F082E795E019950895EF920F93FC01618372834F3740F081E090E89093710580937005C2DF20C0403808F04FE7440F8081C8
S284005E0081700187842BE0FA80F9808334832383CB01AC016081669504962181328174E0679F200D311D11244217530720F4DC0111971C92EECF0F91EF900895A0E0B0E0E4E2FFE20C94B5F2EC018B01B42E0E941FE069017A018D819E81AF81B885A7019601281B390B4A0B5B0BCA01B9012B813C8140E050E00E9443F22F3F3105410588
S284005E80510518F42223F9F001C02FEF89819A81BC0138813695049649815A81E4E03E9F400D511D11246417750748F4FC013291432F231708F4422F341B3083E9CFCD82DE82EF82F886A981BA814881842F86959D0154E0859F200D311D1124C901E0E0F0E0A817B907C0F413965C911397552359F02D913C9111972017310729F41296FD
S284005F002C9112972B15C1F0309719F02381521708F4FD011496E5CF40FD06C0309771F0838181110BC002C0309751F011830083B2828985838304C080E003C082E001C081E0CDB7DEB7E9E00C94D1F2FECE08950895CF93DF9360911B0270911C0280E090E0E1E0F0E09F01082E02C0220F331F0A94E2F740914104509142044623572311
S284005F8042235323452B11F16FB7F8944091410450914204209530952423352330934204209341046FBFFC01EE0FFF1FE956FD4FC081D181209739F486E090E89093710580937005F1DEFE01199504C001968E30910549F6DF91CF9108950E9482DD0E943CAF882371F02FB7F8948091410490914204806190934204809341042FBF81E06E
S284006000089582E00895A5DF60E070E08BE20ADD8091410490914204892B09F4D0DC209141043091420481E0232B09F480E0089590CF0895FC012081211105C021E02193CF010C94CDDF0895FC012081213021F41192CF010C94FDDF0895A5E0B0E0E3E3F0E30C94B8F27C012A833B834C835D836983EADFF7011082698163872A813B81BF
S2840060804C815D812783308741875287158704872596E6E00C94D4F20895813031F018F0823029F008952F9808952E9808952C980895279A269A249A2F9881E0EEDF82E0ECDF80E0089588E3E0EFF1E1DF011D928A95E9F7E1E1F2E182E080838AE0818312821382148281E085831682178285E080931B1247E850E069EF7AE48BE692E182
S2840061000E947AF347E150E062EE7AE489ED91E10E947AF343E050E06FED7AE486ED91E10E947AF343E450E06CE97AE488E292E10E947AF380E69CE0E6E7F5E0DF019C011D9221503040E1F70895A4E0B0E0EBEAF0E30C94BCF2BC011A8219821C821B828827811521E0920769F0811522E09207B9F0892BE9F4660F771F660F771F6A595C
S284006180764B07C07727660F771F660F771F6655774B44E050E0CE0101960E947AF30FC07727660F771F660F771F665E774BF1CF8AE090E69093710580937005F5DD69817A818B819C812496E2E00C94D8F27BDF53CA0895A4E0B0E0E0EFF0E30C94B8F27C018B01B2DFEE24E11422E0F20669F026E030E6309371052093700569837A831A
S2840062008B839C83D1DD7A816981F801718360832496E6E00C94D4F2A4E0B0E0E2E1F1E30C94B8F28C017B0190DFE114F10479F420E030E6309371052093700569837A838B839C83B1DD9C818B817A81698100270115110549F0011521E0120751F4AC01C7010E947AF30CC0AC01C7010E9490F307C081E090E6909371058093700594DD9B
S2840062802496E6E00C94D4F2A0E0B0E0EAE4F1E30C94B6F28C01EB0158DF6B017C01209739F484E090E690937105809370057CDD00270115110539F085E090E6909371058093700571DDA701BE01C6010E9490F3CDB7DEB7E8E00C94D2F2FC0193A5892F887090FF09C0882379F081E027A130A52236310550F408C0882331F081E027A1AC
S28400630030A52436310508F480E08170089521E030E001C0220F8A95EAF780914604822B809346042FB7F8948091410490914204806290934204809341042FBF0895CF93DF93E091F712F091F8128E179F0718F482E894E446C08E1B9F0B6CE670E00E941CF28091F212681718F083E894E439C08CE6689FE00DF11D11248781869590E093
S2840063808230910559F014F00397D1F58091F6128823B1F181508093F61232C08091F512882319F081508093F512DF01AC5ABF4FCD91DC912091FA123091FB12CE01821B930B63E270E00E941CF2C217D30718F484E894E406C08091F312681740F085E894E49093710580937005C6DC0CC0D90183E2689FA00DB11D11248C9181111C921A
S28400640087818E7F8783DF91CF910895CF93DF93EC011EA28CA19DA1892B39F484E494E49093710580937005BFDCECA1FDA1CE0186961995DF91CF910895EF92FF920F931F93CF93DF93A091F2124091F7125091F81220E030E090E09A1709F45AC0FA01E20FF31FB90164597F4FB781B0FD63C07F0194E5E90EF11CD7011D921C92823046
S284006480B1F010F08330F1F59091F6124091F412941708F03EC09F5F9093F612138214821582168290859F709087128235C01091F5129091F312191760F50091F9124091FA125091FB1290E09017B9F0EA014D5D5F4FBA0163527109DB016C9161110BC01F5F1093F51241E048836896D701CD93DC93428302C09F5FE7CF4091F91249138C
S2840065000BC007C081E894E490937105809370054BDC80E090E012C09085907F9087880F81608783118210828091F7129091F812820F931F03C09F5F9B018ECFCDB7DEB7E6E00C94D4F220915704215020935704BC0181E794E0A6DB81E0D9CE0F931F93CF93DF938C01C0914704D0914804809143049091440480519140813F954048F471
S284006580B80187E494E08EDBCD2B59F480E0BFDE08C083E694E4909371058093700504DCEFCFDF91CF911F910F910895BC016F50710983E794E076DB81E0A9CEBC016351710985E794E06EDB81E0A1CE209157042F5F209357040C94D38F6F927F929F92AF92BF92CF92DF92EF92FF920F931F93CF93DF931F92CDB7DEB78C017B01FB01F3
S284006600E25AFF4F83EA92E3918380833E9782E08083D80157968D919C9158973196918380839C968C919C97379680833196108231969B968C919B978095881F8827881F8083319681E08083319680839B968C919B9786FD0BC021E057968D919C915897883F9F4F08F020E0822F01C081E0F701E35AFF4F81708083C8012FDEF701ED5A7C
S284006680FF4F6F0197012C5A3F4F3901882309F442C09090A4134091A513242F30E08091A81390E001972817390739F4D80197968C91499D80191124982EA92CB12CC5014E968236910538F081E594E4909371058093700569DB3091A4132091A5138091BA139091BB13F80161A572A5329F600D711D1124A5014E960E9490F38AE0890DDE
S284006700D6018C938091BA139091BB134496F301918380830EC0D80197968C919797885F808399968D919C919A970897D9018D939C93F301C080D180D6012C912C7F2F7E2C93F8018789908D237F883F9F4F10F02860D6012C93F60180818F7D8083D8019B969C9192FD03C08F7B808322C08064F6018083D70118962C911897207F2160B6
S28400678018962C93C8012983A8DD29812F70882341F08091AA138295807F822BF701808708C08091D7118295807F822BD70118968C93C80192DDF60190818823A1F0906890839091A51380858C7F911106C0816080878091A813818709C0826080878091A513818703C09F77F6019083D80191968C919197F601818394968D919C91959774
S2840068009383828392968D919C9193979583848396968C918683C80160DD882331F08091A913D60117968C9308C080916E0491E0980F90936E04F6018783C7010996C6DE80E00F90DF91CF911F910F91FF90EF90DF90CF90BF90AF909F907F906F900895E091B813F091B913BF0180819181B5CEE7E9F3E1F0936813E093671392E090933E
S284006880631320910A1330910B1330936513209364139BE09093661310926B1310926C1391E090936D1390936E1310926F1321EA36E330937213209371139093701390819078926090689083909111139093981320910D1330910E1330939A132093991320910F133091101330939C1320939B1390910C1390939D139091121390939E132C
S28400690092E090939F13909108139093A013909109139093A1139091A21390938013109203131092041310920513109206138093FC128CE193E14ACEA4E0B0E0E2EAF4E30C94BAF2182FBE016F5F7F4F8AE190E063DC20915C0430915D0440915E0450915F04A12FB0E00E949CF209811A812B813C81600F711F821F931F2496E4E00C9422
S284006980D6F20F931F93CF93DF93EC018C0107551109FC013C970190F081E02D6FEF818192810E94F686882361F0FE01329783EA92E39183808323971882C8010E94C38F02C0CE01C0DDDF91CF911F910F91089569EF72E180E191E01FDC6AEF72E18EE092E0F8DB8091FA129091FB1220E03091F912231748F4FC0133E2239FE00DF11D56
S284006A00112410822F5FF3CF62EF72E18FE091E003DC67EF72E18DE092E0DCDB2091F212E091F712F091F81280E0821739F097819E7F97838F5FE459FF4FF7CF9091F9129093F312823008F081508093F4121092F5121092F61264EA73E188E291E0DCDB62E073E189E291E0D7DB61E073E188E191E0D2DB80910113882351F06DEF72E17F
S284006A808FE092E0A7DB6AEB73E180E192E0A2DB30910113209102138091FD129091FE12329F800D911D1124909300138093FF121092FC12089568E774E082E192E08ADB67E774E087E191E0A7DB80917704E0917804F0917904882349F0309739F489E294E4909371058093700546C99F0146E1849F200D311D1124C90128EAE817F907B0
S284006B0018F4258B7696FACF08951F93CF93DF93EC01162F0097B1F08D819E81892B91F087E494E083D81F83ED81FE81CE01079619958091470490914804892B59F080E0E6DB08C08BE694E490937105809370052BD9E6CFDF91CF911F910895A1E1B0E0E4EBF5E30C94ACF28C01262E29873A874B875C870E9486DBE091600429853A85DB
S284006B804B855C85EE2361F13090F212C0906304D0906404E0906504F09066042B013C014C185D086E087F084D825E826F827886E091F712F091F812198A66246A94762C430169827A828B829C8246015701861A970AA80AB90A8D869E86AF86B88A0BC002EF16E3A3C0A781A0FD09C0A989AF5FA98BE459FF4FB989B311F5CF40C0B085DA
S284006C00BF70B23099F7AA7FA23081F783809480A580B68081149104A104B10439F3E017F10721F34D805E806F807884481459046A047B0468F44D845E846F847888840C951CA61CB71C83829482A582B68204C0138214821582168283809480A580B68049805A806B807C8084149504A604B70408F0BCCF89829A82AB82BC82B7CF2110CC
S284006C8046C08090031390900413A0900513B090061381149104A104B104C9F12B013C014C185D086E087F08481459046A047B0488F4C80CD91CEA1CFB1CC61AD70AE80AF90AC0920313D0920413E0920513F092061308C0109203131092041310920513109206138091031390910413A0910513B091061349805A806B807C8084159505ED
S284006D00A605B70520F489839A83AB83BC8389819A81AB81BC81281739074A075B0710F4DA01C90102EF16E39C01AD0161E080E694E093D980E694E07DD96196E2E10C94C8F2809157048150809357048091FC12833009F43CC0823039F082E594E4909371058093700520D8E091A313EE2379F181E08093FC12A091D811B0E011972AE0CB
S284006D8030E00E9496F29B01AC018091580490915904A0915A04B0915B04280F391F4A1F5B1FA091D711B0E00E949CF29B01AC0160930313709304138093051390930613E150E093A31361E080E090E0C7CE1092FC12109203131092041310920513109206130895A4E0B0E0E8EFF6E30C94B4F22FEF3FEFA90110E0AA24AA94B12C8091B6
S284006E00F212181708F054C0E091F712F091F8128CE6189FE00DF11D1124678160FF46C07085872F8F70823009F040C0862F8A7F8230E1F583819481A581B681C0906704D0906804E0906904F0906A048C199D09AE09BF0983839483A583B6830097A105B105E9F4872F807F846080876E7F663059F4C5010090D81102C0880F991F0A944A
S284006E80E2F780958093A71381E029833A834B835C833DDA29813A814B815C8107C082179307A407B50710F49C01AD011F5FA7CF8091031390910413A0910513B09106130097A105B10551F1C0906704D0906804E0906904F0906A048C199D09AE09BF098093031390930413A0930513B09306130097A105B10559F482E029833A834B835C
S284006F005C83B6DC29813A814B815C8107C082179307A407B50710F49C01AD012F3FEFEF3E074E075E0751F002EF16E361E080E694E093D880E694E07DD803C080E694E083D82496EAE00C94D0F2A0E0B0E0EBEAF7E30C94B3F28C01962EC0917804D0917904809177046E0196E1899FC00CD11C1124F8018589811109C07E01F6E1EF0E97
S284006F80F11C58018CE0A80EB11C09C085E294E432C08A3A89F06696F6E1EF0EF11CF801CC15DD0508F04AC0908521853285F70131978081843A69F7F7013E9780819813EACF89859A852817390729F748E050E0B801CE010E9483F3892BE9F6F8018385F7013B9790818913D6CF813059F0833091F086E294E490937105809370050E94FD
S284007000BC2E1DC0F801248535858C859D852817390709F617C0F8019489F701329780819813B9CF48E050E0BE01645F7F4FC5010E9483F3892B09F0AECF04C0958A80E090E001C0CE01CDB7DEB7EBE00C94CFF2CF93DF93EC010097B1F18AEA8D8B0E94FA4F48E050E0BC01CE010E9483F3892B51F582E88D8B888581508E3F20F58B8564
S2840070808330C9F48C8981508E3FE8F42C853D854E855F85688979898A899B89A0E00E9417F371F480E194E490937105809370050E94BC2E08C0813019F086EA8D8B03C01D8A81E001C080E0DF91CF910895CF93DF93EC01009761F16FA74115510551F0FA01408151816281738148AB59AB6AAB7BAB04C018AA19AA1AAA1BAAEDA5FEA573
S284007100309749F484E594E490937105809370050E94BC2E0DC0CE018F961995CE01DDD8882331F01092B9131092B81381E0EFD8DF91CF910895A1E0B0E0E1EAF8E30C94BAF28C01FC01208131818091FA129091FB122817390740F487E494E490937105809370050E94D42EF801808191812091FA123091FB12821B930B63E270E00E94BA
S2840071801CF28091F312681750F088E494E4909371058093700569830E94D42E69818091FA129091FB12F3E26F9F800D911D11242196E4E00C94D6F2A3E0B0E0E2EEF8E30C94BAF28C01675F7F4F7A836983BE016D5F7F4F8DE090E01FD88B81D80197965C91979740916E04882309F442C089819A81FC01E95BFF4F21E0208357962D9149
S2840072003C9158973196318320833296585F50839996ED91FC919A979C01255B3F4F3897D901ED93FC938FEF8183D80194968D919C9195979383828392968D919C9193979583848396968C91868381E0840F80936E044783D901ED91FC918081807888608F778083E981FA81EB5AFF4F83EA92E344C089819A81FC01E95BFF4F22E0208321
S28400728031962DEF3FEF318320833296575F5083D8019996ED91FC919A979C01255B3F4F3997D901ED93FC93D80157968D919C9158979283818394968D919C9195979483838392968D919C9193979683858396968C91878381E0840F80936E044087D901ED91FC91808180788C608F778083E981FA81EB5AFF4F81EC94E391838083E98150
S284007300FA81D8019C968C919C97E15BFF4F8083E981FA81E05BFF4F8091D6118083E981FA81EF5AFF4F9B968C918095881F8827881F8083E981FA81EE5AFF4F81E08083E981FA81ED5AFF4F8083E981FA81EC5AFF4F808389819A8139D980E02396E4E00C94D6F2DC01ED91FC919093B9138093B8131092A5131092A6138091D711809393
S284007380AA132091A41330E087A190A5B9010E941CF2462F6093A81387A190A5B9010E941CF2892B19F04F5F4093A8138FEF90E00090D81102C0880F991F0A94E2F780958E7F8093A71380916E0491E0980F90936E048093A9130895A0E0B0E0E2EFF9E30C94B3F2EC016B01942E5901009178041091790480917704780196E1899FE00CFD
S284007400F11C1124209761F0C017D107F0F583E294E490937105809370050E94D42E35C0E801CE01801B910B66E170E00E941CF2892B79F084E294E490937105809370050E94D42E06C01D89143A39F01A3A29F06696CE15DF05B8F313C088859812F8CF89859A85C816D90699F748E050E0B501CE010E9483F3892B59F7143A49F703C0C9
S28400748080E090E004C0CE0102C06696CACFCDB7DEB7EBE00C94CFF24F925F927F928F929F92AF92BF92CF92DF92EF92FF920F931F93CF93DF931F92CDB7DEB72C017B010E94FA4F6C0157018AE6A80EB11CF501008111814114510431F0E114F10419F0C114D10451F484E194E490937105809370050E94BC2E88EA5EC058EAF20164A195
S28400750075A1960146A1C801598366DF8C015981009709F44FC0F20184899589892B19F5F8017384F3E07F121EC048018CE0880E911CC4010E947ABE892BA9F4F2017086D2011B9688E0F40101900D928A95E1F78CEE9AE3F201958B848BC20106960E9474BE80E028C0F50111830083F80183858330B1F4C8010C960E947ABE009711F4B8
S28400758059EABCCFF8012489F20121A3FC0180819181F201908F878BB701C2011ED80BC0F80184859585F201908F878BB701C20103DE01C0852F0F90DF91CF911F910F91FF90EF90DF90CF90BF90AF909F908F907F905F904F900895FF920F931F93CF93DF938C01035111092091F212C091F712D091F812F12CF216E9F08F8180FF16C058
S284007600888199818017910789F4BE01C80144DF882381F040E050E0682FC80158DDCE010E949F3181E00E94873104C0F394C459DF4FE1CF8091F212F81640F085E194E490937105809370050E94D42ECDB7DEB7E5E00C94D5F2EF92FF921F93CF93DF931F921F92CDB7DEB77B010097A1F06115710589F0FC01158A148AF701E659FF4F32
S28400768011821082B70108DF182F882389F0C7010E949F310DC023E134E4309371052093700589839A830E94D42E89819A81E2CF812F0F900F90DF91CF911F91FF90EF900895A1E0B0E0E7E6FBE30C94B8F28C01262FDC01ED90FC90009709F444C0E114F10409F440C02E3C61F0822F8F7D803D41F0213D11F082E005C0F70183A587FF37
S284007700FACF83E0F801EB59FF4F4081518162817381D701D0964D935D936D937C93D3979F962C93833071F0D801ED91FC918689811108C0F701158A148AB801C701ACDE883AE1F4A701405D5F4FD7019F966C91F80180819181BBDCC8010E949F3181E00E9487310BC08FE494E4909371058093700529830E94D42E2981B5CF2196E6E0C8
S2840077800C94D4F2CF93DF93EC0162DC882309F454C060E0CE01D9DB892BC1F5209709F43EC08D8981113BC050917704209178043091790440E0451781F0C9012A5E3F4FF90131976081683A31F424EAFC01258B009731F432C04F5FEECF8EEA8D8B2DC0209719F03D89332349F087E294E490937105809370050E94BC2E1AC036E1FE01FF
S284007800DC0101900D923A95E1F706C066EACE019CDB009791F024EAFC01258B09C080E294E490937105809370050E94D42EBCCF60E070E080E10E94122DDF91CF910895CF93DF93EC010097D9F08091780490917904C817D907A0F02091770436E1239F800D911D1124C817D90750F48D89843A11F08A3A71F488EA8D8BDF91CF910895E6
S28400788081E294E490937105809370050E94D42EEDCF82E294E490937105809370050E94D42EE9CFCF93DF93EC01D2DB882359F064EACE014ADB009731F0C2DF60E070E080E10E94122DDF91CF9108952091780430917904009751F0FC0176968091770496E1899F200D311D112408C0F901F6CF8589843A49F08A3A39F07696E217F307F3
S284007900B8F380E090E00895CF010895CF93DF93EC01BC0185E794E00E94522E1D8A1C8A81E00E948731DF91CF910895CF93DF93EC01BC0183E794E00E94522E198A188A81E00E948731DF91CF910895AAE0B0E0ECEAFCE30C94B2F210911B12BE01665F7F4F87E091E00E940C31BE016F5F7F4F8AE190E00E940C31C980DA80EB80FC8014
S284007980812F90E0A0E0B0E08C159D05AE05BF0578F0CC0CDD1CEE1CFF1CC982DA82EB82FC82BE016F5F7F4F8AE190E00E944431C12ED12C87E0C80ED11CEE24D7FCE094FE2CC0925C04D0925D04E0925E04F0925F042A8530E0A3E0B0E00E9487F29B01AC01C701B6010E9401F209811A812B813C81600F711F821F931F60935804709318
S284007A00590480935A0490935B0481E08887BE01675F7F4F87E091E00E940C31BE01685F7F4F84E290E00E940C31898590E0A0E0B0E0880F991FAA1FBB1F8F3F9105A105B10529F020F08FEF90E0A0E0B0E00E949C34E885EE2309F45AC0812C912C54018B019C0101501E4F2F4F3F4F800E911EA21EB31E660F771F881F991FE15081F72D
S284007A8018867501640129E0F694E794D794C7942A95D1F7D501C4019170AA27BB2741E050E060E070E0892B8A2B8B2B19F440E050E0BA01C40ED51EE61EF71E1E821D821F82BE01695F7F4F81E191E00E940C31BE016B5F7F4F88E092E00E94EA30970186010F3F11052105310529F020F00FEF10E020E030E06D817E81C12CEE24E3942B
S284007B0020E032E04F8189E494E00E94EC2E2A96ECE00C94CEF2882331F00E946CF380936E04109257041092760410927504109274041092730410927204109271041092700410926F048AE090E0A0E0B0E08093B1139093B213A093B313B093B41380E394E39093B7138093B61381E08093B51310920913109212131092071310920E13F3
S284007B8010920D131092081310920C131092101310920F1310920B1310920A13109211131092FC12109203131092041310920513109206138CE6E3E1F3E1DF011D928A95E9F783E2EFE7F3E1DF011D928A95E9F78091021390E0019620910113289FA001299F500D112460E070E08091FD129091FE120E94AAF387E993E19093681380933E
S284007C006713A4CE4F925F927F928F929F92AF92BF92CF92DF92EF92FF920F931F93CF93DF931F92CDB7DEB77C01009781F02C0127E0421A510880914704909148048415950529F4D20112968C91893149F086E694E490937105809370050E94BC2ECBC080914304909144048115B7E09B0709F07FC000917504109176040115110551F0EE
S284007C8085E794E00E94162E40E050E063EAC8011EDAEFCF6CE6C62ED12C7CE6772EE2E4AE2EE4E4BE2EF3E48F2EF4E49F2E00917104109172040115110509F444C0B80181E794E00E94222E8091F7129091F812F801E81BF90BCF01B6010E941CF28091F212681740F0B0927105A092700569830E94D42E6981E091F712F091F812679DD1
S284007D00E00DF11D1124808191812781269530E02130310561F02230310549F2232B61F4A8014B5F5F4FD80112966C9103C040E050E067EACCD9BBCF90927105809270050E94D42EB4CF10E08091F2121817D8F48091F7129091F812BCE61B9F800D911D1124FC01278120FD0E949F311F5FECCF8115924041F087E694E49093710580930A
S284007D8070050E94D42E109246041092450481E0C2DE0E94E8340E945B3582E393E09093440480934304D7018C91F201828787E494E00E94162ED20118968D919C911997892B41F489E694E490937105809370050E94D42ED2011896ED91FC911997C701039619958091470490914804892B19F080E00E9487310F90DF91CF911F910F91EF
S284007E00FF90EF90DF90CF90BF90AF909F908F907F905F904F900895CF93DF93C0914704D0914804209741F484E694E490937105809370050E94D42E8A818A38F9F0853C09F44FC0893109F06CC080914304909144048031914019F480E092E002C080E097E0909344048093430482E09EE39E838D83CE0103960E9492A65BC08091430470
S284007E8090914404823323E0920719F08031964049F48FE394E0909344048093430456DD1D8202C083EA8D8387E494E00E94162E8B819C81892B41F48AE694E490937105809370050E94D42EEB81FC81CE01059619958091470490914804892B51F180E018C080914304909144048F339440A1F480E095E0909344048093430482E090E066
S284007F009C838B8380E694E00E9424301092570481E00E9487310DC063EACE010E94853508C085E694E490937105809370050E94D42EDF91CF910895AAE0B0E0E2EAFFE30C94BCF2DC011396ED91FC9114972181328140E450E05A834983AE01495F5F4F5C834B8341E050E05E834D836F3FBFEF7B0719F437FF15C003C02617370789F020
S284007F8098878F837A876987BE016F5F7F4F8EE10E94122D81E02D813E81232B19F080E001C081E02A96E2E00C94D8F2009729F480915504909156040895FC01808191810895CF93C82FE0E0F0E0CF01EFDFFC01009739F0A381B4818C91C813F6CFCF0102C080E090E0CF910895DF92EF92FF920F931F93CF93DF938C01009741F480E319
S28400800094E490937105809370050E94D42EC0E0D0E0A1E3EA2EA4E4FA2ECE01C7DFEC01009789F18A818111F8CF8B819C81892B31F4F0927105E09270050E94D42EF80160A171A1CE0178DF882339F3EB81FC81D0806D2DF801878190850E94F6868823E1F2F801D18AED81FE81309749F482E394E490937105809370050E94BC2E03C0A6
S284008080C8011995CACFCDB7DEB7E7E00C94D3F2A1E3B0E0EEE4F0E40C94B2F28C01B62EDC015A96ED90FC905B9755966D917C915697F701478189E494E00E941E2F882309F414C1D70111968C919FEF980F9E3F28F477DF6C01009719F408C1C12CD12CF801228983899489213009F022E02F8399878887D70111968C918A8BF801858969
S28400810096890E947DBEFC01009799F083E08B8B708161815281438134812581968187817E8B6F8B588F498F3A8F2B8F9C8F8D8F02C082E08B8BD80155968D919C9156979D8B8C8B57968D919C9158979F8F8E8FF701868188A3848195819AA389A3828193819CA38BA359968C9190E09C012A5031093EA32DA319A6208127FD04C09C017C
S2840081802850310906C02085237029F49C01295031093EA32DA32DA13EA1821B930BF801228D338D280F391F38A72FA3BAA682A18BA7848D8CA7468D578D60A171A14DA75EA76FA778AB858D89ABD7018C9187FF48C018968C918370823009F042C0E091FF12F0910013808190E09EA38DA38080912CAA24A394B12C2091071330E0809170
S284008200FD129091FE12A216B3064CF5E091FF12F0910013EA0DFB1D408150E0209102132A9DB0012B9D700D1124680F791F880D991D0E9490F3E091FF12F0910013EA0DFB1D20818DA19EA1820F911D9EA38DA3BFEFAB1ABB0A8081880E911CCDCF98A78FA3C114D10449F0D6011596ED91FC911697CE010196199539C0F801828981306F
S28400828021F4CE010196B1DE31C0D70111968C918F3F41F5E12CF12CC70188DE7C01009729F1D7011396ED91FC9114978081882399F312968C918111EFCF69A17AA1C7013BDE882349F3D7011396ED91FC91149780818A8B1596ED91FC911697CE0101961995DACFCE0101960E94D8C5C8010E940632E196ECE00C94CEF2A1E0B0E0E3E8B3
S284008300F1E40C94B4F25C01DC015A960D911C915B97F80181812FEF280F2E3F80F4298350DE7C012981009751F0D80114966D917C91159701DE882309F405C105C02E3F08F401C1E12CF12CF801808187FF04C09085937009F0F7C086FFF7C08C70883009F4F1C0D50155968D919C915697883FBFEF9B0708F0E7C0E114F10421F0F7017F
S28400838022812111E0C0D5015A960D911C915B97F801208126FD02C090E0D2C02370213009F027E0F090F212E091F712F091F81230E0422F50E0B801640F751F3F15E9F0A781A530B1F4DF01AF5ABF4F0D90BC91A02D8A179B0769F4DF01AC5ABF4FCD90DC90C40ED51EDB01EC90D601DC90ED1499F23F5FE459FF4FE1CF82E029830E9452
S2840084001D322981009741F2FC01EC5AFF4F0190F081E02DDF0158973FEA11963C9311971396BC92AE92129762E0DC01A05BBF4F6C93D50155964D915C915697DC01AF5ABF4F11965C934E9317961C9211961C9231E011963C9311963C9311961C9243EA52E3129611965C934E9311973C9330813C7F32603083D8014C914C70337F342B65
S28400848030834C914295417040FB34F93E7D3F7B30834C9147FB442740F940FB37F930834C9130E0DC01AD5ABF4F7D0144FF0DC0D5015A964D915C915B97420F531FDA012C912183F701608337C048E04C93D80116964C911697418312964D915C9113975383428314964D915C9115975583448311964C914683D5015A964D915C915B970B
S284008500420F531FDA012C912783D8012C9127FF13C018962C91237031F41086F70120812F5F208309C0D7012C912D5F2C93D80118962C912370208709960E94E63291E081E08927A1C190E001C091E0F801808187FF92C18085837009F48EC1D5015A960D911C915B9759968C91F801F18420910113222309F487C196EFE92EE80E809153
S284008580FC12813009F456C030F0843008F06BC180E494E46AC1D084B1E0DB1274C12F1508F471C1809102138E1508F46CC190E00196289FA001299F500D112460E070E08091FD129091FE120E94AAF38FEA8093A213D092FC12F0920713F5018589968990930B1380930A13D80111968C91119780930C1312968D919C91139790930E1318
S28400860080930D1314968D919C9115979093101380930F1316968C9116978093111317968C91809312138091D7118093A31310920813F12CF8018085982F9370923011F0F11021C18C7F09F01EC1809107138F1508F419C120910A1330910B13D50155968D919C9156972817390709F00CC190910C13F8018181981306C120910D1330913B
S2840086800E13828193812817390709F0FCC020910F1330911013848195812817390709F0F2C09091111386819813EDC09091121387819813E8C0209108134091D8110F2D10E0822F90E0840F911D081719070CF0DAC08F2D642F0E9410F2D92EF21668F48F2D891B8093081321E030E001C0220F4A95EAF7219520930913209102138091D4
S284008700FD129091FE124E2D50E0D5015A966D917C915B97665F7F4FF29E800D911D11240E9490F3E091FF12F0910013E00FF11FE08270910813209107137F1111C09091D811822F8F19981708F4892F41E050E0082E01C0440F0A94EAF741954093091341E050E00D2C01C0440F0A94EAF760910913642B609309136F3F79F4FF24FA9496
S284008780F70E822F90E04091D81150E0871B9109481759070CF4CA01F80E8F2D90E030E0215031098217930751F46F3F21F483E00E94383463C082E00E94383464C0A091D811B0E011979D01270F311D8217930711F06F3F09F582E00E943834809109138F3F09F050C08091D81190910813980F909308132091071321502F19821708F452
S284008800282F81E090E0022E01C0880F0A94EAF781958093091337C02AE030E00E9496F29B01AC018091580490915904A0915A04B0915B04280F391F4A1F5B1FA091D711B0E00E949CF29B01AC016093031370930413809305139093061361E080E090E00E94AE3510C083E594E490937105809370050E94D42E07C0992329F06FEAC501FD
S28400888007DC80E001C081E02196EAE00C94D0F2A7E3B0E0EEE4F4E40C94ACF2A0904304B090440420E1A21621E0B20609F469C12DE4222E24E4322E88248394912C81E794E00E94162E7C01009709F45AC10091F7121091F812C701801B910B6CE670E00E941CF28091F212681748F089E494E490937105809370050E94BC2E42C13CE641
S284008900639F000D111D1124D80117968C91B0E1AB16B6E0BB0621F0A114E5E0BE0699F58E7F843019F5C8018C5A9F4F0E949B386C01DC0111966C91119712968D919C911397892B51F4EAE4F4E4F0937105E09370056CAB0E94D42E6CA9D70112968C91811104C0F6018281938192DBA7014B5F5F4F63EAD8018D919C910E946738C7010B
S2840089800E949F319CCF8695482E512CB1E04B165104B1F054F4452809F0EAC0D70112966C91C8010E94613B8ACFF2E04F16510409F4BBC023E04216510409F47BC0D8C0F80180858F70813009F079CF60807180D70119968C910E949C349B01AC01C090D711D12CF801808582958F70C81AD108D70112966C9161111EC02FAB3CAB4DAB3D
S284008A005EAB0E946CF3FC01F170D20102C0AA0FBB1FCA94E2F72FA93CA94DA95EA90E94A6F26E0F7F1F811D911DF80163837483858396832DC06E3C59F0603F49F0603D39F0613D91F4D3019B968C9187FF0DC0A7014B5F5F4FC3010E946738C7010E949F3181E00E9487318CC00E946CF39170E8EEF3E002C0EE0FFF1FCA94E2F78E0F20
S284008A809F1FA0E0B0E0F80183839483A583B683D80118968C911897807F826018968C93189713962D913D914D915C91169760E0C80102C2F80180858F70813009F0FFCE2091A51330E08091A81390E001972817390709F4B5C1E091D8117091A713272F30E080E090E0682F8E1708F0A9C10196A901062E02C0559547950A94E2F740FFB3
S284008B00F2CFC401062E01C0880F0A94EAF7809587238093A7138091A613860F8093A5138BEA93E10E94CDDFCACEC8018C5A9F4F0E949B388C01DC0111966C91119712968D919C911397892B41F430927105209270056CAB0E94D42E6CA9F8018281938197DAC7010E949F3181E00E948731A7CE2EE434E430937105209370050E94D42E43
S284008B809ECE1BAA1AAAA6ED4A2EA2E35A2EBFEA2B2E13E0312EAA24A394B12C66246A94712C95E4892E94E4992E83E794E00E94162E8C01C0904304D0904404009761F1D80150968D919C915197892B09F077C15A96ED91FC915B9780818370813009F06EC18281853009F46AC155968D919C9156970E947DBE892B09F061C122E0F801E5
S284008C0024838589968996838583518A408AC80102960E9474BEC9CFC1FE11C050E5C52E54E4D52E62E0462E72E1A72E74E4B72EE8E05E2EFEED8F2EF2E39F2E3BC000917504109176040115110509F458C0B80185E794E00E94222E40E050E063EAC8010E946738ECCF8689833081F57801F9E1EF0EF11CC7010E947ABE892B39F5D8019C
S284008C801B96F701852D01900D928A95E1F7D80156968C91569718968C93189755969C928E925497C80106960E9474BE85E794E00E94162E009175041091760401151105F1F0F80184899589892B69F28091B8139091B913892B09F4BCC2C8010E946D31882309F4B6C2C8010E946D31882309F4B0C2F8010081118101151105A1F78091F5
S284008D004304909144048115B5E09B0721F08031F6E09F0769F5F12C0EC02CE6F29E80011124E091F712F091F812E00FF11F8781833031F0F3948091F212F81670F320C080858F70843011F08230A1F740E050E063EA808191810E9467388091F7129091F812800F911F805A9F4F0E949F31E2CF8F33944029F4F12C8091F212F81648F037
S284008D8080914304909144048115954009F07EC351C00091F7121091F8128CE6F89E000D111D1124D80117968C91179780FF40C018969C911897292F2F702430C9F5282F2A7F2230A9F5907F79F19160905118969C938E7F823071F4C80109960E94E632F801238134814581568160E0C8010E94AE351EC08630E1F48091A7138E7F8093A8
S284008E00A7138091A6138093A5138091AA1381508093AA13E091B813F091B913BF01808191810E94ED3204C067EAC8010E94613BF394A2CF80915704882309F4A8C226C3F70181850E949C349B01AC01A091D711F801808582958F70A81BC40102C0880F991FAA95E2F7DC010E94A6F26B017C010091B8131091B9130E946CF39170C80E5F
S284008E80D91EE11CF11CD8011396CD92DD92ED92FC921697E091B813F091B9138085807F826080878091B8139091B913FC01238134814581568160E00E94AE3500CDD8015A96ED90FC905B97BFE3CB16B4E0DB0669F0D7018C918370813041F0F80183A1811104C0C8010E940632A4C1D7014C91642F607446FF11C05091F5122091F21275
S284008F0030E08091F61290E0850F911D821793074CF78091F312581728F7242F2C70243009F3662331F0842F83708230D9F243FDD9CF45FDD7CFF801D288F1E0DF1671F032E0D312CFCF4370842F90E0009721F0029709F47AC0C6CF2C3031F0C801CDD9882309F467C1BECFD80155966D917C915697F701408589E494E00E941E2F8823EC
S284008F8009F4B0CFD80159968C91893008F4AACFB1E0BF83F7018181928199878887D80155968D919C9156970E947DBEFC01009791F03B8A708161815281438134812581968187817E8B6F8B588F498F3A8F2B8F9C8F8D8F01C0DB8AF801858996899D8B8C8B8789908D9F8F8E8FD70117968C91179788A315968D919C9116979AA389A321
S28400900013968D919C9114979CA38BA3818D90E009979EA38DA3828D938D099698A78FA319A62AA682A18BA7848D8CA7868D978DA0A1B1A18DA79EA7AFA7B8AB858D89ABCE0101960E94F53F4DCF423031F090927105809270050E94D42EC090F712D090F8128091F212F6012CE6829FE00DF11D1124CF01C816D90608F034CFD6011796BB
S2840090806C91179760FFD2C018962C9118972F70223009F0CBC0F601EC5AFF4F0190F081E02D2D913C91D80155964D915C915697D90157962D913C9158974217530709F0B5C0D70117963C91179727813213AEC014964D915C911597248135814217530709F0A4C012964D915C911397228133814217530709F09AC011963C911197268119
S284009100321394C016963C91218132138FC06E7F623031F4F6018085807F836080873FC0663009F083C0D70119969C9119978091A6139813D7CE6091D811262F30E0C501062E01C0880F0A94EAF781951A969C911A97982B1A969C931A97F6018085807F836080871A96EC91EF3F99F54091A81350E07091A613E70FCA01871B9109281743
S28400918039070CF4C9018E0F8093A51390E0415051098417950741F4C6010E94B23960E0C6010E94613B9ECE760F7093A6138091D7118093AA137093A513930102C0220F331F6A95E2F7B90160956E7F6093A71323C0E095E093A71380E090E02E2F30E0782F8617C8F40196A901072E02C0559547950A94E2F740FFF3CFC501072E01C079
S284009200880F0A94EAF780958E238093A7138091A613870F8093A513E091B813F091B913BF01808191810E94ED325CCE3CE6C30ED11C20CFD8015C968C915C978AAB5D968C918BABBE016E5C7F4F8BE30E94122DACCCC8010E946D31882361F08091BA139091BB13892B09F4BDC0D8019B968C9182FFB8C0F80187A190A58536910518F0BC
S28400928083A583FFB1C0D80196963C90332031F0832D0E94E13F892B09F448C0F80183A52689382F347082FF0AC0223031F48789908D883F9F4FD0F502C02130B9F18EEF820F823038F4D80191968C91815F8E3068F18CC021118AC0332309F487C0F80164A075A087D67C01009719F080E090E00CC0B0927105A09270050E94BC2E76C032
S284009300DC011B962C91213089F09701432DB3010E94EC390097A1F769C0813008F475C0823009F49AC0833009F48AC026EAE12CF12C612C712CB80185E794E02FAB0E94222E2FA921111CC0E114F10431F4D0927105C09270050E94D42EF30111830083C8010E946D31882319F0C3010E94B239B301C801F7011995282F882309F49ACC71
S28400938040E050E0622FC8010E94673893CC0091470410914804F8018281853C41F08DE694E490937105809370050E94D42ED80113968D919C9114978D7F14969C938E931397892B09F062C080E00E948B3D80E196E0909344048093430460E0C8010E94853554C02AEAA3CF20EAA1CFD80156968C91813009F091CF80E00E941D323C0167
S2840094003CEDE32E38E3F32E0DC0C8010E946D31882371F083E00E941D323C014BE2E42E4BE3F42E6114710409F469CC20E083CFF80183A582FF02C081E0EDCF80E0EBCFC80149960E947ABE0097F1F0DC018D919C91F801908F878B468AC8010E946D31882311F083E008C0D8019B968C9182FF02C081E001C080E00E941D323C012DEE35
S284009480E22E22E3F22ECECF29EA51CFE796E2E10C94C8F2AFE1B0E0E0E5FAE40C94B9F2009749F485E495E490937105809370050E94BC2E82C0FC012081233009F07DC0218132813A83298328E03396DE01139601900D922A95E1F7FC0123852B87248535853D872C8728E03E96DE011E9601900D922A95E1F7FC01218D2D8F238D2E8FD5
S2840095000789108DF688F6E0FF1508F056C0F8018081982F9370933009F04FC0807E09F04CC08181811149C0BE01615E7F4F84E190E00E940C31F801208126952695277030E08F8D90E028173907B9F58281982F9370933091F5982F907F79F58C708C3091F481E08B87F8E0FF1538F5F801838194819F878E876FEF0E94F6868823E9F034
S284009580F80129E003C0F801329727E085819681998F888F878190859F8B8E8BF21AFA8E020F111D1C8F0B8FE0915304F0915404309719F0CE01019619956F96E5E00C94D5F280E191E090934404809343041092480410924704109246041092450410925604109255040E94E8340C94B1A6CF93DF93EC016DE172E085E20E94912D6DE1E3
S28400960072E088E30E94912D209749F480E694E490937105809370050E94BC2E05C089E18A83CE010E94AE32DF91CF910895009741F481E694E490937105809370050C94BC2E2AE8FC0122830C94AE32009741F482E694E490937105809370050C94BC2E25ECFC0122830C94AE32CF933091F9128091FA129091FB1220E0231751F083962E
S284009680FC01B3974081442311F081E029C02F5FF4CFC0E08091F212C817E0F40E940C2D9CE6C99F900111244091F7125091F812FA01E20FF31F882341F0878180FF08C080858F70823021F0E0CF878180FDDDCFCF5FE0CF81E09091FC12911101C080E0CF9108951F93CF93DF93EB01853239F41881BBDF91E09827912398831FC0883383
S284009700E9F438814091F212E091F712F091F81280E0841771F0278120FF07C090859F70923019F42A7F223031F08F5FE459FF4FF0CF80E001C081E0832B8883DF91CF911F910895FC01808184FD0C945B350895A2E0B0E0EEEAFBE40C94BCF2E0914504F09146042F2F30E09E2F9F5F983008F090E0692F70E0A901092E02C05695479548
S2840097800A94E2F740FF26C09093450481E090E0062E01C0880F0A94EAF78F2780934604660F771F6058744B42E050E0CE0101960E947AF389819A81892B41F480E094E490937105809370050E94D42EE981FA81199504C0E913C9CFE093450480914604882361F02FB7F8948091410490914204806290934204809341042FBF2296E2E041
S2840098000C94D8F280912312853091F028F4882349F0823069F004C0843141F0863141F080E0089580911C128B3010F488E0089582E00895833014F083E01BC096E0980F923010F48BEF15C098E0980F923010F489EF0FC09AE0980F923010F487EF09C09EE0980F943010F484EF03C0823F0CF48FEE809321120895C5DF282F220F220F47
S284009880280F30E0A90160E8869F400D511D1124CA010895809123128530E9F028F4882349F0823079F004C0843189F0863189F080E0089580911C12882349F08B3058F489E1089580911C12811105C002C082E3089588E2089580E10895CF93DF93EC01D9DFE82F9E01A0ECB3E00E9487F29B01AC01AE2FB0E00E949CF228EE33E040E077
S28400990050E00E9443F2CA01B901DF91CF910895CF93DF93B1DFEC01BDDF282F2C9FC0012D9F900D1124BC0180E090E028EE33E040E050E00E9443F22F5F20931B12DF91CF910895CF93DF938BE080931C1280E098EFAFEFB7E080931D1290931E12A0931F12B093201261E272E183E090E00E940C31809121125EDF61E272E183E090E087
S2840099800E944431C1E0C09322121092231274DF909325128093241235DF94E0899F800D1124809326122EDF8093271286E390E0A0E0B0E08093F0119093F111A093F211B093F3111092F4111092F511C093F6111092F8111092F7111092F9110E946CF38093FA11EBEFF1E18FEF80838183828383838483858386838783CFEFDFEFD0938B
S284009A000412C09303120E946CF38093051285E08093061284E08093071283E08093081280930912D0930B12C0930A1280E280930C1210920D1210920E12D0931012C0930F121092191210921A1262DFDF91CF910895A4E0B0E0EFE2FDE40C94BCF2DC014C9150E0CA01805491098434910508F0D7C0865A9D4DFC010C9481F211968C9161
S284009A808093F51108C011968D919C9112979093F8118093F71180E00DC111968C91853308F007C18093F911F6CF11968C918093FA11F1CF11968C9111978093FB1112968C9112978093FC1113968C9113978093FD1114968C9114978093FE1115968C9115978093FF1116968C9116978093001217968C9117978093011218968C918093C4
S284009B000212C9CF11968D919C9112979093041280930312C0CF11968C9180930512BBCF11968C91863008F0C4C080930712B3CF11968C9190910612981708F4BAC080930912A9CF11968D919C91129790930B1280930A12A0CF11968C9180930D129BCF11968D919C9112979093101280930F1292CF11968D919C911297AFDE69837A8366
S284009B808B839C83BE016F5F7F4F03C0BD016F5F7F4F82E090E071C011967C91119712966C91129713965C91139714964C91149715963C91159716962C91169717969C91179718968C91709311126093121250931312409314123093151220931612909317128093181257CF11968C918093F41152CF11968C91883008F05BC080930812A4
S284009C004ACF11968C9180930C1245CF11968C918093061240CF11968C9180931A123BCF4830510508F043C042565D4DFA010C9481F28BEF3FC011962C9180911D1290911E12A0911F12B0912012022E04C0B695A795979587950A94D2F780FF2AC020931C1223C011968C9190E2980F903408F5E1DD61E272E183E090E00E9444310BCF49
S284009C8011968C918430A8F48093221204CF11968C91853041F018F4833058F404C0843111F0863131F48093231232DEF4CE84EF01C088EE2496E2E00C94D8F2A4E0B0E0E4E6FEE40C94AEF2609007126091061270E0E0910912F0E0262D30E0CB018E1B9F0B281739070CF4C901AA2797FDA095BA2F0097A105B10521F481E090E0A0E017
S284009D00B0E0712CC12CD12C76018C019D01015011092109310942E0442E512C872C912CA12CB12C081519052A053B05B0F0AF01470D511D41505109520102C0AA0CBB1C4A95E2F74501AA2497FCA094BA2CC80CD91CEA1CFB1C7394E1CF262D30E040E050E0281B390B4A0B5B0B61507109A2E0B0E002C0AA0FBB1F6A95E2F711970E9423
S284009D80A6F29B01AC012C0D3D1D4E1D5F1DA4E1B0E00E949CF29B01AC0169833A834B835C836ADD29813A814B815C81280F391F411D511D29833A834B835C836BDDA82FB0E029813A814B815C810E949CF228EE33E040E050E00E9443F2CA01B9012496E0E10C94CAF256DDE82F20910C1230E0A0ECB3E00E9487F29B01AC01AE2FB0E0A7
S284009E000E949CF228EE33E040E050E00E9443F2CA01B9010895A4E0B0E0E1E1FFE40C94B6F28C01FC01408150E0FA01E054F109E434F10508F0ADC0EA55FD4D0C9481F28091F511F801818380E0D0C08091F7119091F811BEC08091F911F4CF8091FA11F1CF7091FB116091FC115091FD114091FE113091FF112091001290910112809155
S284009E8002125BC08091031290910412A2C080910512D8CF80910712D5CF80910912D2CF80910A1290910B1294C080910D12CACF80910F12909110128CC0BE016F5F7F4F82E090E00E940C31C980DA80EB80FC80C114D104E104F10491F0DCDC282F30E0A0ECB3E00E9487F228EE33E040E050E00E9443F2C701B6010E9443F202C024EF4D
S284009F0031E0F801328321839FCFBC016F5F7F4F82E090E00E940C3197CF7091111260911212509113124091141230911512209116129091171280911812F801718362835383448335832683978380877DCF8091F41178CF8091081275CF80910C1272CFFC01118271CF8091F0119091F111A091F211B091F31126C08091061263CF8091D6
S284009F801A1260CF30DFF80161837283838394835BCF4830510548F5FA01E651FD4D0C9481F280911C124ECF809121124BCF8091221248CF80911D1290911E12A0911F12B0912012F80181839283A383B4833CCF53DCF8019283818337CF14DCF4E08F9F800D11242FCF0EDC2DCF84EF2496E8E00C94D2F281E192E1089548E050E0BC018A
S28400A00081E192E10E9483F321E0892B09F020E0822F0895CF92DF92EF92FF92CF936B017C01F0DBC82F36DC2C2F30E0A82FB0E00E9487F29B01AC01C701B6010E9401F228EE33E040E050E00E9443F2CA01B901CF91FF90EF90DF90CF9008952FB7F8948091BE049091BF0494609093BF048093BE043FB7F89480917A0481110FC04FB7A7
S28400A080F8948091410490914204816090934204809341044FBF81E080937A043FBF2FBF0895BC018CE794E00E94522E80917B04811101C0D3CF0895FC011282F2CF21E0FC012283EECF22E0FC012283EACF23E0FC012283E6CF25E0FC0122831186108622E02783DECFA1E0B0E0E9E7F0E50C94BBF210927D0410927C045AD11FB7F89494
S28400A100CE0101960E94BCD4811104C082E080937B0402C010927B041092BF041092BE041FBF2196E3E00C94D7F2A2E0B0E0EBE9F0E50C94BAF21FB7F89410927A04CE0102960E94BCD4882339F080917B048230C9F410927B0416C081E090E00A8002C0880F991F0A94E2F7809590952091BE043091BF04282339233093BF042093BE04E9
S28400A18080E001C081E01FBF8111BAC081E080937B048A818A3029F500917C0410917D042091290230912A0241E050E00115110539F4CE0101960E94BCD481114BC033C0CA01F801028002C0880F991F0A94E2F782239323892B09F065C0F80100811181E5CF90E08C30910520F7FC01EE50FD4D0C9481F2B0D214C0B7D212C026D410C0A3
S28400A200C1D30EC05AD30CC00E9441D209C00E94C5D106C03DD104C00E9410D201C0A5D0811127C0C6CF2FB7F89480917A0481110FC03FB7F8948091410490914204816090934204809341043FBF81E080937A042FBF56C080918504811152C080917C0490917D04892B11F0F9DE4AC010927B0447C0813009F044C04FB7F89421E030E0B1
S28400A2800A8002C0220F331F0A94E2F78091BE049091BF04822B932B9093BF048093BE044FBF2EC0B8018CE794E00E94222EF801428150E04930510508F07BCFFA01E250FD4DC8010C9481F293D393E002C03CD394E09A83A5CF87D295E0FBCF0E942DD296E0F7CF0E94A2D192E0F3CFB5D098E0F0CF0E94F0D199E0ECCF06D09BE0E9CF8F
S28400A3002296E4E00C94D6F2CF93DF93EC0118868B819C819C01215031092F333105C8F4805C9E4F9C838B838A81873031F0883081F4CE010E946EAF03C0CE010E9454AF882339F0813061F4D093BD04C093BC0407C01886EE81FF81CE010896199580E080937E04DF91CF910895CF93DF93C091BC04D091BD048A81873031F0883041F44C
S28400A380CE010E946EAF07C0CE010E9454AF03C081E0888702C0811106C0EE81FF81CE010896199580E080937E04DF91CF910895AEE0B0E0EEEDF1E50C94BAF20E9488AF82E088871E861D861A86198681E08F83CE0101960E94B6B28B859C850E946FF373D00E9455D285D2ECD26AD30E94EBD168D00E942AD28EE48983809107128A838C
S28400A400CE0101960E947BB38FE48983809109128A83CE0101960E947BB389E58983809108128A83CE0101960E947BB380E589830FEF1FEF1B830A83CE0101960E947BB383E589831B830A83CE0101960E947BB32E96E4E00C94D6F21F93CF93DF93EC010E94B6B2182F882339F0813051F4D093BD04C093BC0405C0EC85FD85CE0108963E
S28400A480199510937F04812FDF91CF911F9108951F93CF93DF93C091BC04D091BD04CE010E94B6B2182F811105C0EC85FD85CE010896199510937F04812FDF91CF911F91089510927F040895A2E0B0E0EAE6F2E50C94BCF267ED76E180E092E00E94EA30BE016F5F7F4F80E091E00E940C3129813A818091D7169091D8169093DC168093DE
S28400A500DB169093DE168093DD169093E0168093DF16280F391F3093E2162093E1161092DA161092D91663EE76E183E292E00E94EA30BE016F5F7F4F8EE291E00E940C3129813A818091E3169091E4169093E8168093E7169093EA168093E9169093EC168093EB16280F391F3093EE162093ED161092E6161092E5162296E2E00C94D8F2E6
S28400A5809CE0899FF0011124E952F94E86819781019608959CE0899FF0011124E952F94E4FB7F894A681B7818C9190E001968A0F9B1F978386831C9226813781808591852817390751F484819581918780878081918195838483978386834FBF08959CE0899FF0011124E952F94EA681B78182819381A817B90721F081E09C91911101C077
S28400A60080E0089581E0EBDF8823F9F08091BE049091BF0481609093BF048093BE042FB7F89480917A0481110FC03FB7F8948091410490914204816090934204809341043FBF81E080937A042FBF80E0C8DF8823F9F08091BE049091BF0482609093BF048093BE042FB7F89480917A0481110FC03FB7F89480914104909142048160909311
S28400A6804204809341043FBF81E080937A042FBF0895A6E3B0E0EFE4F3E50C94BBF2182F6FDFFC01208130E0DC01A20FB31F12968C912F5F3F4F2E0F3F1FD9016C91813220F4811103C081E001C080E26295669566956370689FB00111248FEF869FA001879F500D1124CA0160E670E00E941CF2D9016C93BF01CE0101960E94A4D2882319
S28400A70019F18A81982F977029F4807619F48B818C70B1F020911B0230911C022E7F30931C0220931B02CE010196A4D420911B0230911C02216030931C0220931B0204C080911C12898FE6CF812F24DF80E0E696E3E00C94D7F281E042DF882311F081E098DF50DF80E0089580E039DF882311F080E08FDF47DF80E00895A9E0B0E0E3ECA6
S28400A780F3E50C94B9F28C018091820465E0813029F4C0D0F82E811121C01EC080E0BAD0F82E81111BC0F8018381898388E03496DE01129601900D928A95E1F7CE0101960E947BB3F82E80918204823039F480918104AFD065E09ED0109282048F2D2996E5E00C94D5F2A9E0B0E0E9EFF3E50C94BAF28C01DC0113968C91813530F48E3443
S28400A80080F48823D1F09EEF09C08F36B1F028F4833599F08935D1F40CC090E1980F9330A8F4813F41F4F801948120918004921339C091E00CC08935E1F39091F31690938104963119F492E09093820490E020918204211111C0911113C0898388E0F8013496DE01129601900D928A95E1F7CE0101960E947BB302C0C8017FDF811108C031
S28400A880D8011C96ED91FC911D97199580E004C01093BD040093BC04809383042996E4E00C94D6F2909380049091F31690938104963109F0BECF91E0C7CFA1E0B0E0E3E6F4E50C94BAF20091BC041091BD04C80154DF811108C0D8011C96ED91FC911D97898319958981809383042196E4E00C94D6F2109283041092820410928004089587
S28400A900882331F0813011F083E0089586E1089589E108956093BC13F3DF0C9418B4882331F0813011F088E0089586E1089589E108958850823130F4E82FF0E0ED54FD4F8081089588E008951F93CF93DF93EC011091F3168B81E3DF181729F064E08B81D9DF811105C0EC81FD81199580E004C0D093BD04C093BC0480938404DF91CF9104
S28400A9801F910895A1E0B0E0E8ECF4E50C94BAF20091BC041091BD0464E0D80113968C91B9DF811108C0D8011496ED91FC911597898319958981809384042196E4E00C94D6F2109284040895CF93DF93EC0163E080E0A0DF811109C082E080938504CE0103960E94E6D30E9476B4DF91CF910895CF93DF93EC0189AD83DF8093F116D09322
S28400AA00BD04C093BC04809108128093BD130E946CF39093BF138093BE138091F316893151F482E080938504CE0103960E94E6D30E9476B405C081E080938504CE01C4DF80938604DF91CF910895A2E0B0E0EBE2F5E50C94BAF20091BC041091BD0480918504813021F4C801AFDF811123C00E941FAF0E94F6AE1A8219820E94AAB2D80189
S28400AA80DC968C93DC97DA96ED91FC91DB97C801CC9619958091081290E02091BD13821B91099A838983BE016F5F7F4F8DE30E94122D80E0809386042296E4E00C94D6F2109286041092850408958091BD1381508093BD130E94A5DD63E080E01BDF81110CC08091BC049091BD0422E02093850403960E94E6D30C9476B481E08093860429
S28400AB00809385048091BE049091BF0488609093BF048093BE0408952FB7F8948091410490914204846090934204809341042FBF0895BC0180E796E10E94522E80915F1681110CC02FB7F8948091410490914204846090934204809341042FBF0895CF93DF93DC0112964C9150E0FA013197E031F10508F053C0E95FFC4D0C9481F2DC0122
S28400AB801C96ED91FC911D970E963DC0DC011B96ED91FC911C970D9636C0DC011796ED91FC91189709962FC0DC015196ED91FC915297439628C0DC015396ED91FC9154974596199543C0DC011996ED91FC911A970B9619C0DC011E96ED91FC911F97409612C0FC01C08DC470D0E0018CF28DE02D4B961995CD2B51F511C0DC011496ED9120
S28400AC00FC9115970696199509C08091D0168E7F03C08091D0168D7F8093D01610925F162091D0168091701690917116892B11F4222361F02FB7F8948091410490914204846090934204809341042FBFDF91CF910895CF93DF9380915F16882319F0833009F06AC08091D016882389F080FF09C08FE080935F160E94B06461EF0E94086304
S28400AC805BC080E180935F160E9462D855C080912B02882309F450C0C0917016D0917116209709F449C080E796E10E94162E8A8180935F16D0936216C09361168A8190E0FC013197EE30F10518F5E95EFC4D0C9481F20E94F9601AC00E94D36017C05CD415C0C7D713C0AAD411C00E94C2D60EC00E9409D70BC00E94C66208C0EED006C037
S28400AD0052D304C00E946ED901C01ED4811114C010925F168091701690917116892B61F02FB7F8948091410490914204846090934204809341042FBFDF91CF91089527E0FC012283F6CE28E0FC012283F2CE2BE0FC012283EECE22E0FC012283EACECF93DF93EC018B81882331F183E08A8380935F1610927116109270161092D0166CE204
S28400AD8072E085E20E94912DBE0180E796E10E94522EA9D983E696E10E94FDDF2FB7F8948091410490914204846090934204809341042FBF04C084E08A83CE01BADEDF91CF9108952AE0FC012283B3CE25E0FC012283AFCE21E0FC012283ABCE26E0FC012283A7CE2CE0FC012283A3CE2DE0FC0122839FCE20915F16233011F00C9471A2D9
S28400AE00089520915F16233011F00C94FBAA089520915F16233011F00C94939E089520915F16233011F00C9449AE089520915F16233011F00C9440A6089520915F16233011F00C9421AE08958091D01681608093D01680915F16811101C05ECE08958091D01682608093D01680915F16811101C053CE089520915F16211104C021E120936E
S28400AE805F161DC308958091D016811105C00E941B6691E0982701C091E0892F08951F93CF93DF93EB011881EEDF91E0982791239883DF91CF911F910895CF93DF93C0916116D0916216FC0180810E94D1D88CA3CE0145DEDF91CF9108951F93CF93DF93C0916116D091621680910A1290910B12998B888B13E01A8B7DD8DE01539628E06D
S28400AF00FC0101900D922A95E1F71B8F8B818C8F8C818D8F8D818E8F8E818F8F8F8188A3888589A389858AA38A858BA38D85811105C01CA2CE0113DE80E077C08BE080937F168091051291E0980F9093051280938216809180168078209181162C6083628F77809380162C7C209381168FEF9FEF9093841680938316EB817C816D815E8170
S28400AF804F81388599858A85E09385167093861660938716509388164093891630938A1690938B1680938C16206C2093811680910A1290910B1290938E1680938D161AD828E0FC01AFE8B6E101900D922A95E1F780910A1290910B12909398168093971680910F129091101290939A16809399168B859C8590939D1680939C1680911C12CB
S28400B00080939B168DE597E59093B7168093B61680910D12882311F081E001C082E08093B5168CE796E148D881E0DF91CF911F910895A8E0B0E0EFE1F8E50C94BCF2FC018281807C81F08089898381898A8382898B8383898C8384898D8385898E8386898F8387898887CE010196E0DE2896E2E00C94D8F2EF92FF920F931F93CF93DF93E0
S28400B080EC018A81807C8038C1F4AE014C5C5F4FBE016D5C7F4F888999890E949FD7811144C0488150E0FA013197EB30F10508F03CC0EB5DFC4D0C9481F2803C91F7288939894A895B896C897D897E0184E3E80EF11C8E010D5C1F4F8E899F890E94DDD7DECFCE018DD621C0CE01ADD01EC0CE010E9499D61AC0CE010E9419D716C08DA9EB
S28400B10080FD05C0CE010E94BE6481119DDECE0173D00BC0CE018DDF08C080911A12882321F09DDE02C0CE01A7D7CDB7DEB7E6E00C94D4F281E080931A12089510921A12089583E0809360161092CC166EEA78E58CE796E10C94EF62F4CF08958091611690916216FCDC109260160895A3E0B0E0ECEBF8E50C94BCF281E18B83CE0101969F
S28400B180EEDC2396E2E00C94D8F2CF93DF93C0916116D0916216FC018081833028F4813048F00E94D1D803C0833001F58BEE888BC8DF1CC08BEE888B81E080936D168CEA98E590936F1680936E160E945E4E6093691670936A1680936B1690936C1682E08093601683E696E10E94CDDFDF91CF910895109260160895AEE0B0E0E2E0F9E580
S28400B2000C94BCF2FC01228122952695269523702983268537853B832A8328E07096DE01149601900D922A95E1F7FC0123A92C8723812D8784A98E87CE010196FEDD2E96E2E00C94D8F2ACE1B0E0E9E2F9E50C94B0F2FC01428142954695469543704983268537853B832A8328E07096DE01149601900D922A95E1F7FC0162806694669421
S28400B280F62DF3706F2EFC87FC01248135813E872D8728E03696DE011F9601900D922A95E1F7FC0172A87F8A20A931A9398F288F23A92A8F23812B8F84A98C8F80916016882309F44CC080906116909062168EEF840F823008F063C0F4018381481320C0423029F42C813D818681978127C0433009F055C02C813D814E815F816885798545
S28400B300F401A680B780C084D184E284F384048515858A859B850E940EF309F040C023C0823091F0833021F0811139C0423051F42C813D8180910312909104122817390771F511C0433059F548E050E06BEF71E1CE0104960E9483F3892B29F020C0CE0101964FDD1CC0F2E06F1209C02F85388980910F12909110122817390781F4772086
S28400B38029F0CE0101963DDDF401108A80916016823029F483E696E10E94FDDFD2DE6C96EEE00C94CCF2CF93E0916116F09162168381882349F08250823030F088EE808BCF01CDDB80E079C087E080937F168091051291E0980F909305128093821620918016207E236020622093801684819581909384168093831693819370990F990FDB
S28400B40080918116837F892B809381168381811102C02F7B01C0206420938016809180168F7780938016809181168C7C8093811688E03696A5E8B6E101900D928A95E1F780910A1290910B1290938E1680938D1680910F12909110129C012E5F3F4F409181162230310570F4406C409381160E94FA4F28E0FC01AFE8B6E101900D922A9574
S28400B480E1F709C0242F2F732068209381169093901680938F1685EC98E59093B7168093B616C1E0C093B516C09360168CE796E10E945C50C093CC1681E0CF910895ADE1B0E0E5E6FAE50C94BCF2FC019281892F869586958370898792959695969593709A87868597859C878B8788E07096DE011D9601900D928A95E1F71D8A1F8A1E8A1B
S28400B500188E198EBE016F5F7F4F8FE796E10E94EBD880910D12811106C08091CC16811102C082E001C081E08093B51686EB98E59093B7168093B6168CE796E10E945C506D96E2E00C94D8F2CF93DF93C0916116D09162168B818E830E94D065882311F01F8202C087EE8F83CE01F9DA80E0DF91CF91089582E080937F1687EC9AE59093EA
S28400B5808116809380168CE796E10C945F508091611690916216E3CAA8E0B0E0E2EDFAE50C94BAF20091611610916216F8011682C5DDF80183818823D1F00E94A24C0E94735083E696E10E94FDDF1092CC16FCD70E9403630E94EB650E9496D6DBD509DE8091611690916216BADA80E01CC00E9403630E94EB6582EF80937F16198288E0E0
S28400B600FE013196A0E8B6E101900D928A95E1F78AEB9AE590938916809388168CE796E10E94635081E02896E4E00C94D6F28091611690916216FC01118691CAE0916116F091621683819481A581B681892B8A2B8B2B11F482E001C081E080937F1687E19BE590938116809380168CE796E10E945F5081E00895EEE5F6E18EE08083809161
S28400B680870480931C1210927F1682A382EA9BE590938916809388168CE796E10C94635080937F168CEB9DE590938116809380168CE796E10C945F5080910D12882311F081E001C082E0ECDF85E080935E160895E0916116F0916216882319F01092CF1605C08091CF168F5F8093CF1684819581A681B7812091CF16203210F5AC01BD0101
