:100000000C9480260C94DCEC0C9408ED0C9434EDEC
:100010000C9460ED0C948CED0C94B8ED0C94E4ED24
:100020000C9410EE0C94BD260C94BD260C94BD26A9
:100030000C94BD260C94F1E80C94BD260C9447E971
:100040000C94BD260C94BD260C94BD260C94BD26A4
:100050000C94BD260C94BD260C94BD260C94BD2694
:100060000C943BEF0C94A6EB0C9449EB0C9478EBBE
:100070000C94BD260C94CCEE0C94A3EE0C94BD26EF
:100080000C94BD260C94BD260C94BD260C94BD2664
:100090000C9440EC0C94E3EB0C9412EC0C943CEEBE
:1000A0000C94BD260C94BD260C9467DB0C9451DD9A
:1000B0000C94BD260C94BD260C94BD260C94BD2634
:1000C0000C94BD260C94BD260C94BD260C94BD2624
:1000D0000C94BD260C94BD260C94BD260C94BD2614
:1000E0000C94BD260C94BD260C94BD260C94BD2604
:1000F0000C94ADDD0C94BD260C94BD260C94D5DD7E
:100100000C94BD260C94BD260C94BD260C94BD26E3
:100110000C94BD260C94BD260C94BD260C94FDDDDC
:100120000C94BD260C94BD260C94BD260C94BD26C3
:100130000C94BD260000000000000000000000003C
:1001400000000000000000000000000000000000AF
:10015000000000000000000000000000000000009F
:10016000000000000000000000000000000000008F
:10017000000000000000000000000000000000007F
:10440000D50D16001900C80B030018000407BD00E5
:1044100017002A1201001600DE12080015006B12A8
:1044200001001400621202001300CE1201002600E7
:10443000711201001E00611201000F00E81201005C
:104440000E00D21201000D00DA1202000C002B1235
:1044500001000B00251202000A0048121100090099
:104460003E12010008003D12010007003C1201004D
:104470000600CF1201000500D81201000400D0117F
:104480000400030059120800020023120100010079
:10449000081208000000704712002E009447150013
:1044A0002D00BE4719002C00F04704002A00F847F1
:1044B00011002900F04D154D2E4E2E4E2E4E1A4D48
:1044C000244D2E4E2E4E2C4D314D594D624D2E4EBB
:1044D000674D6F4D794D2E4E824D874D2E4E904D2E
:1044E000CB4DDD4D2E4ED04DD84DF04DF04DF04D15
:1044F000E74DE74DE74DE74DE74DE74DE74DE74D1C
:10450000E74DE74DE74DE74DE74DE74DE74DE74D0B
:10451000E74DA34DE74D2E4E2E4E2E4E2E4E2E4ED7
:104520002E4E2E4E2E4E2E4E2E4E2E4E2E4E2E4EAB
:104530002E4EE74DE24DF04DE74D9D4DF24DF04DC5
:10454000094E174E1E4EF04DF04DF04D8A4FF74E6E
:10455000CC4FCC4FCC4FFD4E024FA04FCC4F054F10
:10456000084F194F1E4FCC4F214F244F274FCC4F90
:104570002C4F2F4FA04F344F7E4F934FCC4F814F36
:10458000844FFB4E874F874FA04FA04FA04FA04FA7
:10459000A04FA04FA04FA04FA04FA04FA04FA04FA3
:1045A000A04FA04FA04FA04FA04F644FA04FCC4FA3
:1045B000CC4FCC4FCC4FCC4FCC4FCC4FCC4FCC4F23
:1045C000CC4FCC4FCC4FCC4FCC4FA04F964F994FA8
:1045D000A04F5C4FA84FB14FAB4FAE4FCC4FBF4F2A
:1045E000C44FCA4FD150D350DE50D550D750D950B8
:1045F000DB50B050E150E350B050E6503B513E51DB
:104600004251455149514D51505154515451965573
:10461000D455D455D4559D55BA55AB55B255E555DD
:10462000A455C155C155C855D455DC55E055405623
:10463000435646564656485652564C564F565F5667
:104640004A565556575659565C5648584B586C580A
:104650004E5852586C5856586C58615864586A589D
:10466000D35B805C8F5C8E5BD65CD65C8B5C8F5C36
:10467000945CC25CAB5CD65CD65CC25CC15BC45C67
:10468000C894D094E79459955995B094BD94599590
:10469000599559950795169533953F955995AD942C
:1046A000DB947994469946996F987798779884988F
:1046B0008498A198A198A198FF98FF98FF989A993B
:1046C000469927A779A74DA751A751A751A751A749
:1046D00051A755A755A7C4B9C7B968BA68BACCB924
:1046E00068BAD6B9BFBABFBABFBABFBABFBABFBA43
:1046F000BFBABFBABFBA68BA68BABFBABFB9D1B990
:1047000068BA0FC55DC55DC55DC55DC55DC54CC5F8
:1047100036C554C55DC546C55DC550C558C532C70B
:104720000DC8EBC816C955C981CACACAEDD0EDD0AB
:10473000EDD0EDD0EDD0EDD0EDD0EDD0EDD001CA83
:104740000FCAEDD0EDD036CACCC8E4D2ECD2FED23E
:1047500007D309D30BD30DD310D3E3D35BD45BD4EE
:1047600009D412D422D42BD42ED431D434D43AD474
:10477000000001000200030004000500060007001D
:10478000080009000A000B000C000D000E000F00CD
:104790001E001800000001000200030004000500D4
:1047A00006000700080009000A000B000C000D00BD
:1047B0000E000F001E00130014001500160000006C
:1047C00001000200030004000500060007000800C5
:1047D00009000A000B000C000D000E000F001E0067
:1047E0001300140015001600170018001900260009
:1047F0001300140015001600000001000200030061
:104800000400050006000700080009000A000B006C
:104810000C000D000E000F001E006D0500000407C7
:1048200000005E060000C1070000F806000000005E
:104830000000EB070000550D0000AD0D0000FF0A61
:104840000000510B00001B0B0000880B0000CB0B7D
:1048500000000F0D00000000000000000000C80B69
:104860000000D50D00000000000000000000000066
:104870000000000000000000000000000000000038
:104880000000000000000000000000000000000028
:104890000000000000000000000000000000EB0D20
:1048A0000000130E0000F20500006A4A02006E4A82
:1048B0000100714A01006F4A0200744A0100754A02
:1048C0000100764A0100774A0100784A0100794ADE
:1048D00001007A4A0200724A02007C4A01007D4AC5
:1048E0000100964A0200874A0100884A0100894A6D
:1048F0000100924A04007E4A01007F4A0400834A74
:104900000100844A01008E4A01008F4A0100904A4A
:104910000200000000000000000000000000000095
:104920000000000000000000000000000000000087
:104930000000000000000000000000000000000077
:104940000000854A0100864A0100984A0100994A00
:1049500001009A4A01009B4A0100000000008A4AB7
:1049600004006C4A020008120800121201001F1213
:10497000040023120100D6120100D7120100DE123A
:104980000800DA120200621202006B120100D21259
:104990000100E8120100D8120100271201002812BC
:1049A0000100291201002A120100251202002B1217
:1049B00001002C120100D4120100D3120100E311F6
:1049C0000100E411010059120800D01104003F1247
:1049D000040034120400381204003C1201003D129D
:1049E00001003E12010048121100CF1201004312D3
:1049F000010044120400CE110100E5110200611211
:104A00000100241201000000000000000000CF118E
:104A10000100000000000000000000000000000095
:104A20000000000000000000000000000000000086
:104A300000000000000000000000000000002D1237
:104A400005003212010033120100000000000000D6
:104A50000000000000000000000000000000000056
:104A60000000000000001312010085006C0001002E
:104A70000007050007040205040204000308FF14F0
:104A80000000000108030303020A901A000001005D
:104A9000000000000203141061620003001E000009
:104AA00003013412000303000002000000000003B1
:104AB000031027000010270000000001E803000099
:104AC00004E80300001041746D656C202020202054
:104AD000202020202020FECAAAAAAAAAAA1A0002E0
:104AE0000301008000000000000000000000000042
:104AF000000000000005FF000000000000000000B2
:104B000000000000000000000000000000000000A5
:104B10000000000000000000000000000000000095
:104B20000000000000000000000000000000000085
:104B30000000000000000000000000000000000075
:104B40000000000000000000000000000000000065
:104B50000000000000000000000000000000000055
:104B60000000000000000202010002020508080027
:104B700000FFFF34120000000000000000020201EC
:104B8000E33E1F44000000000000000000000000A1
:104B9000020A7BE87501074A969E7001014A969EBB
:104BA000700101C97AF38D01014E7A529D01014EC7
:104BB0007A219D0107037A8E700101AB797283011E
:104BC00001000000000107000000000101000000DA
:104BD00000010300008868010400008868010500E6
:104BE000000000010600000000010D0000000001AF
:104BF000014A960000000100000000010E000000C4
:104C000000010700000000010A0000000001000090
:104C10000000000101000000000101000000000090
:104C20000000007574000900007574000C00007528
:104C300074000000007574000C77DE7C0994AFA648
:104C400015733F9A2178C7789B71847FC985AE74AC
:104C50007B9DA8771A72097100000000D3704C7F09
:104C6000000000003D664D69D366A866CC66000072
:104C700044665266C1664B664369FB653F68466899
:104C8000B5683768DA6600009D6902010203030215
:104C90000201010101010101010102020101010200
:104CA00001020202020202010202020202020103E6
:104CB0000302020304A5309BE793639C000066A3F4
:104CC000E68CFFA700000000C2B45CB9E1C22DBCB5
:104CD000FDD0C6C160DF60DF60DF60DFD2E099DE5B
:104CE000C1EFC2E87BDCB9DB5DE7F7E901E78EE500
:104CF00009E461DFB3E0DFE1F2DFB1E0DDE1F0DF45
:104D0000112480914B17823159F084B780FD04C083
:104D10008F7180934B1707C081E080934B1703C0BE
:104D200081E180934B1714BE80916000886180936D
:104D300060001092600011241FBECFEFD1E8DEBFEB
:104D4000CDBF00E00CBF12E0A0E0B2E0E4E1F4EE81
:104D500001E00BBF02C007900D92AC3DB107D9F73F
:104D600027E1ACEDB2E001C01D92AB34B207E1F730
:104D70000E94C42F0E94DA2FFDCF0C9400007F9375
:104D80007FB7F8949D9AA5988AEF4DD08AEF4BD0C3
:104D90009D9886E448D081E0959980E08F9380EFDC
:104DA00042D08F917FBF7F9108957F937FB7F89412
:104DB0009D9AA59886E037D09D988AE034D0889453
:104DC00095990894881F8F9384E62DD08F917FBF8B
:104DD0007F9108959F937F9398E0E7DF879577957C
:104DE0009A959923D1F7872F7F919F9108957F936B
:104DF0007FB7F894A5989D9A8F9386E014D08F91F1
:104E0000879508F49D988F9384E60DD08F919D9897
:104E10007FBF7F9108959F9398E0E9DF9A9599234A
:104E2000E1F79F91089500000000000000000000DD
:104E300000000000000000000000000000008A9553
:104E4000882389F708952FB7F894809138049091BA
:104E50003904906190933904809338042FBF0895EA
:104E60006B9AE0E9F0E0808182608083A1E9B0E0A4
:104E70008C9188618C9380818E7F80838C918260FD
:104E80008C9380E29EE490939700809396008CE44C
:104E900094E090939900809398008081806880834B
:104EA0000895A0E0B0E08093E2029093E302A09323
:104EB000E402B093E50281E08093E60283E297E2A8
:104EC0009093E8028093E7028CED92E00C94E7DE89
:104ED00008958091E902882319F08130A9F008959E
:104EE00075D0BEDF0E94303081E08093E9022FB799
:104EF000F89480913804909139049061909339042A
:104F0000809338042FBF08958DB198E089278DB91B
:104F100085E190E0C6CF0895089508950895089515
:104F20001F93CF93DF931092190410921A041091DB
:104F3000E603112309F446C08091E403E7EEF3E0B1
:104F40001333E0F4212F30E0CAEFD0E0AF01475E29
:104F50005340421753075CF490E0DC01A651BD4F6B
:104F60004C9141930196BE010E9489F0EFCF80934E
:104F7000E403109319041092E60318C02AEF30E0FE
:104F800090E0DC01A651BD4F4C9141930196B901CF
:104F90000E9489F094E0E931F90791F78093E403E6
:104FA00082E38093190412531093E60381E0809307
:104FB0001A044091190450E067EE73E083E195E034
:104FC0000E9448E2DF91CF911F91089588EC809371
:104FD0001E0510921F0583E390E0909321058093B6
:104FE000200586E080932205109223051092240567
:104FF00010923305109228051092270510922A0569
:105000001092290510922C0510922B0510922E0556
:1050100010922D0580E997E2909332058093310537
:1050200083E195E00C94E9E10895A2E0B0E0EBE1C2
:10503000F8E20C940DF16C010091340510913505E6
:10504000E12CF12C8091380590913905E816F9068C
:10505000A8F45801B8016C5F7F4F42E050E0CE01E8
:1050600001960E94D3F10A5F1F4F29813A812C15C6
:105070003D0539F08FEFE81AF80AE4CF80E090E0C0
:1050800001C0C5012296EAE00C9429F1ADE0B0E040
:10509000ECE4F8E20C940FF17C016B0123E09695AF
:1050A00087952A95E1F7FC01EC5CFA4F228D30E000
:1050B000B70167707727062E02C0369527950A94A8
:1050C000E2F78E010F5F1F4F20FF42C027E0EEE4A2
:1050D000F5E0D80101900D922A95E1F7A0E020E0DB
:1050E00030E04A2F50E048175907D8F4F801E40F90
:1050F000F51F4081542F569555754575540F452F12
:105100004695469543735373450F4083E42FEF70E4
:1051100042954F7050E04E0F511D240F351FAF5F69
:10512000E0CFE0E0D801A80FB91F4E2F50E046179E
:10513000570780F44C9150E00E2E02C056954795CB
:105140000A94E2F741705527240F351FEF5FEDCF2A
:105150002FEF3FEF1B870A8746E0429FC001439F26
:10516000900D112404969987888786E090E09D87AA
:105170008C8768EF79E2CE01089672D18D819E818D
:10518000E816F90639F084E090EA90936805809378
:105190006705E1D589819A81F601918380832D96F7
:1051A000E8E00C942BF1A6E0B0E0E9EDF8E20C9415
:1051B00011F17C018B0180E090E0FC0133E0F69579
:1051C000E7953A95E1F7EE0DFF1D6081AC01477060
:1051D0005527262F30E0042E02C0369527950A94D5
:1051E000E2F720FF0DC021E030E001C0220F4A9518
:1051F000EAF720952623208318DF009731F431C089
:10520000019683339105C9F62CC046E050E0BC01FD
:10521000CE0101960E94D3F189819A81F80193838E
:105220008283B8018D819E8131DFF8018081918177
:105230000596918380838B819C8195838483828171
:105240009381892B39F480E090EA909368058093EC
:10525000670581D58D819E81F7019087878381E0E5
:1052600006C08FEF9FEFF7019087878380E0269637
:10527000E6E00C942DF1A8E0B0E0E1E4F9E20C9452
:105280000BF17C01A0903605B0903705FC018681BA
:1052900082FD09C000E010E0812C76E0972ECC243E
:1052A000C394D12C0CC047E050E06FEF70E0C70111
:1052B0000E9403F26DC0882483940F5F1F4F80917A
:1052C0003A0590913B050817190708F05BC0909EBE
:1052D000B001919E700D11246A0D7B1D46E050E0D7
:1052E000CE0101960E94D3F12D813E81F90163E048
:1052F000F695E7956A95E1F7EE0DFF1D4081277061
:105300003327842F90E0022E02C0969587950A9449
:10531000E2F780FFD2CFC60102C0880F991F2A95FD
:10532000E2F79C01209524232083812C882D90E096
:105330002B813C818217930708F0BDCF880F991FFE
:1053400069817A81680F791F42E050E0CE010796AB
:105350000E94D3F18F819885FC0153E0F695E79583
:105360005A95E1F7EE0DFF1D87709927960102C04F
:10537000220F331F8A95E2F7C9019081982B908301
:105380008394D4CF882021F000E010E0812C97CFC7
:105390002896ECE00C9427F1CF93DF93EC018FEF8C
:1053A0009FEF98878F8387E0FB01DE0101900D92CC
:1053B0008A95E1F7CE015FDFEEE4F5E09191888117
:1053C0008923899385E0E535F807C1F7DF91CF910F
:1053D00008958091620590916305A7C20895109287
:1053E0005F0589EE99E290936105809360050895C9
:1053F0000895E7E4F5E0DC013D91CD012081232B08
:105400002193B5E0EE34FB07B1F780916405846029
:105410008093640508950E9487E5882311F0DFD505
:10542000FACF0895A2E0B0E0E8E1FAE20C9413F1BB
:105430008B0189839A83EFDFB80189819A810E9469
:10544000AAE4019631F089E2083F180721F4E3DF6E
:1054500002C081E001C080E02296E4E00C942FF1CC
:10546000A2E0B0E0E6E3FAE20C9413F18B01898349
:105470009A83D1DFB80189819A810E9437E401962D
:1054800031F089E2083F180721F4C5DF02C081E04E
:1054900001C080E02296E4E00C942FF1A2E1B0E09C
:1054A000E4E5FAE20C9408F180916405982F92608B
:1054B0009093640582FF0AC067E475E08BE194E095
:1054C0006BDF809164058B7F80936405CC24C3944B
:1054D000D12C7E013DE0E30EF11C55E0A52EB12C50
:1054E0004E0182E1880E911CBE01695F7F4F8BE106
:1054F00094E059DE882309F462C060902204709021
:105500002304F30163E0F695E7956A95E1F7EC5C17
:10551000FA4FC30187709927960102C0220F331FEB
:105520008A95E2F7C901809593898923838BFC8250
:10553000EB82BE82AD828F81988505979A8389839D
:1055400068EF79E2CE0101968BDF4B855C8569853A
:105550007A8580E05ED0582E8D8558123AC08889B1
:10556000998968167906A9F52B853C858E859F85D6
:105570002817390771F59C828B82DE82CD8200E08C
:1055800010E02B853C850217130708F0ADCF2F8163
:105590003885200F311F3A83298368EF79E2CE01E5
:1055A00001965EDFAB81BC81E985FA85E00FF11FD2
:1055B0009C91808198130DC00F5F1F4FE2CF8091A7
:1055C00064058D7F8093640560E070E08FE001D218
:1055D0001CC05D86798A688A8B859C859F878E87AB
:1055E000FC82EB8285E090E09E838D838F8198859D
:1055F00005979A8389836EE47AE2CE01079612DFDB
:1056000068EF79E2CE0101960DDF6296EFE00C942F
:1056100024F1FB01460F571FE417F50719F091918C
:10562000890FFACF08954F925F927F928F929F9247
:10563000AF92BF92CF92DF92EF92FF920F931F93A0
:10564000CF93DF93CDB7DEB762970FB6F894DEBF86
:105650000FBECDBF80E094E4909335058093340570
:1056600086E994E4909337058093360506E914E4BF
:1056700000501444C80166E070E00E9475F0892B68
:1056800039F080E290EA909368058093670563D3D0
:1056900026E030E0C801B9010E9475F0409138055C
:1056A00050913905642B752B70933905609338053B
:1056B00004EB14E406591444C801B9010E9475F0C2
:1056C000892B39F081E290EA909368058093670511
:1056D00042D3C80166E070E00E9475F080913A05FF
:1056E00090913B05682B792B70933B0560933A05AD
:1056F000009134051091350510923C0510923D053E
:1057000010923E0510923F0587E0EEE4F5E0DF01E0
:105710001D928A95E9F7D12CEE24E394F12C809127
:105720003805909139052D2D30E028173907C8F537
:1057300046E050E0B801CE0101960E94D3F12B81E2
:105740003C812B5F3F4F80913C0590913D05A0919E
:105750003E05B0913F05820F931FA11DB11D80939F
:105760003C0590933D05A0933E05B0933F058D8188
:105770009E81FC0133E0F695E7953A95E1F7EC5C04
:10578000FA4F87709927970102C0220F331F8A951D
:10579000E2F7C901928D982B928F0A5F1F4FD39425
:1057A000BECF26E0289F6001299FD00C112434E051
:1057B000C30ED11CE12CF12CCE010796988B8F875C
:1057C00086E090E09A8B898BA12CB12C00E010E050
:1057D00096E0792E22E2822E20EA922EF80183E0D2
:1057E000F695E7958A95E1F7EC5CFA4F828D90E0AB
:1057F00098012770332702C0969587952A95E2F77E
:1058000080FF41C07A9CC0017B9C900D11240496BE
:105810009E878D8768EF79E2CE010D9621DE8B851C
:105820009C858017910749F48F819885A985BA8551
:105830008C159D05AE05BF0559F01C870B87CF82DF
:10584000D886E986FA8668EF79E2CE010D96EADD20
:10585000C801EBDB2C01009729F490926805809237
:10586000670579D246E050E0B201CE0101960E9470
:10587000D3F18B819C810596C80ED91EE11CF11CC9
:105880008FEFA81AB80A0F5F1F4F0333110509F0F5
:10589000A5CFA5DD62960FB6F894DEBF0FBECDBFD3
:1058A000DF91CF911F910F91FF90EF90DF90CF90FC
:1058B000BF90AF909F908F907F905F904F90089592
:1058C00020E0FC013191CF01311105C02F5F27305D
:1058D000C1F780E0089581E0089527E0FB0111926F
:1058E0002A95E9F7FC0123E0F695E7952A95E1F77B
:1058F000E60FF71F8770992721E030E001C0220FE3
:105900008A95EAF78081822B8083CB01B4CC0895FD
:10591000AEE4B5E0FC013D9120812323219325E0F5
:10592000A535B207C1F7CCCF0895A7E0B0E0EBE909
:10593000FCE20C9414F1BE016F5F7F4FCEDFCE010D
:105940000196E6DFCE010196BBDF182F882339F0E0
:10595000CE0101964EDD8091640581FF9FDD812F90
:105960002796E3E00C9430F108950895A2E0B0E0AA
:10597000ECEBFCE20C9415F1809124048823E9F00F
:10598000BE016F5F7F4F81E290E01DD4BE016E5F6C
:105990007F4F8DE190E017D48981823071F48A8144
:1059A00081110BC085EB9CE290932D0480932C0415
:1059B00085E294E00E94B5BE02C00E94CEDC229631
:1059C000E2E00C9431F18091240408950C9486E770
:1059D0000895A0E0B0E0EFEEFCE20C940DF1B82EDB
:1059E0007B01082F10E093E0169507959A95E1F753
:1059F0008770C1E0D0E001C0CC0F8A95EAF7AC2EE9
:105A00008FE38B1538F484E090E8909368058093D9
:105A10006705A1D1F801E25DFB4F80818C2311F174
:105A2000C0913604D091370485E0C82E80E8D82E86
:105A30002097C1F0FE01E00FF11F82818A2171F0F1
:105A40002A853B85232B29F4D0926805C0926705EF
:105A500082D1EA85FB85B7018B2D19950990D881F4
:105A6000C02DE6CFCDB7DEB7EAE00C9429F1E82FE0
:105A7000F0E023E0F695E7952A95E1F7E25DFB4F2C
:105A8000208130E0877041E050E002C0440F551F94
:105A90008A95E2F72423352381E0232B09F480E063
:105AA0000895282F30E043E0369527954A95E1F791
:105AB000620F731F877021E030E001C0220F8A95CA
:105AC000EAF7FB019281922381E009F480E00895D6
:105AD0001F93CF93DF93182FEB01803438F023E02E
:105AE00030E8309368052093670535D1BE01812FDA
:105AF000D8DF81112AC0BE0186E394E09AD08111DB
:105B00000BC088E0FE013296DF011D928A95E9F70D
:105B1000BE0186E394E09DD0412F50E063E05695AE
:105B200047956A95E1F7177021E030E001C0220F38
:105B30001A95EAF7C40FD51F8A81822B8A83FA014E
:105B4000E25DFB4F8081822B8083DF91CF911F919B
:105B500008951F93CF93DF93182FEB01803438F013
:105B600023E030E83093680520936705F4D0BE0148
:105B7000812F97DF882369F1212F30E073E036957C
:105B800027957A95E1F7177041E050E0012E01C0AA
:105B9000440F0A94EAF7942F9095C20FD31F8A817D
:105BA00089238A83E0913604F0913704309759F0C5
:105BB000DF01A20FB31F12968C91842351F4019040
:105BC000F081E02DF3CFF901E25DFB4F8081892365
:105BD0008083DF91CF911F910895DC01ED91FC91BD
:105BE0001197309721F0208131812D933C93CF0183
:105BF000089561157105A1F0DC01ED91FC911197FB
:105C0000E617F70759F4208131812D933C930FC09B
:105C1000808191818617970729F0FC013097C1F7A1
:105C200080E00895DB018D919C919183808381E0D8
:105C30000895DC01ED91FC91309739F0E617F707F4
:105C400031F00190F081E02DF7CF80E0089581E000
:105C500008950F931F93CF93DF938C01EB01E9DF3E
:105C6000882349F080E090E8909368058093670569
:105C70005AD080E014C019821882D801ED91FC91AD
:105C80001197309719F4CD93DC9308C080819181EE
:105C9000009711F0FC01FACFD183C08381E0DF913E
:105CA000CF911F910F910895CF93DF93FC018281D3
:105CB0009381009781F40E9439DFC22FD32F0E9475
:105CC000D14F44E0FC0121913191CF01C227D3276C
:105CD0004150C1F7CE010E94C8F181E080930602D5
:105CE0008EE092E00E94E7DEDF91CF91089580E0A0
:105CF00092E00C944250089580910602882369F046
:105D00008EE092E00E9417DF84E59EE290930D0200
:105D100080930C0210920602EACF08958EE092E082
:105D20000C9417DF089582E090E090936A058093C9
:105D30006905809167059091680590936C05809343
:105D40006B05E0916505F0916605309719F089E6DD
:105D500095E01995089583E090E090936A0580930B
:105D60006905809167059091680590936C05809313
:105D70006B05E0916505F0916605309719F089E6AD
:105D800095E019950895EF920F93FC01618372835A
:105D90004F3740F081E090E8909368058093670565
:105DA000C2DF20C0403808F04FE7440F8081817087
:105DB0000187842BE0FA80F9808334832383CB012D
:105DC000AC016081669504962181328174E0679F01
:105DD000200D311D11244217530720F4DC011197C7
:105DE0001C92EECF0F91EF900895A0E0B0E0EBEFA2
:105DF000FEE20C940EF1EC018B01B42E0E9439DF0F
:105E000069017A018D819E81AF81B885A7019601D4
:105E1000281B390B4A0B5B0BCA01B9012B813C8152
:105E200040E050E00E949CF02F3F310541055105B4
:105E300018F42223F9F001C02FEF89819A81BC0167
:105E400038813695049649815A81E4E03E9F400DA1
:105E5000511D11246417750748F4FC013291432F3A
:105E6000231708F4422F341B3083E9CFCD82DE8222
:105E7000EF82F886A981BA814881842F86959D0199
:105E800054E0859F200D311D1124C901E0E0F0E0B0
:105E9000A817B907C0F413965C911397552359F0CE
:105EA0002D913C9111972017310729F412962C91CE
:105EB00012972B15C1F0309719F02381521708F46F
:105EC000FD011496E5CF40FD06C0309771F0838147
:105ED00081110BC002C0309751F011830083B28250
:105EE0008985838304C080E003C082E001C081E033
:105EF000CDB7DEB7E9E00C942AF1FECE08950895FF
:105F0000CF93DF9360911B0270911C0280E090E0C0
:105F1000E1E0F0E09F01082E02C0220F331F0A9437
:105F2000E2F7409138045091390446235723422325
:105F30005323452B11F16FB7F894409138045091D9
:105F40003904209530952423352330933904209348
:105F500038046FBFFC01EE0FFF1FE956FD4FC081F3
:105F6000D181209739F486E090E89093680580937A
:105F70006705F1DEFE01199504C001968E3091058A
:105F800049F6DF91CF9108950E94DEDC0E9413AFA5
:105F9000882371F02FB7F8948091380490913904D8
:105FA000806190933904809338042FBF81E0089575
:105FB00082E00895A5DF60E070E08BE20ADD809169
:105FC000380490913904892B09F4D0DC20913804ED
:105FD0003091390481E0232B09F480E0089590CFBB
:105FE0000895FC012081211105C021E02193CF01FA
:105FF0000C94E7DE0895FC012081213021F41192F8
:10600000CF010C9417DF0895A5E0B0E0EAE0F0E3DB
:106010000C9411F17C012A833B834C835D8369835B
:10602000EADFF7011082698163872A813B814C8115
:106030005D8127833087418752871587048725969E
:10604000E6E00C942DF10895813031F018F08230A3
:1060500029F008952F9808952E9808952C98089562
:10606000279A269A249A2F9881E0EEDF82E0ECDFCF
:1060700080E0089588E3E7EEF1E1DF011D928A9563
:10608000E9F7E8E0F2E182E080838AE0818312822E
:106090001382148281E085831682178285E08093C3
:1060A000121247E850E069EF7AE482E692E10E943A
:1060B000D3F147E150E062EE7AE480ED91E10E9495
:1060C000D3F143E050E06FED7AE48DEC91E10E9472
:1060D000D3F143E450E06CE97AE48FE192E10E946D
:1060E000D3F180E69CE0EDE6F5E0DF019C011D9236
:1060F00021503040E1F70895A4E0B0E0E2E8F0E399
:106100000C9415F1BC011A8219821C821B8288270B
:10611000811521E0920769F0811522E09207B9F01C
:10612000892BE9F4660F771F660F771F6A59764B44
:1061300007C07727660F771F660F771F6655774B67
:1061400044E050E0CE0101960E94D3F10FC07727C2
:10615000660F771F660F771F665E774BF1CF8AE079
:1061600090E69093680580936705F5DD69817A81F3
:106170008B819C812496E2E00C9431F17BDF53CA41
:106180000895A4E0B0E0E7ECF0E30C9411F17C0199
:106190008B01B2DFEE24E11422E0F20669F026E082
:1061A00030E6309368052093670569837A838B8393
:1061B0009C83D1DD7A816981F801718360832496A3
:1061C000E6E00C942DF1A4E0B0E0E9EEF0E30C94ED
:1061D00011F18C017B0190DFE114F10479F420E0EE
:1061E00030E6309368052093670569837A838B8353
:1061F0009C83B1DD9C818B817A81698100270115A7
:10620000110549F0011521E0120751F4AC01C70155
:106210000E94D3F10CC0AC01C7010E94E9F107C094
:1062200081E090E6909368058093670594DD24965D
:10623000E6E00C942DF1A0E0B0E0E1E2F1E30C9493
:106240000FF18C01EB0158DF6B017C01209739F4D1
:1062500084E090E690936805809367057CDD0027D5
:106260000115110539F085E090E69093680580935B
:10627000670571DDA701BE01C6010E94E9F1CDB736
:10628000DEB7E8E00C942BF1FC0193A5892F887010
:1062900090FF09C0882379F081E027A130A522363C
:1062A000310550F408C0882331F081E027A130A5E2
:1062B0002436310508F480E08170089521E030E053
:1062C00001C0220F8A95EAF780913D04822B8093CA
:1062D0003D042FB7F894809138049091390480627E
:1062E00090933904809338042FBF0895CF93DF93A0
:1062F000E091EE12F091EF128E179F0718F482E8EA
:1063000094E446C08E1B9F0B6CE670E00E9475F013
:106310008091E912681718F083E894E439C08CE69C
:10632000689FE00DF11D11248781869590E08230F1
:10633000910559F014F00397D1F58091ED1288235F
:10634000B1F181508093ED1232C08091EC1288231C
:1063500019F081508093EC12DF01AC5ABF4FCD9100
:10636000DC912091F1123091F212CE01821B930B3D
:1063700063E270E00E9475F0C217D30718F484E856
:1063800094E406C08091EA12681740F085E894E42E
:106390009093680580936705C6DC0CC0D90183E241
:1063A000689FA00DB11D11248C9181111C928781D1
:1063B0008E7F8783DF91CF910895CF93DF93EC0198
:1063C0001EA28CA19DA1892B39F484E494E49093BE
:1063D000680580936705BFDCECA1FDA1CE01869620
:1063E0001995DF91CF910895EF92FF920F931F932C
:1063F000CF93DF93A091E9124091EE125091EF12EA
:1064000020E030E090E09A1709F45AC0FA01E20F58
:10641000F31FB90164597F4FB781B0FD63C07F019D
:1064200094E5E90EF11CD7011D921C928230B1F067
:1064300010F08330F1F59091ED124091EB1294172A
:1064400008F03EC09F5F9093ED1213821482158274
:10645000168290859F709087128235C01091EC1241
:106460009091EA12191760F50091F0124091F11223
:106470005091F21290E09017B9F0EA014D5D5F4F34
:10648000BA0163527109DB016C9161110BC01F5F8E
:106490001093EC1241E048836896D701CD93DC93CA
:1064A000428302C09F5FE7CF4091F01249130BC0B7
:1064B00007C081E894E490936805809367054BDCFE
:1064C00080E090E012C09085907F9087880F816077
:1064D0008783118210828091EE129091EF12820FC9
:1064E000931F03C09F5F9B018ECFCDB7DEB7E6E061
:1064F0000C942DF120914E04215020934E04BC01A8
:1065000088E694E0A6DB81E0D9CE0F931F93CF936A
:10651000DF938C01C0913E04D0913F0480913A04F6
:1065200090913B0480519140813F954048F4B801DF
:106530008EE394E08EDBCD2B59F480E0BFDE08C003
:1065400083E694E4909368058093670504DCEFCFBD
:10655000DF91CF911F910F910895BC016F50710988
:106560008AE694E076DB81E0A9CEBC016351710933
:106570008CE694E06EDB81E0A1CE20914E042F5F8B
:1065800020934E040C94AA8F6F927F929F92AF92A9
:10659000BF92CF92DF92EF92FF920F931F93CF9310
:1065A000DF931F92CDB7DEB78C017B01FB01E25A6E
:1065B000FF4F8AE792E3918380833E9782E0808356
:1065C000D80157968D919C915897319691838083ED
:1065D0009C968C919C973796808331961082319649
:1065E0009B968C919B978095881F8827881F808316
:1065F000319681E08083319680839B968C919B9726
:1066000086FD0BC021E057968D919C915897883F4D
:106610009F4F08F020E0822F01C081E0F701E35A8C
:10662000FF4F81708083C8012FDEF701ED5AFF4FC5
:106630006F0197012C5A3F4F3901882309F442C05A
:1066400090909B1340919C13242F30E080919F13D6
:1066500090E001972817390739F4D80197968C9163
:10666000499D80191124982EA92CB12CC5014E9654
:106670008236910538F081E594E490936805809323
:10668000670569DB30919B1320919C138091B113B6
:106690009091B213F80161A572A5329F600D711D32
:1066A0001124A5014E960E94E9F18AE0890DD601D8
:1066B0008C938091B1139091B2134496F30191831E
:1066C00080830EC0D80197968C919797885F8083BE
:1066D00099968D919C919A970897D9018D939C9347
:1066E000F301C080D180D6012C912C7F2F7E2C937A
:1066F000F8018789908D237F883F9F4F10F0286095
:10670000D6012C93F60180818F7D8083D8019B96E2
:106710009C9192FD03C08F7B808322C08064F60130
:106720008083D70118962C911897207F21601896A6
:106730002C93C8012983A8DD29812F70882341F07B
:106740008091A1138295807F822BF701808708C0FA
:106750008091CE118295807F822BD70118968C93E1
:10676000C80192DDF60190818823A1F090689083A2
:1067700090919C1380858C7F911106C081608087E9
:1067800080919F13818709C08260808780919C13CC
:10679000818703C09F77F6019083D80191968C91F1
:1067A0009197F601818394968D919C91959793830F
:1067B000828392968D919C919397958384839696EC
:1067C0008C918683C80160DD882331F08091A0130D
:1067D000D60117968C9308C08091650491E0980FBC
:1067E00090936504F6018783C7010996C6DE80E0B1
:1067F0000F90DF91CF911F910F91FF90EF90DF905D
:10680000CF90BF90AF909F907F906F900895E09150
:10681000AF13F091B013BF0180819181B5CEEEE846
:10682000F3E1F0935F13E0935E1392E090935A13B9
:10683000209101133091021330935C1320935B136A
:106840009BE090935D13109262131092631391E09A
:1068500090936413909365131092661328E736E3C0
:106860003093691320936813909367139081907805
:106870009260906890839091081390938F13209169
:1068800004133091051330939113209390132091AA
:106890000613309107133093931320939213909122
:1068A000031390939413909109139093951392E08E
:1068B000909396139091FF129093971390910013D9
:1068C0009093981390919913909377131092FA12D2
:1068D0001092FB121092FC121092FD128093F31290
:1068E00083E193E14ACEA4E0B0E0E9E7F4E30C945D
:1068F00013F1182FBE016F5F7F4F8AE190E063DCD8
:106900002091530430915404409155045091560401
:10691000A12FB0E00E94F5F009811A812B813C8102
:10692000600F711F821F931F2496E4E00C942FF1D7
:106930000F931F93CF93DF93EC018C01075511093F
:10694000FC013C970190F081E02D6FEF81819281F5
:106950000E94CD86882361F0FE0132978AE792E398
:106960009183808323971882C8010E949A8F02C066
:10697000CE01C0DDDF91CF911F910F91089560EF9F
:1069800072E180E191E01FDC61EF72E18EE092E064
:10699000F8DB8091F1129091F21220E03091F01228
:1069A000231748F4FC0133E2239FE00DF11D11246D
:1069B00010822F5FF3CF69EE72E18FE091E003DC8C
:1069C0006EEE72E18DE092E0DCDB2091E912E09165
:1069D000EE12F091EF1280E0821739F097819E7FDE
:1069E00097838F5FE459FF4FF7CF9091F012909308
:1069F000EA12823008F081508093EB121092EC1270
:106A00001092ED126BE973E188E291E0DCDB69EF53
:106A100072E189E291E0D7DB68EF72E188E191E011
:106A2000D2DB8091F812882351F064EF72E18FE09D
:106A300092E0A7DB61EB73E180E192E0A2DB3091B1
:106A4000F8122091F9128091F4129091F512329F70
:106A5000800D911D11249093F7128093F6121092DD
:106A6000F31208956FE674E082E192E08ADB6EE64D
:106A700074E087E191E0A7DB80916E04E0916F0400
:106A8000F0917004882349F0309739F489E294E456
:106A9000909368058093670546C99F0146E1849FEE
:106AA000200D311D1124C90128EAE817F90718F44F
:106AB000258B7696FACF08951F93CF93DF93EC0141
:106AC000162F0097B1F08D819E81892B91F08EE376
:106AD00094E083D81F83ED81FE81CE01079619953E
:106AE00080913E0490913F04892B59F080E0E6DBD1
:106AF00008C08BE694E490936805809367052BD9D2
:106B0000E6CFDF91CF911F910895A1E1B0E0EBE8CE
:106B1000F5E30C9405F18C01262E29873A874B87E3
:106B20005C870E945DDBE091570429853A854B859F
:106B30005C85EE2361F13090E912C0905A04D09048
:106B40005B04E0905C04F0905D042B013C014C1868
:106B50005D086E087F084D825E826F827886E091C4
:106B6000EE12F091EF12198A66246A94762C430192
:106B700069827A828B829C8246015701861A970A23
:106B8000A80AB90A8D869E86AF86B88A0BC009EC22
:106B900016E3A3C0A781A0FD09C0A989AF5FA98B97
:106BA000E459FF4FB989B311F5CF40C0B085BF702C
:106BB000B23099F7AA7FA23081F783809480A580B4
:106BC000B68081149104A104B10439F3E017F107F0
:106BD00021F34D805E806F807884481459046A04E4
:106BE0007B0468F44D845E846F847888840C951CE3
:106BF000A61CB71C83829482A582B68204C013822D
:106C000014821582168283809480A580B680498084
:106C10005A806B807C8084149504A604B70408F025
:106C2000BCCF89829A82AB82BC82B7CF211046C08A
:106C30008090FA129090FB12A090FC12B090FD127E
:106C400081149104A104B104C9F12B013C014C1839
:106C50005D086E087F08481459046A047B0488F4B0
:106C6000C80CD91CEA1CFB1CC61AD70AE80AF90A88
:106C7000C092FA12D092FB12E092FC12F092FD1236
:106C800008C01092FA121092FB121092FC1210928D
:106C9000FD128091FA129091FB12A091FC12B0911A
:106CA000FD1249805A806B807C8084159505A6056D
:106CB000B70520F489839A83AB83BC8389819A8149
:106CC000AB81BC81281739074A075B0710F4DA014A
:106CD000C90109EC16E39C01AD0161E087E594E090
:106CE00093D987E594E07DD96196E2E10C9421F196
:106CF00080914E04815080934E048091F312833032
:106D000009F43CC0823039F082E594E49093680540
:106D10008093670520D8E0919A13EE2379F181E002
:106D20008093F312A091CF11B0E011972AE030E0E8
:106D30000E94EFF09B01AC0180914F0490915004B0
:106D4000A0915104B0915204280F391F4A1F5B1FB4
:106D5000A091CE11B0E00E94F5F09B01AC016093D0
:106D6000FA127093FB128093FC129093FD12E15083
:106D7000E0939A1361E080E090E0C7CE1092F312A6
:106D80001092FA121092FB121092FC121092FD1245
:106D90000895A4E0B0E0EFECF6E30C940DF12FEFD2
:106DA0003FEFA90110E0AA24AA94B12C8091E91226
:106DB000181708F054C0E091EE12F091EF128CE633
:106DC000189FE00DF11D1124678160FF46C070859A
:106DD000872F8F70823009F040C0862F8A7F8230E3
:106DE000E1F583819481A581B681C0905E04D09045
:106DF0005F04E0906004F09061048C199D09AE0975
:106E0000BF0983839483A583B6830097A105B10549
:106E1000E9F4872F807F846080876E7F663059F425
:106E2000C5010090CF1102C0880F991F0A94E2F7A4
:106E3000809580939E1381E029833A834B835C8302
:106E40003DDA29813A814B815C8107C08217930723
:106E5000A407B50710F49C01AD011F5FA7CF809177
:106E6000FA129091FB12A091FC12B091FD120097C2
:106E7000A105B10551F1C0905E04D0905F04E0908F
:106E80006004F09061048C199D09AE09BF098093DC
:106E9000FA129093FB12A093FC12B093FD1200978C
:106EA000A105B10559F482E029833A834B835C83C1
:106EB000B6DC29813A814B815C8107C08217930738
:106EC000A407B50710F49C01AD012F3FEFEF3E077B
:106ED0004E075E0751F009EC16E361E087E594E0A8
:106EE00093D887E594E07DD803C087E594E083D804
:106EF0002496EAE00C9429F1A0E0B0E0E2E8F7E3A0
:106F00000C940CF18C01962EC0916F04D0917004FA
:106F100080916E046E0196E1899FC00CD11C1124F2
:106F2000F8018589811109C07E01F6E1EF0EF11C9F
:106F300058018CE0A80EB11C09C085E294E432C06F
:106F40008A3A89F06696F6E1EF0EF11CF801CC154D
:106F5000DD0508F04AC0908521853285F70131971B
:106F60008081843A69F7F7013E9780819813EACFD0
:106F700089859A852817390729F748E050E0B80134
:106F8000CE010E94DCF1892BE9F6F8018385F70137
:106F90003B9790818913D6CF813059F0833091F09F
:106FA00086E294E490936805809367050E94932E8F
:106FB0001DC0F801248535858C859D8528173907E6
:106FC00009F617C0F8019489F70132978081981368
:106FD000B9CF48E050E0BE01645F7F4FC5010E9419
:106FE000DCF1892B09F0AECF04C0958A80E090E0F7
:106FF00001C0CE01CDB7DEB7EBE00C9428F1CF9302
:10700000DF93EC010097B1F18AEA8D8B0E94D14F9A
:1070100048E050E0BC01CE010E94DCF1892B51F523
:1070200082E88D8B888581508E3F20F58B8583305B
:10703000C9F48C8981508E3FE8F42C853D854E85BE
:107040005F85688979898A899B89A0E00E9470F1AF
:1070500071F480E194E490936805809367050E9441
:10706000932E08C0813019F086EA8D8B03C01D8AEB
:1070700081E001C080E0DF91CF910895CF93DF934D
:10708000EC01009761F16FA74115510551F0FA012C
:10709000408151816281738148AB59AB6AAB7BAB54
:1070A00004C018AA19AA1AAA1BAAEDA5FEA5309712
:1070B00049F484E594E490936805809367050E9401
:1070C000932E0DC0CE018F961995CE01DDD8882361
:1070D00031F01092B0131092AF1381E0EFD8DF912E
:1070E000CF910895A1E0B0E0E8E7F8E30C9413F144
:1070F0008C01FC01208131818091F1129091F2127A
:107100002817390740F487E494E490936805809346
:1071100067050E94AB2EF801808191812091F112C8
:107120003091F212821B930B63E270E00E9475F0C3
:107130008091EA12681750F088E494E4909368050F
:107140008093670569830E94AB2E69818091F1125B
:107150009091F212F3E26F9F800D911D1124219600
:10716000E4E00C942FF1A3E0B0E0E9EBF8E30C9439
:1071700013F18C01675F7F4F7A836983BE016D5F76
:107180007F4F8DE090E01FD88B81D80197965C915E
:10719000979740916504882309F442C089819A81B8
:1071A000FC01E95BFF4F21E0208357962D913C9134
:1071B00058973196318320833296585F5083999641
:1071C000ED91FC919A979C01255B3F4F3897D9012F
:1071D000ED93FC938FEF8183D80194968D919C91D0
:1071E00095979383828392968D919C9193979583A3
:1071F000848396968C91868381E0840F80936504C6
:107200004783D901ED91FC918081807888608F77E8
:107210008083E981FA81EB5AFF4F8AE792E344C009
:1072200089819A81FC01E95BFF4F22E0208331963E
:107230002DEF3FEF318320833296575F5083D80183
:107240009996ED91FC919A979C01255B3F4F399758
:10725000D901ED93FC93D80157968D919C91589745
:107260009283818394968D919C9195979483838347
:1072700092968D919C9193979683858396968C9107
:10728000878381E0840F809365044087D901ED9165
:10729000FC91808180788C608F778083E981FA818E
:1072A000EB5AFF4F88E994E391838083E981FA8167
:1072B000D8019C968C919C97E15BFF4F8083E9817C
:1072C000FA81E05BFF4F8091CD118083E981FA81E3
:1072D000EF5AFF4F9B968C918095881F8827881FB7
:1072E0008083E981FA81EE5AFF4F81E08083E98152
:1072F000FA81ED5AFF4F8083E981FA81EC5AFF4F02
:10730000808389819A8139D980E02396E4E00C94C6
:107310002FF1DC01ED91FC919093B0138093AF13AA
:1073200010929C1310929D138091CE118093A11303
:1073300020919B1330E087A190A5B9010E9475F0C0
:10734000462F60939F1387A190A5B9010E9475F005
:10735000892B19F04F5F40939F138FEF90E00090BF
:10736000CF1102C0880F991F0A94E2F780958E7F93
:1073700080939E138091650491E0980F909365042B
:107380008093A0130895A0E0B0E0E9ECF9E30C9439
:107390000CF1EC016B01942E590100916F041091D6
:1073A000700480916E04780196E1899FE00CF11CD5
:1073B0001124209761F0C017D107F0F583E294E41F
:1073C00090936805809367050E94AB2E35C0E80155
:1073D000CE01801B910B66E170E00E9475F0892B55
:1073E00079F084E294E490936805809367050E94A5
:1073F000AB2E06C01D89143A39F01A3A29F0669668
:10740000CE15DF05B8F313C088859812F8CF8985AB
:107410009A85C816D90699F748E050E0B501CE0123
:107420000E94DCF1892B59F7143A49F703C080E038
:1074300090E004C0CE0102C06696CACFCDB7DEB7D9
:10744000EBE00C9428F14F925F927F928F929F9283
:10745000AF92BF92CF92DF92EF92FF920F931F9362
:10746000CF93DF931F92CDB7DEB72C017B010E9433
:10747000D14F6C0157018AE6A80EB11CF5010081BD
:1074800011814114510431F0E114F10419F0C114D7
:10749000D10451F484E194E49093680580936705E6
:1074A0000E94932E88EA5EC058EAF20164A175A199
:1074B000960146A1C801598366DF8C015981009766
:1074C00009F44FC0F20184899589892B19F5F801D7
:1074D0007384F3E07F121EC048018CE0880E911C7B
:1074E000C4010E9451BE892BA9F4F2017086D20119
:1074F0001B9688E0F40101900D928A95E1F783ECE8
:107500009AE3F201958B848BC20106960E944BBED2
:1075100080E028C0F50111830083F8018385833062
:10752000B1F4C8010C960E9451BE009711F459EABB
:10753000BCCFF8012489F20121A3FC018081918153
:10754000F201908F878BB701C2011ED80BC0F801E2
:1075500084859585F201908F878BB701C20103DE88
:1075600001C0852F0F90DF91CF911F910F91FF9058
:10757000EF90DF90CF90BF90AF909F908F907F90D3
:107580005F904F900895FF920F931F93CF93DF93D7
:107590008C01035111092091E912C091EE12D09192
:1075A000EF12F12CF216E9F08F8180FF16C088816E
:1075B00099818017910789F4BE01C80144DF8823AF
:1075C00081F040E050E0682FC80158DDCE010E94F4
:1075D000763181E00E945E3104C0F394C459DF4FDC
:1075E000E1CF8091E912F81640F085E194E49093A0
:1075F0006805809367050E94AB2ECDB7DEB7E5E046
:107600000C942EF1EF92FF921F93CF93DF931F9272
:107610001F92CDB7DEB77B010097A1F06115710510
:1076200089F0FC01158A148AF701E659FF4F11828F
:107630001082B70108DF182F882389F0C7010E9444
:1076400076310DC023E134E430936805209367055B
:1076500089839A830E94AB2E89819A81E2CF812F00
:107660000F900F90DF91CF911F91FF90EF900895B1
:10767000A1E0B0E0EEE3FBE30C9411F18C01262FC6
:10768000DC01ED90FC90009709F444C0E114F10492
:1076900009F440C02E3C61F0822F8F7D803D41F087
:1076A000213D11F082E005C0F70183A587FFFACFE5
:1076B00083E0F801EB59FF4F408151816281738172
:1076C000D701D0964D935D936D937C93D3979F96FE
:1076D0002C93833071F0D801ED91FC918689811152
:1076E00008C0F701158A148AB801C701ACDE883AD0
:1076F000E1F4A701405D5F4FD7019F966C91F801BF
:1077000080819181BBDCC8010E94763181E00E94BA
:107710005E310BC08FE494E4909368058093670515
:1077200029830E94AB2E2981B5CF2196E6E00C94E7
:107730002DF1CF93DF93EC0162DC882309F454C070
:1077400060E0CE01D9DB892BC1F5209709F43EC05A
:107750008D8981113BC050916E0420916F0430914E
:10776000700440E0451781F0C9012A5E3F4FF901DE
:1077700031976081683A31F424EAFC01258B009747
:1077800031F432C04F5FEECF8EEA8D8B2DC0209743
:1077900019F03D89332349F087E294E4909368051A
:1077A000809367050E94932E1AC036E1FE01DC012A
:1077B00001900D923A95E1F706C066EACE019CDB96
:1077C000009791F024EAFC01258B09C080E294E443
:1077D00090936805809367050E94AB2EBCCF60E054
:1077E00070E080E10E94E92CDF91CF910895CF9362
:1077F000DF93EC010097D9F080916F0490917004B1
:10780000C817D907A0F020916E0436E1239F800DA0
:10781000911D1124C817D90750F48D89843A11F0AD
:107820008A3A71F488EA8D8BDF91CF91089581E2D5
:1078300094E490936805809367050E94AB2EEDCF8A
:1078400082E294E490936805809367050E94AB2ED2
:10785000E9CFCF93DF93EC01D2DB882359F064EAC0
:10786000CE014ADB009731F0C2DF60E070E080E1DA
:107870000E94E92CDF91CF91089520916F043091FF
:107880007004009751F0FC01769680916E0496E1A9
:10789000899F200D311D112408C0F901F6CF85897B
:1078A000843A49F08A3A39F07696E217F307B8F34A
:1078B00080E090E00895CF010895CF93DF93EC012D
:1078C000BC018CE694E00E94292E1D8A1C8A81E06E
:1078D0000E945E31DF91CF910895CF93DF93EC0149
:1078E000BC018AE694E00E94292E198A188A81E058
:1078F0000E945E31DF91CF910895AAE0B0E0E3E805
:10790000FCE30C940BF110911212BE01665F7F4FE5
:1079100087E091E00E94E330BE016F5F7F4F8AE114
:1079200090E00E94E330C980DA80EB80FC80812FF8
:1079300090E0A0E0B0E08C159D05AE05BF0578F0A5
:10794000CC0CDD1CEE1CFF1CC982DA82EB82FC82AF
:10795000BE016F5F7F4F8AE190E00E941B31C12E14
:10796000D12C87E0C80ED11CEE24D7FCE094FE2C6D
:10797000C0925304D0925404E0925504F0925604FD
:107980002A8530E0A3E0B0E00E94E0F09B01AC016A
:10799000C701B6010E945AF009811A812B813C81EE
:1079A000600F711F821F931F60934F0470935004E8
:1079B000809351049093520481E08887BE01675FF1
:1079C0007F4F87E091E00E94E330BE01685F7F4F08
:1079D00084E290E00E94E330898590E0A0E0B0E08E
:1079E000880F991FAA1FBB1F8F3F9105A105B105E5
:1079F00029F020F08FEF90E0A0E0B0E00E94733417
:107A0000E885EE2309F45AC0812C912C54018B0196
:107A10009C0101501E4F2F4F3F4F800E911EA21E02
:107A2000B31E660F771F881F991FE15081F71886D4
:107A30007501640129E0F694E794D794C7942A95D8
:107A4000D1F7D501C4019170AA27BB2741E050E0CE
:107A500060E070E0892B8A2B8B2B19F440E050E01A
:107A6000BA01C40ED51EE61EF71E1E821D821F829D
:107A7000BE01695F7F4F81E191E00E94E330BE016A
:107A80006B5F7F4F88E092E00E94C13097018601D2
:107A90000F3F11052105310529F020F00FEF10E00F
:107AA00020E030E06D817E81C12CEE24E39420E063
:107AB00032E04F8180E494E00E94C32E2A96ECE0ED
:107AC0000C9427F1882331F00E94C5F1809365045E
:107AD00010924E0410926D0410926C0410926B047C
:107AE00010926A041092690410926804109267045C
:107AF000109266048AE090E0A0E0B0E08093A813C2
:107B00009093A913A093AA13B093AB1387E094E3C7
:107B10009093AE138093AD1381E08093AC131092D9
:107B20000013109209131092FE1210920513109276
:107B300004131092FF121092031310920713109265
:107B40000613109202131092011310920813109250
:107B5000F3121092FA121092FB121092FC12109271
:107B6000FD128CE6EAE0F3E1DF011D928A95E9F768
:107B700083E2E6E7F3E1DF011D928A95E9F7809160
:107B8000F91290E001962091F812289FA001299FF8
:107B9000500D112460E070E08091F4129091F51284
:107BA0000E9403F28EE893E190935F1380935E133B
:107BB000A4CE4F925F927F928F929F92AF92BF928C
:107BC000CF92DF92EF92FF920F931F93CF93DF93A9
:107BD0001F92CDB7DEB77C01009781F02C0127E022
:107BE000421A510880913E0490913F0484159505F6
:107BF00029F4D20112968C91893149F086E694E4F9
:107C000090936805809367050E94932ECBC0809166
:107C10003A0490913B048115B7E09B0709F07FC0BF
:107C200000916C0410916D040115110551F08CE662
:107C300094E00E94ED2D40E050E063EAC8011EDAB6
:107C4000EFCF6CE6C62ED12C7CE6772EE2E4AE2E8A
:107C5000E4E4BE2EF3E48F2EF4E49F2E009168043A
:107C6000109169040115110509F444C0B80188E6B2
:107C700094E00E94F92D8091EE129091EF12F8019C
:107C8000E81BF90BCF01B6010E9475F08091E91253
:107C9000681740F0B0926805A092670569830E945A
:107CA000AB2E6981E091EE12F091EF12679DE00D2D
:107CB000F11D1124808191812781269530E02130AA
:107CC000310561F02230310549F2232B61F4A8011E
:107CD0004B5F5F4FD80112966C9103C040E050E0BB
:107CE00067EACCD9BBCF90926805809267050E9465
:107CF000AB2EB4CF10E08091E9121817D8F4809120
:107D0000EE129091EF12BCE61B9F800D911D112485
:107D1000FC01278120FD0E9476311F5FECCF811589
:107D2000924041F087E694E490936805809367055C
:107D30000E94AB2E10923D0410923C0481E0C2DE02
:107D40000E94BF340E94323582E393E090933B045B
:107D500080933A04D7018C91F20182878EE394E0FC
:107D60000E94ED2DD20118968D919C911997892B27
:107D700041F489E694E490936805809367050E9436
:107D8000AB2ED2011896ED91FC911997C70103967D
:107D9000199580913E0490913F04892B19F080E061
:107DA0000E945E310F90DF91CF911F910F91FF9054
:107DB000EF90DF90CF90BF90AF909F908F907F908B
:107DC0005F904F900895CF93DF93C0913E04D09180
:107DD0003F04209741F484E694E4909368058093EF
:107DE00067050E94AB2E8A818A38F9F0853C09F438
:107DF0004FC0893109F06CC080913A0490913B04E6
:107E00008031914019F480E092E002C080E097E078
:107E100090933B0480933A0489ED9DE39E838D8388
:107E2000CE0103960E9469A65BC080913A049091AE
:107E30003B04823323E0920719F08031964049F4E5
:107E40008FE394E090933B0480933A0456DD1D82C7
:107E500002C083EA8D838EE394E00E94ED2D8B8136
:107E60009C81892B41F48AE694E490936805809381
:107E700067050E94AB2EEB81FC81CE01059619951A
:107E800080913E0490913F04892B51F180E018C00D
:107E900080913A0490913B048F339440A1F480E0A8
:107EA00095E090933B0480933A0482E090E09C83B9
:107EB0008B8387E594E00E94FB2F10924E0481E0B3
:107EC0000E945E310DC063EACE010E945C3508C09D
:107ED00085E694E490936805809367050E94AB2E35
:107EE000DF91CF910895AAE0B0E0E9E7FFE30C94B9
:107EF00015F1DC011396ED91FC91149721813281EB
:107F000040E450E05A834983AE01495F5F4F5C8390
:107F10004B8341E050E05E834D836F3FBFEF7B07B3
:107F200019F437FF15C003C02617370789F0988763
:107F30008F837A876987BE016F5F7F4F8EE10E94D2
:107F4000E92C81E02D813E81232B19F080E001C0D6
:107F500081E02A96E2E00C9431F1009729F48091B7
:107F60004C0490914D040895FC0180819181089505
:107F7000CF93C82FE0E0F0E0CF01EFDFFC010097E6
:107F800039F0A381B4818C91C813F6CFCF0102C020
:107F900080E090E0CF910895DF92EF92FF920F93EF
:107FA0001F93CF93DF938C01009741F480E394E417
:107FB00090936805809367050E94AB2EC0E0D0E0E7
:107FC000A1E3EA2EA4E4FA2ECE01C7DFEC0100976C
:107FD00089F18A818111F8CF8B819C81892B31F4C1
:107FE000F0926805E09267050E94AB2EF80160A14F
:107FF00071A1CE0178DF882339F3EB81FC81D08039
:108000006D2DF801878190850E94CD868823E1F24D
:10801000F801D18AED81FE81309749F482E394E43E
:1080200090936805809367050E94932E03C0C80152
:108030001995CACFCDB7DEB7E7E00C942CF1A1E3D8
:10804000B0E0E5E2F0E40C940BF18C01B62EDC011B
:108050005A96ED90FC905B9755966D917C91569752
:10806000F701478180E494E00E94F52E882309F40B
:1080700014C1D70111968C919FEF980F9E3F28F461
:1080800077DF6C01009719F408C1C12CD12CF801DD
:10809000228983899489213009F022E02F839987EE
:1080A0008887D70111968C918A8BF80185899689EA
:1080B0000E9454BEFC01009799F083E08B8B708185
:1080C00061815281438134812581968187817E8BB4
:1080D0006F8B588F498F3A8F2B8F9C8F8D8F02C05B
:1080E00082E08B8BD80155968D919C9156979D8BF4
:1080F0008C8B57968D919C9158979F8F8E8FF701FF
:10810000868188A3848195819AA389A382819381A2
:108110009CA38BA359968C9190E09C012A50310925
:108120003EA32DA319A6208127FD04C09C01285041
:10813000310906C02085237029F49C01295031099A
:108140003EA32DA32DA13EA1821B930BF801228DEE
:10815000338D280F391F38A72FA3BAA682A18BA76A
:10816000848D8CA7468D578D60A171A14DA75EA708
:108170006FA778AB858D89ABD7018C9187FF48C0FD
:1081800018968C918370823009F042C0E091F6120B
:10819000F091F712808190E09EA38DA38080912CB6
:1081A000AA24A394B12C2091FE1230E08091F41205
:1081B0009091F512A216B3064CF5E091F612F091EB
:1081C000F712EA0DFB1D408150E02091F9122A9D23
:1081D000B0012B9D700D1124680F791F880D991D1A
:1081E0000E94E9F1E091F612F091F712EA0DFB1D01
:1081F00020818DA19EA1820F911D9EA38DA3BFEF13
:10820000AB1ABB0A8081880E911CCDCF98A78FA393
:10821000C114D10449F0D6011596ED91FC91169741
:10822000CE010196199539C0F8018289813021F477
:10823000CE010196B1DE31C0D70111968C918F3FEE
:1082400041F5E12CF12CC70188DE7C01009729F172
:10825000D7011396ED91FC9114978081882399F3AF
:1082600012968C918111EFCF69A17AA1C7013BDEF3
:10827000882349F3D7011396ED91FC9114978081DF
:108280008A8B1596ED91FC911697CE010196199562
:10829000DACFCE0101960E94AFC5C8010E94DD3140
:1082A000E196ECE00C9427F1A1E0B0E0EAE5F1E41E
:1082B0000C940DF15C01DC015A960D911C915B97B9
:1082C000F80181812FEF280F2E3F80F4298350DEA3
:1082D0007C012981009751F0D80114966D917C9111
:1082E000159701DE882309F405C105C02E3F08F467
:1082F00001C1E12CF12CF801808187FF04C0908539
:10830000937009F0F7C086FFF7C08C70883009F4CD
:10831000F1C0D50155968D919C915697883FBFEF3E
:108320009B0708F0E7C0E114F10421F0F701228176
:108330002111E0C0D5015A960D911C915B97F8016F
:10834000208126FD02C090E0D2C02370213009F0C8
:1083500027E0F090E912E091EE12F091EF1230E098
:10836000422F50E0B801640F751F3F15E9F0A78157
:10837000A530B1F4DF01AF5ABF4F0D90BC91A02DD5
:108380008A179B0769F4DF01AC5ABF4FCD90DC9090
:10839000C40ED51EDB01EC90D601DC90ED1499F2F1
:1083A0003F5FE459FF4FE1CF82E029830E94F4311F
:1083B0002981009741F2FC01EC5AFF4F0190F081B6
:1083C000E02DDF0158973FEA11963C9311971396E1
:1083D000BC92AE92129762E0DC01A05BBF4F6C933F
:1083E000D50155964D915C915697DC01AF5ABF4F20
:1083F00011965C934E9317961C9211961C9231E045
:1084000011963C9311963C9311961C924AE752E3C5
:10841000129611965C934E9311973C9330813C7F5A
:1084200032603083D8014C914C70337F342B3083D1
:108430004C914295417040FB34F93E7D3F7B308347
:108440004C9147FB442740F940FB37F930834C916E
:1084500030E0DC01AD5ABF4F7D0144FF0DC0D501B6
:108460005A964D915C915B97420F531FDA012C9104
:108470002183F701608337C048E04C93D8011696FA
:108480004C911697418312964D915C9113975383AB
:10849000428314964D915C911597558344831196B0
:1084A0004C914683D5015A964D915C915B97420F52
:1084B000531FDA012C912783D8012C9127FF13C079
:1084C00018962C91237031F41086F70120812F5FCC
:1084D000208309C0D7012C912D5F2C93D8011896C9
:1084E0002C912370208709960E94BD3291E081E093
:1084F0008927A1C190E001C091E0F801808187FF48
:1085000092C18085837009F48EC1D5015A960D9170
:108510001C915B9759968C91F801F1842091F81287
:10852000222309F487C196EFE92EE80E8091F31219
:10853000813009F456C030F0843008F06BC180E41B
:1085400094E46AC1D084B1E0DB1274C12F1508F441
:1085500071C18091F9128E1508F46CC190E00196FA
:10856000289FA001299F500D112460E070E08091A8
:10857000F4129091F5120E9403F28FEA80939913FE
:10858000D092F312F092FE12F501858996899093AC
:10859000021380930113D80111968C911197809347
:1085A000031312968D919C911397909305138093CA
:1085B000041314968D919C911597909307138093B3
:1085C000061316968C9116978093081317968C9124
:1085D000809309138091CE1180939A131092FF1209
:1085E000F12CF8018085982F9370923011F0F110E2
:1085F00021C18C7F09F01EC18091FE128F1508F4F5
:1086000019C12091011330910213D50155968D9116
:108610009C9156972817390709F00CC190910313C4
:10862000F8018181981306C120910413309105133C
:10863000828193812817390709F0FCC02091061325
:1086400030910713848195812817390709F0F2C00A
:108650009091081386819813EDC09091091387813A
:108660009813E8C02091FF124091CF110F2D10E018
:10867000822F90E0840F911D081719070CF0DAC0C3
:108680008F2D642F0E9469F0D92EF21668F48F2D79
:10869000891B8093FF1221E030E001C0220F4A9530
:1086A000EAF72195209300132091F9128091F4129A
:1086B0009091F5124E2D50E0D5015A966D917C9116
:1086C0005B97665F7F4FF29E800D911D11240E9483
:1086D000E9F1E091F612F091F712E00FF11FE0825C
:1086E0007091FF122091FE127F1111C09091CF1155
:1086F000822F8F19981708F4892F41E050E0082E37
:1087000001C0440F0A94EAF741954093001341E0F9
:1087100050E00D2C01C0440F0A94EAF76091001359
:10872000642B609300136F3F79F4FF24FA94F70EE3
:10873000822F90E04091CF1150E0871B910948179C
:1087400059070CF4CA01F80E8F2D90E030E021504B
:1087500031098217930751F46F3F21F483E00E949F
:108760000F3463C082E00E940F3464C0A091CF1127
:10877000B0E011979D01270F311D8217930711F06B
:108780006F3F09F582E00E940F34809100138F3F04
:1087900009F050C08091CF119091FF12980F9093E3
:1087A000FF122091FE1221502F19821708F4282F52
:1087B00081E090E0022E01C0880F0A94EAF78195CB
:1087C0008093001337C02AE030E00E94EFF09B0155
:1087D000AC0180914F0490915004A0915104B0914C
:1087E0005204280F391F4A1F5B1FA091CE11B0E021
:1087F0000E94F5F09B01AC016093FA127093FB129A
:108800008093FC129093FD1261E080E090E00E9462
:10881000853510C083E594E49093680580936705DF
:108820000E94AB2E07C0992329F06FEAC50107DC2F
:1088300080E001C081E02196EAE00C9429F1A7E3F1
:10884000B0E0E5E2F4E40C9405F1A0903A04B090B5
:108850003B0420E1A21621E0B20609F469C12DE42F
:10886000222E24E4322E88248394912C88E694E0EE
:108870000E94ED2D7C01009709F45AC10091EE127F
:108880001091EF12C701801B910B6CE670E00E9403
:1088900075F08091E912681748F089E494E49093A8
:1088A0006805809367050E94932E42C13CE6639F52
:1088B000000D111D1124D80117968C91B0E1AB1653
:1088C000B6E0BB0621F0A114E5E0BE0699F58E7F67
:1088D000843019F5C8018C5A9F4F0E9472386C0180
:1088E000DC0111966C91119712968D919C911397C2
:1088F000892B51F4EAE4F4E4F0936805E09367050A
:108900006CAB0E94AB2E6CA9D70112968C91811191
:1089100004C0F6018281938192DBA7014B5F5F4F18
:1089200063EAD8018D919C910E943E38C7010E9454
:1089300076319CCF8695482E512CB1E04B165104D0
:10894000B1F054F4452809F0EAC0D70112966C91B1
:10895000C8010E94383B8ACFF2E04F16510409F457
:10896000BBC023E04216510409F47BC0D8C0F80113
:1089700080858F70813009F079CF60807180D70158
:1089800019968C910E9473349B01AC01C090CE115A
:10899000D12CF801808582958F70C81AD108D70133
:1089A00012966C9161111EC02FAB3CAB4DAB5EAB10
:1089B0000E94C5F1FC01F170D20102C0AA0FBB1FD9
:1089C000CA94E2F72FA93CA94DA95EA90E94FFF025
:1089D0006E0F7F1F811D911DF80163837483858352
:1089E00096832DC06E3C59F0603F49F0603D39F0F0
:1089F000613D91F4D3019B968C9187FF0DC0A70137
:108A00004B5F5F4FC3010E943E38C7010E94763121
:108A100081E00E945E318CC00E94C5F19170E8EE49
:108A2000F3E002C0EE0FFF1FCA94E2F78E0F9F1F04
:108A3000A0E0B0E0F80183839483A583B683D801D6
:108A400018968C911897807F826018968C9318974F
:108A500013962D913D914D915C91169760E0C80160
:108A600002C2F80180858F70813009F0FFCE20911D
:108A70009C1330E080919F1390E0019728173907ED
:108A800009F4B5C1E091CF1170919E13272F30E00A
:108A900080E090E0682F8E1708F0A9C10196A90127
:108AA000062E02C0559547950A94E2F740FFF2CF93
:108AB000C401062E01C0880F0A94EAF78095872327
:108AC00080939E1380919D13860F80939C1382EA5E
:108AD00093E10E94E7DECACEC8018C5A9F4F0E94E4
:108AE00072388C01DC0111966C91119712968D9160
:108AF0009C911397892B41F4309268052092670569
:108B00006CAB0E94AB2E6CA9F8018281938197DA3D
:108B1000C7010E94763181E00E945E31A7CE2EE42B
:108B200034E430936805209367050E94AB2E9ECEF7
:108B30001BAA1AAAADEA4A2EA2E35A2EBFEA2B2E8E
:108B400013E0312EAA24A394B12C66246A94712CCC
:108B500095E4892E94E4992E8AE694E00E94ED2D06
:108B60008C01C0903A04D0903B04009761F1D80189
:108B700050968D919C915197892B09F077C15A9607
:108B8000ED91FC915B9780818370813009F06EC11B
:108B90008281853009F46AC155968D919C915697D2
:108BA0000E9454BE892B09F061C122E0F8012483A0
:108BB0008589968996838583518A408AC801029661
:108BC0000E944BBEC9CFC1FE11C050E5C52E54E472
:108BD000D52E62E0462E72E1A72E74E4B72EE8E0AF
:108BE0005E2EF5EB8F2EF2E39F2E3BC000916C04BE
:108BF00010916D040115110509F458C0B8018CE6F7
:108C000094E00E94F92D40E050E063EAC8010E9420
:108C10003E38ECCF8689833081F57801F9E1EF0E9B
:108C2000F11CC7010E9451BE892B39F5D8011B9652
:108C3000F701852D01900D928A95E1F7D80156969E
:108C40008C91569718968C93189755969C928E9265
:108C50005497C80106960E944BBE8CE694E00E9491
:108C6000ED2D00916C0410916D0401151105F1F0CA
:108C7000F80184899589892B69F28091AF139091CD
:108C8000B013892B09F4BCC2C8010E944431882367
:108C900009F4B6C2C8010E944431882309F4B0C265
:108CA000F8010081118101151105A1F780913A04A5
:108CB00090913B048115B5E09B0721F08031F6E0EF
:108CC0009F0769F5F12C0EC02CE6F29E800111245D
:108CD000E091EE12F091EF12E00FF11F87818330E7
:108CE00031F0F3948091E912F81670F320C080857A
:108CF0008F70843011F08230A1F740E050E063EAD9
:108D0000808191810E943E388091EE129091EF1205
:108D1000800F911F805A9F4F0E947631E2CF8F3390
:108D2000944029F4F12C8091E912F81648F08091D2
:108D30003A0490913B048115954009F07EC351C0DF
:108D40000091EE121091EF128CE6F89E000D111DAD
:108D50001124D80117968C91179780FF40C0189660
:108D60009C911897292F2F702430C9F5282F2A7F1E
:108D70002230A9F5907F79F19160905118969C93DB
:108D80008E7F823071F4C80109960E94BD32F801CD
:108D9000238134814581568160E0C8010E94853578
:108DA0001EC08630E1F480919E138E7F80939E13C7
:108DB00080919D1380939C138091A1138150809387
:108DC000A113E091AF13F091B013BF0180819181A5
:108DD0000E94C43204C067EAC8010E94383BF39481
:108DE000A2CF80914E04882309F4A8C226C3F701BC
:108DF00081850E9473349B01AC01A091CE11F801D2
:108E0000808582958F70A81BC40102C0880F991FAE
:108E1000AA95E2F7DC010E94FFF06B017C01009152
:108E2000AF131091B0130E94C5F19170C80ED91EF6
:108E3000E11CF11CD8011396CD92DD92ED92FC92CB
:108E40001697E091AF13F091B0138085807F826018
:108E500080878091AF139091B013FC0123813481FE
:108E60004581568160E00E94853500CDD8015A9633
:108E7000ED90FC905B97BFE3CB16B4E0DB0669F0A6
:108E8000D7018C918370813041F0F80183A1811169
:108E900004C0C8010E94DD31A4C1D7014C91642FE8
:108EA000607446FF11C05091EC122091E91230E03D
:108EB0008091ED1290E0850F911D821793074CF77A
:108EC0008091EA12581728F7242F2C70243009F3C8
:108ED000662331F0842F83708230D9F243FDD9CFDD
:108EE00045FDD7CFF801D288F1E0DF1671F032E00E
:108EF000D312CFCF4370842F90E0009721F00297D8
:108F000009F47AC0C6CF2C3031F0C801CDD98823FE
:108F100009F467C1BECFD80155966D917C915697E3
:108F2000F701408580E494E00E94F52E882309F43F
:108F3000B0CFD80159968C91893008F4AACFB1E00E
:108F4000BF83F7018181928199878887D8015596DF
:108F50008D919C9156970E9454BEFC01009791F010
:108F60003B8A708161815281438134812581968160
:108F700087817E8B6F8B588F498F3A8F2B8F9C8F79
:108F80008D8F01C0DB8AF801858996899D8B8C8B3A
:108F90008789908D9F8F8E8FD70117968C91179709
:108FA00088A315968D919C9116979AA389A31396E1
:108FB0008D919C9114979CA38BA3818D90E0099730
:108FC0009EA38DA3828D938D099698A78FA319A632
:108FD0002AA682A18BA7848D8CA7868D978DA0A1B0
:108FE000B1A18DA79EA7AFA7B8AB858D89ABCE01E8
:108FF00001960E94CC3F4DCF423031F090926805EF
:10900000809267050E94AB2EC090EE12D090EF12B6
:109010008091E912F6012CE6829FE00DF11D1124EA
:10902000CF01C816D90608F034CFD60117966C9137
:10903000179760FFD2C018962C9118972F70223086
:1090400009F0CBC0F601EC5AFF4F0190F081E02D02
:109050002D913C91D80155964D915C915697D9012F
:1090600057962D913C9158974217530709F0B5C078
:10907000D70117963C91179727813213AEC01496EB
:109080004D915C911597248135814217530709F062
:10909000A4C012964D915C9113972281338142179F
:1090A000530709F09AC011963C911197268132130B
:1090B00094C016963C91218132138FC06E7F62302E
:1090C00031F4F6018085807F836080873FC0663001
:1090D00009F083C0D70119969C91199780919D132F
:1090E0009813D7CE6091CF11262F30E0C501062E00
:1090F00001C0880F0A94EAF781951A969C911A97F5
:10910000982B1A969C931A97F6018085807F83602E
:1091100080871A96EC91EF3F99F540919F1350E0AC
:1091200070919D13E70FCA01871B91092817390712
:109130000CF4C9018E0F80939C1390E041505109AB
:109140008417950741F4C6010E94893960E0C60181
:109150000E94383B9ECE760F70939D138091CE1166
:109160008093A11370939C13930102C0220F331FAD
:109170006A95E2F7B90160956E7F60939E1323C0F4
:10918000E095E0939E1380E090E02E2F30E0782F62
:109190008617C8F40196A901072E02C05595479578
:1091A0000A94E2F740FFF3CFC501072E01C0880FF4
:1091B0000A94EAF780958E2380939E1380919D13E5
:1091C000870F80939C13E091AF13F091B013BF0110
:1091D000808191810E94C4325CCE3CE6C30ED11CDA
:1091E00020CFD8015C968C915C978AAB5D968C9170
:1091F0008BABBE016E5C7F4F8BE30E94E92CACCC45
:10920000C8010E944431882361F08091B11390918C
:10921000B213892B09F4BDC0D8019B968C9182FFB3
:10922000B8C0F80187A190A58536910518F083A5EF
:1092300083FFB1C0D80196963C90332031F0832D46
:109240000E94B83F892B09F448C0F80183A52689FC
:10925000382F347082FF0AC0223031F48789908D14
:10926000883F9F4FD0F502C02130B9F18EEF820FB9
:10927000823038F4D80191968C91815F8E3068F1FC
:109280008CC021118AC0332309F487C0F80164A07F
:1092900075A087D67C01009719F080E090E00CC0A3
:1092A000B0926805A09267050E94932E76C0DC01FB
:1092B0001B962C91213089F09701432DB3010E9418
:1092C000C3390097A1F769C0813008F475C08230B6
:1092D00009F49AC0833009F48AC026EAE12CF12C03
:1092E000612C712CB8018CE694E02FAB0E94F92D13
:1092F0002FA921111CC0E114F10431F4D0926805AA
:10930000C09267050E94AB2EF30111830083C80150
:109310000E944431882319F0C3010E948939B301A6
:10932000C801F7011995282F882309F49ACC40E049
:1093300050E0622FC8010E943E3893CC00913E0459
:1093400010913F04F8018281853C41F08DE694E460
:1093500090936805809367050E94AB2ED801139601
:109360008D919C9114978D7F14969C938E93139757
:10937000892B09F062C080E00E94623D80E196E0A6
:1093800090933B0480933A0460E0C8010E945C35EE
:1093900054C02AEAA3CF20EAA1CFD80156968C91D7
:1093A000813009F091CF80E00E94F4313C0133EB31
:1093B000E32E38E3F32E0DC0C8010E944431882308
:1093C00071F083E00E94F4313C0142E0E42E4BE373
:1093D000F42E6114710409F469CC20E083CFF80104
:1093E00083A582FF02C081E0EDCF80E0EBCFC80112
:1093F00049960E9451BE0097F1F0DC018D919C913D
:10940000F801908F878B468AC8010E9444318823D7
:1094100011F083E008C0D8019B968C9182FF02C0B6
:1094200081E001C080E00E94F4313C0124ECE22E96
:1094300022E3F22ECECF29EA51CFE796E2E10C9457
:1094400021F1AFE1B0E0E7E2FAE40C9412F1009709
:1094500049F485E495E490936805809367050E943C
:10946000932E82C0FC012081233009F07DC0218130
:1094700032813A83298328E03396DE0113960190E6
:109480000D922A95E1F7FC0123852B8724853585EC
:109490003D872C8728E03E96DE011E9601900D92B6
:1094A0002A95E1F7FC01218D2D8F238D2E8F0789C1
:1094B000108DF688F6E0FF1508F056C0F80180819F
:1094C000982F9370933009F04FC0807E09F04CC004
:1094D0008181811149C0BE01615E7F4F84E190E0CE
:1094E0000E94E330F801208126952695277030E010
:1094F0008F8D90E028173907B9F58281982F9370E6
:10950000933091F5982F907F79F58C708C3091F491
:1095100081E08B87F8E0FF1538F5F80183819481AD
:109520009F878E876FEF0E94CD868823E9F0F80130
:1095300029E003C0F801329727E085819681998F51
:10954000888F878190859F8B8E8BF21AFA8E020FFF
:10955000111D1C8F0B8FE0914A04F0914B04309742
:1095600019F0CE01019619956F96E5E00C942EF155
:1095700080E191E090933B0480933A0410923F0481
:1095800010923E0410923D0410923C0410924D043F
:1095900010924C040E94BF340C9488A6CF93DF93A2
:1095A000EC016DE172E085E20E94682D6DE172E0F0
:1095B00088E30E94682D209749F480E694E4909314
:1095C0006805809367050E94932E05C089E18A8310
:1095D000CE010E948532DF91CF910895009741F42A
:1095E00081E694E490936805809367050C94932E2C
:1095F0002AE8FC0122830C948532009741F482E62C
:1096000094E490936805809367050C94932E25EC61
:10961000FC0122830C948532CF933091F01280911B
:10962000F1129091F21220E0231751F08396FC0181
:10963000B3974081442311F081E029C02F5FF4CF1C
:10964000C0E08091E912C817E0F40E94E32C9CE688
:10965000C99F900111244091EE125091EF12FA012E
:10966000E20FF31F882341F0878180FF08C08085C7
:109670008F70823021F0E0CF878180FDDDCFCF5F1A
:10968000E0CF81E09091F312911101C080E0CF9181
:1096900008951F93CF93DF93EB01853239F418813E
:1096A000BBDF91E09827912398831FC08833E9F4AA
:1096B00038814091E912E091EE12F091EF1280E0D2
:1096C000841771F0278120FF07C090859F7092302A
:1096D00019F42A7F223031F08F5FE459FF4FF0CF29
:1096E00080E001C081E0832B8883DF91CF911F91BF
:1096F0000895FC01808184FD0C9432350895A2E028
:10970000B0E0E5E8FBE40C9415F1E0913C04F09145
:109710003D042F2F30E09E2F9F5F983008F090E09F
:10972000692F70E0A901092E02C0569547950A9449
:10973000E2F740FF26C090933C0481E090E0062EC3
:1097400001C0880F0A94EAF78F2780933D04660FC3
:10975000771F6058744B42E050E0CE0101960E94A2
:10976000D3F189819A81892B41F480E094E490932C
:109770006805809367050E94AB2EE981FA811995EF
:1097800004C0E913C9CFE0933C0480913D048823D1
:1097900061F02FB7F8948091380490913904806279
:1097A00090933904809338042FBF2296E2E00C9402
:1097B00031F180911A12853091F028F4882349F014
:1097C000823069F004C0843141F0863141F080E09C
:1097D0000895809113128B3010F488E0089582E090
:1097E0000895833014F083E01BC096E0980F923008
:1097F00010F48BEF15C098E0980F923010F489EFB9
:109800000FC09AE0980F923010F487EF09C09EE0E5
:10981000980F943010F484EF03C0823F0CF48FEE65
:10982000809318120895C5DF282F220F220F280FCA
:1098300030E0A90160E8869F400D511D1124CA0146
:10984000089580911A128530E9F028F4882349F0B0
:10985000823079F004C0843189F0863189F080E06B
:10986000089580911312882349F08B3058F489E1D0
:10987000089580911312811105C002C082E30895FA
:1098800088E2089580E10895CF93DF93EC01D9DF5A
:10989000E82F9E01A0ECB3E00E94E0F09B01AC0138
:1098A000AE2FB0E00E94F5F028EE33E040E050E04B
:1098B0000E949CF0CA01B901DF91CF910895CF9326
:1098C000DF93B1DFEC01BDDF282F2C9FC0012D9F5E
:1098D000900D1124BC0180E090E028EE33E040E0E0
:1098E00050E00E949CF02F5F20931212DF91CF91E5
:1098F0000895CF93DF938BE08093131280E098EF6D
:10990000AFEFB7E08093141290931512A093161244
:10991000B093171268E172E183E090E00E94E330B7
:10992000809118125EDF68E172E183E090E00E94AE
:109930001B31C1E0C093191210921A1274DF909378
:109940001C1280931B1235DF94E0899F800D112437
:1099500080931D122EDF80931E1286E390E0A0E01C
:10996000B0E08093E7119093E811A093E911B093D0
:10997000EA111092EB111092EC11C093ED111092BC
:10998000EF111092EE111092F0110E94C5F1809328
:10999000F111E2EFF1E18FEF808381838283838392
:1099A0008483858386838783CFEFDFEFD093FB119A
:1099B000C093FA110E94C5F18093FC1185E0809359
:1099C000FD1184E08093FE1183E08093FF1180936A
:1099D0000012D0930212C093011280E2809303120E
:1099E0001092041210920512D0930712C09306121F
:1099F000109210121092111262DFDF91CF91089530
:109A0000A4E0B0E0E6E0FDE40C9415F1DC014C913B
:109A100050E0CA01805491098434910508F0D7C000
:109A2000865A9D4DFC010C94DAF011968C9180932E
:109A3000EC1108C011968D919C9112979093EF11A3
:109A40008093EE1180E00DC111968C91853308F062
:109A500007C18093F011F6CF11968C918093F1118C
:109A6000F1CF11968C9111978093F21112968C91EF
:109A700012978093F31113968C9113978093F4119E
:109A800014968C9114978093F51115968C911597D7
:109A90008093F61116968C9116978093F71117966E
:109AA0008C9117978093F81118968C918093F911E7
:109AB000C9CF11968D919C9112979093FB11809331
:109AC000FA11C0CF11968C918093FC11BBCF1196E7
:109AD0008C91863008F0C4C08093FE11B3CF1196EC
:109AE0008C919091FD11981708F4BAC080930012E0
:109AF000A9CF11968D919C91129790930212809309
:109B00000112A0CF11968C91809304129BCF1196D5
:109B10008D919C911297909307128093061292CF89
:109B200011968D919C911297AFDE69837A838B8316
:109B30009C83BE016F5F7F4F03C0BD016F5F7F4F8E
:109B400082E090E071C011967C91119712966C9111
:109B5000129713965C91139714964C91149715963F
:109B60003C91159716962C91169717969C911797DE
:109B700018968C91709308126093091250930A12F0
:109B800040930B1230930C1220930D1290930E12EF
:109B900080930F1257CF11968C918093EB1152CF77
:109BA00011968C91883008F05BC08093FF114ACFEA
:109BB00011968C918093031245CF11968C918093CE
:109BC000FD1140CF11968C91809311123BCF4830FC
:109BD000510508F043C042565D4DFA010C94DAF08D
:109BE0008BEF3FC011962C91809114129091151219
:109BF000A0911612B0911712022E04C0B695A79527
:109C0000979587950A94D2F780FF2AC02093131264
:109C100023C011968C9190E2980F903408F5E1DD05
:109C200068E172E183E090E00E941B310BCF119656
:109C30008C918430A8F48093191204CF11968C91E2
:109C4000853041F018F4833058F404C0843111F0A9
:109C5000863131F480931A1232DEF4CE84EF01C0E3
:109C600088EE2496E2E00C9431F1A4E0B0E0EBE35E
:109C7000FEE40C9407F16090FE116091FD1170E01C
:109C8000E0910012F0E0262D30E0CB018E1B9F0BFF
:109C9000281739070CF4C901AA2797FDA095BA2FF8
:109CA0000097A105B10521F481E090E0A0E0B0E0CB
:109CB000712CC12CD12C76018C019D010150110910
:109CC0002109310942E0442E512C872C912CA12CE2
:109CD000B12C081519052A053B05B0F0AF01470D59
:109CE000511D41505109520102C0AA0CBB1C4A959A
:109CF000E2F74501AA2497FCA094BA2CC80CD91C01
:109D0000EA1CFB1C7394E1CF262D30E040E050E0CC
:109D1000281B390B4A0B5B0B61507109A2E0B0E0C4
:109D200002C0AA0FBB1F6A95E2F711970E94FFF0CD
:109D30009B01AC012C0D3D1D4E1D5F1DA4E1B0E04B
:109D40000E94F5F09B01AC0169833A834B835C83ED
:109D50006ADD29813A814B815C81280F391F411DC1
