S02B0000416C6C5F4D65676152665F41746D656761323536726672325F384D687A5F4763632F4578652F417000
S2840000000C9480260C941FEE0C944BEE0C9477EE0C94A3EE0C94CFEE0C94FBEE0C9427EF0C9453EF0C94BD260C94BD260C94BD260C94BD260C9430EA0C94BD260C9486EA0C94BD260C94BD260C94BD260C94BD260C94BD260C94BD260C94BD260C94BD260C947EF00C94E9EC0C948CEC0C94BBEC0C94BD260C940FF00C94E6EF0C94BD268E
S2840000800C94BD260C94BD260C94BD260C94BD260C9483ED0C9426ED0C9455ED0C947FEF0C94BD260C94BD260C942DDC0C9490DE0C94BD260C94BD260C94BD260C94BD260C94BD260C94BD260C94BD260C94BD260C94BD260C94BD260C94BD260C94BD260C94BD260C94BD260C94BD260C94BD260C94ECDE0C94BD260C94BD260C9414DF4C
S2840001000C94BD260C94BD260C94BD260C94BD260C94BD260C94BD260C94BD260C943CDF0C94BD260C94BD260C94BD260C94BD260C94BD26000000000000000000000000000000000000000000000000000000000000000000000000000000000000000000000000000000000000000000000000000000000000000000000000000000009B
S2840001800000000000000000000000000000000000000000000000000000000000000000000000000000000000000000000000000000000000000000000000000000000000000000000000000000000000000000000000000000000000000000000000000000000000000000000000000000000000000000000000000000000000000000FA
S284000200000000000000000000000000000000000000000000000000000000000000000000000000000000000000000000000000000000000000000000000000000000000000000000000000000000000000000000000000000000000000000000000000000000000000000000000000000000000000000000000000000000000000000079
S2840002800000000000000000000000000000000000000000000000000000000000000000000000000000000000000000000000000000000000000000000000000000000000000000000000000000000000000000000000000000000000000000000000000000000000000000000000000000000000000000000000000000000000000000F9
S284000300000000000000000000000000000000000000000000000000000000000000000000000000000000000000000000000000000000000000000000000000000000000000000000000000000000000000000000000000000000000000000000000000000000000000000000000000000000000000000000000000000000000000000078
S2840044009E0E16001900910C03001800CD07BD001700F31201001600A713080015003413010014002B13020013009713010026003A1301001E002A1301000F00B11301000E009B1301000D00A31302000C00F41201000B00EE1202000A00111311000900071301000800061301000700051301000600981301000500A113010004009912A9
S28400448004000300221308000200EC1201000100D11208000000704712002E00944715002D00BE4719002C00F04704002A00F84711002900B04ED54DEE4EEE4EEE4EDA4DE44DEE4EEE4EEC4DF14D194E224EEE4E274E2F4E394EEE4E424E474EEE4E504E8B4E9D4EEE4E904E984EB04EB04EB04EA74EA74EA74EA74EA74EA74EA74EA74E02
S284004500A74EA74EA74EA74EA74EA74EA74EA74EA74E634EA74EEE4EEE4EEE4EEE4EEE4EEE4EEE4EEE4EEE4EEE4EEE4EEE4EEE4EEE4EA74EA24EB04EA74E5D4EB24EB04EC94ED74EDE4EB04EB04EB04E4A50B74F8C508C508C50BD4FC24F60508C50C54FC84FD94FDE4F8C50E14FE44FE74F8C50EC4FEF4F6050F44F3E5053508C50415010
S2840045804450BB4F4750475060506050605060506050605060506050605060506050605060506050605060506050245060508C508C508C508C508C508C508C508C508C508C508C508C508C508C5060505650595060501C50685071506B506E508C507F5084508A50915193519E519551975199519B517051A151A3517051A651FB51FE5155
S2840046000252055209520D5210521452145256569456945694565D567A566B567256A556645681568156885694569C56A0560057035706570657085712570C570F571F570A571557175719571C5708590B592C590E5912592C5916592C59215924592A59935C405D4F5D4E5C965D965D4B5D4F5D545D825D6B5D965D965D825D815C845D83
S28400468088959095A7951996199670957D95199619961996C795D695F395FF9519966D959B953995069A069A2F993799379944994499619961996199BF99BF99BF995A9A069AE7A739A80DA811A811A811A811A811A815A815A884BA87BA28BB28BB8CBA28BB96BA7FBB7FBB7FBB7FBB7FBB7FBB7FBB7FBB7FBB28BB28BB7FBB7FBA91BAB0
S28400470028BBD5C523C623C623C623C623C612C6FCC51AC623C60CC623C616C61EC6F8C7D3C8B1C9DCC91BCA47CB90CBB3D1B3D1B3D1B3D1B3D1B3D1B3D1B3D1B3D1C7CAD5CAB3D1B3D1FCCA92C9AAD3B2D3C4D3CDD3CFD3D1D3D3D3D6D3A9D421D521D5CFD4D8D4E8D4F1D4F4D4F7D4FAD400D5000001000200030004000500060007002C
S284004780080009000A000B000C000D000E000F001E00180000000100020003000400050006000700080009000A000B000C000D000E000F001E00130014001500160000000100020003000400050006000700080009000A000B000C000D000E000F001E0013001400150016001700180019002600130014001500160000000100020003008C
S2840048000400050006000700080009000A000B000C000D000E000F001E0036060000CD070000270700008A080000C107000000000000B40800001E0E0000760E0000C80B00001A0C0000E40B0000510C0000940C0000D80D00000000000000000000910C00009E0E000000000000000000000000000000000000000000000000000000008C
S284004880000000000000000000000000000000000000000000000000000000000000B40E0000DC0E0000BB0600006A4A02006E4A0100714A01006F4A0200744A0100754A0100764A0100774A0100784A0100794A01007A4A0200724A02007C4A01007D4A0100964A0200874A0100884A0100894A0100924A04007E4A01007F4A0400834A26
S2840049000100844A01008E4A01008F4A0100904A0200000000000000000000000000000000000000000000000000000000000000000000000000000000000000000000000000854A0100864A0100984A0100994A01009A4A01009B4A0100000000008A4A04006C4A0200D1120800DB120100E8120400EC1201009F130100A0130100A71319
S2840049800800A31302002B130200341301009B130100B1130100A1130100F0120100F1120100F2120100F3120100EE120200F4120100F51201009D1301009C130100AC120100AD120100221308009912040008130400FD1204000113040005130100061301000713010011131100981301000C1301000D13040097120100AE1202002A13EC
S284004A000100ED1201000000000000000000981201000000000000000000000000000000000000000000000000000000000000000000000000000000000000000000F6120500FB120100FC12010000000000000000000000000000000000000000000000000000000000DC12010085006C0001000007050007040205040204000308FF1434
S284004A800000000108030303020A901A00000100000000000203141061620003001E000003013412000303000002000000000003031027000010270000010001E803000004E80300001041746D656C2020202020202020202020FECAAAAAAAAAAA1A000203010080000000000000000000000000000000000005FF00000000000000000018
S284004B000000000000000000000000000000000000000000000000000000000000000000000000000000000000000000000000000000000000000000000000000000000000000000000000000000000000000000000000000000000000000000000000000000000000000002010002020508080000FFFF34120000000000000000020201CB
S284004B80A33FDF4400000000000000000000000002CA7BA87601070A975E7101010A975E710101897BB38E01010E7B129E01010E7BE19D0107C37A4E7101016B7A3284010100000000010700000000010100000000010300004869010400004869010500000000010600000000010D0000000001010A970000000100000000010E000000EB
S284004C0000010700000000010A00000000010000000000010100000000010100000000000000003575000900003575000C0000357500000000357500CC779E7DC9946FA7D573FF9AE17887795B72448089866E753B9E6878DA72C9710000000093710C8000000000FD660D6A936768678C6700000467126781670B67036ABB66FF680669C5
S284004C807569F7689A6700005D6A020102030302020101010101010101010202010101020102020202020201020202020202010303020203C4A5F09BA794239D000026A4A68DBFA80000000082B51CBAA7C3EDBCC3D186C29FE09FE09FE09FE011E2D8DF04F101EA41DD7FDC9CE836EB40E8CDE648E5A0E0F2E11EE331E1F0E11CE32FE120
S284004D00112480911418823159F084B780FD04C08F718093141807C081E08093141803C081E18093141814BE809160008861809360001092600011241FBECFEFD1E8DEBFCDBF00E00CBF13E0A0E0B2E0EAE9F6EE01E00BBF02C007900D92AC38B107D9F728E1ACE8B3E001C01D92A431B207E1F70E9479300E948F30FDCF0C9400007F9341
S284004D807FB7F8949D9AA5988AEF4DD08AEF4BD09D9886E448D081E0959980E08F9380EF42D08F917FBF7F9108957F937FB7F8949D9AA59886E037D09D988AE034D0889495990894881F8F9384E62DD08F917FBF7F9108959F937F9398E0E7DF879577959A959923D1F7872F7F919F9108957F937FB7F894A5989D9A8F9386E014D08F91BD
S284004E00879508F49D988F9384E60DD08F919D987FBF7F9108959F9398E0E9DF9A959923E1F79F91089500000000000000008A958823C9F708955F937F937FB7F894CF93DF93C0E0D0E07F935091B2007091B2007517E1F3739521965091B2005717D9F77F91CE01DF91CF917FBF7F915F91089582E08093A5032FB7F8948091F404909199
S284004E80F50490619093F5048093F4042FBF0895FC018785811116C08091A403811104C069E287E992E00BC0813021F464E281EC92E005C0823021F468E286EE92E036D182E005C06EE18FE093E030D180E00E94D9302FB7F8948091F4049091F50490619093F5048093F4042FBF08958091A5038130B1F120F0823009F43DC0089564EA9D
S284004F0073E081E290E00E94A33188EE93E0A0E0B0E08093F6059093F705A093F805B093F9051092FA0588E397E29093FC058093FB0580EF95E00E9426E0C9D00E94F13081E08093A5032FB7F8948091F4049091F50490619093F5048093F4042FBF089588E497E29093A3038093A2038CE893E00E94CEC20EC08091A40381110AC081E03F
S284004F800E94D93069E18EE293E0D0D081E00E94E53083E08093A50308950895089508950895CF92DF92FF920F931F93CF93DF93E42FF0E0F090A2042AEF30E02F1931092E173F0734F15091A10420E030E0EC01C60FD11D0AEF10E02E173F07ACF4852F90E0BC016A557C4F6B01BE01620F731FDB015C91D6015C932F5F3F4F0196B80110
S2840050000E94CCF1582FE8CF5093A104F40EF092A204DF91CF911F910F91FF90DF90CF9008951F93CF93DF931092D5041092D6041091A204112309F446C08091A004E3EAF4E01333E0F4212F30E0CAEFD0E0AF01435A5440421753075CF490E0DC01AA55BC4F4C9141930196BE010E94CCF1EFCF8093A0041093D5041092A20418C02AEFC3
S28400508030E090E0DC01AA55BC4F4C9141930196B9010E94CCF194E0E53DF90791F78093A00482E38093D50412531093A20481E08093D6044091D50450E063EA74E08FEC95E00E9487E3DF91CF911F91089588EC8093DA051092DB0589E190E09093DD058093DC0586E08093DE051092DF051092E0051092EF051092E4051092E3051092BC
S284005100E6051092E5051092E8051092E7051092EA051092E90581E198E29093EE058093ED058FEC95E00C9428E30895462F2091D604222319F060E034CF0895FC01A3EAB4E0633370F4862F90E09D01235A3440281739071CF421912D93F7CF4093D5040CC021912D9324E0A53DB207D1F722E32093D504425362E314DF81E08093D60488
S2840051804091D50450E063EA74E08FEC95E00C9487E30895A2E0B0E0E0EDF8E20C9450F26C010091FD051091FE05E12CF12C8091010690910206E816F906A8F45801B8016C5F7F4F42E050E0CE0101960E9416F30A5F1F4F29813A812C153D0539F08FEFE81AF80AE4CF80E090E001C0C5012296EAE00C946CF2ADE0B0E0E1E0F9E20C94FA
S28400520052F27C016B0123E0969587952A95E1F7FC01E350FA4F228D30E0B70167707727062E02C0369527950A94E2F78E010F5F1F4F20FF42C027E0E7E1F6E0D80101900D922A95E1F7A0E020E030E04A2F50E048175907D8F4F801E40FF51F4081542F569555754575540F452F4695469543735373450F4083E42FEF7042954F7050E022
S2840052804E0F511D240F351FAF5FE0CFE0E0D801A80FB91F4E2F50E04617570780F44C9150E00E2E02C0569547950A94E2F741705527240F351FEF5FEDCF2FEF3FEF1B870A8746E0429FC001439F900D112404969987888786E090E09D878C876DEA7AE2CE01089672D18D819E81E816F90639F084E090EA9093310680933006E1D58981C7
S2840053009A81F601918380832D96E8E00C946EF2A6E0B0E0EEE8F9E20C9454F27C018B0180E090E0FC0133E0F695E7953A95E1F7EE0DFF1D6081AC0147705527262F30E0042E02C0369527950A94E2F720FF0DC021E030E001C0220F4A95EAF720952623208318DF009731F431C0019683339105C9F62CC046E050E0BC01CE0101960E9464
S28400538016F389819A81F80193838283B8018D819E8131DFF801808191810596918380838B819C819583848382819381892B39F480E090EA909331068093300681D58D819E81F7019087878381E006C08FEF9FEFF7019087878380E02696E6E00C9470F2A8E0B0E0E6EFF9E20C944EF27C01A090FF05B0900006FC01868182FD09C000E05E
S28400540010E0812C76E0972ECC24C394D12C0CC047E050E06FEF70E0C7010E9446F36DC0882483940F5F1F4F80910306909104060817190708F05BC0909EB001919E700D11246A0D7B1D46E050E0CE0101960E9416F32D813E81F90163E0F695E7956A95E1F7EE0DFF1D408127703327842F90E0022E02C0969587950A94E2F780FFD2CFDA
S284005480C60102C0880F991F2A95E2F79C01209524232083812C882D90E02B813C818217930708F0BDCF880F991F69817A81680F791F42E050E0CE0107960E9416F38F819885FC0153E0F695E7955A95E1F7EE0DFF1D87709927960102C0220F331F8A95E2F7C9019081982B90838394D4CF882021F000E010E0812C97CF2896ECE00C945F
S2840055006AF2CF93DF93EC018FEF9FEF98878F8387E0FB01DE0101900D928A95E1F7CE015FDFE7E1F6E0919188818923899386E0EE31F807C1F7DF91CF91089580912B0690912C06A7C20895109228068EE99AE290932A068093290608950895E0E1F6E0DC013D91CD012081232B2193B6E0E731FB07B1F780912D06846080932D060895D9
S2840055800E94C6E6882311F0DFD5FACF0895A2E0B0E0EDECFAE20C9456F28B0189839A83EFDFB80189819A810E94E9E5019631F08AE20D3A180721F4E3DF02C081E001C080E02296E4E00C9472F2A2E0B0E0EBEEFAE20C9456F28B0189839A83D1DFB80189819A810E9476E5019631F08AE20D3A180721F4C5DF02C081E001C080E02296BF
S284005600E4E00C9472F2A2E1B0E0E9E0FBE20C944BF280912D06982F926090932D0682FF0AC060E176E087ED94E06BDF80912D068B7F80932D06CC24C394D12C7E013DE0E30EF11C55E0A52EB12C4E0182E1880E911CBE01695F7F4F87ED94E059DE882309F462C06090DE047090DF04F30163E0F695E7956A95E1F7E350FA4FC3018770D5
S2840056809927960102C0220F331F8A95E2F7C901809593898923838BFC82EB82BE82AD828F81988505979A8389836DEA7AE2CE0101968BDF4B855C8569857A8580E05ED0582E8D8558123AC08889998968167906A9F52B853C858E859F852817390771F59C828B82DE82CD8200E010E02B853C850217130708F0ADCF2F813885200F311F5C
S2840057003A8329836DEA7AE2CE0101965EDFAB81BC81E985FA85E00FF11F9C91808198130DC00F5F1F4FE2CF80912D068D7F80932D0660E070E08FE001D21CC05D86798A688A8B859C859F878E87FC82EB8285E090E09E838D838F81988505979A83898363E07BE2CE01079612DF6DEA7AE2CE0101960DDF6296EFE00C9467F2FB01460F5F
S284005780571FE417F50719F09191890FFACF08954F925F927F928F929F92AF92BF92CF92DF92EF92FF920F931F93CF93DF93CDB7DEB762970FB6F894DEBF0FBECDBF80E094E49093FE058093FD0586E994E4909300068093FF0506E914E400501444C80166E070E00E94B8F1892B39F080E290EA909331068093300663D326E030E0C801FE
S284005800B9010E94B8F14091010650910206642B752B709302066093010604EB14E406591444C801B9010E94B8F1892B39F081E290EA909331068093300642D3C80166E070E00E94B8F18091030690910406682B792B70930406609303060091FD051091FE051092050610920606109207061092080687E0E7E1F6E0DF011D928A95E9F798
S284005880D12CEE24E394F12C80910106909102062D2D30E028173907C8F546E050E0B801CE0101960E9416F32B813C812B5F3F4F8091050690910606A0910706B0910806820F931FA11DB11D8093050690930606A0930706B09308068D819E81FC0133E0F695E7953A95E1F7E350FA4F87709927970102C0220F331F8A95E2F7C901928D19
S284005900982B928F0A5F1F4FD394BECF26E0289F6001299FD00C112434E0C30ED11CE12CF12CCE010796988B8F8786E090E09A8B898BA12CB12C00E010E096E0792E22E2822E20EA922EF80183E0F695E7958A95E1F7E350FA4F828D90E098012770332702C0969587952A95E2F780FF41C07A9CC0017B9C900D112404969E878D876DEABD
S2840059807AE2CE010D9621DE8B859C858017910749F48F819885A985BA858C159D05AE05BF0559F01C870B87CF82D886E986FA866DEA7AE2CE010D96EADDC801EBDB2C01009729F4909231068092300679D246E050E0B201CE0101960E9416F38B819C810596C80ED91EE11CF11C8FEFA81AB80A0F5F1F4F0333110509F0A5CFA5DD6296BA
S284005A000FB6F894DEBF0FBECDBFDF91CF911F910F91FF90EF90DF90CF90BF90AF909F908F907F905F904F90089520E0FC013191CF01311105C02F5F2730C1F780E0089581E0089527E0FB0111922A95E9F7FC0123E0F695E7952A95E1F7E60FF71F8770992721E030E001C0220F8A95EAF78081822B8083CB01B4CC0895A7E1B6E0FC01FD
S284005A803D9120812323219326E0AE31B207C1F7CCCF0895A7E0B0E0E0E5FDE20C9457F2BE016F5F7F4FCEDFCE010196E6DFCE010196BBDF182F882339F0CE0101964EDD80912D0681FF9FDD812F2796E3E00C9473F208950895A2E0B0E0E1E7FDE20C9458F28091E0048823E9F0BE016F5F7F4F81E290E028D4BE016E5F7F4F8DE190E0FA
S284005B0022D48981823071F48A8181110BC08AE69DE29093E9048093E80481EE94E00E9475BF02C00E9494DD2296E2E00C9474F28091E00408950C94C5E80895A0E0B0E0E4EAFDE20C9450F2B82E7B01082F10E093E0169507959A95E1F78770C1E0D0E001C0CC0F8A95EAF7AC2E8FE38B1538F484E090E89093310680933006A1D1F8014A
S284005B80E651FB4F80818C2311F1C091F204D091F30485E0C82E80E8D82E2097C1F0FE01E00FF11F82818A2171F02A853B85232B29F4D0923106C092300682D1EA85FB85B7018B2D19950990D881C02DE6CFCDB7DEB7EAE00C946CF2E82FF0E023E0F695E7952A95E1F7E651FB4F208130E0877041E050E002C0440F551F8A95E2F72423F6
S284005C00352381E0232B09F480E00895282F30E043E0369527954A95E1F7620F731F877021E030E001C0220F8A95EAF7FB019281922381E009F480E008951F93CF93DF93182FEB01803438F023E030E8309331062093300635D1BE01812FD8DF81112AC0BE0182EF94E09AD081110BC088E0FE013296DF011D928A95E9F7BE0182EF94E033
S284005C809DD0412F50E063E0569547956A95E1F7177021E030E001C0220F1A95EAF7C40FD51F8A81822B8A83FA01E651FB4F8081822B8083DF91CF911F9108951F93CF93DF93182FEB01803438F023E030E83093310620933006F4D0BE01812F97DF882369F1212F30E073E0369527957A95E1F7177041E050E0012E01C0440F0A94EAF7C5
S284005D00942F9095C20FD31F8A8189238A83E091F204F091F304309759F0DF01A20FB31F12968C91842351F40190F081E02DF3CFF901E651FB4F808189238083DF91CF911F910895DC01ED91FC911197309721F0208131812D933C93CF01089561157105A1F0DC01ED91FC911197E617F70759F4208131812D933C930FC080819181861726
S284005D80970729F0FC013097C1F780E00895DB018D919C919183808381E00895DC01ED91FC91309739F0E617F70731F00190F081E02DF7CF80E0089581E008950F931F93CF93DF938C01EB01E9DF882349F080E090E890933106809330065AD080E014C019821882D801ED91FC911197309719F4CD93DC9308C080819181009711F0FC0174
S284005E00FACFD183C08381E0DF91CF911F910F910895CF93DF93FC0182819381009781F40E9478E0C22FD32F0E94915044E0FC0121913191CF01C227D3274150C1F7CE010E940BF381E0809306028EE092E00E9426E0DF91CF91089580E092E00C940251089580910602882369F08EE092E00E9456E089E09FE290930D0280930C021092B4
S284005E800602EACF08958EE092E00C9456E0089582E090E0909333068093320680913006909131069093350680933406E0912E06F0912F06309719F082E396E01995089583E090E0909333068093320680913006909131069093350680933406E0912E06F0912F06309719F082E396E019950895EF920F93FC01618372834F3740F081E0B3
S284005F0090E89093310680933006C2DF20C0403808F04FE7440F808181700187842BE0FA80F9808334832383CB01AC016081669504962181328174E0679F200D311D11244217530720F4DC0111971C92EECF0F91EF900895A0E0B0E0E0EBFFE20C9451F2EC018B01B42E0E9478E069017A018D819E81AF81B885A7019601281B390B4A0B5C
S284005F805B0BCA01B9012B813C8140E050E00E94DFF12F3F31054105510518F42223F9F001C02FEF89819A81BC0138813695049649815A81E4E03E9F400D511D11246417750748F4FC013291432F231708F4422F341B3083E9CFCD82DE82EF82F886A981BA814881842F86959D0154E0859F200D311D1124C901E0E0F0E0A817B907C0F464
S28400600013965C911397552359F02D913C9111972017310729F412962C9112972B15C1F0309719F02381521708F4FD011496E5CF40FD06C0309771F0838181110BC002C0309751F011830083B2828985838304C080E003C082E001C081E0CDB7DEB7E9E00C946DF2FECE08950895CF93DF9360911B0270911C0280E090E0E1E0F0E09F011E
S284006080082E02C0220F331F0A94E2F74091F4045091F5044623572342235323452B11F16FB7F8944091F4045091F50420953095242335233093F5042093F4046FBFFC01EE0FFF1FE85BFC4FC081D181209739F486E090E89093310680933006F1DEFE01199504C001968E30910549F6DF91CF9108950E941FDE0E94D3AF882371F02FB7A9
S284006100F8948091F4049091F50480619093F5048093F4042FBF81E0089582E00895A5DF60E070E08BE20ADD8091F4049091F504892B09F4D0DC2091F4043091F50481E0232B09F480E0089590CF0895FC012081211105C021E02193CF010C9426E00895FC012081213021F41192CF010C9456E00895A5E0B0E0EFEBF0E30C9454F27C011C
S2840061802A833B834C835D836983EADFF7011082698163872A813B814C815D812783308741875287158704872596E6E00C9470F20895813031F018F0823029F008952F9A08952E9A08952C9A0895813031F018F0823029F008952F9808952E9808952C980895279A269A249A2F9881E0EEDF82E0ECDF80E0089588E3E0EBF2E1DF011D9242
S2840062008A95E9F7E1EDF2E181E080839AE0918312821382148285831682178285E08093DB1247E850E069EF7AE48BE293E10E9416F347E150E062EE7AE489E992E10E9416F343E050E06FED7AE486E992E10E9416F343E450E06CE97AE488EE92E10E9416F380E69CE0E6E3F6E0DF019C011D9221503040E1F70895A4E0B0E0E2E4F1E30A
S2840062800C9458F2BC011A8219821C821B828827811521E0920769F0811522E09207B9F0892BE9F4660F771F660F771F6A59764B07C07727660F771F660F771F6655774B44E050E0CE0101960E9416F30FC07727660F771F660F771F665E774BF1CF8AE090E69093310680933006EADD69817A818B819C812496E2E00C9474F27CDF48CAD6
S2840063000895A4E0B0E0E7E8F1E30C9454F27C018B01B2DFEE24E11422E0F20669F026E030E6309331062093300669837A838B839C83C6DD7A816981F801718360832496E6E00C9470F2A4E0B0E0E9EAF1E30C9454F28C017B0190DFE114F10479F420E030E6309331062093300669837A838B839C83A6DD9C818B817A81698100270115AE
S284006380110549F0011521E0120751F4AC01C7010E9416F30CC0AC01C7010E942CF307C081E090E6909331068093300689DD2496E6E00C9470F2A0E0B0E0E1EEF1E30C9452F28C01EB0158DF6B017C01209739F484E090E6909331068093300671DD00270115110539F085E090E6909331068093300666DDA701BE01C6010E942CF3CDB7FA
S284006400DEB7E8E00C946EF2FC0193A5892F887090FF09C0882379F081E027A130A52236310550F408C0882331F081E027A130A52436310508F480E08170089521E030E001C0220F8A95EAF78091F904822B8093F9042FB7F8948091F4049091F50480629093F5048093F4042FBF0895CF93DF93E091B713F091B8138E179F0718F482E87A
S28400648094E446C08E1B9F0B6CE670E00E94B8F18091B213681718F083E894E439C08CE6689FE00DF11D11248781869590E08230910559F014F00397D1F58091B6138823B1F181508093B61332C08091B513882319F081508093B513DF01AC5ABF4FCD91DC912091BA133091BB13CE01821B930B63E270E00E94B8F1C217D30718F484E88F
S28400650094E406C08091B313681740F085E894E49093310680933006BBDC0CC0D90183E2689FA00DB11D11248C9181111C9287818E7F8783DF91CF910895CF93DF93EC011EA28CA19DA1892B39F484E494E49093310680933006B4DCECA1FDA1CE0186961995DF91CF910895EF92FF920F931F93CF93DF93A091B2134091B7135091B81300
S28400658020E030E090E09A1709F45AC0FA01E20FF31FB90164597F4FB781B0FD63C07F0194E5E90EF11CD7011D921C928230B1F010F08330F1F59091B6134091B413941708F03EC09F5F9093B613138214821582168290859F709087128235C01091B5139091B313191760F50091B9134091BA135091BB1390E09017B9F0EA014D5D5F4F38
S284006600BA0163527109DB016C9161110BC01F5F1093B51341E048836896D701CD93DC93428302C09F5FE7CF4091B91349130BC007C081E894E4909331068093300640DC80E090E012C09085907F9087880F81608783118210828091B7139091B813820F931F03C09F5F9B018ECFCDB7DEB7E6E00C9470F220910A05215020930A05BC015C
S28400668084E295E09BDB81E0D9CE0F931F93CF93DF938C01C091FA04D091FB048091F6049091F70480519140813F954048F4B8018AEF94E083DBCD2B59F480E0BFDE08C083E694E49093310680933006F9DBEFCFDF91CF911F910F910895BC016F50710986E295E06BDB81E0A9CEBC016351710988E295E063DB81E0A1CE20910A052F5F46
S28400670020930A050C946A906F927F929F92AF92BF92CF92DF92EF92FF920F931F93CF93DF931F92CDB7DEB78C017B01FB01E25AFF4F8AE393E3918380833E9782E08083D80157968D919C9158973196918380839C968C919C97379680833196108231969B968C919B978095881F8827881F8083319681E08083319680839B968C919B97F0
S28400678086FD0BC021E057968D919C915897883F9F4F08F020E0822F01C081E0F701E35AFF4F81708083C8012FDEF701ED5AFF4F6F0197012C5A3F4F3901882309F442C09090641440916514242F30E08091681490E001972817390739F4D80197968C91499D80191124982EA92CB12CC5014E968236910538F081E594E490933106809384
S28400680030065EDB309164142091651480917A1490917B14F80161A572A5329F600D711D1124A5014E960E942CF38AE0890DD6018C9380917A1490917B144496F301918380830EC0D80197968C919797885F808399968D919C919A970897D9018D939C93F301C080D180D6012C912C7F2F7E2C93F8018789908D237F883F9F4F10F02860B5
S284006880D6012C93F60180818F7D8083D8019B969C9192FD03C08F7B808322C08064F6018083D70118962C911897207F216018962C93C8012983A8DD29812F70882341F080916A148295807F822BF701808708C0809197128295807F822BD70118968C93C80192DDF60190818823A1F0906890839091651480858C7F911106C08160808746
S28400690080916814818709C08260808780916514818703C09F77F6019083D80191968C919197F601818394968D919C9195979383828392968D919C9193979583848396968C918683C80160DD882331F080916914D60117968C9308C08091210591E0980F90932105F6018783C7010996C6DE80E00F90DF91CF911F910F91FF90EF90DF9041
S284006980CF90BF90AF909F907F906F900895E0917814F0917914BF0180819181B5CEE7E5F4E1F0932814E093271492E0909323142091CA133091CB1330932514209324149BE09093261410922B1410922C1491E090932D1490932E1410922F1428E337E3309332142093311490933014908190789260906890839091D113909358142091DA
S284006A00CD133091CE1330935A14209359142091CF133091D01330935C1420935B149091CC1390935D149091D21390935E1492E090935F149091C813909360149091C9139093611490916214909340141092C3131092C4131092C5131092C6138093BC138CED93E14ACEA4E0B0E0E9E3F5E30C9456F2182FBE016F5F7F4F8AE190E063DC1C
S284006A8020910F05309110054091110550911205A12FB0E00E9438F209811A812B813C81600F711F821F931F2496E4E00C9472F20F931F93CF93DF93EC018C0107551109FC013C970190F081E02D6FEF818192810E948D87882361F0FE0132978AE393E39183808323971882C8010E945A9002C0CE01C0DDDF91CF911F910F91089569EBC3
S284006B0073E180E191E01FDC6AEB73E18EE092E0F8DB8091BA139091BB1320E03091B913231748F4FC0133E2239FE00DF11D112410822F5FF3CF62EB73E18FE091E003DC67EB73E18DE092E0DCDB2091B213E091B713F091B81380E0821739F097819E7F97838F5FE459FF4FF7CF9091B9139093B313823008F081508093B4131092B513FF
S284006B801092B61364E674E188E291E0DCDB62EC73E189E291E0D7DB61EC73E188E191E0D2DB8091C113882351F06DEB73E18FE092E0A7DB6AE774E180E192E0A2DB3091C1132091C2138091BD139091BE13329F800D911D11249093C0138093BF131092BC1308956BE275E082E192E08ADB6AE275E087E191E0A7DB80912A05E0912B05F5
S284006C00F0912C05882349F0309739F489E294E490933106809330063BC99F0146E1849F200D311D1124C90128EAE817F90718F4258B7696FACF08951F93CF93DF93EC01162F0097B1F08D819E81892B91F08AEF94E078D81F83ED81FE81CE01079619958091FA049091FB04892B59F080E0E6DB08C08BE694E4909331068093300620D986
S284006C80E6CFDF91CF911F910895A1E1B0E0EBE4F6E30C9448F28C01262E29873A874B875C870E9423DCE091130529853A854B855C85EE2361F13090B213C0901605D0901705E0901805F09019052B013C014C185D086E087F084D825E826F827886E091B713F091B813198A66246A94762C430169827A828B829C8246015701861A970A89
S284006D00A80AB90A8D869E86AF86B88A0BC009E817E3A3C0A781A0FD09C0A989AF5FA98BE459FF4FB989B311F5CF40C0B085BF70B23099F7AA7FA23081F783809480A580B68081149104A104B10439F3E017F10721F34D805E806F807884481459046A047B0468F44D845E846F847888840C951CA61CB71C83829482A582B68204C0138226
S284006D8014821582168283809480A580B68049805A806B807C8084149504A604B70408F0BCCF89829A82AB82BC82B7CF211046C08090C3139090C413A090C513B090C61381149104A104B104C9F12B013C014C185D086E087F08481459046A047B0488F4C80CD91CEA1CFB1CC61AD70AE80AF90AC092C313D092C413E092C513F092C61336
S284006E0008C01092C3131092C4131092C5131092C6138091C3139091C413A091C513B091C61349805A806B807C8084159505A605B70520F489839A83AB83BC8389819A81AB81BC81281739074A075B0710F4DA01C90109E817E39C01AD0161E083E195E088D983E195E072D96196E2E10C9464F280910A05815080930A058091BC138330FB
S284006E8009F43CC0823039F082E594E4909331068093300615D8E0916314EE2379F181E08093BC13A0919812B0E011972AE030E00E9432F29B01AC0180910B0590910C05A0910D05B0910E05280F391F4A1F5B1FA0919712B0E00E9438F29B01AC016093C3137093C4138093C5139093C613E150E093631461E080E090E0C7CE1092BC13D1
S284006F001092C3131092C4131092C5131092C6130895A4E0B0E0EFE8F7E30C9450F22FEF3FEFA90110E0AA24AA94B12C8091B213181708F054C0E091B713F091B8138CE6189FE00DF11D1124678160FF46C07085872F8F70823009F040C0862F8A7F8230E1F583819481A581B681C0901A05D0901B05E0901C05F0901D058C199D09AE09A0
S284006F80BF0983839483A583B6830097A105B105E9F4872F807F846080876E7F663059F4C5010090981202C0880F991F0A94E2F780958093671481E029833A834B835C833DDA29813A814B815C8107C082179307A407B50710F49C01AD011F5FA7CF8091C3139091C413A091C513B091C6130097A105B10551F1C0901A05D0901B05E09005
S2840070001C05F0901D058C199D09AE09BF098093C3139093C413A093C513B093C6130097A105B10559F482E029833A834B835C83B6DC29813A814B815C8107C082179307A407B50710F49C01AD012F3FEFEF3E074E075E0751F009E817E361E083E195E088D883E195E072D803C083E195E078D82496EAE00C946CF2A0E0B0E0E2E4F8E339
S2840070800C944FF28C01962EC0912B05D0912C0580912A056E0196E1899FC00CD11C1124F8018589811109C07E01F6E1EF0EF11C58018CE0A80EB11C09C085E294E432C08A3A89F06696F6E1EF0EF11CF801CC15DD0508F04AC0908521853285F70131978081843A69F7F7013E9780819813EACF89859A852817390729F748E050E0B8012E
S284007100CE010E941FF3892BE9F6F8018385F7013B9790818913D6CF813059F0833091F086E294E490933106809330060E94482F1DC0F801248535858C859D852817390709F617C0F8019489F701329780819813B9CF48E050E0BE01645F7F4FC5010E941FF3892B09F0AECF04C0958A80E090E001C0CE01CDB7DEB7EBE00C946BF2CF936F
S284007180DF93EC010097B1F18AEA8D8B0E94915048E050E0BC01CE010E941FF3892B51F582E88D8B888581508E3F20F58B858330C9F48C8981508E3FE8F42C853D854E855F85688979898A899B89A0E00E94B3F271F480E194E490933106809330060E94482F08C0813019F086EA8D8B03C01D8A81E001C080E0DF91CF910895CF93DF93B4
S284007200EC01009761F16FA74115510551F0FA01408151816281738148AB59AB6AAB7BAB04C018AA19AA1AAA1BAAEDA5FEA5309749F484E594E490933106809330060E94482F0DC0CE018F961995CE01DDD8882331F0109279141092781481E0EFD8DF91CF910895A1E0B0E0E8E3F9E30C9456F28C01FC01208131818091BA139091BB13F6
S2840072802817390740F487E494E490933106809330060E94602FF801808191812091BA133091BB13821B930B63E270E00E94B8F18091B313681750F088E494E4909331068093300669830E94602F69818091BA139091BB13F3E26F9F800D911D11242196E4E00C9472F2A3E0B0E0E9E7F9E30C9456F28C01675F7F4F7A836983BE016D5FEC
S2840073007F4F8DE090E01FD88B81D80197965C91979740912105882309F442C089819A81FC01E95BFF4F21E0208357962D913C9158973196318320833296585F50839996ED91FC919A979C01255B3F4F3897D901ED93FC938FEF8183D80194968D919C9195979383828392968D919C9193979583848396968C91868381E0840F8093210549
S2840073804783D901ED91FC918081807888608F778083E981FA81EB5AFF4F8AE393E344C089819A81FC01E95BFF4F22E0208331962DEF3FEF318320833296575F5083D8019996ED91FC919A979C01255B3F4F3997D901ED93FC93D80157968D919C9158979283818394968D919C9195979483838392968D919C9193979683858396968C91F8
S284007400878381E0840F809321054087D901ED91FC91808180788C608F778083E981FA81EB5AFF4F88E595E391838083E981FA81D8019C968C919C97E15BFF4F8083E981FA81E05BFF4F809196128083E981FA81EF5AFF4F9B968C918095881F8827881F8083E981FA81EE5AFF4F81E08083E981FA81ED5AFF4F8083E981FA81EC5AFF4F17
S284007480808389819A8139D980E02396E4E00C9472F2DC01ED91FC91909379148093781410926514109266148091971280936A142091641430E087A190A5B9010E94B8F1462F6093681487A190A5B9010E94B8F1892B19F04F5F409368148FEF90E00090981202C0880F991F0A94E2F780958E7F809367148091210591E0980F9093210520
S284007500809369140895A0E0B0E0E9E8FAE30C944FF2EC016B01942E590100912B0510912C0580912A05780196E1899FE00CF11C1124209761F0C017D107F0F583E294E490933106809330060E94602F35C0E801CE01801B910B66E170E00E94B8F1892B79F084E294E490933106809330060E94602F06C01D89143A39F01A3A29F066967E
S284007580CE15DF05B8F313C088859812F8CF89859A85C816D90699F748E050E0B501CE010E941FF3892B59F7143A49F703C080E090E004C0CE0102C06696CACFCDB7DEB7EBE00C946BF24F925F927F928F929F92AF92BF92CF92DF92EF92FF920F931F93CF93DF931F92CDB7DEB72C017B010E9491506C0157018AE6A80EB11CF5010081D0
S28400760011814114510431F0E114F10419F0C114D10451F484E194E490933106809330060E94482F88EA5EC058EAF20164A175A1960146A1C801598366DF8C015981009709F44FC0F20184899589892B19F5F8017384F3E07F121EC048018CE0880E911CC4010E9411BF892BA9F4F2017086D2011B9688E0F40101900D928A95E1F783E8ED
S2840076809BE3F201958B848BC20106960E940BBF80E028C0F50111830083F80183858330B1F4C8010C960E9411BF009711F459EABCCFF8012489F20121A3FC0180819181F201908F878BB701C2011ED80BC0F80184859585F201908F878BB701C20103DE01C0852F0F90DF91CF911F910F91FF90EF90DF90CF90BF90AF909F908F907F90C1
S2840077005F904F900895FF920F931F93CF93DF938C01035111092091B213C091B713D091B813F12CF216E9F08F8180FF16C0888199818017910789F4BE01C80144DF882381F040E050E0682FC80158DDCE010E94363281E00E941E3204C0F394C459DF4FE1CF8091B213F81640F085E194E490933106809330060E94602FCDB7DEB7E5E034
S2840077800C9471F2EF92FF921F93CF93DF931F921F92CDB7DEB77B010097A1F06115710589F0FC01158A148AF701E659FF4F11821082B70108DF182F882389F0C7010E9436320DC023E134E4309331062093300689839A830E94602F89819A81E2CF812F0F900F90DF91CF911F91FF90EF900895A1E0B0E0EEEFFBE30C9454F28C01262FFC
S284007800DC01ED90FC90009709F444C0E114F10409F440C02E3C61F0822F8F7D803D41F0213D11F082E005C0F70183A587FFFACF83E0F801EB59FF4F4081518162817381D701D0964D935D936D937C93D3979F962C93833071F0D801ED91FC918689811108C0F701158A148AB801C701ACDE883AE1F4A701405D5F4FD7019F966C91F80142
S28400788080819181BBDCC8010E94363281E00E941E320BC08FE494E4909331068093300629830E94602F2981B5CF2196E6E00C9470F2CF93DF93EC0162DC882309F454C060E0CE01D9DB892BC1F5209709F43EC08D8981113BC050912A0520912B0530912C0540E0451781F0C9012A5E3F4FF90131976081683A31F424EAFC01258B009727
S28400790031F432C04F5FEECF8EEA8D8B2DC0209719F03D89332349F087E294E490933106809330060E94482F1AC036E1FE01DC0101900D923A95E1F706C066EACE019CDB009791F024EAFC01258B09C080E294E490933106809330060E94602FBCCF60E070E080E10E949E2DDF91CF910895CF93DF93EC010097D9F080912B0590912C05FD
S284007980C817D907A0F020912A0536E1239F800D911D1124C817D90750F48D89843A11F08A3A71F488EA8D8BDF91CF91089581E294E490933106809330060E94602FEDCF82E294E490933106809330060E94602FE9CFCF93DF93EC01D2DB882359F064EACE014ADB009731F0C2DF60E070E080E10E949E2DDF91CF91089520912B053091D5
S284007A002C05009751F0FC01769680912A0596E1899F200D311D112408C0F901F6CF8589843A49F08A3A39F07696E217F307B8F380E090E00895CF010895CF93DF93EC01BC0188E295E00E94DE2E1D8A1C8A81E00E941E32DF91CF910895CF93DF93EC01BC0186E295E00E94DE2E198A188A81E00E941E32DF91CF910895AAE0B0E0E3E45C
S284007A80FDE30C944EF21091DB12BE01665F7F4F87E091E00E94A331BE016F5F7F4F8AE190E00E94A331C980DA80EB80FC80812F90E0A0E0B0E08C159D05AE05BF0578F0CC0CDD1CEE1CFF1CC982DA82EB82FC82BE016F5F7F4F8AE190E00E94DB31C12ED12C87E0C80ED11CEE24D7FCE094FE2CC0920F05D0921005E0921105F092120508
S284007B002A8530E0A3E0B0E00E9423F29B01AC01C701B6010E949DF109811A812B813C81600F711F821F931F60930B0570930C0580930D0590930E0581E08887BE01675F7F4F87E091E00E94A331BE01685F7F4F84E290E00E94A331898590E0A0E0B0E0880F991FAA1FBB1F8F3F9105A105B10529F020F08FEF90E0A0E0B0E00E9433350B
S284007B80E885EE2309F45AC0812C912C54018B019C0101501E4F2F4F3F4F800E911EA21EB31E660F771F881F991FE15081F718867501640129E0F694E794D794C7942A95D1F7D501C4019170AA27BB2741E050E060E070E0892B8A2B8B2B19F440E050E0BA01C40ED51EE61EF71E1E821D821F82BE01695F7F4F81E191E00E94A331BE0102
S284007C006B5F7F4F88E092E00E948131970186010F3F11052105310529F020F00FEF10E020E030E06D817E81C12CEE24E39420E032E04F818CEF94E00E94782F2A96ECE00C946AF2882331F00E9408F38093210510920A0510922905109228051092270510922605109225051092240510922305109222058AE090E0A0E0B0E080937114F5
S284007C8090937214A0937314B093741487EC94E3909377148093761481E0809375141092C9131092D2131092C7131092CE131092CD131092C8131092CC131092D0131092CF131092CB131092CA131092D1131092BC131092C3131092C4131092C5131092C6138CE6E3EDF3E1DF011D928A95E9F783E2EFE3F4E1DF011D928A95E9F7809167
S284007D00C21390E001962091C113289FA001299F500D112460E070E08091BD139091BE130E9446F387E594E19093281480932714A4CE4F925F927F928F929F92AF92BF92CF92DF92EF92FF920F931F93CF93DF931F92CDB7DEB77C01009781F02C0127E0421A51088091FA049091FB048415950529F4D20112968C91893149F086E694E4A4
S284007D8090933106809330060E94482FCBC08091F6049091F7048115B7E09B0709F07FC000912805109129050115110551F088E295E00E94A22E40E050E063EAC8011EDAEFCF6CE6C62ED12C7CE6772EE2E4AE2EE4E4BE2EF3E48F2EF4E49F2E00912405109125050115110509F444C0B80184E295E00E94AE2E8091B7139091B813F80145
S284007E00E81BF90BCF01B6010E94B8F18091B213681740F0B0923106A092300669830E94602F6981E091B713F091B813679DE00DF11D1124808191812781269530E02130310561F02230310549F2232B61F4A8014B5F5F4FD80112966C9103C040E050E067EACCD9BBCF90923106809230060E94602FB4CF10E08091B2131817D8F48091FF
S284007E80B7139091B813BCE61B9F800D911D1124FC01278120FD0E9436321F5FECCF8115924041F087E694E490933106809330060E94602F1092F9041092F80481E0C2DE0E947F350E94F23582E393E09093F7048093F604D7018C91F20182878AEF94E00E94A22ED20118968D919C911997892B41F489E694E490933106809330060E9463
S284007F00602FD2011896ED91FC911997C701039619958091FA049091FB04892B19F080E00E941E320F90DF91CF911F910F91FF90EF90DF90CF90BF90AF909F908F907F905F904F900895CF93DF93C091FA04D091FB04209741F484E694E490933106809330060E94602F8A818A38F9F0853C09F44FC0893109F06CC08091F6049091F70445
S284007F808031914019F480E092E002C080E097E09093F7048093F60489E99EE39E838D83CE0103960E9429A75BC08091F6049091F704823323E0920719F08031964049F48FE394E09093F7048093F60456DD1D8202C083EA8D838AEF94E00E94A22E8B819C81892B41F48AE694E490933106809330060E94602FEB81FC81CE0105961995A9
S2840080008091FA049091FB04892B51F180E018C08091F6049091F7048F339440A1F480E095E09093F7048093F60482E090E09C838B8383E195E00E94B03010920A0581E00E941E320DC063EACE010E941C3608C085E694E490933106809330060E94602FDF91CF910895AAE0B0E0E9E3F0E40C9458F2DC011396ED91FC91149721813281F0
S28400808040E450E05A834983AE01495F5F4F5C834B8341E050E05E834D836F3FBFEF7B0719F437FF15C003C02617370789F098878F837A876987BE016F5F7F4F8EE10E949E2D81E02D813E81232B19F080E001C081E02A96E2E00C9474F2009729F480910805909109050895FC01808191810895CF93C82FE0E0F0E0CF01EFDFFC0100972F
S28400810039F0A381B4818C91C813F6CFCF0102C080E090E0CF910895DF92EF92FF920F931F93CF93DF938C01009741F480E394E490933106809330060E94602FC0E0D0E0A1E3EA2EA4E4FA2ECE01C7DFEC01009789F18A818111F8CF8B819C81892B31F4F0923106E09230060E94602FF80160A171A1CE0178DF882339F3EB81FC81D08060
S2840081806D2DF801878190850E948D878823E1F2F801D18AED81FE81309749F482E394E490933106809330060E94482F03C0C8011995CACFCDB7DEB7E7E00C946FF2A1E3B0E0E5EEF0E40C944EF28C01B62EDC015A96ED90FC905B9755966D917C915697F70147818CEF94E00E94AA2F882309F414C1D70111968C919FEF980F9E3F28F4DC
S28400820077DF6C01009719F408C1C12CD12CF801228983899489213009F022E02F8399878887D70111968C918A8BF801858996890E9414BFFC01009799F083E08B8B708161815281438134812581968187817E8B6F8B588F498F3A8F2B8F9C8F8D8F02C082E08B8BD80155968D919C9156979D8B8C8B57968D919C9158979F8F8E8FF701B4
S284008280868188A3848195819AA389A3828193819CA38BA359968C9190E09C012A5031093EA32DA319A6208127FD04C09C012850310906C02085237029F49C01295031093EA32DA32DA13EA1821B930BF801228D338D280F391F38A72FA3BAA682A18BA7848D8CA7468D578D60A171A14DA75EA76FA778AB858D89ABD7018C9187FF48C0C0
S28400830018968C918370823009F042C0E091BF13F091C013808190E09EA38DA38080912CAA24A394B12C2091C71330E08091BD139091BE13A216B3064CF5E091BF13F091C013EA0DFB1D408150E02091C2132A9DB0012B9D700D1124680F791F880D991D0E942CF3E091BF13F091C013EA0DFB1D20818DA19EA1820F911D9EA38DA3BFEF19
S284008380AB1ABB0A8081880E911CCDCF98A78FA3C114D10449F0D6011596ED91FC911697CE010196199539C0F8018289813021F4CE010196B1DE31C0D70111968C918F3F41F5E12CF12CC70188DE7C01009729F1D7011396ED91FC9114978081882399F312968C918111EFCF69A17AA1C7013BDE882349F3D7011396ED91FC9114978081F4
S2840084008A8B1596ED91FC911697CE0101961995DACFCE0101960E9475C6C8010E949D32E196ECE00C946AF2A1E0B0E0EAE1F2E40C9450F25C01DC015A960D911C915B97F80181812FEF280F2E3F80F4298350DE7C012981009751F0D80114966D917C91159701DE882309F405C105C02E3F08F401C1E12CF12CF801808187FF04C0908507
S284008480937009F0F7C086FFF7C08C70883009F4F1C0D50155968D919C915697883FBFEF9B0708F0E7C0E114F10421F0F70122812111E0C0D5015A960D911C915B97F801208126FD02C090E0D2C02370213009F027E0F090B213E091B713F091B81330E0422F50E0B801640F751F3F15E9F0A781A530B1F4DF01AF5ABF4F0D90BC91A02DED
S2840085008A179B0769F4DF01AC5ABF4FCD90DC90C40ED51EDB01EC90D601DC90ED1499F23F5FE459FF4FE1CF82E029830E94B4322981009741F2FC01EC5AFF4F0190F081E02DDF0158973FEA11963C9311971396BC92AE92129762E0DC01A05BBF4F6C93D50155964D915C915697DC01AF5ABF4F11965C934E9317961C9211961C9231E068
S28400858011963C9311963C9311961C924AE353E3129611965C934E9311973C9330813C7F32603083D8014C914C70337F342B30834C914295417040FB34F93E7D3F7B30834C9147FB442740F940FB37F930834C9130E0DC01AD5ABF4F7D0144FF0DC0D5015A964D915C915B97420F531FDA012C912183F701608337C048E04C93D801169632
S2840086004C911697418312964D915C9113975383428314964D915C9115975583448311964C914683D5015A964D915C915B97420F531FDA012C912783D8012C9127FF13C018962C91237031F41086F70120812F5F208309C0D7012C912D5F2C93D80118962C912370208709960E947D3391E081E08927A1C190E001C091E0F801808187FF2A
S28400868092C18085837009F48EC1D5015A960D911C915B9759968C91F801F1842091C113222309F487C196EFE92EE80E8091BC13813009F456C030F0843008F06BC180E494E46AC1D084B1E0DB1274C12F1508F471C18091C2138E1508F46CC190E00196289FA001299F500D112460E070E08091BD139091BE130E9446F38FEA80936214E9
S284008700D092BC13F092C713F501858996899093CB138093CA13D80111968C9111978093CC1312968D919C9113979093CE138093CD1314968D919C9115979093D0138093CF1316968C9116978093D11317968C918093D21380919712809363141092C813F12CF8018085982F9370923011F0F11021C18C7F09F01EC18091C7138F1508F403
S28400878019C12091CA133091CB13D50155968D919C9156972817390709F00CC19091CC13F8018181981306C12091CD133091CE13828193812817390709F0FCC02091CF133091D013848195812817390709F0F2C09091D11386819813EDC09091D21387819813E8C02091C813409198120F2D10E0822F90E0840F911D081719070CF0DAC099
S2840088008F2D642F0E94ACF1D92EF21668F48F2D891B8093C81321E030E001C0220F4A95EAF721952093C9132091C2138091BD139091BE134E2D50E0D5015A966D917C915B97665F7F4FF29E800D911D11240E942CF3E091BF13F091C013E00FF11FE0827091C8132091C7137F1111C090919812822F8F19981708F4892F41E050E0082EBB
S28400888001C0440F0A94EAF741954093C91341E050E00D2C01C0440F0A94EAF76091C913642B6093C9136F3F79F4FF24FA94F70E822F90E04091981250E0871B9109481759070CF4CA01F80E8F2D90E030E0215031098217930751F46F3F21F483E00E94CF3463C082E00E94CF3464C0A0919812B0E011979D01270F311D8217930711F0C9
S2840089006F3F09F582E00E94CF348091C9138F3F09F050C0809198129091C813980F9093C8132091C71321502F19821708F4282F81E090E0022E01C0880F0A94EAF781958093C91337C02AE030E00E9432F29B01AC0180910B0590910C05A0910D05B0910E05280F391F4A1F5B1FA0919712B0E00E9438F29B01AC016093C3137093C41374
S2840089808093C5139093C61361E080E090E00E94453610C083E594E490933106809330060E94602F07C0992329F06FEAC50107DC80E001C081E02196EAE00C946CF2A7E3B0E0E5EEF4E40C9448F2A090F604B090F70420E1A21621E0B20609F469C12DE4222E24E4322E88248394912C84E295E00E94A22E7C01009709F45AC10091B71380
S284008A001091B813C701801B910B6CE670E00E94B8F18091B213681748F089E494E490933106809330060E94482F42C13CE6639F000D111D1124D80117968C91B0E1AB16B6E0BB0621F0A114E5E0BE0699F58E7F843019F5C8018C5A9F4F0E9432396C01DC0111966C91119712968D919C911397892B51F4EAE4F4E4F0933106E0933006FD
S284008A806CAB0E94602F6CA9D70112968C91811104C0F6018281938192DBA7014B5F5F4F63EAD8018D919C910E94FE38C7010E9436329CCF8695482E512CB1E04B165104B1F054F4452809F0EAC0D70112966C91C8010E94F83B8ACFF2E04F16510409F4BBC023E04216510409F47BC0D8C0F80180858F70813009F079CF60807180D70142
S284008B0019968C910E9433359B01AC01C0909712D12CF801808582958F70C81AD108D70112966C9161111EC02FAB3CAB4DAB5EAB0E9408F3FC01F170D20102C0AA0FBB1FCA94E2F72FA93CA94DA95EA90E9442F26E0F7F1F811D911DF80163837483858396832DC06E3C59F0603F49F0603D39F0613D91F4D3019B968C9187FF0DC0A70177
S284008B804B5F5F4FC3010E94FE38C7010E94363281E00E941E328CC00E9408F39170E8EEF3E002C0EE0FFF1FCA94E2F78E0F9F1FA0E0B0E0F80183839483A583B683D80118968C911897807F826018968C93189713962D913D914D915C91169760E0C80102C2F80180858F70813009F0FFCE2091651430E08091681490E0019728173907E2
S284008C0009F4B5C1E091981270916714272F30E080E090E0682F8E1708F0A9C10196A901062E02C0559547950A94E2F740FFF2CFC401062E01C0880F0A94EAF7809587238093671480916614860F809365148BE694E10E9426E0CACEC8018C5A9F4F0E9432398C01DC0111966C91119712968D919C911397892B41F43092310620923006E7
S284008C806CAB0E94602F6CA9F8018281938197DAC7010E94363281E00E941E32A7CE2EE434E430933106209330060E94602F9ECE1BAA1AAAADE64A2EA3E35A2EBFEA2B2E13E0312EAA24A394B12C66246A94712C95E4892E94E4992E86E295E00E94A22E8C01C090F604D090F704009761F1D80150968D919C915197892B09F077C15A96B0
S284008D00ED91FC915B9780818370813009F06EC18281853009F46AC155968D919C9156970E9414BF892B09F061C122E0F80124838589968996838583518A408AC80102960E940BBFC9CFC1FE11C050E5C52E54E4D52E62E0462E72E1A72E74E4B72EE8E05E2EF5E78F2EF3E39F2E3BC000912805109129050115110509F458C0B80188E259
S284008D8095E00E94AE2E40E050E063EAC8010E94FE38ECCF8689833081F57801F9E1EF0EF11CC7010E9411BF892B39F5D8011B96F701852D01900D928A95E1F7D80156968C91569718968C93189755969C928E925497C80106960E940BBF88E295E00E94A22E009128051091290501151105F1F0F80184899589892B69F28091781490915A
S284008E007914892B09F4BCC2C8010E940432882309F4B6C2C8010E940432882309F4B0C2F8010081118101151105A1F78091F6049091F7048115B5E09B0721F08031F6E09F0769F5F12C0EC02CE6F29E80011124E091B713F091B813E00FF11F8781833031F0F3948091B213F81670F320C080858F70843011F08230A1F740E050E063EA62
S284008E80808191810E94FE388091B7139091B813800F911F805A9F4F0E943632E2CF8F33944029F4F12C8091B213F81648F08091F6049091F7048115954009F07EC351C00091B7131091B8138CE6F89E000D111D1124D80117968C91179780FF40C018969C911897292F2F702430C9F5282F2A7F2230A9F5907F79F19160905118969C9376
S284008F008E7F823071F4C80109960E947D33F801238134814581568160E0C8010E9445361EC08630E1F4809167148E7F80936714809166148093651480916A14815080936A14E0917814F0917914BF01808191810E94843304C067EAC8010E94F83BF394A2CF80910A05882309F4A8C226C3F70181850E9433359B01AC01A0919712F80140
S284008F80808582958F70A81BC40102C0880F991FAA95E2F7DC010E9442F26B017C0100917814109179140E9408F39170C80ED91EE11CF11CD8011396CD92DD92ED92FC921697E0917814F09179148085807F826080878091781490917914FC01238134814581568160E00E94453600CDD8015A96ED90FC905B97BFE3CB16B4E0DB0669F0C5
S284009000D7018C918370813041F0F80183A1811104C0C8010E949D32A4C1D7014C91642F607446FF11C05091B5132091B21330E08091B61390E0850F911D821793074CF78091B313581728F7242F2C70243009F3662331F0842F83708230D9F243FDD9CF45FDD7CFF801D288F1E0DF1671F032E0D312CFCF4370842F90E0009721F0029745
S28400908009F47AC0C6CF2C3031F0C801CDD9882309F467C1BECFD80155966D917C915697F70140858CEF94E00E94AA2F882309F4B0CFD80159968C91893008F4AACFB1E0BF83F7018181928199878887D80155968D919C9156970E9414BFFC01009791F03B8A708161815281438134812581968187817E8B6F8B588F498F3A8F2B8F9C8F8B
S2840091008D8F01C0DB8AF801858996899D8B8C8B8789908D9F8F8E8FD70117968C91179788A315968D919C9116979AA389A313968D919C9114979CA38BA3818D90E009979EA38DA3828D938D099698A78FA319A62AA682A18BA7848D8CA7868D978DA0A1B1A18DA79EA7AFA7B8AB858D89ABCE0101960E948C404DCF423031F09092310624
S284009180809230060E94602FC090B713D090B8138091B213F6012CE6829FE00DF11D1124CF01C816D90608F034CFD60117966C91179760FFD2C018962C9118972F70223009F0CBC0F601EC5AFF4F0190F081E02D2D913C91D80155964D915C915697D90157962D913C9158974217530709F0B5C0D70117963C91179727813213AEC014963D
S2840092004D915C911597248135814217530709F0A4C012964D915C911397228133814217530709F09AC011963C9111972681321394C016963C91218132138FC06E7F623031F4F6018085807F836080873FC0663009F083C0D70119969C911997809166149813D7CE60919812262F30E0C501062E01C0880F0A94EAF781951A969C911A9774
S284009280982B1A969C931A97F6018085807F836080871A96EC91EF3F99F54091681450E070916614E70FCA01871B9109281739070CF4C9018E0F8093651490E0415051098417950741F4C6010E94493A60E0C6010E94F83B9ECE760F709366148091971280936A1470936514930102C0220F331F6A95E2F7B90160956E7F6093671423C07F
S284009300E095E093671480E090E02E2F30E0782F8617C8F40196A901072E02C0559547950A94E2F740FFF3CFC501072E01C0880F0A94EAF780958E238093671480916614870F80936514E0917814F0917914BF01808191810E9484335CCE3CE6C30ED11C20CFD8015C968C915C978AAB5D968C918BABBE016E5C7F4F8BE30E949E2DACCCCF
S284009380C8010E940432882361F080917A1490917B14892B09F4BDC0D8019B968C9182FFB8C0F80187A190A58536910518F083A583FFB1C0D80196963C90332031F0832D0E947840892B09F448C0F80183A52689382F347082FF0AC0223031F48789908D883F9F4FD0F502C02130B9F18EEF820F823038F4D80191968C91815F8E3068F15B
S2840094008CC021118AC0332309F487C0F80164A075A087D67C01009719F080E090E00CC0B0923106A09230060E94482F76C0DC011B962C91213089F09701432DB3010E94833A0097A1F769C0813008F475C0823009F49AC0833009F48AC026EAE12CF12C612C712CB80188E295E02FAB0E94AE2E2FA921111CC0E114F10431F4D0923106DE
S284009480C09230060E94602FF30111830083C8010E940432882319F0C3010E94493AB301C801F7011995282F882309F49ACC40E050E0622FC8010E94FE3893CC0091FA041091FB04F8018281853C41F08DE694E490933106809330060E94602FD80113968D919C9114978D7F14969C938E931397892B09F062C080E00E94223E80E196E0F0
S2840095009093F7048093F60460E0C8010E941C3654C02AEAA3CF20EAA1CFD80156968C91813009F091CF80E00E94B4323C0133E7E32E39E3F32E0DC0C8010E940432882371F083E00E94B4323C0142ECE42E4BE3F42E6114710409F469CC20E083CFF80183A582FF02C081E0EDCF80E0EBCFC80149960E9411BF0097F1F0DC018D919C913C
S284009580F801908F878B468AC8010E940432882311F083E008C0D8019B968C9182FF02C081E001C080E00E94B4323C0124E8E22E23E3F22ECECF29EA51CFE796E2E10C9464F2AFE1B0E0E7EEFAE40C9455F2009749F485E495E490933106809330060E94482F82C0FC012081233009F07DC0218132813A83298328E03396DE0113960190BE
S2840096000D922A95E1F7FC0123852B87248535853D872C8728E03E96DE011E9601900D922A95E1F7FC01218D2D8F238D2E8F0789108DF688F6E0FF1508F056C0F8018081982F9370933009F04FC0807E09F04CC08181811149C0BE01615E7F4F84E190E00E94A331F801208126952695277030E08F8D90E028173907B9F58281982F9370CE
S284009680933091F5982F907F79F58C708C3091F481E08B87F8E0FF1538F5F801838194819F878E876FEF0E948D878823E9F0F80129E003C0F801329727E085819681998F888F878190859F8B8E8BF21AFA8E020F111D1C8F0B8FE0910605F0910705309719F0CE01019619956F96E5E00C9471F280E191E09093F7048093F6041092FB0470
S2840097001092FA041092F9041092F80410920905109208050E947F350C9448A7CF93DF93EC016DE172E085E20E941D2E6DE172E088E30E941D2E209749F480E694E490933106809330060E94482F05C089E18A83CE010E944533DF91CF910895009741F481E694E490933106809330060C94482F2AE8FC0122830C944533009741F482E691
S28400978094E490933106809330060C94482F25ECFC0122830C944533CF933091B9138091BA139091BB1320E0231751F08396FC01B3974081442311F081E029C02F5FF4CFC0E08091B213C817E0F40E94982D9CE6C99F900111244091B7135091B813FA01E20FF31F882341F0878180FF08C080858F70823021F0E0CF878180FDDDCFCF5F87
S284009800E0CF81E09091BC13911101C080E0CF9108951F93CF93DF93EB01853239F41881BBDF91E09827912398831FC08833E9F438814091B213E091B713F091B81380E0841771F0278120FF07C090859F70923019F42A7F223031F08F5FE459FF4FF0CF80E001C081E0832B8883DF91CF911F910895FC01808184FD0C94F2350895A2E060
S284009880B0E0E5E4FCE40C9458F2E091F804F091F9042F2F30E09E2F9F5F983008F090E0692F70E0A901092E02C0569547950A94E2F740FF26C09093F80481E090E0062E01C0880F0A94EAF78F278093F904660F771F6058744B42E050E0CE0101960E9416F389819A81892B41F480E094E490933106809330060E94602FE981FA8119950B
S28400990004C0E913C9CFE093F8048091F904882361F02FB7F8948091F4049091F50480629093F5048093F4042FBF2296E2E00C9474F28091E312853091F028F4882349F0823069F004C0843141F0863141F080E008958091DC128B3010F488E0089582E00895833014F083E01BC096E0980F923010F48BEF15C098E0980F923010F489EFE9
S2840099800FC09AE0980F923010F487EF09C09EE0980F943010F484EF03C0823F0CF48FEE8093E1120895C5DF282F220F220F280F30E0A90160E8869F400D511D1124CA0108958091E3128530E9F028F4882349F0823079F004C0843189F0863189F080E008958091DC12882349F08B3058F489E108958091DC12811105C002C082E308957D
S284009A0088E2089580E10895CF93DF93EC01D9DFE82F9E01A0ECB3E00E9423F29B01AC01AE2FB0E00E9438F228EE33E040E050E00E94DFF1CA01B901DF91CF910895CF93DF93B1DFEC01BDDF282F2C9FC0012D9F900D1124BC0180E090E028EE33E040E050E00E94DFF12F5F2093DB12DF91CF910895CF93DF938BE08093DC1280E098EFD0
S284009A80AFEFB7E08093DD129093DE12A093DF12B093E01261EE72E183E090E00E94A3318091E1125EDF61EE72E183E090E00E94DB31C1E0C093E2121092E31274DF9093E5128093E41235DF94E0899F800D11248093E6122EDF8093E71286E390E0A0E0B0E08093B0129093B112A093B212B093B3121092B4121092B512C093B6121092B3
S284009B00B8121092B7121092B9120E9408F38093BA12EBEBF2E18FEF80838183828383838483858386838783CFEFDFEFD093C412C093C3120E9408F38093C51285E08093C61284E08093C71283E08093C8128093C912D093CB12C093CA1280E28093CC121092CD121092CE12D093D012C093CF121092D9121092DA1262DFDF91CF9108950E
S284009B80A4E0B0E0E6ECFDE40C9458F2DC014C9150E0CA01805491098434910508F0D7C0865A9D4DFC010C941DF211968C918093B51208C011968D919C9112979093B8128093B71280E00DC111968C91853308F007C18093B912F6CF11968C918093BA12F1CF11968C9111978093BB1212968C9112978093BC1213968C9113978093BD1212
S284009C0014968C9114978093BE1215968C9115978093BF1216968C9116978093C01217968C9117978093C11218968C918093C212C9CF11968D919C9112979093C4128093C312C0CF11968C918093C512BBCF11968C91863008F0C4C08093C712B3CF11968C919091C612981708F4BAC08093C912A9CF11968D919C9112979093CB12809392
S284009C80CA12A0CF11968C918093CD129BCF11968D919C9112979093D0128093CF1292CF11968D919C911297AFDE69837A838B839C83BE016F5F7F4F03C0BD016F5F7F4F82E090E071C011967C91119712966C91129713965C91139714964C91149715963C91159716962C91169717969C91179718968C917093D1126093D2125093D31218
S284009D004093D4123093D5122093D6129093D7128093D81257CF11968C918093B41252CF11968C91883008F05BC08093C8124ACF11968C918093CC1245CF11968C918093C61240CF11968C918093DA123BCF4830510508F043C042565D4DFA010C941DF28BEF3FC011962C918091DD129091DE12A091DF12B091E012022E04C0B695A79597
S284009D80979587950A94D2F780FF2AC02093DC1223C011968C9190E2980F903408F5E1DD61EE72E183E090E00E94DB310BCF11968C918430A8F48093E21204CF11968C91853041F018F4833058F404C0843111F0863131F48093E31232DEF4CE84EF01C088EE2496E2E00C9474F2A4E0B0E0EBEFFEE40C944AF26090C7126091C61270E0DC
S284009E00E091C912F0E0262D30E0CB018E1B9F0B281739070CF4C901AA2797FDA095BA2F0097A105B10521F481E090E0A0E0B0E0712CC12CD12C76018C019D01015011092109310942E0442E512C872C912CA12CB12C081519052A053B05B0F0AF01470D511D41505109520102C0AA0CBB1C4A95E2F74501AA2497FCA094BA2CC80CD91CDC
S284009E80EA1CFB1C7394E1CF262D30E040E050E0281B390B4A0B5B0B61507109A2E0B0E002C0AA0FBB1F6A95E2F711970E9442F29B01AC012C0D3D1D4E1D5F1DA4E1B0E00E9438F29B01AC0169833A834B835C836ADD29813A814B815C81280F391F411D511D29833A834B835C836BDDA82FB0E029813A814B815C810E9438F228EE33E0F1
S284009F0040E050E00E94DFF1CA01B9012496E0E10C9466F256DDE82F2091CC1230E0A0ECB3E00E9423F29B01AC01AE2FB0E00E9438F228EE33E040E050E00E94DFF1CA01B9010895A4E0B0E0E8EAFFE40C9452F28C01FC01408150E0FA01E054F109E434F10508F0ADC0EA55FD4D0C941DF28091B512F801818380E0D0C08091B712909118
S284009F80B812BEC08091B912F4CF8091BA12F1CF7091BB126091BC125091BD124091BE123091BF122091C0129091C1128091C2125BC08091C3129091C412A2C08091C512D8CF8091C712D5CF8091C912D2CF8091CA129091CB1294C08091CD12CACF8091CF129091D0128CC0BE016F5F7F4F82E090E00E94A331C980DA80EB80FC80C114FD
S28400A000D104E104F10491F0DCDC282F30E0A0ECB3E00E9423F228EE33E040E050E00E94DFF1C701B6010E94DFF102C024EF31E0F801328321839FCFBC016F5F7F4F82E090E00E94A33197CF7091D1126091D2125091D3124091D4123091D5122091D6129091D7128091D812F801718362835383448335832683978380877DCF8091B4129D
S28400A08078CF8091C81275CF8091CC1272CFFC01118271CF8091B0129091B112A091B212B091B31226C08091C61263CF8091DA1260CF30DFF80161837283838394835BCF4830510548F5FA01E651FD4D0C941DF28091DC124ECF8091E1124BCF8091E21248CF8091DD129091DE12A091DF12B091E012F80181839283A383B4833CCF53DC43
S28400A100F8019283818337CF14DCF4E08F9F800D11242FCF0EDC2DCF84EF2496E8E00C946EF281ED92E1089548E050E0BC0181ED92E10E941FF321E0892B09F020E0822F0895CF92DF92EF92FF92CF936B017C01F0DBC82F36DC2C2F30E0A82FB0E00E9423F29B01AC01C701B6010E949DF128EE33E040E050E00E94DFF1CA01B901CF91BD
S28400A180FF90EF90DF90CF9008952FB7F8948091710590917205946090937205809371053FB7F89480912D0581110FC04FB7F8948091F4049091F50481609093F5048093F4044FBF81E080932D053FBF2FBF0895BC018FE295E00E94DE2E80912E05811101C0D3CF0895FC011282F2CF21E0FC012283EECF22E0FC012283EACF23E0FC01E3
S28400A2002283E6CF25E0FC0122831186108622E02783DECFA1E0B0E0E0E1F1E50C9457F21092300510922F055AD11FB7F894CE0101960E9459D5811104C082E080932E0502C010922E0510927205109271051FBF2196E3E00C9473F2A2E0B0E0E2E3F1E50C9456F21FB7F89410922D05CE0102960E9459D5882339F080912E058230C9F4A5
S28400A28010922E0516C081E090E00A8002C0880F991F0A94E2F780959095209171053091720528233923309372052093710580E001C081E01FBF8111BAC081E080932E058A818A3029F500912F05109130052091290230912A0241E050E00115110539F4CE0101960E9459D581114BC033C0CA01F801028002C0880F991F0A94E2F78223EB
S28400A3009323892B09F065C0F80100811181E5CF90E08C30910520F7FC01EE50FD4D0C941DF2B0D214C0B7D212C026D410C0C1D30EC05AD30CC00E94DED209C00E9462D206C03DD104C00E94ADD201C0A5D0811127C0C6CF2FB7F89480912D0581110FC03FB7F8948091F4049091F50481609093F5048093F4043FBF81E080932D052FBF6A
S28400A38056C080913805811152C080912F0590913005892B11F0F9DE4AC010922E0547C0813009F044C04FB7F89421E030E00A8002C0220F331F0A94E2F78091710590917205822B932B90937205809371054FBF2EC0B8018FE295E00E94AE2EF801428150E04930510508F07BCFFA01E250FD4DC8010C941DF293D393E002C03CD394E0DC
S28400A4009A83A5CF87D295E0FBCF0E94CAD296E0F7CF0E943FD292E0F3CFB5D098E0F0CF0E948DD299E0ECCF06D09BE0E9CF2296E4E00C9472F2CF93DF93EC0118868B819C819C01215031092F333105C8F4805C9E4F9C838B838A81873031F0883081F4CE010E9405B003C0CE010E94EBAF882339F0813061F4D0937005C0936F0507C075
S28400A4801886EE81FF81CE010896199580E080933105DF91CF910895CF93DF93C0916F05D09170058A81873031F0883041F4CE010E9405B007C0CE010E94EBAF03C081E0888702C0811106C0EE81FF81CE010896199580E080933105DF91CF910895AEE0B0E0E5E7F2E50C9456F20E941FB082E088871E861D861A86198681E08F83CE01A2
S28400A50001960E944DB38B859C850E940BF373D00E94F2D285D2ECD26AD30E9488D268D00E94C7D28EE489838091C7128A83CE0101960E9412B48FE489838091C9128A83CE0101960E9412B489E589838091C8128A83CE0101960E9412B480E589830FEF1FEF1B830A83CE0101960E9412B483E589831B830A83CE0101960E9412B42E96F2
S28400A580E4E00C9472F21F93CF93DF93EC010E944DB3182F882339F0813051F4D0937005C0936F0505C0EC85FD85CE010896199510933205812FDF91CF911F9108951F93CF93DF93C0916F05D0917005CE010E944DB3182F811105C0EC85FD85CE010896199510933205812FDF91CF911F910895109232050895A2E0B0E0E1E0F3E50C94A9
S28400A60058F267E977E180E092E00E948131BE016F5F7F4F80E091E00E94A33129813A81809197179091981790939C1780939B1790939E1780939D179093A01780939F17280F391F3093A2172093A11710929A171092991763EA77E183E292E00E948131BE016F5F7F4F8EE291E00E94A33129813A818091A3179091A4179093A8178093AC
S28400A680A7179093AA178093A9179093AC178093AB17280F391F3093AE172093AD171092A6171092A5172296E2E00C9474F29CE0899FF0011124E956F84E86819781019608959CE0899FF0011124E956F84E4FB7F894A681B7818C9190E001968A0F9B1F978386831C9226813781808591852817390751F4848195819187808780819181A5
S28400A70095838483978386834FBF08959CE0899FF0011124E956F84EA681B78182819381A817B90721F081E09C91911101C080E0089581E0EBDF8823F9F08091710590917205816090937205809371052FB7F89480912D0581110FC03FB7F8948091F4049091F50481609093F5048093F4043FBF81E080932D052FBF80E0C8DF8823F9F0D2
S28400A7808091710590917205826090937205809371052FB7F89480912D0581110FC03FB7F8948091F4049091F50481609093F5048093F4043FBF81E080932D052FBF0895A6E3B0E0E6EEF3E50C9457F2182F6FDFFC01208130E0DC01A20FB31F12968C912F5F3F4F2E0F3F1FD9016C91813220F4811103C081E001C080E26295669566950D
S28400A8006370689FB00111248FEF869FA001879F500D1124CA0160E670E00E94B8F1D9016C93BF01CE0101960E9441D3882319F18A81982F977029F4807619F48B818C70B1F020911B0230911C022E7F30931C0220931B02CE010196A4D420911B0230911C02216030931C0220931B0204C08091DC12898FE6CF812F24DF80E0E696E3E0B5
S28400A8800C9473F281E042DF882311F081E098DF50DF80E0089580E039DF882311F080E08FDF47DF80E00895A9E0B0E0EAE5F4E50C9455F28C018091350565E0813029F4C0D0F82E811121C01EC080E0BAD0F82E81111BC0F8018381898388E03496DE01129601900D928A95E1F7CE0101960E9412B4F82E80913505823039F4809134059F
S28400A900AFD065E09ED0109235058F2D2996E5E00C9471F2A9E0B0E0E0E9F4E50C9456F28C01DC0113968C91813530F48E3480F48823D1F09EEF09C08F36B1F028F4833599F08935D1F40CC090E1980F9330A8F4813F41F4F801948120913305921339C091E00CC08935E1F39091B31790933405963119F492E09093350590E020913505B5
S28400A980211111C0911113C0898388E0F8013496DE01129601900D928A95E1F7CE0101960E9412B402C0C8017FDF811108C0D8011C96ED91FC911D97199580E004C01093700500936F05809336052996E4E00C9472F2909333059091B31790933405963109F0BECF91E0C7CFA1E0B0E0EAEFF4E50C9456F200916F0510917005C80154DF1C
S28400AA00811108C0D8011C96ED91FC911D97898319958981809336052196E4E00C9472F21092360510923505109233050895882331F0813011F083E0089586E1089589E1089560937C14F3DF0C94AFB4882331F0813011F088E0089586E1089589E108958850823130F4E82FF0E0EC59FC4F8081089588E008951F93CF93DF93EC01109120
S28400AA80B3178B81E3DF181729F064E08B81D9DF811105C0EC81FD81199580E004C0D0937005C0936F0580933705DF91CF911F910895A1E0B0E0EFE5F5E50C9456F200916F051091700564E0D80113968C91B9DF811108C0D8011496ED91FC911597898319958981809337052196E4E00C9472F2109237050895CF93DF93EC0163E080E008
S28400AB00A0DF811109C082E080933805CE0103960E9483D40E940DB5DF91CF910895CF93DF93EC0189AD83DF8093B117D0937005C0936F058091C81280937D140E9408F390937F1480937E148091B317893151F482E080933805CE0103960E9483D40E940DB505C081E080933805CE01C4DF80933905DF91CF910895A2E0B0E0E2ECF5E507
S28400AB800C9456F200916F051091700580913805813021F4C801AFDF811123C00E94B6AF0E948DAF1A8219820E9441B3D801DC968C93DC97DA96ED91FC91DB97C801CC9619958091C81290E020917D14821B91099A838983BE016F5F7F4F8DE30E949E2D80E0809339052296E4E00C9472F21092390510923805089580917D1481508093D0
S28400AC007D140E9442DE63E080E01BDF81110CC080916F059091700522E02093380503960E9483D40C940DB581E0809339058093380580917105909172058860909372058093710508952FB7F8948091F4049091F50484609093F5048093F4042FBF0895BC0180E397E10E94DE2E80911F1781110CC02FB7F8948091F4049091F504846028
S28400AC809093F5048093F4042FBF0895CF93DF93DC0112964C9150E0FA013197E031F10508F053C0E95FFC4D0C941DF2DC011C96ED91FC911D970E963DC0DC011B96ED91FC911C970D9636C0DC011796ED91FC91189709962FC0DC015196ED91FC915297439628C0DC015396ED91FC9154974596199543C0DC011996ED91FC911A970B96D2
S28400AD0019C0DC011E96ED91FC911F97409612C0FC01C08DC470D0E0018CF28DE02D4B961995CD2B51F511C0DC011496ED91FC9115970696199509C0809190178E7F03C0809190178D7F8093901710921F17209190178091301790913117892B11F4222361F02FB7F8948091F4049091F50484609093F5048093F4042FBFDF91CF91089584
S28400AD80CF93DF9380911F17882319F0833009F06AC080919017882389F080FF09C08FE080931F170E94476561EF0E949F635BC080E180931F170E94FFD855C080912B02882309F450C0C0913017D0913117209709F449C080E397E10E94A22E8A8180931F17D0932217C09321178A8190E0FC013197EE30F10518F5E95EFC4D0C941DF2DC
S28400AE000E9490611AC00E946A6117C05CD415C0C7D713C0AAD411C00E945FD70EC00E94A6D70BC00E945D6308C0EED006C052D304C00E940BDA01C01ED4811114C010921F178091301790913117892B61F02FB7F8948091F4049091F50484609093F5048093F4042FBFDF91CF91089527E0FC012283F6CE28E0FC012283F2CE2BE0FC0118
S28400AE802283EECE22E0FC012283EACECF93DF93EC018B81882331F183E08A8380931F171092311710923017109290176CE272E085E20E941D2EBE0180E397E10E94DE2EA9D983E297E10E9456E02FB7F8948091F4049091F50484609093F5048093F4042FBF04C084E08A83CE01BADEDF91CF9108952AE0FC012283B3CE25E0FC01228343
S28400AF00AFCE21E0FC012283ABCE26E0FC012283A7CE2CE0FC012283A3CE2DE0FC0122839FCE20911F17233011F00C9408A3089520911F17233011F00C9492AB089520911F17233011F00C942A9F089520911F17233011F00C94E0AE089520911F17233011F00C94D7A6089520911F17233011F00C94B8AE08958091901781608093901796
S28400AF8080911F17811101C05ECE08958091901782608093901780911F17811101C053CE089520911F17211104C021E120931F171DC3089580919017811105C00E94B26691E0982701C091E0892F08951F93CF93DF93EB011881EEDF91E0982791239883DF91CF911F910895CF93DF93C0912117D0912217FC0180810E946ED98CA3CE01A8
S28400B00045DEDF91CF9108951F93CF93DF93C0912117D09122178091CA129091CB12998B888B13E01A8B7DD8DE01539628E0FC0101900D922A95E1F71B8F8B818C8F8C818D8F8D818E8F8E818F8F8F8188A3888589A389858AA38A858BA38D85811105C01CA2CE0113DE80E077C08BE080933F178091C51291E0980F9093C51280934217F9
S28400B080809140178078209141172C6083628F77809340172C7C209341178FEF9FEF9093441780934317EB817C816D815E814F81388599858A85E09345177093461760934717509348174093491730934A1790934B1780934C17206C209341178091CA129091CB1290934E1780934D171AD828E0FC01AFE4B7E101900D922A95E1F78091D8
S28400B100CA129091CB1290935817809357178091CF129091D01290935A17809359178B859C8590935D1780935C178091DC1280935B1784EF97E590937717809376178091CD12882311F081E001C082E0809375178CE397E148D881E0DF91CF911F910895A8E0B0E0E6EBF8E50C9458F2FC018281807C81F08089898381898A8382898B8319
S28400B18083898C8384898D8385898E8386898F8387898887CE010196E0DE2896E2E00C9474F2EF92FF920F931F93CF93DF93EC018A81807C8038C1F4AE014C5C5F4FBE016D5C7F4F888999890E943CD8811144C0488150E0FA013197EB30F10508F03CC0EB5DFC4D0C941DF2803C91F7288939894A895B896C897D897E0184E3E80EF11C41
S28400B2008E010D5C1F4F8E899F890E947AD8DECFCE018DD621C0CE01ADD01EC0CE010E9436D71AC0CE010E94B6D716C08DA980FD05C0CE010E94556581119DDECE0173D00BC0CE018DDF08C08091DA12882321F09DDE02C0CE01A7D7CDB7DEB7E6E00C9470F281E08093DA1208951092DA12089583E08093201710928C1765E479E58CE336
S28400B28097E10C948663F4CF08958091211790912217FCDC109220170895A3E0B0E0E3E5F9E50C9458F281E18B83CE010196EEDC2396E2E00C9474F2CF93DF93C0912117D0912217FC018081833028F4813048F00E946ED903C0833001F58BEE888BC8DF1CC08BEE888B81E080932D1783E499E590932F1780932E170E94F54E6093291720
S28400B30070932A1780932B1790932C1782E08093201783E297E10E9426E0DF91CF910895109220170895AEE0B0E0E9E9F9E50C9458F2FC01228122952695269523702983268537853B832A8328E07096DE01149601900D922A95E1F7FC0123A92C8723812D8784A98E87CE010196FEDD2E96E2E00C9474F2ACE1B0E0E0ECF9E50C944CF239
S28400B380FC01428142954695469543704983268537853B832A8328E07096DE01149601900D922A95E1F7FC01628066946694F62DF3706F2EFC87FC01248135813E872D8728E03696DE011F9601900D922A95E1F7FC0172A87F8A20A931A9398F288F23A92A8F23812B8F84A98C8F80912017882309F44CC080902117909022178EEF840FB9
S28400B400823008F063C0F4018381481320C0423029F42C813D818681978127C0433009F055C02C813D814E815F8168857985F401A680B780C084D184E284F384048515858A859B850E94AAF209F040C023C0823091F0833021F0811139C0423051F42C813D818091C3129091C4122817390771F511C0433059F548E050E06BEB72E1CE0144
S28400B48004960E941FF3892B29F020C0CE0101964FDD1CC0F2E06F1209C02F8538898091CF129091D0122817390781F4772029F0CE0101963DDDF401108A80912017823029F483E297E10E9456E0D2DE6C96EEE00C9468F2CF93E0912117F09122178381882349F08250823030F088EE808BCF01CDDB80E079C087E080933F178091C512C4
S28400B50091E0980F9093C5128093421720914017207E236020622093401784819581909344178093431793819370990F990F80914117837F892B809341178381811102C02F7B01C0206420934017809140178F7780934017809141178C7C8093411788E03696A5E4B7E101900D928A95E1F78091CA129091CB1290934E1780934D17809120
S28400B580CF129091D0129C012E5F3F4F409141172230310570F4406C409341170E94915028E0FC01AFE4B7E101900D922A95E1F709C0242F2F732068209341179093501780934F178CE599E59093771780937617C1E0C0937517C09320178CE397E10E94F350C0938C1781E0CF910895ADE1B0E0ECEFFAE50C9458F2FC019281892F8695E1
S28400B60086958370898792959695969593709A87868597859C878B8788E07096DE011D9601900D928A95E1F71D8A1F8A1E8A188E198EBE016F5F7F4F8FE397E10E9488D98091CD12811106C080918C17811102C082E001C081E0809375178DE499E590937717809376178CE397E10E94F3506D96E2E00C9474F2CF93DF93C0912117D091EE
S28400B68022178B818E830E946766882311F01F8202C087EE8F83CE01F9DA80E0DF91CF91089582E080933F178EE59BE590934117809340178CE397E10C94F6508091211790912217E3CAA8E0B0E0E9E6FBE50C9456F20091211710912217F8011682C5DDF80183818823D1F00E94394D0E940A5183E297E10E9456E010928C17FCD70E9439
