S02B0000416C6C5F4D65676152665F41746D656761323536726672325F384D687A5F4763632F4578652F417000
S2840000000C9492260C940BF20C9437F20C9463F20C948FF20C94BBF20C94E7F20C9413F30C943FF30C94CF260C94CF260C94CF260C94CF260C941CEE0C94CF260C9472EE0C94CF260C94CF260C94CF260C94CF260C94CF260C94CF260C94CF260C94CF260C94EFF40C94D5F00C9478F00C94A7F00C94CF260C9480F40C94D9F30C94CF265D
S2840000800C94CF260C94CF260C94CF260C94CF260C946FF10C9412F10C9441F10C9472F30C94CF260C94CF260C94C7DE0C942AE10C94CF260C94CF260C94CF260C94CF260C94CF260C94CF260C94CF260C94CF260C94CF260C94CF260C94CF260C94CF260C94CF260C94CF260C94CF260C94CF260C9486E10C94CF260C94CF260C94AEE163
S2840001000C94CF260C94CF260C94CF260C94CF260C94CF260C94CF260C94CF260C94D6E10C94CF260C94CF260C94CF260C94CF260C94CF260000000000000000000000000000000000000000000000000000000000000000000000000000000000000000000000000000000000000000000000000000000000000000000000000000000027
S2840001800000000000000000000000000000000000000000000000000000000000000000000000000000000000000000000000000000000000000000000000000000000000000000000000000000000000000000000000000000000000000000000000000000000000000000000000000000000000000000000000000000000000000000FA
S284000200000000000000000000000000000000000000000000000000000000000000000000000000000000000000000000000000000000000000000000000000000000000000000000000000000000000000000000000000000000000000000000000000000000000000000000000000000000000000000000000000000000000000000079
S2840002800000000000000000000000000000000000000000000000000000000000000000000000000000000000000000000000000000000000000000000000000000000000000000000000000000000000000000000000000000000000000000000000000000000000000000000000000000000000000000000000000000000000000000F9
S284000300000000000000000000000000000000000000000000000000000000000000000000000000000000000000000000000000000000000000000000000000000000000000000000000000000000000000000000000000000000000000000000000000000000000000000000000000000000000000000000000000000000000000000078
S284004400C10E16001900B40C03001800F007BD001700161301001600CA13080015005713010014004E1302001300BA13010026005D1301001E004D1301000F00D41301000E00BE1301000D00C61302000C00171301000B00111302000A003413110009002A1301000800291301000700281301000600BB1301000500C41301000400BC12A4
S284004480040003004513080002000F1301000100F412080000008E4712002E00B24715002D00DC4719002C000E4804002A0016481100290064289728A128B828A828DF28CF28B228F528C129C12904290C293E2955294A516F5088518851885174507E508851885186508B50B350BC508851C150C950D3508851DC50E1508851EA502551A6
S284004500375188512A5132514A514A514A5141514151415141514151415141514151415141514151415141514151415141514151FD5041518851885188518851885188518851885188518851885188518851885141513C514A514151F7504C514A516351715178514A514A514A51E452515226532653265357525C52FA5226535F526252F7
S2840045807352785226537B527E528152265386528952FA528E52D852ED522653DB52DE525552E152E152FA52FA52FA52FA52FA52FA52FA52FA52FA52FA52FA52FA52FA52FA52FA52FA52FA52BE52FA5226532653265326532653265326532653265326532653265326532653FA52F052F352FA52B65202530B5305530853265319531E53B1
S28400460024532B542D5438542F543154335435540A543B543D540A544054955498549C549F54A354A754AA54AE54AE54F0582E592E592E59F758145905590C593F59FE581B591B5922592E5936593A599A599D59A059A059A259AC59A659A959B959A459AF59B159B359B659A25BA55BC65BA85BAC5BC65BB05BC65BBB5BBE5BC45B2D5F41
S284004680DA5FE95FE85E30603060E55FE95FEE5F1C600560306030601C601B5F1E6022982A984198B398B3980A981798B398B398B398619870988D989998B39807983598D397A09CA09CC99BD19BD19BDE9BDE9BFB9BFB9BFB9B599C599C599CF49CA09C81AAD3AAA7AAABAAABAAABAAABAAABAAAFAAAFAA1EBD21BDC2BDC2BD26BDC2BD6B
S28400470030BD19BE19BE19BE19BE19BE19BE19BE19BE19BEC2BDC2BD19BE19BD2BBDC2BD6FC8BDC8BDC8BDC8BDC8BDC8ACC896C8B4C8BDC8A6C8BDC8B0C8B8C892CA6DCB4BCC76CCB5CCE1CD2ACE4DD44DD44DD44DD44DD44DD44DD44DD44DD461CD6FCD4DD44DD496CD2CCC44D64CD65ED667D669D66BD66DD670D643D7BBD7BBD769D7A0
S28400478072D782D78BD78ED791D794D79AD700000100020003000400050006000700080009000A000B000C000D000E000F001E00180000000100020003000400050006000700080009000A000B000C000D000E000F001E00130014001500160000000100020003000400050006000700080009000A000B000C000D000E000F001E001300C8
S2840048001400150016001700180019002600130014001500160000000100020003000400050006000700080009000A000B000C000D000E000F001E0059060000F00700004A070000AD080000E407000000000000D7080000410E0000990E0000EB0B00003D0C0000070C0000740C0000B70C0000FB0D00000000000000000000B40C000025
S284004880C10E00000000000000000000000000000000000000000000000000000000000000000000000000000000000000000000000000000000000000000000D70E0000FF0E0000DE060000884A02008C4A01008F4A01008D4A0200924A0100934A0100944A0100954A0100964A0100974A0100984A0200904A02009A4A01009B4A0100E8
S284004900B44A0200A54A0100A64A0100A74A0100B04A04009C4A01009D4A0400A14A0100A24A0100AC4A0100AD4A0100AE4A0200000000000000000000000000000000000000000000000000000000000000000000000000000000000000000000000000A34A0100A44A0100B64A0100B74A0100B84A0100B94A010000000000A84A0400F0
S2840049808A4A0200F4120800FE1201000B1304000F130100C2130100C3130100CA130800C61302004E13020057130100BE130100D4130100C413010013130100141301001513010016130100111302001713010018130100C0130100BF130100CF120100D012010045130800BC1204002B13040020130400241304002813010029130100C1
S284004A002A13010034131100BB1301002F13010030130400BA120100D11202004D130100101301000000000000000000BB1201000000000000000000000000000000000000000000000000000000000000000000000000000000000000000000191305001E1301001F130100000000000000000000000000000000000000000000000000A7
S284004A8000000000FF12010085006C00010000070500070B0205040204000308FF140000000108030303020A901A00000100000000000203141061620003001E000003013412000303000002000000000003031027000010270000010001E803000004E80300001041746D656C2020202020202020202020FECAAAAAAAAAAA1A000203014B
S284004B000080000000000000000000000000000000000005FF0000000000000000000000000000000000000000000000000000000000000000000000000000000000000000000000000000000000000000000000000000000000000000000000000000000000000000000000000000000000000000000000000000000000000000000000AC
S284004B80000000000002010002020508080000FFFF341200000000000000000209011A42794700000000000000000000000002647E42790107A499F8730101A499F8730101237E4D910101A87DACA00101A87D7BA001075D7DE8730101057DCC8601010000000001070000000001010000000001030000E26B01040000E26B010500000031
S284004C0000010600000000010D000000000101A4990000000100000000010E00000000010700000000010A0000000001000000000001010000000001010000000000000000CF7700090000CF77000C0000CF7700000000CF7700667A3880639709AA6F76999D7B7B217CF574DE8223890878D5A0027B74756374000000002D74A682000023
S284004C8000009769A76C2D6A026A266A00009E69AC691B6AA5699D6C5569996BA06B0F6C916B346A0000F76C0201020303020201010101010101010102020101010201020202020202010202020202020103030202035EA88A9E4197BD9F0000C0A6409059AB000000001CB8B6BC41C687BF5DD420C53DE33DE33DE33DE3AFE472E276F5AC
S284004D00EDEDDBDF19DF87EC22EF2BEC64EADFE83EE390E4BCE5CFE38EE4BAE5CDE3030405060700112480913718823159F084B780FD04C08F718093371807C081E08093371803C081E18093371814BE809160008861809360001092600011241FBECFEFD1E8DEBFCDBF00E00CBF13E0A0E0B2E0E4E8F2EF01E00BBF02C007900D92AE317E
S284004D80B107D9F728E1AEE1B3E001C01D92A733B207E1F70E94DF320E94F532FDCF0C9400007F937FB7F8949D9AA5988AEF4DD08AEF4BD09D9886E448D081E0959980E08F9380EF42D08F917FBF7F9108957F937FB7F8949D9AA59886E037D09D988AE034D0889495990894881F8F9384E62DD08F917FBF7F9108959F937F9398E0E7DF77
S284004E00879577959A959923D1F7872F7F919F9108957F937FB7F894A5989D9A8F9386E014D08F91879508F49D988F9384E60DD08F919D987FBF7F9108959F9398E0E9DF9A959923E1F79F91089500000000000000008A958823C9F708955F937F937FB7F894CF93DF93C0E0D0E07F935091B2007091B2007517E1F3739521965091B200D8
S284004E805717D9F77F91CE01DF91CF917FBF7F915F9108952FB7F8948091F0049091F10490619093F1048093F0042FBF089581E090E090930F0680930E0683E080930206E5E0F6E021E020838AE0818312821382148225831682178220930D0685E493E0909316068093150682E190E090931406809313062093120683E897E290931A068D
S284004F00809319060895FC018081811103C081E0809394032FB7F8948091F0049091F10490619093F1048093F0042FBF089580918C0390E0982F882720918D03822B909385038093840380E092E00C9465E708958091910390E0982F882720919203822B880F892F881F990B9195909389038093880382E292E00C9465E708958091930332
S284004F8090E090938B0380938A0383E392E00C9418EC0895FC018785811109C063E873E081E290E00E941A3481E00E943F332FB7F8948091F0049091F10490619093F1048093F0042FBF0895CF93DF93EC0180E00E9461336CA18EA19FA10ED3DF91CF910895A0E0B0E080939B0390939C03A0939D03B0939E0381E080939F038AE497E218
S2840050009093A1038093A00385E993E00C94C2E2089582E390E0E5DF60918E0370E0762F662780918F03682B6C7F80E090E00E94C3F720E030E040E857E30E9451F820E030E04AEF52E40E9451F820E030E040EC50E40E9432F70E9497F7709387036093860381E192E00C9465E7089584EF91E0B8DF81E192E00C9465E70895FC01862FE0
S284005080643630F06AE00E941FF6905D928304C090E392836A3020F06AE00E941FF6905D91836AE00E941FF6905D90830895CF938091940390E08F30910508F062C1FC01E65AFD4D0C9490F60E94573366D284E293E09093E0058093DF0582E090E09093E2058093E1058FEF99E29093E8058093E7058AEC97E290937A038093790383E621
S28400510093E00E9468C581E08093940363E873E081E290E00E941A3480918303811103C08BE08093940388EC90E05BDF2AC180E092E00E9465E783E392E00E94D7EB82E0F0CF61E083E392E00E9402EC84E0E9CF83E392E00E9465E782E292E00E9447E787E0DFCF82E292E00E94A5E783E0D9CF83E392E00E9418EC85EF80938E0386E301
S28400518098E2909321028093200281E192E00E9447E781E192E00E947DE786E0C2CF89E098E2909321028093200281E192E00E9447E781E192E00E94A5E785E0B2CF81E192E00E9465E710928C0386E398E29093100280930F0280E092E00E9447E780E092E00E947DE788E09CCF87E997E29093100280930F0280E092E00E9447E780E096
S28400520092E00E94A5E78CCF80912603882311F08EE031C08CE02FC081E090E090935B0380935A0390935903809358038093570380915C03807F816080935C0387E593E090937F0380937E0384EE97E290938103809380038BE793E00E94034363E873E081E290E00E941A3480918303811102C08FE001C08DE0809394030AC018DE8EE0E2
S2840052808093940381E08093260388EC90E0A9DE2FB7F8948091F0049091F10490619093F1048093F0042FBF6CC0809184039091850362E470E00E942BF68EE193E0DEDE8AE080935603809120038093550380911F038093540380911E0380935303CCE2C093520360918603709187038EE193E0C5DE809120038093510380911F0380939A
S284005300500380911E0380934F03C0934E0360918803709189038EE193E0B0DE8091200380934D0380911F0380934C0380911E0380934B0360918A0370918B038EE193E09DDEC0934A03809120038093490380911F038093480380911E038093470361E070E08EE193E08ADEC093460380911E03809345038CEE95E00E94943F81E08093C9
S2840053809403CF910895A5E0B0E0E9ECF9E20C94CBF66D838C838BDD8C816D81823011F485E001C084E0809305068AE08093060610920706109208061092090681E080930A0610920B0610920C06CE01019656DE8981809345038A81809346038B818093470385E493E090931606809315068CEE95E00E94943F2596E2E00C94E7F6A1E0B2
S284005400B0E0E5E0FAE20C94C9F68C0180E00E946133A801BE016F5F7F4F8BEC95E00E94B2E680912303E82FF0E0EF5DFC4F998190838F5F80932303823049F46091220370E08091210390E09EDF1092230342E050E061E273E08BEC95E00E9425E62196E4E00C94E5F60895089508950895CF92DF92FF920F931F93CF93DF93E42FF0E0A9
S284005480F0909E042AEF30E02F1931092E173F0734F150919D0420E030E0EC01C60FD11D0AEF10E02E173F07ACF4852F90E0BC016E557C4F6B01BE01620F731FDB015C91D6015C932F5F3F4F0196B8010E943FF6582FE8CF50939D04F40EF0929E04DF91CF911F910F91FF90DF90CF9008951F93CF93DF931092D1041092D20410919E04AB
S284005500112309F446C080919C04EFE9F4E01333E0F4212F30E0CAEFD0E0AF014F595440421753075CF490E0DC01AE55BC4F4C9141930196BE010E943FF6EFCF80939C041093D10410929E0418C02AEF30E090E0DC01AE55BC4F4C9141930196B9010E943FF694E0E13DF90791F780939C0482E38093D104125310939E0481E08093D20417
S2840055804091D10450E06FE974E08BEC95E00E9425E6DF91CF911F91089588EC8093D6051092D70589E190E09093D9058093D80586E08093DA051092DB051092DC051092EB051092E0051092DF051092E2051092E1051092E4051092E3051092E6051092E50587E79AE29093EA058093E9058BEC95E00C94C6E50895462F2091D204222376
S28400560019F060E034CF0895FC01AFE9B4E0633370F4862F90E09D012F593440281739071CF421912D93F7CF4093D1040CC021912D9324E0A13DB207D1F722E32093D104425362E314DF81E08093D2044091D10450E06FE974E08BEC95E00C9425E60895A2E0B0E0E6E3FBE20C94C3F66C010091200610912106E12CF12C8091240690916D
S2840056802506E816F906A8F45801B8016C5F7F4F42E050E0CE0101960E940BF90A5F1F4F29813A812C153D0539F08FEFE81AF80AE4CF80E090E001C0C5012296EAE00C94DFF6ADE0B0E0E7E6FBE20C94C5F67C016B0123E0969587952A95E1F7FC01E05EF94F228D30E0B70167707727062E02C0369527950A94E2F78E010F5F1F4F20FF94
S28400570042C027E0EAE3F6E0D80101900D922A95E1F7A0E020E030E04A2F50E048175907D8F4F801E40FF51F4081542F569555754575540F452F4695469543735373450F4083E42FEF7042954F7050E04E0F511D240F351FAF5FE0CFE0E0D801A80FB91F4E2F50E04617570780F44C9150E00E2E02C0569547950A94E2F741705527240F4D
S284005780351FEF5FEDCF2FEF3FEF1B870A8746E0429FC001439F900D112404969987888786E090E09D878C8763E17DE2CE01089672D18D819E81E816F90639F084E090EA9093540680935306E1D589819A81F601918380832D96E8E00C94E1F6A6E0B0E0E4EFFBE20C94C7F67C018B0180E090E0FC0133E0F695E7953A95E1F7EE0DFF1D4C
S2840058006081AC0147705527262F30E0042E02C0369527950A94E2F720FF0DC021E030E001C0220F4A95EAF720952623208318DF009731F431C0019683339105C9F62CC046E050E0BC01CE0101960E940BF989819A81F80193838283B8018D819E8131DFF801808191810596918380838B819C819583848382819381892B39F480E090EA63
S284005880909354068093530681D58D819E81F7019087878381E006C08FEF9FEFF7019087878380E02696E6E00C94E3F6A8E0B0E0ECE5FCE20C94C1F67C01A0902206B0902306FC01868182FD09C000E010E0812C76E0972ECC24C394D12C0CC047E050E06FEF70E0C7010E943BF96DC0882483940F5F1F4F809126069091270608171907EE
S28400590008F05BC0909EB001919E700D11246A0D7B1D46E050E0CE0101960E940BF92D813E81F90163E0F695E7956A95E1F7EE0DFF1D408127703327842F90E0022E02C0969587950A94E2F780FFD2CFC60102C0880F991F2A95E2F79C01209524232083812C882D90E02B813C818217930708F0BDCF880F991F69817A81680F791F42E097
S28400598050E0CE0107960E940BF98F819885FC0153E0F695E7955A95E1F7EE0DFF1D87709927960102C0220F331F8A95E2F7C9019081982B90838394D4CF882021F000E010E0812C97CF2896ECE00C94DDF6CF93DF93EC018FEF9FEF98878F8387E0FB01DE0101900D928A95E1F7CE015FDFEAE3F6E0919188818923899386E0E134F8070B
S284005A00C1F7DF91CF91089580914E0690914F06A7C2089510924B0684E09DE290934D0680934C0608950895E3E3F6E0DC013D91CD012081232B2193B6E0EA33FB07B1F78091500684608093500608950E945DEA882311F0DFD5FACF0895A2E0B0E0E3E3FDE20C94C9F68B0189839A83EFDFB80189819A810E9480E9019631F08DE203313E
S284005A80180721F4E3DF02C081E001C080E02296E4E00C94E5F6A2E0B0E0E1E5FDE20C94C9F68B0189839A83D1DFB80189819A810E940DE9019631F08DE20331180721F4C5DF02C081E001C080E02296E4E00C94E5F6A2E1B0E0EFE6FDE20C94BEF680915006982F92609093500682FF0AC063E376E083ED94E06BDF809150068B7F8093C4
S284005B005006CC24C394D12C7E013DE0E30EF11C55E0A52EB12C4E0182E1880E911CBE01695F7F4F83ED94E059DE882309F462C06090DA047090DB04F30163E0F695E7956A95E1F7E05EF94FC30187709927960102C0220F331F8A95E2F7C901809593898923838BFC82EB82BE82AD828F81988505979A83898363E17DE2CE0101968BDFCD
S284005B804B855C8569857A8580E05ED0582E8D8558123AC08889998968167906A9F52B853C858E859F852817390771F59C828B82DE82CD8200E010E02B853C850217130708F0ADCF2F813885200F311F3A83298363E17DE2CE0101965EDFAB81BC81E985FA85E00FF11F9C91808198130DC00F5F1F4FE2CF809150068D7F8093500660E01C
S284005C0070E08FE001D21CC05D86798A688A8B859C859F878E87FC82EB8285E090E09E838D838F81988505979A83898369E67DE2CE01079612DF63E17DE2CE0101960DDF6296EFE00C94DAF6FB01460F571FE417F50719F09191890FFACF08954F925F927F928F929F92AF92BF92CF92DF92EF92FF920F931F93CF93DF93CDB7DEB7629787
S284005C800FB6F894DEBF0FBECDBF80E094E4909321068093200686E994E4909323068093220606E914E400501444C80166E070E00E942BF6892B39F080E290EA909354068093530663D326E030E0C801B9010E942BF64091240650912506642B752B709325066093240604EB14E406591444C801B9010E942BF6892B39F081E290EA909368
S284005D0054068093530642D3C80166E070E00E942BF68091260690912706682B792B70932706609326060091200610912106109228061092290610922A0610922B0687E0EAE3F6E0DF011D928A95E9F7D12CEE24E394F12C80912406909125062D2D30E028173907C8F546E050E0B801CE0101960E940BF92B813C812B5F3F4F8091280608
S284005D8090912906A0912A06B0912B06820F931FA11DB11D8093280690932906A0932A06B0932B068D819E81FC0133E0F695E7953A95E1F7E05EF94F87709927970102C0220F331F8A95E2F7C901928D982B928F0A5F1F4FD394BECF26E0289F6001299FD00C112434E0C30ED11CE12CF12CCE010796988B8F8786E090E09A8B898BA12C29
S284005E00B12C00E010E096E0792E22E2822E20EA922EF80183E0F695E7958A95E1F7E05EF94F828D90E098012770332702C0969587952A95E2F780FF41C07A9CC0017B9C900D112404969E878D8763E17DE2CE010D9621DE8B859C858017910749F48F819885A985BA858C159D05AE05BF0559F01C870B87CF82D886E986FA8663E17DE274
S284005E80CE010D96EADDC801EBDB2C01009729F4909254068092530679D246E050E0B201CE0101960E940BF98B819C810596C80ED91EE11CF11C8FEFA81AB80A0F5F1F4F0333110509F0A5CFA5DD62960FB6F894DEBF0FBECDBFDF91CF911F910F91FF90EF90DF90CF90BF90AF909F908F907F905F904F90089520E0FC013191CF01311197
S284005F0005C02F5F2730C1F780E0089581E0089527E0FB0111922A95E9F7FC0123E0F695E7952A95E1F7E60FF71F8770992721E030E001C0220F8A95EAF78081822B8083CB01B4CC0895AAE3B6E0FC013D9120812323219326E0A134B207C1F7CCCF0895A7E0B0E0E6EBFFE20C94CAF6BE016F5F7F4FCEDFCE010196E6DFCE010196BBDF14
S284005F80182F882339F0CE0101964EDD8091500681FF9FDD812F2796E3E00C94E6F608950895A2E0B0E0E7EDFFE20C94CBF68091DC048823E9F0BE016F5F7F4F81E290E039D4BE016E5F7F4F8DE190E033D48981823071F48A8181110BC080ED9FE29093E5048093E4048DED94E00E940FC202C00E942EE02296E2E00C94E7F68091DC0457
S28400600008950C94B0EC0895A0E0B0E0EAE0F0E30C94C3F6B82E7B01082F10E093E0169507959A95E1F78770C1E0D0E001C0CC0F8A95EAF7AC2E8FE38B1538F484E090E89093540680935306A1D1F801EA51FB4F80818C2311F1C091EE04D091EF0485E0C82E80E8D82E2097C1F0FE01E00FF11F82818A2171F02A853B85232B29F4D092E1
S2840060805406C092530682D1EA85FB85B7018B2D19950990D881C02DE6CFCDB7DEB7EAE00C94DFF6E82FF0E023E0F695E7952A95E1F7EA51FB4F208130E0877041E050E002C0440F551F8A95E2F72423352381E0232B09F480E00895282F30E043E0369527954A95E1F7620F731F877021E030E001C0220F8A95EAF7FB019281922381E091
S28400610009F480E008951F93CF93DF93182FEB01803438F023E030E8309354062093530635D1BE01812FD8DF81112AC0BE018EEE94E09AD081110BC088E0FE013296DF011D928A95E9F7BE018EEE94E09DD0412F50E063E0569547956A95E1F7177021E030E001C0220F1A95EAF7C40FD51F8A81822B8A83FA01EA51FB4F8081822B8083F8
S284006180DF91CF911F9108951F93CF93DF93182FEB01803438F023E030E83093540620935306F4D0BE01812F97DF882369F1212F30E073E0369527957A95E1F7177041E050E0012E01C0440F0A94EAF7942F9095C20FD31F8A8189238A83E091EE04F091EF04309759F0DF01A20FB31F12968C91842351F40190F081E02DF3CFF901EA51CB
S284006200FB4F808189238083DF91CF911F910895DC01ED91FC911197309721F0208131812D933C93CF01089561157105A1F0DC01ED91FC911197E617F70759F4208131812D933C930FC0808191818617970729F0FC013097C1F780E00895DB018D919C919183808381E00895DC01ED91FC91309739F0E617F70731F00190F081E02DF7CF60
S28400628080E0089581E008950F931F93CF93DF938C01EB01E9DF882349F080E090E890935406809353065AD080E014C019821882D801ED91FC911197309719F4CD93DC9308C080819181009711F0FC01FACFD183C08381E0DF91CF911F910F910895CF93DF93FC0182819381009781F40E9416E3C22FD32F0E942B5344E0FC0121913191A9
S284006300CF01C227D3274150C1F7CE010E9400F981E08093490281E592E00E94C2E2DF91CF91089583E492E00C949C53089580914902882369F081E592E00E94F2E28FE691E39093500280934F0210924902EACF089581E592E00C94F2E2089582E090E0909356068093550680915306909154069093580680935706E0915106F091520691
S284006380309719F085E596E01995089583E090E0909356068093550680915306909154069093580680935706E0915106F0915206309719F085E596E019950895EF920F93FC01618372834F3740F081E090E89093540680935306C2DF20C0403808F04FE7440F808181700187842BE0FA80F9808334832383CB01AC01608166950496218113
S284006400328174E0679F200D311D11244217530720F4DC0111971C92EECF0F91EF900895A0E0B0E0E6E1F2E30C94C4F6EC018B01B42E0E9416E369017A018D819E81AF81B885A7019601281B390B4A0B5B0BCA01B9012B813C8140E050E00E9452F62F3F31054105510518F42223F9F001C02FEF89819A81BC0138813695049649815A81C5
S284006480E4E03E9F400D511D11246417750748F4FC013291432F231708F4422F341B3083E9CFCD82DE82EF82F886A981BA814881842F86959D0154E0859F200D311D1124C901E0E0F0E0A817B907C0F413965C911397552359F02D913C9111972017310729F412962C9112972B15C1F0309719F02381521708F4FD011496E5CF40FD06C07C
S284006500309771F0838181110BC002C0309751F011830083B2828985838304C080E003C082E001C081E0CDB7DEB7E9E00C94E0F6FECE08950895CF93DF9360915E0270915F0280E090E0E1E0F0E09F01082E02C0220F331F0A94E2F74091F0045091F1044623572342235323452B11F16FB7F8944091F0045091F1042095309524233523F0
S2840065803093F1042093F0046FBFFC01EE0FFF1FE652FD4FC081D181209739F486E090E89093540680935306F1DEFE01199504C001968E30910549F6DF91CF9108950E94B9E00E946DB2882371F02FB7F8948091F0049091F10480619093F1048093F0042FBF81E0089582E00895A5DF60E070E08BE20ADD8091F0049091F104892B09F4A4
S284006600D0DC2091F0043091F10481E0232B09F480E0089590CF0895FC012081211105C021E02193CF010C94C2E20895FC012081213021F41192CF010C94F2E20895A5E0B0E0E5E2F3E30C94C7F67C012A833B834C835D836983EADFF7011082698163872A813B814C815D812783308741875287158704872596E6E00C94E3F608958130AA
S28400668031F018F0823029F008952F9A08952E9A08952C9A0895813031F018F0823029F008952F9808952E9808952C980895279A269A249A2F9881E0EEDF82E0ECDF80E00895813039F018F0823039F0089585B1805806C085B190E402C085B190E1892785B9089588E3E3EDF2E1DF011D928A95E9F7E4EFF2E181E080839AE0918312827A
S2840067001382148285831682178285E08093FE1247E850E067E17BE48EE493E10E940BF947E150E060E07BE48CEB92E10E940BF943E050E06DEF7AE489EB92E10E940BF943E450E06AEB7AE48BE093E10E940BF980E69CE0E9E5F6E0DF019C011D9221503040E1F70895A4E0B0E0E9EBF3E30C94CBF6BC011A8219821C821B82882781154B
S28400678021E0920769F0811522E09207B9F0892BE9F4660F771F660F771F6C57764B07C07727660F771F660F771F6853774B44E050E0CE0101960E940BF90FC07727660F771F660F771F685C774BF1CF8AE090E69093540680935306D9DD69817A818B819C812496E2E00C94E7F67CDF37CA0895A4E0B0E0EEEFF3E30C94C7F67C018B01CF
S284006800B2DFEE24E11422E0F20669F026E030E6309354062093530669837A838B839C83B5DD7A816981F801718360832496E6E00C94E3F6A4E0B0E0E0E2F4E30C94C7F68C017B0190DFE114F10479F420E030E6309354062093530669837A838B839C8395DD9C818B817A81698100270115110549F0011521E0120751F4AC01C7010E94C7
S2840068800BF90CC0AC01C7010E9421F907C081E090E6909354068093530678DD2496E6E00C94E3F6A0E0B0E0E8E5F4E30C94C5F68C01EB0158DF6B017C01209739F484E090E6909354068093530660DD00270115110539F085E090E6909354068093530655DDA701BE01C6010E9421F9CDB7DEB7E8E00C94E1F6FC0193A5892F887090FF09
S28400690009C0882379F081E027A130A52236310550F408C0882331F081E027A130A52436310508F480E08170089521E030E001C0220F8A95EAF78091F504822B8093F5042FB7F8948091F0049091F10480629093F1048093F0042FBF0895CF93DF93E091DA13F091DB138E179F0718F482E894E446C08E1B9F0B6CE670E00E942BF68091D1
S284006980D513681718F083E894E439C08CE6689FE00DF11D11248781869590E08230910559F014F00397D1F58091D9138823B1F181508093D91332C08091D813882319F081508093D813DF01AC5ABF4FCD91DC912091DD133091DE13CE01821B930B63E270E00E942BF6C217D30718F484E894E406C08091D613681740F085E894E49093FD
S284006A00540680935306AADC0CC0D90183E2689FA00DB11D11248C9181111C9287818E7F8783DF91CF910895CF93DF93EC011EA28CA19DA1892B39F484E494E49093540680935306A3DCECA1FDA1CE0186961995DF91CF910895EF92FF920F931F93CF93DF93A091D5134091DA135091DB1320E030E090E09A1709F45AC0FA01E20FF31FAE
S284006A80B90164597F4FB781B0FD63C07F0194E5E90EF11CD7011D921C928230B1F010F08330F1F59091D9134091D713941708F03EC09F5F9093D913138214821582168290859F709087128235C01091D8139091D613191760F50091DC134091DD135091DE1390E09017B9F0EA014D5D5F4FBA0163527109DB016C9161110BC01F5F109340
S284006B00D81341E048836896D701CD93DC93428302C09F5FE7CF4091DC1349130BC007C081E894E490935406809353062FDC80E090E012C09085907F9087880F81608783118210828091DA139091DB13820F931F03C09F5F9B018ECFCDB7DEB7E6E00C94E3F620910605215020930605BC0180E295E08ADB81E0D9CE0F931F93CF93DF93DC
S284006B808C01C091F604D091F7048091F2049091F30480519140813F954048F4B80186EF94E072DBCD2B59F480E0BFDE08C083E694E49093540680935306E8DBEFCFDF91CF911F910F910895BC016F50710982E295E05ADB81E0A9CEBC016351710984E295E052DB81E0A1CE209106052F5F209306050C9404936F927F929F92AF92BF9216
S284006C00CF92DF92EF92FF920F931F93CF93DF931F92CDB7DEB78C017B01FB01E25AFF4F81EB95E3918380833E9782E08083D80157968D919C9158973196918380839C968C919C97379680833196108231969B968C919B978095881F8827881F8083319681E08083319680839B968C919B9786FD0BC021E057968D919C915897883F9F4FF0
S284006C8008F020E0822F01C081E0F701E35AFF4F81708083C8012FDEF701ED5AFF4F6F0197012C5A3F4F3901882309F442C09090871440918814242F30E080918B1490E001972817390739F4D80197968C91499D80191124982EA92CB12CC5014E968236910538F081E594E490935406809353064DDB309187142091881480919D14909111
S284006D009E14F80161A572A5329F600D711D1124A5014E960E9421F98AE0890DD6018C9380919D1490919E144496F301918380830EC0D80197968C919797885F808399968D919C919A970897D9018D939C93F301C080D180D6012C912C7F2F7E2C93F8018789908D237F883F9F4F10F02860D6012C93F60180818F7D8083D8019B969C910A
S284006D8092FD03C08F7B808322C08064F6018083D70118962C911897207F216018962C93C8012983A8DD29812F70882341F080918D148295807F822BF701808708C08091BA128295807F822BD70118968C93C80192DDF60190818823A1F0906890839091881480858C7F911106C08160808780918B14818709C0826080878091881481878D
S284006E0003C09F77F6019083D80191968C919197F601818394968D919C9195979383828392968D919C9193979583848396968C918683C80160DD882331F080918C14D60117968C9308C080911D0591E0980F90931D05F6018783C7010996C6DE80E00F90DF91CF911F910F91FF90EF90DF90CF90BF90AF909F907F906F900895E0919B1413
S284006E80F0919C14BF0180819181B5CEEAE7F4E1F0934B14E0934A1492E0909346142091ED133091EE1330934814209347149BE09093491410924E1410924F1491E09093501490935114109252142FEA39E3309355142093541490935314908190789260906890839091F41390937B142091F0133091F11330937D1420937C142091F213D6
S284006F003091F31330937F1420937E149091EF13909380149091F5139093811492E0909382149091EB13909383149091EC139093841490918514909363141092E6131092E7131092E8131092E9138093DF138FEF93E14ACEA4E0B0E0E0EBF7E30C94C9F6182FBE016F5F7F4F8AE190E063DC20910B0530910C0540910D0550910E05A12F2D
S284006F80B0E00E94ABF609811A812B813C81600F711F821F931F2496E4E00C94E5F60F931F93CF93DF93EC018C0107551109FC013C970190F081E02D6FEF818192810E94278A882361F0FE01329781EB95E39183808323971882C8010E94F49202C0CE01C0DDDF91CF911F910F9108956CED73E180E191E01FDC6DED73E18EE092E0F8DB59
S2840070008091DD139091DE1320E03091DC13231748F4FC0133E2239FE00DF11D112410822F5FF3CF65ED73E18FE091E003DC6AED73E18DE092E0DCDB2091D513E091DA13F091DB1380E0821739F097819E7F97838F5FE459FF4FF7CF9091DC139093D613823008F081508093D7131092D8131092D91367E874E188E291E0DCDB65EE73E1A4
S28400708089E291E0D7DB64EE73E188E191E0D2DB8091E413882351F060EE73E18FE092E0A7DB6DE974E180E192E0A2DB3091E4132091E5138091E0139091E113329F800D911D11249093E3138093E2131092DF13089567E275E082E192E08ADB66E275E087E191E0A7DB80912605E0912705F0912805882349F0309739F489E294E490939A
S2840071005406809353062AC99F0146E1849F200D311D1124C90128EAE817F90718F4258B7696FACF08951F93CF93DF93EC01162F0097B1F08D819E81892B91F086EF94E067D81F83ED81FE81CE01079619958091F6049091F704892B59F080E0E6DB08C08BE694E490935406809353060FD9E6CFDF91CF911F910895A1E1B0E0E2ECF8E337
S2840071800C94BBF68C01262E29873A874B875C870E94BDDEE0910F0529853A854B855C85EE2361F13090D513C0901205D0901305E0901405F09015052B013C014C185D086E087F084D825E826F827886E091DA13F091DB13198A66246A94762C430169827A828B829C8246015701861A970AA80AB90A8D869E86AF86B88A0BC000E01AE3DD
S284007200A3C0A781A0FD09C0A989AF5FA98BE459FF4FB989B311F5CF40C0B085BF70B23099F7AA7FA23081F783809480A580B68081149104A104B10439F3E017F10721F34D805E806F807884481459046A047B0468F44D845E846F847888840C951CA61CB71C83829482A582B68204C0138214821582168283809480A580B68049805A8020
S2840072806B807C8084149504A604B70408F0BCCF89829A82AB82BC82B7CF211046C08090E6139090E713A090E813B090E91381149104A104B104C9F12B013C014C185D086E087F08481459046A047B0488F4C80CD91CEA1CFB1CC61AD70AE80AF90AC092E613D092E713E092E813F092E91308C01092E6131092E7131092E8131092E913B9
S2840073008091E6139091E713A091E813B091E91349805A806B807C8084159505A605B70520F489839A83AB83BC8389819A81AB81BC81281739074A075B0710F4DA01C90100E01AE39C01AD0161E08FE095E077D98FE095E061D96196E2E10C94D7F6809106058150809306058091DF13833009F43CC0823039F082E594E49093540680935D
S284007380530604D8E0918614EE2379F181E08093DF13A091BB12B0E011972AE030E00E94A5F69B01AC018091070590910805A0910905B0910A05280F391F4A1F5B1FA091BA12B0E00E94ABF69B01AC016093E6137093E7138093E8139093E913E150E093861461E080E090E0C7CE1092DF131092E6131092E7131092E8131092E91308958F
S284007400A4E0B0E0E6E0FAE30C94C3F62FEF3FEFA90110E0AA24AA94B12C8091D513181708F054C0E091DA13F091DB138CE6189FE00DF11D1124678160FF46C07085872F8F70823009F040C0862F8A7F8230E1F583819481A581B681C0901605D0901705E0901805F09019058C199D09AE09BF0983839483A583B6830097A105B105E9F446
S284007480872F807F846080876E7F663059F4C5010090BB1202C0880F991F0A94E2F7809580938A1481E029833A834B835C833DDA29813A814B815C8107C082179307A407B50710F49C01AD011F5FA7CF8091E6139091E713A091E813B091E9130097A105B10551F1C0901605D0901705E0901805F09019058C199D09AE09BF098093E613BB
S2840075009093E713A093E813B093E9130097A105B10559F482E029833A834B835C83B6DC29813A814B815C8107C082179307A407B50710F49C01AD012F3FEFEF3E074E075E0751F000E01AE361E08FE095E077D88FE095E061D803C08FE095E067D82496EAE00C94DFF6A0E0B0E0E9EBFAE30C94C2F68C01962EC0912705D0912805809115
S28400758026056E0196E1899FC00CD11C1124F8018589811109C07E01F6E1EF0EF11C58018CE0A80EB11C09C085E294E432C08A3A89F06696F6E1EF0EF11CF801CC15DD0508F04AC0908521853285F70131978081843A69F7F7013E9780819813EACF89859A852817390729F748E050E0B801CE010E9414F9892BE9F6F8018385F7013B97A7
S28400760090818913D6CF813059F0833091F086E294E490935406809353060E94AE311DC0F801248535858C859D852817390709F617C0F8019489F701329780819813B9CF48E050E0BE01645F7F4FC5010E9414F9892B09F0AECF04C0958A80E090E001C0CE01CDB7DEB7EBE00C94DEF6CF93DF93EC010097B1F18AEA8D8B0E942B5348E0BF
S28400768050E0BC01CE010E9414F9892B51F582E88D8B888581508E3F20F58B858330C9F48C8981508E3FE8F42C853D854E855F85688979898A899B89A0E00E9426F771F480E194E490935406809353060E94AE3108C0813019F086EA8D8B03C01D8A81E001C080E0DF91CF910895CF93DF93EC01009761F16FA74115510551F0FA014081C8
S28400770051816281738148AB59AB6AAB7BAB04C018AA19AA1AAA1BAAEDA5FEA5309749F484E594E490935406809353060E94AE310DC0CE018F961995CE01DDD8882331F010929C1410929B1481E0EFD8DF91CF910895A1E0B0E0EFEAFBE30C94C9F68C01FC01208131818091DD139091DE132817390740F487E494E4909354068093530646
S2840077800E94C631F801808191812091DD133091DE13821B930B63E270E00E942BF68091D613681750F088E494E4909354068093530669830E94C63169818091DD139091DE13F3E26F9F800D911D11242196E4E00C94E5F6A3E0B0E0E0EFFBE30C94C9F68C01675F7F4F7A836983BE016D5F7F4F8DE090E01FD88B81D80197965C91979725
S28400780040911D05882309F442C089819A81FC01E95BFF4F21E0208357962D913C9158973196318320833296585F50839996ED91FC919A979C01255B3F4F3897D901ED93FC938FEF8183D80194968D919C9195979383828392968D919C9193979583848396968C91868381E0840F80931D054783D901ED91FC918081807888608F77808382
S284007880E981FA81EB5AFF4F81EB95E344C089819A81FC01E95BFF4F22E0208331962DEF3FEF318320833296575F5083D8019996ED91FC919A979C01255B3F4F3997D901ED93FC93D80157968D919C9158979283818394968D919C9195979483838392968D919C9193979683858396968C91878381E0840F80931D054087D901ED91FC91AC
S284007900808180788C608F778083E981FA81EB5AFF4F8FEC97E391838083E981FA81D8019C968C919C97E15BFF4F8083E981FA81E05BFF4F8091B9128083E981FA81EF5AFF4F9B968C918095881F8827881F8083E981FA81EE5AFF4F81E08083E981FA81ED5AFF4F8083E981FA81EC5AFF4F808389819A8139D980E02396E4E00C94E5F630
S284007980DC01ED91FC9190939C1480939B1410928814109289148091BA1280938D142091871430E087A190A5B9010E942BF6462F60938B1487A190A5B9010E942BF6892B19F04F5F40938B148FEF90E00090BB1202C0880F991F0A94E2F780958E7F80938A1480911D0591E0980F90931D0580938C140895A0E0B0E0E0E0FDE30C94C2F675
S284007A00EC016B01942E5901009127051091280580912605780196E1899FE00CF11C1124209761F0C017D107F0F583E294E490935406809353060E94C63135C0E801CE01801B910B66E170E00E942BF6892B79F084E294E490935406809353060E94C63106C01D89143A39F01A3A29F06696CE15DF05B8F313C088859812F8CF89859A858D
S284007A80C816D90699F748E050E0B501CE010E9414F9892B59F7143A49F703C080E090E004C0CE0102C06696CACFCDB7DEB7EBE00C94DEF64F925F927F928F929F92AF92BF92CF92DF92EF92FF920F931F93CF93DF931F92CDB7DEB72C017B010E942B536C0157018AE6A80EB11CF501008111814114510431F0E114F10419F0C114D104B2
S284007B0051F484E194E490935406809353060E94AE3188EA5EC058EAF20164A175A1960146A1C801598366DF8C015981009709F44FC0F20184899589892B19F5F8017384F3E07F121EC048018CE0880E911CC4010E94ABC1892BA9F4F2017086D2011B9688E0F40101900D928A95E1F78AEF9DE3F201958B848BC20106960E94A5C180E021
S284007B8028C0F50111830083F80183858330B1F4C8010C960E94ABC1009711F459EABCCFF8012489F20121A3FC0180819181F201908F878BB701C2011ED80BC0F80184859585F201908F878BB701C20103DE01C0852F0F90DF91CF911F910F91FF90EF90DF90CF90BF90AF909F908F907F905F904F900895FF920F931F93CF93DF938C013A
S284007C00035111092091D513C091DA13D091DB13F12CF216E9F08F8180FF16C0888199818017910789F4BE01C80144DF882381F040E050E0682FC80158DDCE010E94AD3481E00E94953404C0F394C459DF4FE1CF8091D513F81640F085E194E490935406809353060E94C631CDB7DEB7E5E00C94E4F6EF92FF921F93CF93DF931F921F9240
S284007C80CDB7DEB77B010097A1F06115710589F0FC01158A148AF701E659FF4F11821082B70108DF182F882389F0C7010E94AD340DC023E134E4309354062093530689839A830E94C63189819A81E2CF812F0F900F90DF91CF911F91FF90EF900895A1E0B0E0E5E7FEE30C94C7F68C01262FDC01ED90FC90009709F444C0E114F10409F4FF
S284007D0040C02E3C61F0822F8F7D803D41F0213D11F082E005C0F70183A587FFFACF83E0F801EB59FF4F4081518162817381D701D0964D935D936D937C93D3979F962C93833071F0D801ED91FC918689811108C0F701158A148AB801C701ACDE883AE1F4A701405D5F4FD7019F966C91F80180819181BBDCC8010E94AD3481E00E949534E0
S284007D800BC08FE494E4909354068093530629830E94C6312981B5CF2196E6E00C94E3F6CF93DF93EC0162DC882309F454C060E0CE01D9DB892BC1F5209709F43EC08D8981113BC050912605209127053091280540E0451781F0C9012A5E3F4FF90131976081683A31F424EAFC01258B009731F432C04F5FEECF8EEA8D8B2DC0209719F01A
S284007E003D89332349F087E294E490935406809353060E94AE311AC036E1FE01DC0101900D923A95E1F706C066EACE019CDB009791F024EAFC01258B09C080E294E490935406809353060E94C631BCCF60E070E080E10E940430DF91CF910895CF93DF93EC010097D9F08091270590912805C817D907A0F02091260536E1239F800D911DBB
S284007E801124C817D90750F48D89843A11F08A3A71F488EA8D8BDF91CF91089581E294E490935406809353060E94C631EDCF82E294E490935406809353060E94C631E9CFCF93DF93EC01D2DB882359F064EACE014ADB009731F0C2DF60E070E080E10E940430DF91CF9108952091270530912805009751F0FC0176968091260596E1899F69
S284007F00200D311D112408C0F901F6CF8589843A49F08A3A39F07696E217F307B8F380E090E00895CF010895CF93DF93EC01BC0184E295E00E9444311D8A1C8A81E00E949534DF91CF910895CF93DF93EC01BC0182E295E00E944431198A188A81E00E949534DF91CF910895AAE0B0E0EAEBFFE30C94C1F61091FE12BE01665F7F4F87E0DB
S284007F8091E00E941A34BE016F5F7F4F8AE190E00E941A34C980DA80EB80FC80812F90E0A0E0B0E08C159D05AE05BF0578F0CC0CDD1CEE1CFF1CC982DA82EB82FC82BE016F5F7F4F8AE190E00E945234C12ED12C87E0C80ED11CEE24D7FCE094FE2CC0920B05D0920C05E0920D05F0920E052A8530E0A3E0B0E00E9496F69B01AC01C7019B
S284008000B6010E9410F609811A812B813C81600F711F821F931F60930705709308058093090590930A0581E08887BE01675F7F4F87E091E00E941A34BE01685F7F4F84E290E00E941A34898590E0A0E0B0E0880F991FAA1FBB1F8F3F9105A105B10529F020F08FEF90E0A0E0B0E00E94AA37E885EE2309F45AC0812C912C54018B019C014E
S28400808001501E4F2F4F3F4F800E911EA21EB31E660F771F881F991FE15081F718867501640129E0F694E794D794C7942A95D1F7D501C4019170AA27BB2741E050E060E070E0892B8A2B8B2B19F440E050E0BA01C40ED51EE61EF71E1E821D821F82BE01695F7F4F81E191E00E941A34BE016B5F7F4F88E092E00E94F833970186010F3F54
S28400810011052105310529F020F00FEF10E020E030E06D817E81C12CEE24E39420E032E04F8188EF94E00E94DE312A96ECE00C94DDF6882331F00E94FDF880931D051092060510922505109224051092230510922205109221051092200510921F0510921E058AE090E0A0E0B0E08093941490939514A0939614B09397148EE397E39093AE
S2840081809A148093991481E0809398141092EC131092F5131092EA131092F1131092F0131092EB131092EF131092F3131092F2131092EE131092ED131092F4131092DF131092E6131092E7131092E8131092E9138CE6E6EFF3E1DF011D928A95E9F783E2E2E6F4E1DF011D928A95E9F78091E51390E001962091E413289FA001299F500DB2
S284008200112460E070E08091E0139091E1130E943BF98AE794E190934B1480934A14A4CE4F925F927F928F929F92AF92BF92CF92DF92EF92FF920F931F93CF93DF931F92CDB7DEB77C01009781F02C0127E0421A51088091F6049091F7048415950529F4D20112968C91893149F086E694E490935406809353060E94AE31CBC08091F2040D
S2840082809091F3048115B7E09B0709F07FC000912405109125050115110551F084E295E00E94083140E050E063EAC8011EDAEFCF6CE6C62ED12C7CE6772EE2E4AE2EE4E4BE2EF3E48F2EF4E49F2E00912005109121050115110509F444C0B80180E295E00E9414318091DA139091DB13F801E81BF90BCF01B6010E942BF68091D5136817CD
S28400830040F0B0925406A092530669830E94C6316981E091DA13F091DB13679DE00DF11D1124808191812781269530E02130310561F02230310549F2232B61F4A8014B5F5F4FD80112966C9103C040E050E067EACCD9BBCF90925406809253060E94C631B4CF10E08091D5131817D8F48091DA139091DB13BCE61B9F800D911D1124FC019E
S284008380278120FD0E94AD341F5FECCF8115924041F087E694E490935406809353060E94C6311092F5041092F40481E0C2DE0E94F6370E94693882E393E09093F3048093F204D7018C91F201828786EF94E00E940831D20118968D919C911997892B41F489E694E490935406809353060E94C631D2011896ED91FC911997C70103961995E6
S2840084008091F6049091F704892B19F080E00E9495340F90DF91CF911F910F91FF90EF90DF90CF90BF90AF909F908F907F905F904F900895CF93DF93C091F604D091F704209741F484E694E490935406809353060E94C6318A818A38F9F0853C09F44FC0893109F06CC08091F2049091F3048031914019F480E092E002C080E097E09093EE
S284008480F3048093F20480E191E49E838D83CE0103960E94C3A95BC08091F2049091F304823323E0920719F08031964049F48FE394E09093F3048093F20456DD1D8202C083EA8D8386EF94E00E9408318B819C81892B41F48AE694E490935406809353060E94C631EB81FC81CE01059619958091F6049091F704892B51F180E018C08091E1
S284008500F2049091F3048F339440A1F480E095E09093F3048093F20482E090E09C838B838FE095E00E9416331092060581E00E9495340DC063EACE010E94933808C085E694E490935406809353060E94C631DF91CF910895AAE0B0E0E0EBF2E40C94CBF6DC011396ED91FC9114972181328140E450E05A834983AE01495F5F4F5C834B8332
S28400858041E050E05E834D836F3FBFEF7B0719F437FF15C003C02617370789F098878F837A876987BE016F5F7F4F8EE10E94043081E02D813E81232B19F080E001C081E02A96E2E00C94E7F6009729F480910405909105050895FC01808191810895CF93C82FE0E0F0E0CF01EFDFFC01009739F0A381B4818C91C813F6CFCF0102C080E0D0
S28400860090E0CF910895CF93DF93EC010097D9F086EA8F83EB81FC813097A9F080819FEF980F903F80F4DBDF892B69F421E08D819E81892B09F020E02A83BE0184E095E00E9444311F82DF91CF910895DF92EF92FF920F931F93CF93DF938C01009741F480E394E490935406809353060E94C631C0E0D0E0A1E3EA2EA4E4FA2ECE01A4DFC4
S284008680EC01009789F18A818111F8CF8B819C81892B31F4F0925406E09253060E94C631F80160A171A1CE0155DF882339F3EB81FC81D0806D2DF801878190850E94278A8823E1F2F801D18AED81FE81309749F482E394E490935406809353060E94AE3103C0C8011995CACFCDB7DEB7E7E00C94E2F6A1E3B0E0EFE7F3E40C94C1F68C01D5
S284008700B62EDC015A96ED90FC905B9755966D917C915697F701478188EF94E00E941032882309F414C1D70111968C919FEF980F9E3F28F454DF6C01009719F408C1C12CD12CF801228983899489213009F022E02F8399878887D70111968C918A8BF801858996890E94AEC1FC01009799F083E08B8B708161815281438134812581968144
S28400878087817E8B6F8B588F498F3A8F2B8F9C8F8D8F02C082E08B8BD80155968D919C9156979D8B8C8B57968D919C9158979F8F8E8FF701868188A3848195819AA389A3828193819CA38BA359968C9190E09C012A5031093EA32DA319A6208127FD04C09C012850310906C02085237029F49C01295031093EA32DA32DA13EA1821B930BAE
S284008800F801228D338D280F391F38A72FA3BAA682A18BA7848D8CA7468D578D60A171A14DA75EA76FA778AB858D89ABD7018C9187FF48C018968C918370823009F042C0E091E213F091E313808190E09EA38DA38080912CAA24A394B12C2091EA1330E08091E0139091E113A216B3064CF5E091E213F091E313EA0DFB1D408150E02091AD
S284008880E5132A9DB0012B9D700D1124680F791F880D991D0E9421F9E091E213F091E313EA0DFB1D20818DA19EA1820F911D9EA38DA3BFEFAB1ABB0A8081880E911CCDCF98A78FA3C114D10449F0D6011596ED91FC911697CE010196199539C0F8018289813021F4CE010196B1DE31C0D70111968C918F3F41F5E12CF12CC70165DE7C0114
S284008900009729F1D7011396ED91FC9114978081882399F312968C918111EFCF69A17AA1C70118DE882349F3D7011396ED91FC91149780818A8B1596ED91FC911697CE0101961995DACFCE0101960E940FC9C8010E941435E196ECE00C94DDF6A1E0B0E0E4EBF4E40C94C3F65C01DC015A960D911C915B97F80181812FEF280F2E3F80F493
S28400898029832DDE7C012981009751F0D80114966D917C911597DEDD882309F405C105C02E3F08F401C1E12CF12CF801808187FF04C09085937009F0F7C086FFF7C08C70883009F4F1C0D50155968D919C915697883FBFEF9B0708F0E7C0E114F10421F0F70122812111E0C0D5015A960D911C915B97F801208126FD02C090E0D2C0237067
S284008A00213009F027E0F090D513E091DA13F091DB1330E0422F50E0B801640F751F3F15E9F0A781A530B1F4DF01AF5ABF4F0D90BC91A02D8A179B0769F4DF01AC5ABF4FCD90DC90C40ED51EDB01EC90D601DC90ED1499F23F5FE459FF4FE1CF82E029830E942B352981009741F2FC01EC5AFF4F0190F081E02DDF0158973FEA11963C93C9
S284008A8011971396BC92AE92129762E0DC01A05BBF4F6C93D50155964D915C915697DC01AF5ABF4F11965C934E9317961C9211961C9231E011963C9311963C9311961C9241EB55E3129611965C934E9311973C9330813C7F32603083D8014C914C70337F342B30834C914295417040FB34F93E7D3F7B30834C9147FB442740F940FB37F9D8
S284008B0030834C9130E0DC01AD5ABF4F7D0144FF0DC0D5015A964D915C915B97420F531FDA012C912183F701608337C048E04C93D80116964C911697418312964D915C9113975383428314964D915C9115975583448311964C914683D5015A964D915C915B97420F531FDA012C912783D8012C9127FF13C018962C91237031F41086F70115
S284008B8020812F5F208309C0D7012C912D5F2C93D80118962C912370208709960E94F43591E081E08927A1C190E001C091E0F801808187FF92C18085837009F48EC1D5015A960D911C915B9759968C91F801F1842091E413222309F487C196EFE92EE80E8091DF13813009F456C030F0843008F06BC180E494E46AC1D084B1E0DB1274C162
S284008C002F1508F471C18091E5138E1508F46CC190E00196289FA001299F500D112460E070E08091E0139091E1130E943BF98FEA80938514D092DF13F092EA13F501858996899093EE138093ED13D80111968C9111978093EF1312968D919C9113979093F1138093F01314968D919C9115979093F3138093F21316968C9116978093F41368
S284008C8017968C918093F5138091BA12809386141092EB13F12CF8018085982F9370923011F0F11021C18C7F09F01EC18091EA138F1508F419C12091ED133091EE13D50155968D919C9156972817390709F00CC19091EF13F8018181981306C12091F0133091F113828193812817390709F0FCC02091F2133091F31384819581281739074E
S284008D0009F0F2C09091F41386819813EDC09091F51387819813E8C02091EB134091BB120F2D10E0822F90E0840F911D081719070CF0DAC08F2D642F0E941FF6D92EF21668F48F2D891B8093EB1321E030E001C0220F4A95EAF721952093EC132091E5138091E0139091E1134E2D50E0D5015A966D917C915B97665F7F4FF29E800D911DED
S284008D8011240E9421F9E091E213F091E313E00FF11FE0827091EB132091EA137F1111C09091BB12822F8F19981708F4892F41E050E0082E01C0440F0A94EAF741954093EC1341E050E00D2C01C0440F0A94EAF76091EC13642B6093EC136F3F79F4FF24FA94F70E822F90E04091BB1250E0871B9109481759070CF4CA01F80E8F2D90E07F
S284008E0030E0215031098217930751F46F3F21F483E00E94463763C082E00E94463764C0A091BB12B0E011979D01270F311D8217930711F06F3F09F582E00E9446378091EC138F3F09F050C08091BB129091EB13980F9093EB132091EA1321502F19821708F4282F81E090E0022E01C0880F0A94EAF781958093EC1337C02AE030E00E9442
S284008E80A5F69B01AC018091070590910805A0910905B0910A05280F391F4A1F5B1FA091BA12B0E00E94ABF69B01AC016093E6137093E7138093E8139093E91361E080E090E00E94BC3810C083E594E490935406809353060E94C63107C0992329F06FEAC50107DC80E001C081E02196EAE00C94DFF6A7E3B0E0EFE7F7E40C94BBF6A090D3
S284008F00F204B090F30420E1A21621E0B20609F469C12DE4222E24E4322E88248394912C80E295E00E9408317C01009709F45AC10091DA131091DB13C701801B910B6CE670E00E942BF68091D513681748F089E494E490935406809353060E94AE3142C13CE6639F000D111D1124D80117968C91B0E1AB16B6E0BB0621F0A114E5E0BE065D
S284008F8099F58E7F843019F5C8018C5A9F4F0E94A93B6C01DC0111966C91119712968D919C911397892B51F4EAE4F4E4F0935406E09353066CAB0E94C6316CA9D70112968C91811104C0F6018281938192DBA7014B5F5F4F63EAD8018D919C910E94753BC7010E94AD349CCF8695482E512CB1E04B165104B1F054F4452809F0EAC0D7019F
S28400900012966C91C8010E946F3E8ACFF2E04F16510409F4BBC023E04216510409F47BC0D8C0F80180858F70813009F079CF60807180D70119968C910E94AA379B01AC01C090BA12D12CF801808582958F70C81AD108D70112966C9161111EC02FAB3CAB4DAB5EAB0E94FDF8FC01F170D20102C0AA0FBB1FCA94E2F72FA93CA94DA95EA99C
S2840090800E94B5F66E0F7F1F811D911DF80163837483858396832DC06E3C59F0603F49F0603D39F0613D91F4D3019B968C9187FF0DC0A7014B5F5F4FC3010E94753BC7010E94AD3481E00E9495348CC00E94FDF89170E8EEF3E002C0EE0FFF1FCA94E2F78E0F9F1FA0E0B0E0F80183839483A583B683D80118968C911897807F8260189618
S2840091008C93189713962D913D914D915C91169760E0C80102C2F80180858F70813009F0FFCE2091881430E080918B1490E001972817390709F4B5C1E091BB1270918A14272F30E080E090E0682F8E1708F0A9C10196A901062E02C0559547950A94E2F740FFF2CFC401062E01C0880F0A94EAF78095872380938A1480918914860F80936C
S28400918088148EE894E10E94C2E2CACEC8018C5A9F4F0E94A93B8C01DC0111966C91119712968D919C911397892B41F430925406209253066CAB0E94C6316CA9F8018281938197DAC7010E94AD3481E00E949534A7CE2EE434E430935406209353060E94C6319ECE1BAA1AAAA4EE4A2EA5E35A2EBFEA2B2E13E0312EAA24A394B12C6624F2
S2840092006A94712C95E4892E94E4992E82E295E00E9408318C01C090F204D090F304009761F1D80150968D919C915197892B09F077C15A96ED91FC915B9780818370813009F06EC18281853009F46AC155968D919C9156970E94AEC1892B09F061C122E0F80124838589968996838583518A408AC80102960E94A5C1C9CFC1FE11C050E549
S284009280C52E54E4D52E62E0462E72E1A72E74E4B72EE8E05E2EFCEE8F2EF5E39F2E3BC000912405109125050115110509F458C0B80184E295E00E94143140E050E063EAC8010E94753BECCF8689833081F57801F9E1EF0EF11CC7010E94ABC1892B39F5D8011B96F701852D01900D928A95E1F7D80156968C91569718968C9318975596F3
S2840093009C928E925497C80106960E94A5C184E295E00E940831009124051091250501151105F1F0F80184899589892B69F280919B1490919C14892B09F4BCC2C8010E947B34882309F4B6C2C8010E947B34882309F4B0C2F8010081118101151105A1F78091F2049091F3048115B5E09B0721F08031F6E09F0769F5F12C0EC02CE6F29EB4
S28400938080011124E091DA13F091DB13E00FF11F8781833031F0F3948091D513F81670F320C080858F70843011F08230A1F740E050E063EA808191810E94753B8091DA139091DB13800F911F805A9F4F0E94AD34E2CF8F33944029F4F12C8091D513F81648F08091F2049091F3048115954009F07EC351C00091DA131091DB138CE6F89EF3
S284009400000D111D1124D80117968C91179780FF40C018969C911897292F2F702430C9F5282F2A7F2230A9F5907F79F19160905118969C938E7F823071F4C80109960E94F435F801238134814581568160E0C8010E94BC381EC08630E1F480918A148E7F80938A14809189148093881480918D14815080938D14E0919B14F0919C14BF019C
S284009480808191810E94FB3504C067EAC8010E946F3EF394A2CF80910605882309F4A8C226C3F70181850E94AA379B01AC01A091BA12F801808582958F70A81BC40102C0880F991FAA95E2F7DC010E94B5F66B017C0100919B1410919C140E94FDF89170C80ED91EE11CF11CD8011396CD92DD92ED92FC921697E0919B14F0919C14808547
S284009500807F8260808780919B1490919C14FC01238134814581568160E00E94BC3800CDD8015A96ED90FC905B97BFE3CB16B4E0DB0669F0D7018C918370813041F0F80183A1811104C0C8010E941435A4C1D7014C91642F607446FF11C05091D8132091D51330E08091D91390E0850F911D821793074CF78091D613581728F7242F2C7029
S284009580243009F3662331F0842F83708230D9F243FDD9CF45FDD7CFF801D288F1E0DF1671F032E0D312CFCF4370842F90E0009721F0029709F47AC0C6CF2C3031F0C801CDD9882309F467C1BECFD80155966D917C915697F701408588EF94E00E941032882309F4B0CFD80159968C91893008F4AACFB1E0BF83F7018181928199878887AD
S284009600D80155968D919C9156970E94AEC1FC01009791F03B8A708161815281438134812581968187817E8B6F8B588F498F3A8F2B8F9C8F8D8F01C0DB8AF801858996899D8B8C8B8789908D9F8F8E8FD70117968C91179788A315968D919C9116979AA389A313968D919C9114979CA38BA3818D90E009979EA38DA3828D938D099698A75C
S2840096808FA319A62AA682A18BA7848D8CA7868D978DA0A1B1A18DA79EA7AFA7B8AB858D89ABCE0101960E9426434DCF423031F090925406809253060E94C631C090DA13D090DB138091D513F6012CE6829FE00DF11D1124CF01C816D90608F034CFD60117966C91179760FFD2C018962C9118972F70223009F0CBC0F601EC5AFF4F0190F8
S284009700F081E02D2D913C91D80155964D915C915697D90157962D913C9158974217530709F0B5C0D70117963C91179727813213AEC014964D915C911597248135814217530709F0A4C012964D915C911397228133814217530709F09AC011963C9111972681321394C016963C91218132138FC06E7F623031F4F6018085807F8360808708
S2840097803FC0663009F083C0D70119969C911997809189149813D7CE6091BB12262F30E0C501062E01C0880F0A94EAF781951A969C911A97982B1A969C931A97F6018085807F836080871A96EC91EF3F99F540918B1450E070918914E70FCA01871B9109281739070CF4C9018E0F8093881490E0415051098417950741F4C6010E94C03C7C
S28400980060E0C6010E946F3E9ECE760F709389148091BA1280938D1470938814930102C0220F331F6A95E2F7B90160956E7F60938A1423C0E095E0938A1480E090E02E2F30E0782F8617C8F40196A901072E02C0559547950A94E2F740FFF3CFC501072E01C0880F0A94EAF780958E2380938A1480918914870F80938814E0919B14F091F5
S2840098809C14BF01808191810E94FB355CCE3CE6C30ED11C20CFD8015C968C915C978AAB5D968C918BABBE016E5C7F4F8BE30E940430ACCCC8010E947B34882361F080919D1490919E14892B09F4BDC0D8019B968C9182FFB8C0F80187A190A58536910518F083A583FFB1C0D80196963C90332031F0832D0E94EF42892B09F448C0F8016F
S28400990083A52689382F347082FF0AC0223031F48789908D883F9F4FD0F502C02130B9F18EEF820F823038F4D80191968C91815F8E3068F18CC021118AC0332309F487C0F80164A075A087D67C01009719F080E090E00CC0B0925406A09253060E94AE3176C0DC011B962C91213089F09701432DB3010E94FA3C0097A1F769C0813008F4C4
S28400998075C0823009F49AC0833009F48AC026EAE12CF12C612C712CB80184E295E02FAB0E9414312FA921111CC0E114F10431F4D0925406C09253060E94C631F30111830083C8010E947B34882319F0C3010E94C03CB301C801F7011995282F882309F49ACC40E050E0622FC8010E94753B93CC0091F6041091F704F8018281853C41F049
S284009A008DE694E490935406809353060E94C631D80113968D919C9114978D7F14969C938E931397892B09F062C080E00E94994080E196E09093F3048093F20460E0C8010E94933854C02AEAA3CF20EAA1CFD80156968C91813009F091CF80E00E942B353C013AEEE32E3BE3F32E0DC0C8010E947B34882371F083E00E942B353C0149E35A
S284009A80E42E4EE3F42E6114710409F469CC20E083CFF80183A582FF02C081E0EDCF80E0EBCFC80149960E94ABC10097F1F0DC018D919C91F801908F878B468AC8010E947B34882311F083E008C0D8019B968C9182FF02C081E001C080E00E942B353C012BEFE22E25E3F22ECECF29EA51CFE796E2E10C94D7F6AFE1B0E0E1E8FDE40C944E
S284009B00C8F6009749F485E495E490935406809353060E94AE3182C0FC012081233009F07DC0218132813A83298328E03396DE01139601900D922A95E1F7FC0123852B87248535853D872C8728E03E96DE011E9601900D922A95E1F7FC01218D2D8F238D2E8F0789108DF688F6E0FF1508F056C0F8018081982F9370933009F04FC0807E50
S284009B8009F04CC08181811149C0BE01615E7F4F84E190E00E941A34F801208126952695277030E08F8D90E028173907B9F58281982F9370933091F5982F907F79F58C708C3091F481E08B87F8E0FF1538F5F801838194819F878E876FEF0E94278A8823E9F0F80129E003C0F801329727E085819681998F888F878190859F8B8E8BF21A42
S284009C00FA8E020F111D1C8F0B8FE0910205F0910305309719F0CE01019619956F96E5E00C94E4F680E191E09093F3048093F2041092F7041092F6041092F5041092F40410920505109204050E94F6370C94E2A9CF93DF93EC0160E672E085E20E94833060E672E088E30E948330209749F480E694E490935406809353060E94AE3105C088
S284009C8089E18A83CE010E94BC35DF91CF910895009741F481E694E490935406809353060C94AE312AE8FC0122830C94BC35009741F482E694E490935406809353060C94AE3125ECFC0122830C94BC35CF933091DC138091DD139091DE1320E0231751F08396FC01B3974081442311F081E029C02F5FF4CFC0E08091D513C817E0F40E94B7
S284009D00FE2F9CE6C99F900111244091DA135091DB13FA01E20FF31F882341F0878180FF08C080858F70823021F0E0CF878180FDDDCFCF5FE0CF81E09091DF13911101C080E0CF9108951F93CF93DF93EB01853239F41881BBDF91E09827912398831FC08833E9F438814091D513E091DA13F091DB1380E0841771F0278120FF07C0908556
S284009D809F70923019F42A7F223031F08F5FE459FF4FF0CF80E001C081E0832B8883DF91CF911F910895FC01808184FD0C9469380895A2E0B0E0EFEDFEE40C94CBF6E091F404F091F5042F2F30E09E2F9F5F983008F090E0692F70E0A901092E02C0569547950A94E2F740FF26C09093F40481E090E0062E01C0880F0A94EAF78F2780934C
S284009E00F504660F771F6256744B42E050E0CE0101960E940BF989819A81892B41F480E094E490935406809353060E94C631E981FA81199504C0E913C9CFE093F4048091F504882361F02FB7F8948091F0049091F10480629093F1048093F0042FBF2296E2E00C94E7F680910613853091F028F4882349F0823069F004C0843141F0863101
S284009E8041F080E008958091FF128B3010F488E0089582E00895833014F083E01BC096E0980F923010F48BEF15C098E0980F923010F489EF0FC09AE0980F923010F487EF09C09EE0980F943010F484EF03C0823F0CF48FEE809304130895C5DF282F220F220F280F30E0A90160E8869F400D511D1124CA010895809106138530E9F028F4C2
S284009F00882349F0823079F004C0843189F0863189F080E008958091FF12882349F08B3058F489E108958091FF12811105C002C082E3089588E2089580E10895CF93DF93EC01D9DFE82F9E01A0ECB3E00E9496F69B01AC01AE2FB0E00E94ABF628EE33E040E050E00E9452F6CA01B901DF91CF910895CF93DF93B1DFEC01BDDF282F2C9F8F
S284009F80C0012D9F900D1124BC0180E090E028EE33E040E050E00E9452F62F5F2093FE12DF91CF910895CF93DF938BE08093FF1280E098EFAFEFB7E08093001390930113A0930213B093031364E073E183E090E00E941A34809104135EDF64E073E183E090E00E945234C1E0C09305131092061374DF909308138093071335DF94E0899F4A
S28400A000800D1124809309132EDF80930A1386E390E0A0E0B0E08093D3129093D412A093D512B093D6121092D7121092D812C093D9121092DB121092DA121092DC120E94FDF88093DD12EEEDF2E18FEF80838183828383838483858386838783CFEFDFEFD093E712C093E6120E94FDF88093E81285E08093E91284E08093EA1283E0809350
S28400A080EB128093EC12D093EE12C093ED1280E28093EF121092F0121092F112D093F312C093F2121092FC121092FD1262DFDF91CF910895A4E0B0E0E0E6F0E50C94CBF6DC014C9150E0CA01805491098434910508F0D7C087599D4DFC010C9490F611968C918093D81208C011968D919C9112979093DB128093DA1280E00DC111968C91E9
S28400A100853308F007C18093DC12F6CF11968C918093DD12F1CF11968C9111978093DE1212968C9112978093DF1213968C9113978093E01214968C9114978093E11215968C9115978093E21216968C9116978093E31217968C9117978093E41218968C918093E512C9CF11968D919C9112979093E7128093E612C0CF11968C918093E8123F
S28400A180BBCF11968C91863008F0C4C08093EA12B3CF11968C919091E912981708F4BAC08093EC12A9CF11968D919C9112979093EE128093ED12A0CF11968C918093F0129BCF11968D919C9112979093F3128093F21292CF11968D919C911297AFDE69837A838B839C83BE016F5F7F4F03C0BD016F5F7F4F82E090E071C011967C911197E9
S28400A20012966C91129713965C91139714964C91149715963C91159716962C91169717969C91179718968C917093F4126093F5125093F6124093F7123093F8122093F9129093FA128093FB1257CF11968C918093D71252CF11968C91883008F05BC08093EB124ACF11968C918093EF1245CF11968C918093E91240CF11968C918093FD1276
S28400A2803BCF4830510508F043C043555D4DFA010C9490F68BEF3FC011962C918091001390910113A0910213B0910313022E04C0B695A795979587950A94D2F780FF2AC02093FF1223C011968C9190E2980F903408F5E1DD64E073E183E090E00E9452340BCF11968C918430A8F48093051304CF11968C91853041F018F4833058F404C0C2
S28400A300843111F0863131F48093061332DEF4CE84EF01C088EE2496E2E00C94E7F6A4E0B0E0E5E9F1E50C94BDF66090EA126091E91270E0E091EC12F0E0262D30E0CB018E1B9F0B281739070CF4C901AA2797FDA095BA2F0097A105B10521F481E090E0A0E0B0E0712CC12CD12C76018C019D01015011092109310942E0442E512C872C40
S28400A380912CA12CB12C081519052A053B05B0F0AF01470D511D41505109520102C0AA0CBB1C4A95E2F74501AA2497FCA094BA2CC80CD91CEA1CFB1C7394E1CF262D30E040E050E0281B390B4A0B5B0B61507109A2E0B0E002C0AA0FBB1F6A95E2F711970E94B5F69B01AC012C0D3D1D4E1D5F1DA4E1B0E00E94ABF69B01AC0169833A8331
S28400A4004B835C836ADD29813A814B815C81280F391F411D511D29833A834B835C836BDDA82FB0E029813A814B815C810E94ABF628EE33E040E050E00E9452F6CA01B9012496E0E10C94D9F656DDE82F2091EF1230E0A0ECB3E00E9496F69B01AC01AE2FB0E00E94ABF628EE33E040E050E00E9452F6CA01B9010895A4E0B0E0E2E4F2E50A
S28400A4800C94C5F68C01FC01408150E0FA01E054F109E434F10508F0ADC0EB54FD4D0C9490F68091D812F801818380E0D0C08091DA129091DB12BEC08091DC12F4CF8091DD12F1CF7091DE126091DF125091E0124091E1123091E2122091E3129091E4128091E5125BC08091E6129091E712A2C08091E812D8CF8091EA12D5CF8091EC124D
S28400A500D2CF8091ED129091EE1294C08091F012CACF8091F2129091F3128CC0BE016F5F7F4F82E090E00E941A34C980DA80EB80FC80C114D104E104F10491F0DCDC282F30E0A0ECB3E00E9496F628EE33E040E050E00E9452F6C701B6010E9452F602C024EF31E0F801328321839FCFBC016F5F7F4F82E090E00E941A3497CF7091F4126B
S28400A5806091F5125091F6124091F7123091F8122091F9129091FA128091FB12F801718362835383448335832683978380877DCF8091D71278CF8091EB1275CF8091EF1272CFFC01118271CF8091D3129091D412A091D512B091D61226C08091E91263CF8091FD1260CF30DFF80161837283838394835BCF4830510548F5FA01E750FD4D76
S28400A6000C9490F68091FF124ECF809104134BCF8091051348CF8091001390910113A0910213B0910313F80181839283A383B4833CCF53DCF8019283818337CF14DCF4E08F9F800D11242FCF0EDC2DCF84EF2496E8E00C94E1F684EF92E1089548E050E0BC0184EF92E10E9414F921E0892B09F020E0822F0895CF92DF92EF92FF92CF93C4
S28400A6806B017C01F0DBC82F36DC2C2F30E0A82FB0E00E9496F69B01AC01C701B6010E9410F628EE33E040E050E00E9452F6CA01B901CF91FF90EF90DF90CF9008952FB7F89480916D0590916E05946090936E0580936D053FB7F8948091290581110FC04FB7F8948091F0049091F10481609093F1048093F0044FBF81E0809329053FBF52
S28400A7002FBF0895BC018BE295E00E94443180912A05811101C0D3CF0895FC011282F2CF21E0FC012283EECF22E0FC012283EACF23E0FC012283E6CF25E0FC0122831186108622E02783DECFA1E0B0E0EAEAF3E50C94CAF610922C0510922B055AD11FB7F894CE0101960E94F3D7811104C082E080932A0502C010922A0510926E051092C6
S28400A7806D051FBF2196E3E00C94E6F6A2E0B0E0ECECF3E50C94C9F61FB7F89410922905CE0102960E94F3D7882339F080912A058230C9F410922A0516C081E090E00A8002C0880F991F0A94E2F78095909520916D0530916E052823392330936E0520936D0580E001C081E01FBF8111BAC081E080932A058A818A3029F500912B051091F4
S28400A8002C0520916C0230916D0241E050E00115110539F4CE0101960E94F3D781114BC033C0CA01F801028002C0880F991F0A94E2F782239323892B09F065C0F80100811181E5CF90E08C30910520F7FC01EF5FFC4D0C9490F6B0D214C0B7D212C026D410C0C1D30EC05AD30CC00E9478D509C00E94FCD406C03DD104C00E9447D501C0E2
S28400A880A5D0811127C0C6CF2FB7F8948091290581110FC03FB7F8948091F0049091F10481609093F1048093F0043FBF81E0809329052FBF56C080913405811152C080912B0590912C05892B11F0F9DE4AC010922A0547C0813009F044C04FB7F89421E030E00A8002C0220F331F0A94E2F780916D0590916E05822B932B90936E058093CC
S28400A9006D054FBF2EC0B8018BE295E00E941431F801428150E04930510508F07BCFFA01E35FFC4DC8010C9490F693D393E002C03CD394E09A83A5CF87D295E0FBCF0E9464D596E0F7CF0E94D9D492E0F3CFB5D098E0F0CF0E9427D599E0ECCF06D09BE0E9CF2296E4E00C94E5F6CF93DF93EC0118868B819C819C01215031092F33310599
S28400A980C8F4805C9E4F9C838B838A81873031F0883081F4CE010E949FB203C0CE010E9485B2882339F0813061F4D0936C05C0936B0507C01886EE81FF81CE010896199580E080932D05DF91CF910895CF93DF93C0916B05D0916C058A81873031F0883041F4CE010E949FB207C0CE010E9485B203C081E0888702C0811106C0EE81FF81CD
S28400AA00CE010896199580E080932D05DF91CF910895AEE0B0E0EFE0F5E50C94C9F60E94B9B282E088871E861D861A86198681E08F83CE0101960E94E7B58B859C850E9400F973D00E948CD585D2ECD26AD30E9422D568D00E9461D58EE489838091EA128A83CE0101960E94ACB68FE489838091EC128A83CE0101960E94ACB689E58983D5
S28400AA808091EB128A83CE0101960E94ACB680E589830FEF1FEF1B830A83CE0101960E94ACB683E589831B830A83CE0101960E94ACB62E96E4E00C94E5F61F93CF93DF93EC010E94E7B5182F882339F0813051F4D0936C05C0936B0505C0EC85FD85CE010896199510932E05812FDF91CF911F9108951F93CF93DF93C0916B05D0916C05C6
S28400AB00CE010E94E7B5182F811105C0EC85FD85CE010896199510932E05812FDF91CF911F91089510922E050895A2E0B0E0EBE9F5E50C94CBF66AEB77E180E092E00E94F833BE016F5F7F4F80E091E00E941A3429813A818091BA179091BB179093BF178093BE179093C1178093C0179093C3178093C217280F391F3093C5172093C417D4
S28400AB801092BD171092BC1766EC77E183E292E00E94F833BE016F5F7F4F8EE291E00E941A3429813A818091C6179091C7179093CB178093CA179093CD178093CC179093CF178093CE17280F391F3093D1172093D0171092C9171092C8172296E2E00C94E7F69CE0899FF0011124E654F84E86819781019608959CE0899FF0011124E65433
S28400AC00F84E4FB7F894A681B7818C9190E001968A0F9B1F978386831C9226813781808591852817390751F484819581918780878081918195838483978386834FBF08959CE0899FF0011124E654F84EA681B78182819381A817B90721F081E09C91911101C080E0089581E0EBDF8823F9F080916D0590916E05816090936E0580936D05C8
S28400AC802FB7F8948091290581110FC03FB7F8948091F0049091F10481609093F1048093F0043FBF81E0809329052FBF80E0C8DF8823F9F080916D0590916E05826090936E0580936D052FB7F8948091290581110FC03FB7F8948091F0049091F10481609093F1048093F0043FBF81E0809329052FBF0895A6E3B0E0E0E8F6E50C94CAF66D
S28400AD00182F6FDFFC01208130E0DC01A20FB31F12968C912F5F3F4F2E0F3F1FD9016C91813220F4811103C081E001C080E26295669566956370689FB00111248FEF869FA001879F500D1124CA0160E670E00E942BF6D9016C93BF01CE0101960E94DBD5882319F18A81982F977029F4807619F48B818C70B1F020915E0230915F022E7FE3
S28400AD8030935F0220935E02CE010196A4D420915E0230915F02216030935F0220935E0204C08091FF12898FE6CF812F24DF80E0E696E3E00C94E6F681E042DF882311F081E098DF50DF80E0089580E039DF882311F080E08FDF47DF80E00895A9E0B0E0E4EFF6E50C94C8F68C018091310565E0813029F4C0D0F82E811121C01EC080E013
S28400AE00BAD0F82E81111BC0F8018381898388E03496DE01129601900D928A95E1F7CE0101960E94ACB6F82E80913105823039F480913005AFD065E09ED0109231058F2D2996E5E00C94E4F6A9E0B0E0EAE2F7E50C94C9F68C01DC0113968C91813530F48E3480F48823D1F09EEF09C08F36B1F028F4833599F08935D1F40CC090E1980FBB
S28400AE809330A8F4813F41F4F801948120912F05921339C091E00CC08935E1F39091D61790933005963119F492E09093310590E020913105211111C0911113C0898388E0F8013496DE01129601900D928A95E1F7CE0101960E94ACB602C0C8017FDF811108C0D8011C96ED91FC911D97199580E004C010936C0500936B05809332052996F7
S28400AF00E4E00C94E5F690932F059091D61790933005963109F0BECF91E0C7CFA1E0B0E0E4E9F7E50C94C9F600916B0510916C05C80154DF811108C0D8011C96ED91FC911D97898319958981809332052196E4E00C94E5F6109232051092310510922F050895882331F0813011F083E0089586E1089589E1089560939F14F3DF0C9449B7E7
S28400AF80882331F0813011F088E0089586E1089589E108958850823130F4E82FF0E0EA50FD4F8081089588E008951F93CF93DF93EC011091D6178B81E3DF181729F064E08B81D9DF811105C0EC81FD81199580E004C0D0936C05C0936B0580933305DF91CF911F910895A1E0B0E0E9EFF7E50C94C9F600916B0510916C0564E0D8011396D0
S28400B0008C91B9DF811108C0D8011496ED91FC911597898319958981809333052196E4E00C94E5F6109233050895CF93DF93EC0163E080E0A0DF811109C082E080933405CE0103960E941DD70E94A7B7DF91CF910895CF93DF93EC0189AD83DF8093D417D0936C05C0936B058091EB128093A0140E94FDF89093A2148093A1148091D617B6
S28400B080893151F482E080933405CE0103960E941DD70E94A7B705C081E080933405CE01C4DF80933505DF91CF910895A2E0B0E0ECE5F8E50C94C9F600916B0510916C0580913405813021F4C801AFDF811123C00E9450B20E9427B21A8219820E94DBB5D801DC968C93DC97DA96ED91FC91DB97C801CC9619958091EB1290E02091A014E6
S28400B100821B91099A838983BE016F5F7F4F8DE30E94043080E0809335052296E4E00C94E5F6109235051092340508958091A01481508093A0140E94DCE063E080E01BDF81110CC080916B0590916C0522E02093340503960E941DD70C94A7B781E0809335058093340580916D0590916E05886090936E0580936D0508952FB7F8948091B9
S28400B180F0049091F10484609093F1048093F0042FBF0895BC0183E597E10E9444318091421781110CC02FB7F8948091F0049091F10484609093F1048093F0042FBF0895CF93DF93DC0112964C9150E0FA013197E031F10508F053C0EA5EFC4D0C9490F6DC011C96ED91FC911D970E963DC0DC011B96ED91FC911C970D9636C0DC011796CB
S28400B200ED91FC91189709962FC0DC015196ED91FC915297439628C0DC015396ED91FC9154974596199543C0DC011996ED91FC911A970B9619C0DC011E96ED91FC911F97409612C0FC01C08DC470D0E0018CF28DE02D4B961995CD2B51F511C0DC011496ED91FC9115970696199509C08091B3178E7F03C08091B3178D7F8093B3171092BD
S28400B28042172091B3178091531790915417892B11F4222361F02FB7F8948091F0049091F10484609093F1048093F0042FBFDF91CF910895CF93DF9380914217882319F0833009F06AC08091B317882389F080FF09C08FE0809342170E94E16761EF0E9439665BC080E1809342170E9499DB55C080916E02882309F450C0C0915317D09167
S28400B3005417209709F449C083E597E10E9408318A8180934217D0934517C09344178A8190E0FC013197EE30F10518F5EA5DFC4D0C9490F60E942A641AC00E94046417C05CD415C0C7D713C0AAD411C00E94F9D90EC00E9440DA0BC00E94F76508C0EED006C052D304C00E94A5DC01C01ED4811114C0109242178091531790915417892B4C
S28400B38061F02FB7F8948091F0049091F10484609093F1048093F0042FBFDF91CF91089527E0FC012283F6CE28E0FC012283F2CE2BE0FC012283EECE22E0FC012283EACECF93DF93EC018B81882331F183E08A838093421710925417109253171092B3176FE672E085E20E948330BE0183E597E10E944431A9D986E497E10E94F2E22FB79C
S28400B400F8948091F0049091F10484609093F1048093F0042FBF04C084E08A83CE01BADEDF91CF9108952AE0FC012283B3CE25E0FC012283AFCE21E0FC012283ABCE26E0FC012283A7CE2CE0FC012283A3CE2DE0FC0122839FCE20914217233011F00C94A2A5089520914217233011F00C942CAE089520914217233011F00C94C4A108950A
S28400B48020914217233011F00C947AB1089520914217233011F00C9471A9089520914217233011F00C9452B108958091B31781608093B31780914217811101C05ECE08958091B31782608093B31780914217811101C053CE089520914217211104C021E1209342171DC308958091B317811105C00E944C6991E0982701C091E0892F08952F
S28400B5001F93CF93DF93EB011881EEDF91E0982791239883DF91CF911F910895CF93DF93C0914417D0914517FC0180810E9408DC8CA3CE0145DEDF91CF9108951F93CF93DF93C0914417D09145178091ED129091EE12998B888B13E01A8B7DD8DE01539628E0FC0101900D922A95E1F71B8F8B818C8F8C818D8F8D818E8F8E818F8F8F8149
S28400B58088A3888589A389858AA38A858BA38D85811105C01CA2CE0113DE80E077C08BE0809362178091E81291E0980F9093E81280936517809163178078209164172C6083628F77809363172C7C209364178FEF9FEF9093671780936617EB817C816D815E814F81388599858A85E09368177093691760936A1750936B1740936C17309309
S28400B6006D1790936E1780936F17206C209364178091ED129091EE1290937117809370171AD828E0FC01A2E7B7E101900D922A95E1F78091ED129091EE1290937B1780937A178091F2129091F31290937D1780937C178B859C859093801780937F178091FF1280937E178EE89AE590939A17809399178091F012882311F081E001C082E0A2
S28400B680809398178FE597E148D881E0DF91CF911F910895A8E0B0E0E0E5FBE50C94CBF6FC018281807C81F08089898381898A8382898B8383898C8384898D8385898E8386898F8387898887CE010196E0DE2896E2E00C94E7F6EF92FF920F931F93CF93DF93EC018A81807C8038C1F4AE014C5C5F4FBE016D5C7F4F888999890E94D6DAF6
