S02B0000456E644465766963655F5374646C696E6B5365635F4D65676152665F41746D656761323536726672F4
S2840000000C94BB260C943FEF0C946BEF0C9497EF0C94C3EF0C94EFEF0C941BF00C9447F00C9473F00C94F8260C94F8260C94F8260C94F8260C941AEC0C94F8260C9470EC0C94F8260C94F8260C94F8260C94F8260C94F8260C94F8260C94F8260C94F8260C94A5F10C9409EE0C94ACED0C94DBED0C94F8260C9436F10C940DF10C94F82620
S2840000800C94F8260C94F8260C94F8260C94F8260C94A3EE0C9446EE0C9475EE0C94A6F00C94F8260C94F8260C9490DD0C94F3DF0C94F8260C94F8260C94F8260C94F8260C94F8260C94F8260C94F8260C94F8260C94F8260C94F8260C94F8260C94F8260C94F8260C94F8260C94F8260C94F8260C944FE00C94F8260C94F8260C9477E0A8
S2840001000C94F8260C94F8260C94F8260C94F8260C94F8260C94F8260C94F8260C949FE00C94F8260C94F8260C94F8260C94F8260C94F8260000000000000000000000000000000000000000000000000000000000000000000000000000000000000000000000000000000000000000000000000000000000000000000000000000000073
S2840001800000000000000000000000000000000000000000000000000000000000000000000000000000000000000000000000000000000000000000000000000000000000000000000000000000000000000000000000000000000000000000000000000000000000000000000000000000000000000000000000000000000000000000FA
S284000200000000000000000000000000000000000000000000000000000000000000000000000000000000000000000000000000000000000000000000000000000000000000000000000000000000000000000000000000000000000000000000000000000000000000000000000000000000000000000000000000000000000000000079
S2840002800000000000000000000000000000000000000000000000000000000000000000000000000000000000000000000000000000000000000000000000000000000000000000000000000000000000000000000000000000000000000000000000000000000000000000000000000000000000000000000000000000000000000000F9
S284000300000000000000000000000000000000000000000000000000000000000000000000000000000000000000000000000000000000000000000000000000000000000000000000000000000000000000000000000000000000000000000000000000000000000000000000000000000000000000000000000000000000000000000078
S284004400AC0FAC001C004B16020027007A0C16001B00461603001A00260F16001900770C030018005107BD0017008615010016003C1608001500C91501001400C01502001300BF15010012001E15020011001615080010002C1601002600CF1501001E00BD1501000F004D1601000E00301601000D00381602000C00871501000B008115B0
S28400448002000A00A415110009009A15010008009915010007009815010006002D1601000500361601000400331504000300B51508000200801501000100661508000000604718002E00904718002D00C04720002C00004803002B00064804002A000E4814002900B667AD67F467F467F467AD67AD67F467F467AD670E6736674067F467B6
S28400450045674D675767F46760676567F467AD679667A867F4679B67A367B667B667B667AD67AD67AD67AD67AD67AD67AD67AD67AD67AD67AD67AD67AD67AD67AD67AD67AD676E67AD67F467F467F467F467F467F467F467F467F467F467F467F467F467F467AD67AD67B667B867B667CF67DD67E467B667B667B6670669186943694369D5
S284004580436918691869186943691869B568CF68D4684369D768DA68DD684369E268E56818691869FB680F694369FE680169CD680469046918691869186918691869186918691869186918691869186918691869186918691869EA6818694369436943694369436943694369436943694369436943694369436918691869126920692A6948
S28400460023692769436937693B694169486A536A4A6A4C6A4E6A506A266A566A586A266A5B6AB06AB36AB76ABA6ABE6AC26AC56AC96AC96AA16EA86EA86EA86EAF6EBD6ED26EB66EC46ECB6E126F156F186F186F1A6F1E6F276F1C6F216F236F9572427351735072987398734D735173567384736D73987398738473837286732F8FB68F1A
S284004680B68F168F238FB68FB68FB68F4F8F5E8F7B8F878FB68F148F238F908EF898F8988998919891989198919891989598959817A717A712A71AA71EA723A728A7BBA8C2A85EA9D2A8C4A823A95AA93DA945A94DA94DA9E4B3E7B388B488B4ECB388B4F6B3DFB4DFB4DFB4DFB4DFB4DFB4DFB4DFB4DFB488B488B4DFB4DFB3F1B388B4CD
S28400470077C250C329C454C493C4BFC508C6ACCAACCAACCAACCAACCAACCAACCAACCAACCA3FC54DC5ACCAACCA74C50BC40BCB5ACB5ACB5ACB5ACB5ACB49CB33CB51CB5ACB43CB5ACB4DCB55CB22D686D648D676D60AD786D6DDD612D796D6DDD60ED725D700000100020003000400050006000700080009000A000B000C000D000E000F00AE
S2840047801E0010001100120018001A001B00270000000100020003000400050006000700080009000A000B000C000D000E000F001E00100011001200130014001500160000000100020003000400050006000700080009000A000B000C000D000E000F001E0010001100120013001400150016001700180019001A001B0027001C002600D3
S2840048001A001B002700130014001500160000000100020003000400050006000700080009000A000B000C000D000E000F001E001000110012002606000051070000AB0600000E08000045070000000000003808000000000000FE0E000000000000000C000000000000370C0000E40C0000700E00000000000000000000770C0000260F64
S2840048800000000000000000000000000000000000000000000000000000461600007A0C0000900C00003C0F000000000000AC0F00005810000070100000D8100000001100007E4A0200804A0100834A0100814A0200864A0100874A0100884A0100894A01008A4A01008B4A01008C4A0200844A02008E4A01008F4A0100A84A0200994AF7
S28400490001009A4A01009B4A0100A44A0400904A0100914A0400954A0100964A0100A04A0100A14A0100A24A0200000000000000000000000000000000000000000000000000AA4A0100AB4A0400AF4A010000000000B04A0200B24A0100974A0100984A0100B34A0100B44A0100B54A0100B64A0100000000009C4A0400661508006F159F
S28400498001007C1504008015010034160100351601003C16080038160200C0150200C9150100301601004D160100361601008315010084150100851501008615010081150200871501008815010032160100311601004615010047150100B5150800331504009B150400901504009415040098150100991501009A150100A41511002D16CE
S284004A0001009F150100A01504001515010048150200BD15010000000000000000000000000032150100000000000000000000000000000000002E021000BE1501004716010048160100BF150100161508001E150200891505008E1501008F1501000000000000000000000000000000000000000000000000000000000070150100850018
S284004A8001000007050007040205040000000008FF140000000108030303020A901A0000010000000000020314100110270000010400014F500003001E0000033412000303000002000000000003031027000010270000010001E803000004E80300001041746D656C202020202020202020202000000000000000000001010203AAAAAA7A
S284004B00AAAAAAAAAAFFFF00070707077F7A785A5F0707070707787F1F010080000000000000000000000000000000000005FF000000000000000000000000000000000000000000000000000000000000000000000000000000000000000000000000000000000000000000000000000000000000000000000000000000000000000000DC
S284004B800000000000000000000000000000000000000000000000000000000000000102010002020508080000FFFF3412000000000000000002020005010000000001FF4BB5536561DE46CB4300000000103C000000000000000000007558C33E5D3EEF3DA93D0000000000000000C46502000000000107000000000101000000000101FC
S284004C00817DB18C0101000000000101000000000107A487CA7F010100000000010100000000010700000000010100000000010300000000010400000000010500000000010600000000010D00000000010100000000000100000000010E00000000010700000000010A000000000100000000000101000000000101000000000000000018
S284004C80F58000090000F580000C0000F58000000000F58000DC83DA85B38D0598000000000000000038840000AA880000118863837A7F657E000000002F7EAA820000FF7D2E78657900000000000000003578000092783C7800000E7834790000000000009D780000A979020102030302020101010101010101010202010101020102020E
S284004D000202020201020202020202010303020203000000000000139D00000000968B000000000000BDD41ED593AC61D719AA9BAA0AAB0004081099DBDDAD4CAEB5BD7CB31ABF3DBBA4CCE0B805E205E205E205E277E33BE129F2ECEBA4DEE2DD87EA19DC2BEAB9E834E706E258E384E497E256E382E495E20011248091751C823159F08B
S284004D8084B780FD04C08F718093751C07C081E08093751C03C081E18093751C14BE809160008861809360001092600011241FBECFEFD1E8DEBFCDBF00E00CBF13E0A0E0B2E0EAEDF8EE01E00BBF02C007900D92A234B107D9F72CE1A2E4B3E001C01D92A537B207E1F70E945D310E947331FDCF0C9400007F937FB7F8949D9AA5988AEF92
S284004E004DD08AEF4BD09D9886E448D081E0959980E08F9380EF42D08F917FBF7F9108957F937FB7F8949D9AA59886E037D09D988AE034D0889495990894881F8F9384E62DD08F917FBF7F9108959F937F9398E0E7DF879577959A959923D1F7872F7F919F9108957F937FB7F894A5989D9A8F9386E014D08F91879508F49D988F9384E612
S284004E800DD08F919D987FBF7F9108959F9398E0E9DF9A959923E1F79F91089500000000000000008A958823C9F708955F937F937FB7F894CF93DF93C0E0D0E07F935091B2007091B2007517E1F3739521965091B2005717D9F77F91CE01DF91CF917FBF7F915F9108952FB7F8948091A1049091A20490619093A2048093A1042FBF0895BF
S284004F00A0E0B0E080934C0390934D03A0934E03B0934F0381E08093500383E797E2909352038093510386E493E00C948AE10895EF920F93CF93DF93CDB7DEB760970FB6F894DEBF0FBECDBF2091420330E0322F222780914303282B80E1EBEBF2E0DE01119601900D928A95E1F7220F232F221F330B319540E050E063E0E62E0AE060E128
S284004F80CE0101967FD160E1CE01019647D180E092E00E94BAE52FB7F8948091A1049091A20490619093A2048093A1042FBF60960FB6F894DEBF0FBECDBFDF91CF910F91EF90089588E893E19BDF80E092E00C94BAE5089588E893E1A0E0B0E080934C0390934D03A0934E03B0934F0381E08093500388E997E2909352038093510386E424
S28400500093E00C948AE1089580914503813069F018F0833009F10895D2D00E945A3281E08093450388EE93E02EC060E18BEC92E0F5D085EF8093420382EE97E29093100280930F0280E092E00E949CE580E092E00E94D2E583E013C060E18CED92E0DED08AEE97E29093100280930F0280E092E00E949CE580E092E00E94FAE581E08093C5
S284005080450388E893E13CCF08950895089508950895CF92DF92FF920F931F93CF93DF93E42FF0E0F0904F042AEF30E02F1931092E173F0734F150914E0420E030E0EC01C60FD11D0AEF10E02E173F07ACF4852F90E0BC016D5A7C4F6B01BE01620F731FDB015C91D6015C932F5F3F4F0196B8010E94ECF2582FE8CF50934E04F40EF092AD
S2840051004F04DF91CF911F910F91FF90DF90CF9008951F93CF93DF93109282041092830410914F04112309F446C080914D04E0E5F4E01333E0F4212F30E0CAEFD0E0AF0140555440421753075CF490E0DC01AD5ABC4F4C9141930196BE010E94ECF2EFCF80934D041093820410924F0418C02AEF30E090E0DC01AD5ABC4F4C914193019633
S284005180B9010E94ECF294E0E238F90791F780934D0482E380938204125310934F0481E0809383044091820450E060E574E08CEC95E00E94EDE4DF91CF911F91089588EC8093D7051092D80589E190E09093DA058093D90586E08093DB051092DC051092DD051092EC051092E1051092E0051092E3051092E2051092E5051092E405109288
S284005200E7051092E60589E898E29093EB058093EA058CEC95E00C948EE40895462F20918304222319F060E034CF0895FC01A0E5B4E0633370F4862F90E09D0120553440281739071CF421912D93F7CF409382040CC021912D9324E0A238B207D1F722E320938204425362E314DF81E0809383044091820450E060E574E08CEC95E00C940D
S284005280EDE40895A0E0B0E0E8E4F9E20C946EF3F12CF701E00FF11DC62FD0E0CE17DF07ECF0C0E0D0E08C010E0F1F1F6AE0862E912CA12CB12C2197F701EC0FFD1F319669F06801CC0EDD1EB901CA01A50194010E94FFF2605DF6016083EDCFCDB7DEB7ECE00C948AF3A2E0B0E0E9E7F9E20C9470F36C010091ED051091EE05E12CF12C4D
S2840053008091F1059091F205E816F906A8F45801B8016C5F7F4F42E050E0CE0101960E9436F40A5F1F4F29813A812C153D0539F08FEFE81AF80AE4CF80E090E001C0C5012296EAE00C948CF3ADE0B0E0EAEAF9E20C9472F37C016B0123E0969587952A95E1F7FC01E351FA4F228D30E0B70167707727062E02C0369527950A94E2F78E01A8
S2840053800F5F1F4F20FF42C027E0E7E0F6E0D80101900D922A95E1F7A0E020E030E04A2F50E048175907D8F4F801E40FF51F4081542F569555754575540F452F4695469543735373450F4083E42FEF7042954F7050E04E0F511D240F351FAF5FE0CFE0E0D801A80FB91F4E2F50E04617570780F44C9150E00E2E02C0569547950A94E2F73C
S28400540041705527240F351FEF5FEDCF2FEF3FEF1B870A8746E0429FC001439F900D112404969987888786E090E09D878C8766E57BE2CE01089672D18D819E81E816F90639F084E090EA90932106809320061CD689819A81F601918380832D96E8E00C948EF3A6E0B0E0E7E3FAE20C9474F37C018B0180E090E0FC0133E0F695E7953A9539
S284005480E1F7EE0DFF1D6081AC0147705527262F30E0042E02C0369527950A94E2F720FF0DC021E030E001C0220F4A95EAF720952623208318DF009731F431C0019683339105C9F62CC046E050E0BC01CE0101960E9436F489819A81F80193838283B8018D819E8131DFF801808191810596918380838B819C819583848382819381892BD9
S28400550039F480E090EA9093210680932006BCD58D819E81F7019087878381E006C08FEF9FEFF7019087878380E02696E6E00C9490F3A8E0B0E0EFE9FAE20C946EF37C01A090EF05B090F005FC01868182FD09C000E010E0812C76E0972ECC24C394D12C0CC047E050E06FEF70E0C7010E9466F46DC0882483940F5F1F4F8091F30590911E
S284005580F4050817190708F05BC0909EB001919E700D11246A0D7B1D46E050E0CE0101960E9436F42D813E81F90163E0F695E7956A95E1F7EE0DFF1D408127703327842F90E0022E02C0969587950A94E2F780FFD2CFC60102C0880F991F2A95E2F79C01209524232083812C882D90E02B813C818217930708F0BDCF880F991F69817A81EE
S284005600680F791F42E050E0CE0107960E9436F48F819885FC0153E0F695E7955A95E1F7EE0DFF1D87709927960102C0220F331F8A95E2F7C9019081982B90838394D4CF882021F000E010E0812C97CF2896ECE00C948AF3CF93DF93EC018FEF9FEF98878F8387E0FB01DE0101900D928A95E1F7CE015FDFE7E0F6E091918881892389930D
S28400568086E0EE30F807C1F7DF91CF91089580911B0690911C06A7C208951092180687E49BE290931A068093190608950895E0E0F6E0DC013D91CD012081232B2193B6E0E730FB07B1F780911D06846080931D0608950E94B2E8882311F01AD6FACF0895A2E0B0E0E6E7FBE20C9476F38B0189839A83EFDFB80189819A810E94D5E70196DE
S28400570031F08BE20635180721F4E3DF02C081E001C080E02296E4E00C9492F3A2E0B0E0E4E9FBE20C9476F38B0189839A83D1DFB80189819A810E9462E7019631F08BE20635180721F4C5DF02C081E001C080E02296E4E00C9492F3A2E1B0E0E2EBFBE20C946BF380911D06982F926090931D0682FF0AC060E076E084E894E06BDF809166
S2840057801D068B7F80931D06CC24C394D12C7E013DE0E30EF11C55E0A52EB12C4E0182E1880E911CBE01695F7F4F84E894E059DE882309F462C060908B0470908C04F30163E0F695E7956A95E1F7E351FA4FC30187709927960102C0220F331F8A95E2F7C901809593898923838BFC82EB82BE82AD828F81988505979A83898366E57BE2BA
S284005800CE0101968BDF4B855C8569857A8580E05ED0582E8D8558123AC08889998968167906A9F52B853C858E859F852817390771F59C828B82DE82CD8200E010E02B853C850217130708F0ADCF2F813885200F311F3A83298366E57BE2CE0101965EDFAB81BC81E985FA85E00FF11F9C91808198130DC00F5F1F4FE2CF80911D068D7FA6
S28400588080931D0660E070E08FE001D21CC05D86798A688A8B859C859F878E87FC82EB8285E090E09E838D838F81988505979A8389836CEA7BE2CE01079612DF66E57BE2CE0101960DDF6296EFE00C9487F3FB01460F571FE417F50719F09191890FFACF08954F925F927F928F929F92AF92BF92CF92DF92EF92FF920F931F93CF93DF93F3
S284005900CDB7DEB762970FB6F894DEBF0FBECDBF80E094E49093EE058093ED0580EC94E49093F0058093EF0500EC14E400501444C80166E070E00E94D8F2892B39F080E290EA90932106809320069ED326E030E0C801B9010E94D8F24091F1055091F205642B752B7093F2056093F10504EE14E4005C1444C801B9010E94D8F2892B39F0AF
S28400598081E290EA90932106809320067DD3C80166E070E00E94D8F28091F3059091F405682B792B7093F4056093F3050091ED051091EE051092F5051092F6051092F7051092F80587E0E7E0F6E0DF011D928A95E9F7D12CEE24E394F12C8091F1059091F2052D2D30E028173907C8F546E050E0B801CE0101960E9436F42B813C812B5F2B
S284005A003F4F8091F5059091F605A091F705B091F805820F931FA11DB11D8093F5059093F605A093F705B093F8058D819E81FC0133E0F695E7953A95E1F7E351FA4F87709927970102C0220F331F8A95E2F7C901928D982B928F0A5F1F4FD394BECF26E0289F6001299FD00C112434E0C30ED11CE12CF12CCE010796988B8F8786E090E08E
S284005A809A8B898BA12CB12C00E010E096E0792E22E2822E20EA922EF80183E0F695E7958A95E1F7E351FA4F828D90E098012770332702C0969587952A95E2F780FF41C07A9CC0017B9C900D112404969E878D8766E57BE2CE010D9621DE8B859C858017910749F48F819885A985BA858C159D05AE05BF0559F01C870B87CF82D886E98619
S284005B00FA8666E57BE2CE010D96EADDC801EBDB2C01009729F49092210680922006B4D246E050E0B201CE0101960E9436F48B819C810596C80ED91EE11CF11C8FEFA81AB80A0F5F1F4F0333110509F0A5CFA5DD62960FB6F894DEBF0FBECDBFDF91CF911F910F91FF90EF90DF90CF90BF90AF909F908F907F905F904F90089520E0FC01CB
S284005B803191CF01311105C02F5F2730C1F780E0089581E0089527E0FB0111922A95E9F7FC0123E0F695E7952A95E1F7E60FF71F8770992721E030E001C0220F8A95EAF78081822B8083CB01B4CC0895A7E0B6E0FC013D9120812323219326E0AE30B207C1F7CCCF0895A7E0B0E0E9EFFDE20C9477F3BE016F5F7F4FCEDFCE010196E6DF12
S284005C00CE010196BBDF182F882339F0CE0101964EDD80911D0681FF9FDD812F2796E3E00C9493F308950895A2E0B0E0EAE1FEE20C9478F380918D048823E9F0BE016F5F7F4F81E290E0DCD4BE016E5F7F4F8DE190E0D6D48981823071F48A8181110BC083E19EE290939604809395048EE894E00E94B6B702C00E94F7DE2296E2E00C94E3
S284005C8094F380918D0408950C94B0EA0895A0E0B0E0EDE4FEE20C9470F3B82E7B01082F10E093E0169507959A95E1F78770C1E0D0E001C0CC0F8A95EAF7AC2E8FE38B1538F484E090E89093210680932006DCD1F801E956FB4F80818C2311F1C0919F04D091A00485E0C82E80E8D82E2097C1F0FE01E00FF11F82818A2171F02A853B8512
S284005D00232B29F4D0922106C0922006BDD1EA85FB85B7018B2D19950990D881C02DE6CFCDB7DEB7EAE00C948CF3E82FF0E023E0F695E7952A95E1F7E956FB4F208130E0877041E050E002C0440F551F8A95E2F72423352381E0232B09F480E00895282F30E043E0369527954A95E1F7620F731F877021E030E001C0220F8A95EAF7FB01ED
S284005D809281922381E009F480E008951F93CF93DF93182FEB01803438F023E030E8309321062093200670D1BE01812FD8DF81112AC0BE018FE994E09AD081110BC088E0FE013296DF011D928A95E9F7BE018FE994E09DD0412F50E063E0569547956A95E1F7177021E030E001C0220F1A95EAF7C40FD51F8A81822B8A83FA01E956FB4F33
S284005E008081822B8083DF91CF911F9108951F93CF93DF93182FEB01803438F023E030E830932106209320062FD1BE01812F97DF882369F1212F30E073E0369527957A95E1F7177041E050E0012E01C0440F0A94EAF7942F9095C20FD31F8A8189238A83E0919F04F091A004309759F0DF01A20FB31F12968C91842351F40190F081E02D5C
S284005E80F3CFF901E956FB4F808189238083DF91CF911F910895DC01ED91FC911197309721F0208131812D933C93CF01089561157105A1F0DC01ED91FC911197E617F70759F4208131812D933C930FC0808191818617970729F0FC013097C1F780E00895DB018D919C919183808381E00895DC01ED91FC91309739F0E617F70731F001902D
S284005F00F081E02DF7CF80E0089581E008950F931F93CF93DF938C01EB01E9DF882349F080E090E8909321068093200695D080E014C019821882D801ED91FC911197309719F4CD93DC9308C080819181009711F0FC01FACFD183C08381E0DF91CF911F910F910895CF93DF93FC0182819381009781F40E94DEE1C22FD32F0E94476944E08C
S284005F80FC0121913191CF01C227D3274150C1F7CE010E942BF481E0809317028FE192E00E948AE1DF91CF91089581E192E00C94B869089580911702882369F08FE192E00E94BAE182EB9FE290931E0280931D0210921702EACF0895A4E0B0E0E2EFFFE20C946EF34C016A017B01F694E794D794C7948401A12CB12CC501A0E0B0E08C1557
S2840060009D05AE05BF0590F449835A836B837C830E9428F4F801819391938F01FFEFAF1ABF0A7C816B815A814981E6CF40FF09C08A0101501109080D191D0E9428F4F801808380E090E02496ECE00C948AF38FE192E00C94BAE1089582E090E0909323068093220680912006909121069093250680932406E0911E06F0911F06309719F008
S28400608082E296E01995089583E090E0909323068093220680912006909121069093250680932406E0911E06F0911F06309719F082E296E019950895EF920F93FC01618372834F3740F081E090E89093210680932006C2DF20C0403808F04FE7440F808181700187842BE0FA80F9808334832383CB01AC016081669504962181328174E0E9
S284006100679F200D311D11244217530720F4DC0111971C92EECF0F91EF900895A0E0B0E0E4E9F0E30C9471F3EC018B01B42E0E94DEE169017A018D819E81AF81B885A7019601281B390B4A0B5B0BCA01B9012B813C8140E050E00E94FFF22F3F31054105510518F42223F9F001C02FEF89819A81BC0138813695049649815A81E4E03E9F11
S284006180400D511D11246417750748F4FC013291432F231708F4422F341B3083E9CFCD82DE82EF82F886A981BA814881842F86959D0154E0859F200D311D1124C901E0E0F0E0A817B907C0F413965C911397552359F02D913C9111972017310729F412962C9112972B15C1F0309719F02381521708F4FD011496E5CF40FD06C0309771F0F8
S284006200838181110BC002C0309751F011830083B2828985838304C080E003C082E001C081E0CDB7DEB7E9E00C948DF3C3CE08950895CF93DF9360912C0270912D0280E090E0E1E0F0E09F01082E02C0220F331F0A94E2F74091A1045091A2044623572342235323452B11F16FB7F8944091A1045091A20420953095242335233093A204E3
S2840062802093A1046FBFFC01EE0FFF1FE351FD4FC081D181209739F486E090E89093210680932006F1DEFE01199504C001968E30910549F6DF91CF9108950E9482DF0E9401A2882371F02FB7F8948091A1049091A20480619093A2048093A1042FBF81E0089582E00895A5DF60E070E08BE2CFDC8091A1049091A204892B09F495DC2091C0
S284006300A1043091A20481E0232B09F480E0089590CF0895A4E0B0E0E0E9F1E30C9477F311E0FC0120813181232B09F010E0009719F06115710579F427E030E830932106209320066B837C8389839A839DDE6B817C8189819A81DBDD812F2496E3E00C9493F30F931F93CF93DF93EC018B010097A9F16115710591F188819981009719F4A8
S28400638089E090E805C00817190749F08AE090E8909321068093200677DE80E027C0CE017ADD0881198101151105B1F0D80114968D919C911597892B39F48BE090E8909321068093200660DEF801628173810480F581E02DCE01199581E008C088E090E890932106809320064FDEC6CFDF91CF911F910F910895A4E0B0E0E1E0F2E30C94BB
S28400640078F3009741F06115710529F070DD2496E2E00C9494F32CE030E830932106209320066B837C8389839A832EDE6B817C8189819A81EBCFFC012081211105C021E02193CF010C948AE10895FC012081213021F41192CF010C94BAE10895A5E0B0E0E4E3F2E30C9474F37C012A833B834C835D836983EADFF7011082698163872A8100
S2840064803B814C815D812783308741875287158704872596E6E00C9490F30895813031F018F0823029F008952F9808952E9808952C980895279A269A249A2F9881E0EEDF82E0ECDF80E0089582E3EAE4F5E1DF011D928A95E9F785E080936F154EE850E061E37BE480EC95E10E9436F447E150E06AE17BE483E395E10E9436F44FE150E0AA
S2840065006BEF7AE484E195E10E9436F444E450E067EB7AE48CE795E10E9436F48EEE9EE0E6E2F6E0DF019C011D9221503040E1F70895A4E0B0E0EFE9F2E30C9478F3BC011A8219821C821B828827811521E0920769F0811522E09207B9F0892BE9F4660F771F660F771F6658764B07C07727660F771F660F771F6E53774B44E050E0CE018C
S28400658001960E9436F40FC07727660F771F660F771F6A5C774BF1CF8AE090E6909321068093200671DD69817A818B819C812496E2E00C9494F388DF94C90895A4E0B0E0E4EEF2E30C9474F37C018B01B2DFEE24E11422E0F20669F026E030E6309321062093200669837A838B839C834DDD7A816981F801718360832496E6E00C9490F378
S284006600A4E0B0E0E6E0F3E30C9474F38C017B0190DFE114F10479F420E030E6309321062093200669837A838B839C832DDD9C818B817A81698100270115110549F0011521E0120751F4AC01C7010E9436F40CC0AC01C7010E944CF407C081E090E6909321068093200610DD2496E6E00C9490F3A0E0B0E0EEE3F3E30C9472F38C01EB013D
S28400668058DF6B017C01209739F484E090E69093210680932006F8DC00270115110539F085E090E69093210680932006EDDCA701BE01C6010E944CF4CDB7DEB7E8E00C948EF3FC0193A5892F887090FF09C0882379F081E027A130A52E33310550F408C0882331F081E027A130A52235310508F480E08170089521E030E001C0220F8A9556
S284006700EAF78091A804822B8093A8042FB7F8948091A1049091A20480629093A2048093A1042FBF0895CF93DF93E0915316F09154168E179F0718F482E894E446C08E1B9F0B64E870E00E94D8F280914E16681718F083E894E439C084E8689FE00DF11D11248685869590E08230910559F014F00397D1F5809152168823B1F1815080934A
S284006780521632C080915116882319F0815080935116DF01A459BF4FCD91DC912091561630915716CE01821B930B67E470E00E94D8F2C217D30718F484E894E406C080914F16681740F085E894E4909321068093200642DC0CC0D90187E4689FA00DB11D11248C9181111C9286858E7F8687DF91CF910895FC018FE3DF011D928A95E9F7E9
S28400680081E084AB15AA16AA089520910105215020930105BC018BE195E079DB81E06BCFFC016783BC01685F7F4F8CED94E06FDB82E061CFBC016153710981E295E067DB83E059CFBC016F5071098DE195E05FDB81E051CFBC01635171098FE195E057DB81E049CFA1E0B0E0E8E3F4E30C9476F38C01BE016F5F7F4F80E390E0C1DE898138
S284006880882321F0F80183A5817001C080E02196E4E00C9492F3A4E0B0E0E1E5F4E30C9476F3182FBE016F5F7F4F8AE190E0A8DE20910605309107054091080550910905A12FB0E00E9458F309811A812B813C81600F711F821F931F2496E4E00C9492F3A1E0B0E0E6E7F4E30C946CF36C013B01842EA090FB04B090FC04E090F904F090B6
S284006900FA043BE2369FC001379F900D1124E80EF91E00E010E06A147B04F0F4C701800F911FFC019284392D382132130FC0C114D10419F4B301892D12C048E050E0B60129830E943FF42981892BA1F3FFEF6F1A7F0A055D1F4FDFCF6CEF7FEF80E02196EEE00C9488F3A1E0B0E0E9EBF4E30C9478F377FD0EC04091FB045091FC0464171D
S284006980750738F482FB882780F92196E2E00C9494F326E235E43093210620932006898373DB8981EFCFCF93DF93EC01009739F480E695E4909321068093200665DB1BAA1AAABE0181E295E0A2DA83E094DEDF91CF9108950F931F93CF93DF93EC01C85ADF4F68838C01075A1F4FD8018D919C91892B39F485EF95E4909321068093200679
S284006A0043DBD801ED91FC91CE011995DF91CF911F910F9108950F931F93CF93DF938C01C091A904D091AA048091A3049091A40480519140813F954048F4B80189EA94E066DACD2B59F480E056DE08C083E694E4909321068093200617DBEFCFDF91CF911F910F910895A1E0B0E0E9E3F5E30C9474F37C018C01075B1F4F009791F0D80146
S284006A808D919C91892B69F0C701885B9F4FFC016083D801ED91FC9119952196E6E00C9490F382E995E490932106809320066983EBDA6981E9CFCF93DF93EC01009739F483E396E49093210680932006DDDA81E08CAB81E18DAB83E08EABCE01875B9F4F9AAF89AF88ED95E49CAF8BAF81E895E39EAF8DAF84E288AFCE0155DFDF91CF91FA
S284006B000895A1E0B0E0E7E8F5E30C9476F38C01009749F487E096E490932106809320066983B2DA6981F801EC59FF4F608381E0F80187AFB80185EA94E0E9D987E0DBDD2196E4E00C9492F3CF93DF93EC01009739F483E196E4909321068093200694DACE0148DE8FE08DAB83E08EABCE01805C9F4F9AAF89AF80E995E49CAF8BAF81E8F9
S284006B8095E39EAF8DAF8DE188AFCE010CDFDF91CF910895EF92FF920F931F93CF93DF93A0914E16409153165091541620E030E090E09A1709F45AC0FA01E20FF31FB9016C577F4FB685B0FD63C07F019CE6E90EF11CD7011D921C928230B1F010F08330F1F59091521640915016941708F03EC09F5F90935216138214821582168297854C
S284006C009F709787128235C01091511690914F16191760F500915516409156165091571690E09017B9F0EA01495B5F4FBA0167547109DB016C9161110BC01F5F1093511641E04883E496D701CD93DC93428302C09F5FE7CF4091551649130BC007C081E894E490932106809320060EDA80E090E012C09785907F9787880F81608687118273
S284006C8010828091531690915416820F931F03C09F5F9B018ECFCDB7DEB7E6E00C9490F3CF93DF93EC011EA28CA19DA1892B39F484E494E49093210680932006E5D9ECA1FDA1CE0186961995DF91CF9108951F93CF93DF93EC018091F9049091FA04892B09F471C08091F7049091F804892B09F46AC0288139814A815B816C817D818E8150
S284006D009F81A9EF0E94D3F359F050F020E041E060E070E080E090E0E3DD9B0115E016C010914A02116021E041E060E070E0CE01D7DD9B016C3F9FEF790781F420E041E060E070E080E090E0CBDD9B012C3FAFEF3A0721F46DEF7FEF80E03DC09BE2929FA001939F500D1124E091F904F091FA04E40FF51FDF011D929A95E9F796E0929FC9
S284006D80B001939F700D1124E091F704F091F804E60FF71FDF011D929A95E9F7A091F904B091FA04A40FB51F98E0FE0101900D929A95E1F7E091F904F091FA04E40FF51F1287B90108C082E295E490932106809320065AD98ECFDF91CF911F910895209101052F5F209301050C94369F6F927F928F929F92BF92CF92DF92EF92FF920F93FB
S284006E001F93CF93DF931F92CDB7DEB78C017B01FB01EA58FF4F85E094E3918380833E9782E08083D80157968D919C9158973196918380839C968C919C97379680833196108231969B968C919B978095881F8827881F8083319681E08083319680839B968C919B9786FD0BC021E057968D919C915897883F9F4F08F020E0822F01C081E0AB
S284006E80F701EB58FF4F81708083C8011ADCF701E559FF4F6F01970124593F4F3901882309F451C0B0903C1740913D17242F30E08091401790E001972817390739F4D80197968C914B9D80191124B82EC801CADC882349F081E594E49093210680932006D3D88AE308C081E594E49093210680932006CAD88CE230913C1720913D17882EFD
S284006F00912C80915217909153174B2D50E0F80161A572A5329F600D711D1124880D991D0E944CF48AE08B0DD6018C93BAE08B1A91088091521790915317880D991DF301918380830FC0D80197968C919797885F808399968D919C919A970897D9018D939C93B12CF30180809180D4012C912C7F2F7E2C93F8018789908D237F883F9F4FAE
S284006F8010F02860D4012C93F40180818F7D8083D8019B969C9192FD03C08F7B808322C08064F4018083D7011F962C911F97207F21601F962C93C801298383DB29812F70882341F0809142178295807F822BF701878708C0809115158295807F822BD7011F968C93C8016DDBF40190818823A1F09068908390913D1780858C7F911106C09B
S2840070008160808780914017818709C08260808780913D17818703C09F77F4019083D80191968C919197F401818394968D919C9195979383828392968D919C9193979583848396968C918683C8013BDB882331F080914117D40117968C9308C08091180591E0980F90931805F4018783D7018D919C91F8DB882399F0F7018081918121DB78
S284007080882321F0D6016C916B1906C0F6016081D80197968C91681BC701C2DB03C0C70140969DDE80E00F90DF91CF911F910F91FF90EF90DF90CF90BF909F908F907F906F900895E0915017F0915117BF01808191818CCEA2E0B0E0E0E7F8E30C9470F38C01DC015A96CD90DC905B97F601808186FD02C080E0DFC08370813011F441E0EF
S28400710001C047E070914E16E0915316F091541650E0842F90E09601280F391F571711F1A685A530D9F4D8015596ED90FC905697DF01A759BF4F0D90BC91A02DEA16FB0669F4DF01A459BF4FAD90BC90A80EB91ED901FC90D501EC90FE1461F25F5FEC57FF4FDCCF82E049836A8314DD49816A81009709F4BFCFFC01E459FF4F0190F08100
S284007180E02DDF01D49711966C93119713961C930E93129772E0DC01A859BF4F7C93D80155962D913C915697DC01A759BF4F11963C932E9317961C9211961C9251E011965C9311965C9311961C9225E034E3129611963C932E9311975C9320812C7F22602083D6013C913C70237F232B20833C913295317030FB24F92E7D2F7B20833C910D
S28400720037FB332730F930FB27F920832C9150E0DC01A559BF4F7D0124FF0DC0D8015A962D913C915B97240F351FD9012C912183F701708337C028E02C93D60116962C911697218312962D913C9113973383228314962D913C9115973583248311962C912683D8015A962D913C915B97240F351FD9012C912783D6012C9127FF13C0189612
S2840072802C91237031F41086F70120812F5F208309C0D7012C912D5F2C93D60118962C91237020876F3A21F0F7016081B9DA02C0409695DD81E02296EAE00C948CF327E237E13093DC162093DB1692E09093D71620916616309167163093D9162093D8169BE09093DA161092DF161092E01691E09093E1169093E2161092E31628E230E487
S2840073003093E6162093E5169093E416909127179078926090689093271790916D16909328172091691630916A1630932A172093291720916B1630916C1630932C1720932B179091681690932D1790916E1690932E1792E090932F179091641690933017909165169093311790913A179093F41610925F16109260161092611610926216F3
S284007380809358169F3A21F06BE08FE696E148CA8FE796E124CD0F931F93CF93DF938C01DC011996CD91DC911A970097D1F12097C1F1FE01E45AFF4F80819181892BD1F1319780818823B1F1FE01EA59FF4F8CE09BE5918380833E9782E080833196D80112968D919C911397918380833596118300833596D4968C91D4978083319781E061
S28400740080833297108234961D969C91908331968083CE010E94369FDF91CF911F910F91089588E695E490932106809320060E944430BFCF89E695E490932106809320060E944430C1CF0F931F93CF93DF93EC018C0108561109FC013C970190F081E02D6FEF818192810E947D89882361F0FE01329785E094E39183808323971882C80118
S2840074800E94118E02C0CE01C0D9DF91CF911F910F91089565E576E180E191E0B1D866E576E18EE092E08AD8809156169091571620E030915516231748F4FC0137E4239FE00DF11D112410822F5FF3CF6EE476E18FE091E095D863E576E18DE092E06ED820914E16E0915316F091541680E0821739F096859E7F96878F5FEC57FF4FF7CF96
S2840075009091551690934F16823008F081508093501610925116109252166CE377E188E291E06ED86EE576E189E291E069D86DE576E188E191E064D880915D16882351F069E576E18FE092E039D862E577E180E192E034D830915D1620915E168091591690915A16329F800D911D112490935C1680935B1610925816089564E275E082E1A9
S28400758092E01CD863E275E087E191E039D880912305E0912405F0912505882351F0309741F489E294E490932106809320060C942C309F0146E1849F200D311D1124C90128EAE817F90718F4258B7696FACF0895DF92EF92FF920F931F93CF93DF938C01D62E805B9F4F7C010115110551F1DC018D919C91892B29F1D11015C0E801C95B88
S284007600DF4F288139814A815B816C817D818E819F810E94BA8F009719F060E00E94B89CCE010E948188C801815B9F4FFC01D082D701ED91FC911995CDB7DEB7E7E00C948FF382E895E490932106809320060E944430D2CFA8E0B0E0E0E3FBE30C9473F38C01E090EB04F090EC04DD24D394E114F10409F45FC0F701E15BFF4F8081823028
S284007680E1F08430E1F1813009F050C0F80182858B7F813009F04AC0F8018081898381818A8382818B8383818C8384818D8385818E8386818F83878114C0F801828582508230A0F58485898385858A8386858B8387858C8380898D8381898E8382898F838389888748E050E0BE016F5F7F4FC701805B9F4F0E943FF4892BC1F405C0F80137
S2840077008285843099F4C8CFF701EB5BFF4FD082B7018BEE94E00E94572FF701EA5BFF4F8081882319F060E0C70154D9F701E080F1809DCF8091EB049091EC04892B21F48EED94E00E94BAE12896E7E00C948FF3CF93DF93C091EB04D091EC04209739F1FE01EF5BFF4F4081518162817381411551056105710549F041505109610971094C
S28400778040835183628373830EC0FE01EA5BFF4F8081882341F0BE018BEE94E00E94572F64E0CE0117D90990D881C02DD7CF8091EB049091EC04892B21F08EED94E00E948AE1DF91CF9108951F93CF93DF93EC01162F0097C1F08D819E81892BA1F089EA94E00E944B2F1F83ED81FE81CE01079619958091A9049091AA04892B69F080E022
S2840078000E947B3309C08BE694E490932106809320060E944430E3CFDF91CF911F910895CF93DF9385EA94E00E944B2FEC01009741F481E096E490932106809320060E9444308FAD823040F082E096E490932106809320060E9444308FAD811115C0FE01E05CFF4F919191112CC08F5F8830D1F783E096E436C0EBE5F5E3309709F45FC05E
S28400788082E08FAFCE0119958FAD813079F4FE01EB59FF4F0190F081E02D309719F485E096E41FC0CE018C599F4F19958091A5049091A604892B09F4A6C087E00E947B33A2C0FE01E85BFF4F8081843008F03FC0823070F48823E9F1813009F44EC084E096E490932106809320060E942C308BC0209709F47FC0FE01E75BFF4F80E0919194
S28400790091110BC08F5F8830D1F781E196E490932106809320060E944430CE018E5A9F4F0E949CAB811108C082E196E490932106809320060E944430E4EAF5E39ECF84E0FE01EC59FF4F808381E08FAF9DCF843089F4209759F18B7F49F5FE01E75BFF4F80E0919191112BC08F5F8830D1F781E396E42EC0853009F0B2CF209791F18B7F79
S284007980813079F5FE01E65AFF4F8081882359F0319680E09191911106C08F5F8830D1F781E296E415C0EBE9F6E467CF80E396E490932106809320060E944430CECFCE018F5A9F4F0E949CAB811155CF82E396E490932106809320060E942C30E0E0F0E04CCF80E296E490932106809320060E944430C8CF80E196E490932106809320065F
S284007A000E94443078CFDF91CF910895EF92FF920F931F93CF93DF938C01EC01A197E984FA84209741F485E695E490932106809320060E944430D8018C91811127C098A18E81891740F486E695E490932106809320060E94443088A1F701E55AFF4F808331968D8D9E8D918380838B859C85892B41F487E695E490932106809320060E94F5
S284007A804430EB85FC85CE01199518C0F801848D958D892B41F48DE695E490932106809320060E944430D8015C96ED91FC915D9762E0CE011995C7010E94FD94CDB7DEB7E6E00C9490F3CF93DF93EC01C856D109892B41F485E396E490932106809320060E944430CE010E94FD94DF91CF9108950F931F93CF93DF93EC01009741F487E2D1
S284007B0096E490932106809320060E9444308E01085611098A81811114C0FE013A970190F081E02D8081853061F42F9724813581888199812817390721F4CF0108960E9444BDC8010E94FD94DF91CF911F910F910895A9E0B0E0EFEAFDE30C9474F38C01009779F1DC0112968D919C911397892B41F18D919C91892B21F1D8011296ED9112
S284007B80FC911397818D843029F5E28CF38CED91FC917081618152814381348125819681878179836A835B834C833D832E839F838887F70183818987CE0101960E9497BC09C083E995E490932106809320060E944430D3CF81E02996E6E00C9490F3A2E1B0E0E5EFFDE30C9474F38C01DC011296ED91FC911397218D009709F44EC0EF2BFD
S284007C0009F44BC08D919C91892B09F446C0243008F44EC0D8011296ED91FC911397028CF38DE02D83818987ED90FC90D7010C9111961C91119712967C91129713966C91139714965C91149715964C91159716963C91169717969C9109831A837B836C835D834E833F839887823091F42C3001F5748165815681478130852185928583856F
S284007C807A876B875C874D873E872F87988B898BCE0101960E944DAD0BC084EF95E490932106809320062A8B0E9444302A89AFCF81E06296E6E00C9490F3A0E1B0E0E3E6FEE30C9474F38C01009709F44EC0DC0112968D919C911397892B09F446C08D919C91892B09F441C0D8011296ED91FC911397818D8B3009F041C0E28CF38C0D9007
S284007D00BC91A02D7C9111966C91119712965C91129713964C91139714963C91149715962C91159716969C91169717968C9179836A835B834C833D832E839F838887F7017381648155814681378120859185828579876A875B874C873D872E879F87888BCE0101960E94C4BC09C083E895E490932106809320060E944430B6CF81E0609675
S284007D80E6E00C9490F3A3E1B0E0E9ECFEE30C9476F38C01009709F458C0DC0112968D919C911397892B09F450C08D919C91892B09F44BC0D8011296ED91FC911397818D8E3009F04BC0028CF38DE02D0D911C91D8017C9111966C91119712965C91129713964C91139714963C91149715962C91159716969C91169717968C9179836A83CC
S284007E005B834C833D832E839F8388870381148125813681478150856185728509871A872B873C874D875E876F87788B838594859B8B8A8BE585E98BE23011F00E94EC8FCE0101960E94ECAC09C083E795E490932106809320060E944430ACCF81E06396E4E00C9492F3A1E1B0E0E9E3FFE30C9468F38C01262E29873A874B875C870E94F5
S284007E8086DDE0910A0529853A854B855C85EE2361F130904E16C0900D05D0900E05E0900F05F09010052B013C014C185D086E087F084D825E826F827886E0915316F0915416198A66246A94762C430169827A828B829C8246015701861A970AA80AB90A8D869E86AF86B88A0BC00AE710E4A3C0A685A0FD09C0A989AF5FA98BEC57FF4FA6
S284007F00B989B311F5CF40C0B785BF70B23099F7AA7FA23081F783809480A580B68081149104A104B10439F3E017F10721F34D805E806F807884481459046A047B0468F44D845E846F847888840C951CA61CB71C83829482A582B68204C0138214821582168283809480A580B68049805A806B807C8084149504A604B70408F0BCCF8982F1
S284007F809A82AB82BC82B7CF211046C080905F1690906016A0906116B090621681149104A104B104C9F12B013C014C185D086E087F08481459046A047B0488F4C80CD91CEA1CFB1CC61AD70AE80AF90AC0925F16D0926016E0926116F092621608C010925F1610926016109261161092621680915F1690916016A0916116B09162164980A0
S2840080005A806B807C8084159505A605B70520F489839A83AB83BC8389819A81AB81BC81281739074A075B0710F4DA01C9010AE710E49C01AD0161E08AE095E00E942E328AE095E00E941B326196E2E10C9484F38091010581508093010580915816833009F43DC0823041F082E594E490932106809320060E944430E0913B17EE2379F1D6
S28400808081E080935816A0913215B0E011972AE030E00E9452F39B01AC018091020590910305A0910405B0910505280F391F4A1F5B1FA0911515B0E00E9458F39B01AC0160935F16709360168093611690936216E150E0933B1761E080E090E0C4CE1092581610925F161092601610926116109262160895A4E0B0E0E0E8F0E40C9470F3E5
S2840081002FEF3FEFA90110E0AA24AA94B12C80914E16181708F055C0E0915316F091541684E8189FE00DF11D1124668560FF47C07785872F8F70823009F041C0862F8A7F8230E9F583819481A581B681C0901105D0901205E0901305F09014058C199D09AE09BF0983839483A583B6830097A105B105F1F4872F807F846087876E7F6630A8
S28400818059F4C5010090321502C0880F991F0A94E2F7809580933F1781E029833A834B835C830E947B3329813A814B815C8107C082179307A407B50710F49C01AD011F5FA6CF80915F1690916016A0916116B09162160097A105B10551F1C0901105D0901205E0901305F09014058C199D09AE09BF0980935F1690936016A0936116B09389
S28400820062160097A105B10559F482E029833A834B835C8354D829813A814B815C8107C082179307A407B50710F49C01AD012F3FEFEF3E074E075E0761F00AE710E461E08AE095E00E942E328AE095E00E941B3204C08AE095E00E9425322496EAE00C948CF39C014091F9045091FA044115510599F097FD11C08091FB049091FC042817DB
S284008280390750F46BE2629FC001639F900D1124840F951F0B96089580E090E00895E6E0E49F9001E59F300D1124E091F704F091F804E20FF31F71836083EBE2E49F9001E59F300D1124E091F904F091FA04E20FF31F918780870895FC018081982F937071F4982F9C709C30B9F087FF1BC08085837011F488E001C089E08F5F0895913059
S28400830079F0923059F484FD0BC087FF0BC08085837011F08BE0089589E0089580E0089582E0089588E00895CF93DF93EC01009771F16FA74115510551F0FA01408151816281738148AB59AB6AAB7BAB04C018AA19AA1AAA1BAAEDA5FEA5309749F484E594E490932106809320060E942C300FC0CE018F961995CE010E946133882339F0D0
S284008380109251171092501781E00E947B33DF91CF910895CF93DF93EC010097B1F18AEA8D8B0E94476948E050E0BC01CE010E943FF4892B51F582E88D8B888581508E3F20F58B858330C9F48C8981508E3FE8F42C853D854E855F85688979898A899B89A0E00E94D3F371F480E194E490932106809320060E942C3008C0813019F086EA7E
S2840084008D8B03C01D8A81E001C080E0DF91CF910895A0E0B0E0EFE0F2E40C946FF38C01962EC0912405D0912505809123056E0196E1899FC00CD11C1124F8018589811109C07E01F6E1EF0EF11C58018CE0A80EB11C09C085E294E432C08A3A89F06696F6E1EF0EF11CF801CC15DD0508F04AC0908521853285F70131978081843A69F777
S284008480F7013E9780819813EACF89859A852817390729F748E050E0B801CE010E943FF4892BE9F6F8018385F7013B9790818913D6CF813059F0833091F086E294E490932106809320060E942C301DC0F801248535858C859D852817390709F617C0F8019489F701329780819813B9CF48E050E0BE01645F7F4FC5010E943FF4892B09F0C9
S284008500AECF04C0958A80E090E001C0CE01CDB7DEB7EBE00C948BF3CF93DF93EC018091F7049091F804892B41F1D7FD26C08091FB049091FC04C817D907F8F42BE22C9FC0012D9F900D1124E091F904F091FA04E80FF91F26E02C9FC0012D9F900D1124A091F704B091F804A80FB91F6D917C9180859185DF91CF91089580E295E49093E2
S2840085802106809320060E944430D8CFA0E0B0E0ECECF2E40C9472F3EC01BEDF6B017C018B01CB0101978E3F9F4F80F08FEFE81AF80ACC24C394D12CAE01C701B6016FDE60E070E080E20E94472E13C0E114F10441F488E295E490932106809320060E94443068012FEFC21AD20AAE01C701B60156DE81E0E81AF108C701B601CDB7DEB7BB
S284008600E8E00C948EF3A1E0B0E0E9E0F3E40C9476F38C01FC012081318180915616909157162817390740F487E494E490932106809320060E944430F801808191812091561630915716821B930B67E470E00E94D8F280914F16681750F088E494E4909321068093200669830E94443069818091561690915716F7E46F9F800D911D1124B6
S2840086802196E4E00C9492F3CF93DF93EC0140E050E08881998148DECE010E94933381E00E947B33DF91CF910895A1E0B0E0EBE5F3E40C9472F37C01FB018A01208131814281538164817581868197810E94BA8F6C01009709F44AC0DC018C91282F2B7F91E0213009F090E0992309F43FC0853039F40E9432BD21E0882319F020E001C0C4
S28400870021E0622FF7018081918129830E9401952981009749F489E096E490932106809320060E942C3020C0FC01EA59FF4F118300833E9732E030833196D60114964D915C911597518340833596D182C08234961082329731E030833496108231961082329720830E94369F80E001C081E02196E8E00C948EF3DC015A96ED91FC915B974F
S2840087802081237231F492968C91811102C00C94199F80E008950F931F93CF93DF9386E295E00E944B2FEC01009741F482E595E490932106809320060E9444308E010E581F4FFE01E95AFF4F88E0D80101900D928A95E1F7FE01E658FF4F1082C059DF4F88819981892B41F481E595E490932106809320060E944430E881F981C80119953B
S2840088008091260590912705892B19F084E00E947B33DF91CF911F910F910895FC018081807881608F7780838091180591E0980F909318058183628308950F931F93CF93DF938C01DC011996ED91FC911A97E45AFF4FC081D181009779F0209769F069E0CE01DCDFF801E95BFF4F80818B83DF91CF911F910F91089581E995E490932106CD
S284008880809320060E944430EACF0F931F93CF93DF93EC01E985FA85E45AFF4F008111810097A9F00115110591F067E0C801B6DFD8011396FE01E95BFF4F88E001900D928A95E1F7DF91CF911F910F91089581E895E490932106809320060E944430E5CF0F931F93CF93DF93EC01009741F484E296E490932106809320060E9444300985D2
S2840089001A85F801E55AFF4F8081855F8083813449F085E296E490932106809320060E942C3021C0045A1F4FF8018081918146E350E0BC010B960E9455F4F801008111816EE0C8016BDFF80183858F7D8083D8011396E9ADFAAD88E001900D928A95E1F7CE010E94CB39DF91CF911F910F910895A3E0B0E0EEEBF4E40C9476F38C01605F24
S2840089807F4F7A836983BE016D5F7F4F8DE090E00E9400338B81D80197965C91979740911805882309F442C089819A81FC01E85AFF4F21E0208357962D913C9158973196318320833296585F50839996ED91FC919A979C01245A3F4F3897D901ED93FC938FEF8183D80194968D919C9195979383828392968D919C919397958384839696F3
S284008A008C91868381E0840F809318054783D901ED91FC918081807888608F778083E981FA81EA59FF4F85E094E344C089819A81FC01E85AFF4F22E0208331962DEF3FEF318320833296575F5083D8019996ED91FC919A979C01245A3F4F3997D901ED93FC93D80157968D919C9158979283818394968D919C9195979483838392968D91E5
S284008A809C9193979683858396968C91878381E0840F809318054087D901ED91FC91808180788C608F778083E981FA81EA59FF4F83E29AE391838083E981FA81D8019C968C919C97E05AFF4F8083E981FA81EF59FF4F809114158083E981FA81EE59FF4F9B968C918095881F8827881F8083E981FA81ED59FF4F81E08083E981FA81EC5912
S284008B00FF4F8083E981FA81EB59FF4F808389819A810E94EF3680E02396E4E00C9492F3FF920F931F93CF93DF938C01DC011996ED91FC911A97E45AFF4FC081D181009749F1209739F1F801E85BFF4FF08065E0CE0164DEFB82F801EE5AFF4F80E1DE01149601900D928A95E1F7F801E75BFF4F88E0DE01549601900D928A95E1F7F80191
S284008B80EF5AFF4F8081882319F081E08C8F0BC01C8E09C084E196E490932106809320060E944430D0CFCDB7DEB7E5E00C9491F3FF920F931F93CF93DF938C01DC011996ED91FC911A97E45AFF4FC081D181009769F1209759F1F801E85BFF4FF08065E0CE011CDEFB82DE011496F801EF5AFF4F80E101900D928A95E1F7DE015496F801CA
S284008C00E05CFF4F88E001900D928A95E1F70E944769DE015C9628E0FC0101900D922A95E1F7CDB7DEB7E5E00C9491F384E396E490932106809320060E944430CCCFCF93DF93FC01C081D181909351178093501710923D1710923E1780911515809342176CE377E188E291E00E940033CE010E943234882339F080913C178E3318F08DE334
S284008C8080933C1720913C1730E08FA198A5B9010E94D8F2462F609340178FA198A5B9010E94D8F2892B19F04F5F409340178FEF90E00090321502C0880F991F0A94E2F780958E7F80933F178091180591E0980F9093180580934117DF91CF910895CF93DF93EC011092D30482E00E947B338881811102C060E001C062E04091C50420916E
S284008D00C2043091C3048091D1049091D20461110EC0FC01E559FF4F4083319631832083379621E0208340960E94EF3601C0ACDCDF91CF910895CF93DF93EC01009741F482E296E490932106809320060E944430CE010E94FA3380E18DAB82E08EABFE01E65AFF4F2081CE01222319F0855A9F4F02C0805C9F4F9AAF89AF89ED94E69CAF1F
S284008D808BAF81E895E39EAF8DAF85E288AF222379F00E946195882359F0FE01ED59FF4F8081882329F088AD855F88AF81E08FABCE010E94D334DF91CF910895CF93DF9381E295E00E944B2FEC01009709F45DC088AD882309F459C089AD9AAD0E94E4B6009701F1FC01808191819B838A8385E49BE598878F8328ADEDA9F0E0EC5EFA4E0A
S284008E009485907639F08FA9811102C089E003C081E101C080E0820F8E83CE0104960E94EA9429C08AA99BA9892BA1F483E08EA3DE019996E9ADFAAD88E001900D928A95E1F78AE194E39BAB8AABCE0184960E94DEB611C08DAD9EAD892B41F48DE695E490932106809320060E944430EDADFEAD6CEECE0119958091210590912205892B99
S284008E8069F083E00E947B3309C081E695E490932106809320060E9444309ECFDF91CF910895A0E0B0E0E7E5F7E40C946FF3EC016B01942E5901009124051091250580912305780196E1899FE00CF11C1124209761F0C017D107F0F583E294E490932106809320060E94443035C0E801CE01801B910B66E170E00E94D8F2892B79F084E297
S284008F0094E490932106809320060E94443006C01D89143A39F01A3A29F06696CE15DF05B8F313C088859812F8CF89859A85C816D90699F748E050E0B501CE010E943FF4892B59F7143A49F703C080E090E004C0CE0102C06696CACFCDB7DEB7EBE00C948BF34F925F927F928F929F92AF92BF92CF92DF92EF92FF920F931F93CF93DF93BC
S284008F801F92CDB7DEB72C017B010E9447696C01570182E8A80EB11CF501008111814114510431F0E114F10419F0C114D10451F484E194E490932106809320060E942C3088EA5FC058EAF20164A175A1960146A1C801598366DF8C015981009709F450C0F20184899589892B19F5F8017384F3E07F121EC048018CE0880E911CC4010E941C
S284009000E4B6892BA9F4F2017086D2011B9688E0F40101900D928A95E1F782E598E4F201958B848BC20106960E94DEB680E029C0F50111830083F80183858330B9F4C8010C960E94E4B6009711F459EABCCFF8012489F20121A3FC0180819181F201908F878BB701C2010E94F6360BC0F80184859585F201908F878BB701C20179DC01C037
S284009080852F0F90DF91CF911F910F91FF90EF90DF90CF90BF90AF909F908F907F905F904F900895FF920F931F93CF93DF938C010351110920914E16C0915316D0915416F12CF216E9F08E8580FF16C0888199818017910789F4BE01C80143DF882381F040E050E0682FC8011FD9CE010E94933381E00E947B3304C0F394CC57DF4FE1CFA1
S28400910080914E16F81640F085E194E490932106809320060E944430CDB7DEB7E5E00C9491F3EF92FF921F93CF93DF931F921F92CDB7DEB77B010097A1F06115710589F0FC01158A148AF701EE57FF4F11821082B70107DF182F882389F0C7010E9493330DC023E134E4309321062093200689839A830E94443089819A81E2CF812F0F906F
S2840091800F90DF91CF911F91FF90EF900895AF92BF92DF92EF92FF920F931F93CF93DF931F92CDB7DEB77C01D62EDC01AD90BC90009709F473C0A114B10409F46FC041113FC0BEECDB1659F18D2D8F7D803D39F1E1EDDE1205C0D5019B968C9187FD1FC0C5010E943234882309F463C0F50183A585FD5FC00E946195882329F0D5019B96AD
S2840092008C9181FD56C0C5010E946133811151C0F5018689813009F44CC041E001C043E0F701E358FF4F0081118122813381D501D0960D931D932D933C93D3979F96DC92423069F04330C9F04130A9F5B701685F7F4F8AED94E00E94872F82E01CC0D701ED91FC918689811108C0F501158A148AB701C50176DE883AF1F4A501405D5F4F05
S284009280D5019F966C91F701808191814DD8C7010E94933381E00E947B330DC08FE494E4909321068093200649830E944430498186CF42E0B5CF0F90DF91CF911F910F91FF90EF90DF90BF90AF900895FC01808181110CC01092D30482E00E947B3342E060E08091D1049091D20451CF0895A4E0B0E0EDE7F9E40C9474F38C01E090260590
S284009300F0902705009719F480E595E41DC087E5F80111928A95E9F7B80186E295E00E94872FBE016F5F7F4F81E291E00E94003349815A816B817C814130FCEF5F076105710548F08CE595E490932106809320060E942C300FC0EAE07695679557954795EA95D1F7F8014283E114F10419F484E00E947B332496E6E00C9490F3CF93DF9386
S284009380EC0108D8882309F454C060E0CE0141D8892BC1F5209709F43EC08D8981113BC050912305209124053091250540E0451781F0C9012A5E3F4FF90131976081683A31F424EAFC01258B009731F432C04F5FEECF8EEA8D8B2DC0209719F03D89332349F087E294E490932106809320060E942C301AC036E1FE01DC0101900D923A955F
S284009400E1F706C066EACE0104D8009791F024EAFC01258B09C080E294E490932106809320060E944430BCCF60E070E080E10E94472EDF91CF910895CF93DF93EC010097D9F08091240590912505C817D907A0F02091230536E1239F800D911D1124C817D90750F48D89843A11F08A3A71F488EA8D8BDF91CF91089581E294E4909321060B
S284009480809320060E944430EDCF82E294E490932106809320060E944430E9CFCF93DF93EC010E94CA41882361F064EACE010E940942009731F0C0DF60E070E080E10E94472EDF91CF9108952091240530912505009751F0FC0176968091230596E1899F200D311D112408C0F901F6CF8589843A49F08A3A39F07696E217F307B8F380E03E
S28400950090E00895CF010895CF93DF93EC01BC018FE195E00E94872F1D8A1C8A81E00E947B33DF91CF910895CF93DF93EC01BC018DE195E00E94872F198A188A81E00E947B33DF91CF910895AAE0B0E0EAEAFAE40C946EF3C0906F15BE01665F7F4F87E091E00E940033BE016F5F7F4F8AE190E00E94003389819A81AB81BC814C2D50E048
S28400958060E070E0481759076A077B0778F0880F991FAA1FBB1F89839A83AB83BC83BE016F5F7F4F8AE190E00E943833D12C85EFC80ED11CEE24D7FCE094FE2CC0920605D0920705E0920805F09209052A8530E0A3E0B0E00E9443F39B01AC01C701B6010E94BDF209811A812B813C81600F711F821F931F6093020570930305809304059C
S2840096009093050581E08887BE01675F7F4F87E091E00E940033BE01685F7F4F84E290E00E940033898590E0A0E0B0E0880F991FAA1FBB1F8F3F9105A105B10529F020F08FEF90E0A0E0B0E00E944B34E885EE2309F45AC0812C912C54018B019C0101501E4F2F4F3F4F800E911EA21EB31E660F771F881F991FE15081F718867501640120
S284009680B9E0F694E794D794C794BA95D1F7D501C4019170AA27BB2741E050E060E070E0892B8A2B8B2B19F440E050E0BA01C40ED51EE61EF71E1E821D821F82BE01695F7F4F81E191E00E940033BE016B5F7F4F88E092E00E94DE32970186010F3F11052105310529F020F00FEF10E020E030E06D817E81C12CEE24E39420E032E04F819A
S2840097008DEE94E00E945C302A96ECE00C948AF3882331F00E9428F480931805109201051092200510921F0510921E0510921D0510921C0510921B0510921A05109219058AE090E0A0E0B0E08093491790934A17A0934B17B0934C1782E698E390934F1780934E1781E080934D171092651610926E161092631610926A1610926916109285
S28400978064161092681610926C1610926B16109267161092661610926D161092581610925F1610926016109261161092621684E8EFE6F6E1DF011D928A95E9F787E4E3EFF6E1DF011D928A95E9F780915E1690E0019620915D16289FA001299F500D112460E070E08091591690915A160E9466F487E297E19093DC168093DB16A5CECF9389
S284009800DF93C091A904D091AA04209741F484E694E490932106809320060E9444308A818A38F9F0853C09F44FC0893109F06CC08091A3049091A4048031914019F480E092E002C080E097E09093A4048093A30481EB9EE59E838D83CE0103960E9431955BC08091A3049091A404823323E0920719F08031964049F48FE394E09093A40440
S2840098808093A30461DE1D8202C083EA8D8389EA94E00E944B2F8B819C81892B41F48AE694E490932106809320060E944430EB81FC81CE01059619958091A9049091AA04892B51F180E018C08091A3049091A4048F339440A1F480E095E09093A4048093A30482E090E09C838B838AE095E00E9425321092010581E00E947B330DC063EAEA
S284009900CE010E94E43B08C085E694E490932106809320060E944430DF91CF910895AAE0B0E0E5E9FCE40C9478F3DC011396ED91FC9114972181328140E450E05A834983AE01495F5F4F5C834B8341E050E05E834D836F3FBFEF7B0719F437FF15C003C02617370789F098878F837A876987BE016F5F7F4F8EE10E94472E81E02D813E810E
S284009980232B19F080E001C081E02A96E2E00C9494F3009729F48091FF04909100050895FC01808191810895CF93C82FE0E0F0E0CF01EFDFFC01009739F0A381B4818C91C813F6CFCF0102C080E090E0CF910895DF92EF92FF920F931F93CF93DF938C01009741F480E394E490932106809320060E944430C0E0D0E041E3E42E44E4F42EA7
S284009A00CE01C7DFEC01009789F18A818111F8CF8B819C81892B31F4F0922106E09220060E944430F80160A171A1CE0178DF882339F3EB81FC81D0806D2DF801878190850E947D898823E1F2F801D18AED81FE81309749F482E394E490932106809320060E942C3003C0C8011995CACFCDB7DEB7E7E00C948FF3A1E3B0E0E1E4FDE40C94C7
S284009A806EF38C01B62EDC015A96ED90FC905B9755966D917C915697F70147818DEE94E00E948E30882309F414C1D70111968C919FEF980F9E3F28F477DF6C01009719F408C1C12CD12CF801228983899489213009F022E02F8399878887D70111968C918A8BF801858996890E9439B7FC01009799F083E08B8B708161815281438134815C
S284009B002581968187817E8B6F8B588F498F3A8F2B8F9C8F8D8F02C082E08B8BD80155968D919C9156979D8B8C8B57968D919C9158979F8F8E8FF701868188A3848195819AA389A3828193819CA38BA359968C9190E09C012A5031093EA32DA319A6208127FD04C09C012850310906C02085237029F49C01295031093EA32DA32DA13EA198
S284009B80821B930BF801228D338D280F391F38A72FA3BAA682A18BA7848D8CA7468D578D60A171A14DA75EA76FA778AB858D89ABD7018C9187FF48C018968C918370823009F042C0E0915B16F0915C16808190E09EA38DA38080912CAA24A394B12C2091631630E08091591690915A16A216B3064CF5E0915B16F0915C16EA0DFB1D40815C
S284009C0050E020915E162A9DB0012B9D700D1124680F791F880D991D0E944CF4E0915B16F0915C16EA0DFB1D20818DA19EA1820F911D9EA38DA3BFEFAB1ABB0A8081880E911CCDCF98A78FA3C114D10449F0D6011596ED91FC911697CE010196199539C0F8018289813021F4CE010196B1DE31C0D70111968C918F3F41F5E12CF12CC701C5
S284009C8088DE7C01009729F1D7011396ED91FC9114978081882399F312968C918111EFCF69A17AA1C7013BDE882349F3D7011396ED91FC91149780818A8B1596ED91FC911697CE0101961995DACFCE0101960E9441C1C8010E945036E196ECE00C948AF3A1E0B0E0E6E7FEE40C9470F38C01D62EDC015A96AD90BC905B97F50181812FEFE0
S284009D00280F2E3F78F429834FDE7C012981009749F0D50114966D917C91159700DE882339F104C02E3F20F1E12CF12CF501808187FF03C090859370D9F486FF1BC08C708830B1F0D80155968D919C915697883F9F4F70F4E114F10421F0F7018281811107C06D2DC8010E946A3891E09827A1C190E001C091E0D5018C9187FF92C1189615
S284009D808C91837009F48DC1F801A28CB38C818DD5011996FC9020915D16222309F488C166EFE62EE80E80915816813009F44FC030F0843008F06CC180E494E46BC1F501C084F1E0CF1274C12F1508F471C180915E168E1508F46CC190E00196289FA001299F500D112460E070E08091591690915A160E9466F4D0923A17C0925816F092F4
S284009E006316D80155968D919C9156979093671680936616F5018181809368168281938190936A16809369168481958190936C1680936B16868180936D16878180936E168091151580933B1710926416F12CD50118968C91982F9370923011F0F11028C18C7F09F025C1809163168F1508F420C12091661630916716F8018589968928171E
S284009E80390709F015C190916816D50111968C91119798130DC12091691630916A1612968D919C9113972817390709F001C120916B1630916C1614968D919C9115972817390709F0F5C090916D1616968C9116979813EEC090916E1617968C919813E8C02091641640913215AF2CB12C822F90E0840F911DA816B9060CF0DAC08F2D642F75
S284009F000E94CCF2C92EF21668F48F2D891B8093641621E030E001C0220F4A95EAF7219520936516E0915E168091591690915A164E2D50E0D8015A966D917C915B97665F7F4FFE9E800D911D11240E944CF4E0915B16F0915C16EA0DFB1DE08270916416209163167F1111C090913215822F8F19981708F4892F41E050E0082E01C0440F9A
S284009F800A94EAF741954093651641E050E00C2C01C0440F0A94EAF760916516642B609365166F3F79F4FF24FA94F70E822F90E04091321550E0871B9109481759070CF4CA01F80E8F2D90E030E0215031098217930751F46F3F21F483E00E945F3963C082E00E945F3964C0A0913215B0E011979D01270F311D8217930711F06F3F09F5DA
S28400A00082E00E945F39809165168F3F09F050C08091321590916416980F909364162091631621502F19821708F4282F81E090E0022E01C0880F0A94EAF781958093651637C02AE030E00E9452F39B01AC018091020590910305A0910405B0910505280F391F4A1F5B1FA0911515B0E00E9458F39B01AC0160935F16709360168093611655
S28400A0809093621661E080E090E00E94333F10C083E594E490932106809320060E94443007C0992329F06D2DC801E5DC90E001C091E0892F2196EAE00C948CF3AFE1B0E0E4E6F0E50C9475F3009749F485E495E490932106809320060E942C3082C0FC012081233009F07DC0218132813A83298328E03396DE01139601900D922A95E1F753
S28400A100FC0123852B87248535853D872C8728E03E96DE011E9601900D922A95E1F7FC01218D2D8F238D2E8F0789108DF688F6E0FF1508F056C0F8018081982F9370933009F04FC0807E09F04CC08181811149C0BE01615E7F4F84E190E00E940033F801208126952695277030E08F8D90E028173907B9F58281982F9370933091F5982F8A
S28400A180907F79F58C708C3091F481E08B87F8E0FF1538F5F801838194819F878E876FEF0E947D898823E9F0F80129E003C0F801329727E085819681998F888F878190859F8B8E8BF21AFA8E020F111D1C8F0B8FE091FD04F091FE04309719F0CE01019619956F96E5E00C9491F3FC018091F9049091FA04892B11F46AEF03C0309721F439
S28400A2006BEF7FEF80E0089520813181428153816481758186819781A9EF0E94D3F309F068F421E041E060E070E0CF010E947034A82FCB018C3F2FEF9207E1F42DE04DE060E070E080E090E00E9470349B01482FA82FCB012C3F5FEF350711F0C9010AC025E045E060E070E080E090E00E947034A82FCB01BC018A2F0895A8E0B0E0E3E494
S28400A280F1E50C9476F3FC01852F062F10E02F3A69F5309729F18081898381818A8382818B8383818C8384818D8385818E8386818F8387818887CE01019697DF77FD10C00E94B334F801EC5EFA4E882321F08485869581701CC0848582FB882780F917C0F801EC5EFA4E8485817011C0632F742F0E94B334F801EC5EFA4E882329F084858E
S28400A30083FB882780F903C08485829581702896E4E00C9492F3AAE0B0E0E1E9F1E50C946FF35C018B0169017A01009741F48BE695E490932106809320060E944430D50159968C91833010F481E03AC0D5015A96ED91FC915B9792808FEF890D8E30A0F7B5E09B1659F00115110541F4F501858996890E9439B78C01009731F3A701960180
S28400A380692DC8017ADF8823F9F2692D70E0660F771F6153744B42E050E0CE0109960E9436F4E985FA85309779F2BC82AB821A830983CD82DE82EF82F886CE01019619952A96EBE00C948BF3A1E3B0E0EAEEF1E50C9472F38C01D62EDC015A96ED90FC905B975296CC90B1E0CB16B9F0E2E0CE129CC1D7012C91322F3370832F90E0813022
S28400A400910509F479C18230910509F478C0892B09F08BC12C702C3021F06D2DC80160DCA0C1F80165897689D70118964C918DEE94E00E948E30882309F477C1F801818D893008F472C181E08F83D70111968D919C91129799878887858996890E9439B7FC01009799F083E08B8B708161815281438134812581968187817E8B6F8B588FEC
S28400A480498F3A8F2B8F9C8F8D8F01C0CB8AF801858996899D8B8C8B8789908D9F8F8E8FD70117968C91179788A315968D919C9116979AA389A313968D919C9114979CA38BA3818D90E009979EA38DA3828D938D099698A78FA319A6DAA682A18BA7848D8CA7468D578D60A171A14DA75EA76FA778AB858D89ABCE0101966ADA16C1323064
S28400A50041F085E494E490932106809320060E944430C0905316D090541680914E16F60124E8829FE00DF11D1124CF01C816D90608F0FBC0D6011E966C911E9760FFD8C01F962C911F972F70223009F0D1C0F601E459FF4F0190F081E02D2D913C91D80155964D915C915697D90157962D913C9158974217530709F0BBC0D70117963C9176
S28400A580179727813213B4C014964D915C911597248135814217530709F0AAC012964D915C911397228133814217530709F0A0C011963C911197268132139AC016963C912181321395C0262F2E7F223031F4F6018785807F8360878742C0263009F088C0D70119969C91199780913E1798139DC081E090E00090321502C0880F991F0A94F0
S28400A600E2F781951A969C911A97982B1A969C931A97F6018785807F836087871A96EC9160913215EF3FB1F5462F50E02091401730E070913E17E70FC901871B9109481759070CF4CA018E0F80933D1790E0215031098217930749F4C6010E941F4640E060E0C6010E94C74860C0760F70933E17809115158093421770933D178FEF90E022
S28400A680062E01C0880F0A94EAF780958E7F80933F1724C0E095E0933F1780E090E02E2F30E0782F8617D0F40196A901072E02C0559547950A94E2F740FFF3CF81E090E0072E01C0880F0A94EAF780958E2380933F1780913E17870F80933D17E0915017F0915117BF01808191810E94F6361DC0F4E8CF0ED11C1ACFD70112968C91815037
S28400A7008E3098F426FF05C0C8010E946A38882361F0F80165897689D70111964C918DEE94E00E948E30811102C081E01AC0D8015A96ED91FC915B97808185FF0AC0B80188ED94E00E94872F82E00E947B3380E008C02FEA3FEF4FEF50E060E070E0C801DADDE196E8E00C948EF3A6E0B0E0EBEBF3E50C9468F3A090A304B090A40420E1EA
S28400A780A21621E0B20609F46BC15DE4252E54E4352E88248394912C8BE195E00E944B2F7C01009709F45CC10091531610915416C701801B910B64E870E00E94D8F280914E16681748F089E494E490932106809320060E942C3044C134E8639F000D111D1124D8011E968C91B0E1AB16B6E0BB0621F0A114E5E0BE0699F58E7F843019F5B0
S28400A800C80184599F4F0E9403436C01DC0111966C91119712968D919C911397892B51F4EAE4F4E4F0932106E09320066B830E9444306B81D70112968C91811104C0F6018281938118D9A7014B5F5F4F63EAD8018D919C910E949441C7010E9493339CCF8695482E512CB1E04B165104C1F064F44114510409F0EBC040E0D70112966C9194
S28400A880C8010E94C74888CFF2E04F16510409F4BBC023E04216510409F47BC0D8C0F80187858F70813009F077CF60807180D70119968C910E944B349B01AC01C0901515D12CF801878582958F70C81AD108D70112966C9161111EC02E833B834C835D830E9428F4FC01F170D20102C0AA0FBB1FCA94E2F72E813B814C815D810E9462F36B
S28400A9006E0F7F1F811D911DF80163837483858396832DC06E3C59F0603F49F0603D39F0613D91F4D3019B968C9187FF0DC0A7014B5F5F4FC3010E949441C7010E94933381E00E947B338CC00E9428F49170E8EEF3E002C0EE0FFF1FCA94E2F78E0F9F1FA0E0B0E0F80183839483A583B683D8011F968C911F97807F82601F968C931F97CC
S28400A98013962D913D914D915C91169760E0C8013BC2F80187858F70813009F0FDCE20913D1730E08091401790E001972817390709F4EEC1E091321570913F17272F30E080E090E0682F8E1708F0E2C10196A901062E02C0559547950A94E2F740FFF2CFC401062E01C0880F0A94EAF78095872380933F1780913E17860F80933D1783E425
S28400AA0097E10E948AE1C8CEC80184599F4F0E9403438C01DC0111966C91119712968D919C911397892B41F430922106209220066B830E9444306B81F801828193811BD8C7010E94933381E00E947B33A5CE2EE434E430932106209320060E9444309CCE1A82198232E0932E42E2A42E44E3B42E8DE195E00E944B2F8C01C090A304D0909D
S28400AA80A4040097D9F1D80150968D919C915197892B09F0BCC15A96ED91FC915B978081982F90728370813001F582818530E9F0F801858996890E9439B7892B09F0A7C1D80114969C92149755968D919C91569716969C938E9315975196BC92AE925097C80102960E94DEB6C3CF992309F48FC1C8010E94BB438823D9F289C1C1FE11C00F
S28400AB0010E5C12E14E4D12E02E0402E82E1A82E84E4B82E9AE2892E94E3992E28E0522E3DC000911F05109120050115110509F45CC0B8018FE195E00E94572F40E050E063EAC8010E949441ECCF29EAE12CF12C612C712CB8018FE195E02E830E94572F2E81211136C2E114F10431F4D0922106C09220060E944430D3010D931C93C80141
S28400AB800E946133882319F0C3010E941F46B301C801F7011995282F81111BC200911F05109120050115110501F1D80154968D919C915597892B11F18091501790915117892B09F48FC1C8010E946133882309F489C1C8010E946133882309F483C1D8010D911C9101151105A1F78091A3049091A4048115F5E09F0789F534C056968C9196
S28400AC00833091F47801B9E1EB0EF11CC7010E94E4B6892B49F4F701D8011B96852D01900D928A95E1F750C1F8018689823021F6C8010E943234882309F4BECFD80157968D919C9158970E9439B7892B09F0B4CFF8018789908D9287818736C18031F6E09F0769F5F12C0EC024E8F29E80011124E0915316F0915416E00FF11F86858330FC
S28400AC8031F0F39480914E16F81670F320C087858F70843011F08230A1F740E050E063EA808191810E9494418091531690915416800F911F88589F4F0E949333E2CF8F33944029F4F12C80914E16F81648F08091A3049091A4048115954009F002C252C0009153161091541684E8F89E000D111D1124D8011E968C911E9780FF41C01F9634
S28400AD009C911F97292F2F702430D1F5282F2A7F2230B1F5907F79F1916090511F969C938E7F823071F4C80140960E94EF36F801238134814581568160E0C8010E94333F1FC08630E9F480913F178E7F80933F1780913E1780933D1780914217815080934217E0915017F0915117BF01808191810E94F63605C040E067EAC8010E94C74848
S28400AD80F394A1CF80910105882309F429C1A9C1F70181850E944B349B01AC01A0911515F801878582958F70A81BC40102C0880F991FAA95E2F7DC010E9462F36B017C0100915017109151170E9428F49170C80ED91EE11CF11CD8011396CD92DD92ED92FC921697E0915017F09151178785807F826087878091501790915117FC012381F9
S28400AE0034814581568160E00E94333FC5CCD8015A96ED90FC905B97BFE3CB16B4E0DB0651F0F70180818370813029F0D80193968C918823D1F1F7014081642F607446FF11C05091511620914E1630E08091521690E0850F911D821793073CF580914F16581718F5842F8C708430F9F0662331F0842F83708230C9F043FD17C0C8010E94AA
S28400AE80BB43811112C0D7018C9185FF09C0B80188ED94E00E94872F82E00E947B3308C06FEAC80191DA882319F0C8010E945036F801848D8983858D8A83BE016F5F7F4F8BE30E94472ED4CDF80186898087958A848AC80106960E94DEB68FE195E00E944B2F5CCEC8010E946133882359F08091521790915317892B09F4EFC0F80183A5D2
S28400AF0082FFEBC0D80197968D919C9198978335910520F09B968C9183FFE1C0F80136A0332031F0832D0E94D44C892B09F44FC0D8019B968C919B9756962C915697382F347082FF0CC0223041F457968D919C915897883F9F4FD8F502C02130C1F18EEF820F823030F4F80181A1815F8E3078F163C0211161C0332309F45EC0D8019496B0
S28400AF806D907C9095970E9447697C01009719F080E090E00BC0B0922106A09220060E942C304AC0FC012385213089F09701432DB3010E9451470097A9F73EC0813008F449C0823009F473C0833009F45FC026EABDCD40E050E0622FC8010E949441DECD0091A9041091AA04D80112968C91853C41F08DE694E490932106809320060E94B0
S28400B0004430D80113968D919C9114978D7F14969C938E931397892B09F063C080E00E94884B80E196E09093A4048093A30460E0C8010E94E43B55C0F8018689813009F0BDCF80E00E94CA353C01A8EBEA2EA4E4FA2E0DC0C8010E946133882371F083E00E94CA353C01B1E9EB2EB8E4FB2E6114710409F4BACD20E06DCDD8019B968C9118
S28400B08082FF02C081E0ECCF80E0EACFC80149960E94E4B6009709F458CDFC0180819181D80158969C938E93579756964C92C8010E946133882311F083E007C0F80183A582FF02C081E001C080E00E94CA353C01F6EFEF2EF6E3FF2ECACF2AEA37CD20EA35CD2696E2E10C9484F38F929F92AF92BF92DF92EF92FF920F931F93CF93DF93D4
S28400B100CDB7DEB7A8970FB6F894DEBF0FBECDBF8C01DC011296ED91FC911397E28CF38C009709F499C1EF2B09F496C1D8011296ED91FC911397918D953008F48AC1D70113968C91843048F4823008F0FDC0882351F0813009F466C07CC1843021F0853009F460C076C1943209F073C1E28CF38CF801248135814681578161E1C7014C963C
S28400B1807CD8D82E882309F464C15701F4E1AF0EB11C0E94476948E050E0B5010E943FF4892BE9F5D70113968C9113978B875C968C915C9789835D968C915D978A835E968C915E978B835F968C915F978C8390968C9190978D8391968C9191978E8392968C9192978F8393968C918887D8011296ED91FC911397858996899A8789871496F7
S28400B2004D915D916D917C9117974DA35EA36FA378A780E1F7013496DE011C966BC043E65DE38BC0953209F014C1E28CF38CF801248135814681578160E1C7014D961DD8D82E882309F405C15701F5E1AF0EB11CF50180E09191911105C08F5F8830D1F790E001C09D2D81E08927D70113969C91953089F4D8011296ED91FC91139793A15A
S28400B280911106C014969C91915B923008F0E1C08823D9F1DEC08823C1F1F70183818B87858D8983868D8A83878D8B8380A18C8381A18D8382A18E8383A18F8384A18887D8011296ED91FC911397858996899A87898714964D915D916D917C9117974DA35EA36FA378A7F70184898C8780E13496DE011D9601900D928A95E1F7CE0101969E
S28400B3000E947ECBCE010196A1C00E94476948E050E0BC01C5010E943FF4892B09F4BDCFD70113968C91813009F093C0F80184818F3A09F48EC048E75DE3B501C80102960E945543D82E91C082A1882309F481C083A1811107C0D80114968C91815B823008F077C0F80124813581468157816FE0808191810E943D51D82E882309F469C0D1
S28400B380D80112968D909C901397F401818D8D3109F05FC0E28CF38CED91FC91CE0101965C01309789F07081618152814381348125819681878179836A835B834C833D832E839F83888705C088E0D5011D928A95E9F7F401858996899A878987D70113968C918B8780E1F7013496DE01559601900D928A95E1F7F70184898D8785898E87E0
S28400B40086898F878789888B808D898B818D8A8B828D8B8B838D8C8B848D882319F081E08C8701C01C86D80114964D915D916D917C9117974DA35EA36FA378A7C5010E947ECBF701848D882381F0C5010E942A3B0CC0DD24D39409C088E096E490932106809320060E94443061CE8D2DA8960FB6F894DEBF0FBECDBFDF91CF911F910F9180
S28400B480FF90EF90DF90BF90AF909F908F9008954091F9045091FA0441155105A1F077FD12C0E091FB04F091FC046E177F0758F49BE2969F9001979F300D1124240F351F255E3F4F02C020E030E0C9010895A3E0B0E0EDE6FAE50C9476F38B016115710521F46BEF7FEF80E018C00E94673669837A838B8377FD0EC0CBDF20E1F801DC01C9
S28400B50001900D922A95E1F7BE016F5F7F4F85E10E94472E69817A818B812396E4E00C9492F3A0E0B0E0E7E9FAE50C9471F3EC01F62E89AD9AAD0E94F5506B01E82E09851A8577FF17C08DAD9EAD892B41F48DE695E490932106809320060E944430EDADFEAD62E0CE011995C8010E94FD94BB24B3944CC01DA98E2DB6010E94B334212F2A
S28400B58030E0F901EC5EFA4EB484882321F0B5FABB24B0F803C0B6FABB24B0F8B11002C0B12C34C0E985FA85E45AFF4F00811181FD86F110F5CF8EA98C8B8E2DB60168DF9B8B8A8BC6010E94C6426D8B7E8B8F8B988F0E945E95898F8FA98A8F0E9447699C8F8B8FC8010E946C418F8F88AD88A31E8F0D8F26E03DE33BA32AA3F80180812A
S28400B60080628083CE010E960E948FA78B2DCDB7DEB7E9E00C948DF3EF92FF920F931F93CF93DF938C01DC011396CD91DC911497E984FA842097D9F08DAD9EAD892BB9F0E114F104A1F08D8581110BC0EDADFEADD80112966C91CE011995C7010E94FD940FC060E0CE015DDF882381F309C08AE695E490932106809320060E944430E3CF70
S28400B680CDB7DEB7E6E00C9490F3A1E0B0E0EBE4FBE50C9472F38C0109501109D8011996ED90FC901A97DB962D913C91DC97232B09F472C0FC0184A995A9892B09F46CC0D9968D919C91DA97892B09F465C0C701845A9F4F6C01E114F10409F466C0DC018D919C91892B09F460C0F60180819181D801D596EC91D597F0E0EC5EFA4E2485C1
