S02B0000416C6C5F4D65676152665F41746D656761323536726672325F384D687A5F4763632F4578652F417000
S2840000000C9480260C94DFEE0C940BEF0C9437EF0C9463EF0C948FEF0C94BBEF0C94E7EF0C9413F00C94BD260C94BD260C94BD260C94BD260C94F0EA0C94BD260C9446EB0C94BD260C94BD260C94BD260C94BD260C94BD260C94BD260C94BD260C94BD260C943EF10C94A9ED0C944CED0C947BED0C94BD260C94CFF00C94A6F00C94BD2682
S2840000800C94BD260C94BD260C94BD260C94BD260C9443EE0C94E6ED0C9415EE0C943FF00C94BD260C94BD260C94EDDC0C9450DF0C94BD260C94BD260C94BD260C94BD260C94BD260C94BD260C94BD260C94BD260C94BD260C94BD260C94BD260C94BD260C94BD260C94BD260C94BD260C94BD260C94ACDF0C94BD260C94BD260C94D4DF47
S2840001000C94BD260C94BD260C94BD260C94BD260C94BD260C94BD260C94BD260C94FCDF0C94BD260C94BD260C94BD260C94BD260C94BD2600000000000000000000000000000000000000000000000000000000000000000000000000000000000000000000000000000000000000000000000000000000000000000000000000000000DB
S2840001800000000000000000000000000000000000000000000000000000000000000000000000000000000000000000000000000000000000000000000000000000000000000000000000000000000000000000000000000000000000000000000000000000000000000000000000000000000000000000000000000000000000000000FA
S284000200000000000000000000000000000000000000000000000000000000000000000000000000000000000000000000000000000000000000000000000000000000000000000000000000000000000000000000000000000000000000000000000000000000000000000000000000000000000000000000000000000000000000000079
S2840002800000000000000000000000000000000000000000000000000000000000000000000000000000000000000000000000000000000000000000000000000000000000000000000000000000000000000000000000000000000000000000000000000000000000000000000000000000000000000000000000000000000000000000F9
S284000300000000000000000000000000000000000000000000000000000000000000000000000000000000000000000000000000000000000000000000000000000000000000000000000000000000000000000000000000000000000000000000000000000000000000000000000000000000000000000000000000000000000000000078
S2840044005E0E16001900510C030018008D07BD001700B31201001600671308001500F41201001400EB1202001300571301002600FA1201001E00EA1201000F00711301000E005B1301000D00631302000C00B41201000B00AE1202000A00D11211000900C71201000800C61201000700C51201000600581301000500611301000400591231
S28400448004000300E21208000200AC1201000100911208000000704712002E00944715002D00BE4719002C00F04704002A00F84711002900704F954EAE4FAE4FAE4F9A4EA44EAE4FAE4FAC4EB14ED94EE24EAE4FE74EEF4EF94EAE4F024F074FAE4F104F4B4F5D4FAE4F504F584F704F704F704F674F674F674F674F674F674F674F674F22
S284004500674F674F674F674F674F674F674F674F674F234F674FAE4FAE4FAE4FAE4FAE4FAE4FAE4FAE4FAE4FAE4FAE4FAE4FAE4FAE4F674F624F704F674F1D4F724F704F894F974F9E4F704F704F704F0A5177504C514C514C517D50825020514C518550885099509E504C51A150A450A7504C51AC50AF502051B450FE5013514C510151D1
S28400458004517B500751075120512051205120512051205120512051205120512051205120512051205120512051E45020514C514C514C514C514C514C514C514C514C514C514C514C514C514C512051165119512051DC50285131512B512E514C513F5144514A51515253525E525552575259525B5230526152635230526652BB52BE5217
S284004600C252C552C952CD52D052D452D45216575457545754571D573A572B5732576557245741574157485754575C576057C057C357C657C657C857D257CC57CF57DF57CA57D557D757D957DC57C859CB59EC59CE59D259EC59D659EC59E159E459EA59535D005E0F5E0E5D565E565E0B5E0F5E145E425E2B5E565E565E425E415D445E63
S284004680489650966796D996D99630963D96D996D996D99687969696B396BF96D9962D965B96F995C69AC69AEF99F799F799049A049A219A219A219A7F9A7F9A7F9A1A9BC69AA7A8F9A8CDA8D1A8D1A8D1A8D1A8D1A8D5A8D5A844BB47BBE8BBE8BB4CBBE8BB56BB3FBC3FBC3FBC3FBC3FBC3FBC3FBC3FBC3FBCE8BBE8BB3FBC3FBB51BB8B
S284004700E8BB95C6E3C6E3C6E3C6E3C6E3C6D2C6BCC6DAC6E3C6CCC6E3C6D6C6DEC6B8C893C971CA9CCADBCA07CC50CC73D273D273D273D273D273D273D273D273D287CB95CB73D273D2BCCB52CA6AD472D484D48DD48FD491D493D496D469D5E1D5E1D58FD598D5A8D5B1D5B4D5B7D5BAD5C0D50000010002000300040005000600070005
S284004780080009000A000B000C000D000E000F001E00180000000100020003000400050006000700080009000A000B000C000D000E000F001E00130014001500160000000100020003000400050006000700080009000A000B000C000D000E000F001E0013001400150016001700180019002600130014001500160000000100020003008C
S2840048000400050006000700080009000A000B000C000D000E000F001E00F60500008D070000E70600004A080000810700000000000074080000DE0D0000360E0000880B0000DA0B0000A40B0000110C0000540C0000980D00000000000000000000510C00005E0E0000000000000000000000000000000000000000000000000000000090
S284004880000000000000000000000000000000000000000000000000000000000000740E00009C0E00007B0600006A4A02006E4A0100714A01006F4A0200744A0100754A0100764A0100774A0100784A0100794A01007A4A0200724A02007C4A01007D4A0100964A0200874A0100884A0100894A0100924A04007E4A01007F4A0400834AE6
S2840049000100844A01008E4A01008F4A0100904A0200000000000000000000000000000000000000000000000000000000000000000000000000000000000000000000000000854A0100864A0100984A0100994A01009A4A01009B4A0100000000008A4A04006C4A0200911208009B120100A8120400AC1201005F130100601301006713D9
S284004980080063130200EB120200F41201005B1301007113010061130100B0120100B1120100B2120100B3120100AE120200B4120100B51201005D1301005C1301006C1201006D120100E212080059120400C8120400BD120400C1120400C5120100C6120100C7120100D112110058130100CC120100CD120400571201006E120200EA12F8
S284004A000100AD1201000000000000000000581201000000000000000000000000000000000000000000000000000000000000000000000000000000000000000000B6120500BB120100BC120100000000000000000000000000000000000000000000000000000000009C12010085006C0001000007050007040205040204000308FF14B4
S284004A800000000108030303020A901A00000100000000000203141061620003001E000003013412000303000002000000000003031027000010270000000001E803000004E80300001041746D656C2020202020202020202020FECAAAAAAAAAAA1A000203010080000000000000000000000000000000000005FF00000000000000000019
S284004B000000000000000000000000000000000000000000000000000000000000000000000000000000000000000000000000000000000000000000000000000000000000000000000000000000000000000000000000000000000000000000000000000000000000000202010002020508080000FFFF34120000000000000000020201C9
S284004B8040409F45000000000000000000000000028A7C68770107CA971E720101CA971E720101497C738F0101CE7BD29E0101CE7BA19E0107837B0E7201012B7BF28401010000000001070000000001010000000001030000086A01040000086A010500000000010600000000010D000000000101CA970000000100000000010E00000040
S284004C0000010700000000010A0000000001000000000001010000000001010000000000000000F57500090000F575000C0000F57500000000F575008C785E7E89952FA89574BF9BA179477A1B73048149872E76FB9E28799A738972000000005372CC8000000000BD67CD6A536828684C680000C467D2674168CB67C36A7B67BF69C6696E
S284004C80356AB7695A6800001D6B02010203030202010101010101010101020201010102010202020202020102020202020201030302020384A6B09C6795E39D0000E6A4668E7FA90000000042B6DCBA67C4ADBD83D246C35FE15FE15FE15FE1D1E298E0C4F1C1EA01DE3FDD5CE9F6EB00E98DE708E660E1B2E2DEE3F1E1B0E2DCE3EFE1C4
S284004D0011248091D417823159F084B780FD04C08F718093D41707C081E08093D41703C081E18093D41714BE809160008861809360001092600011241FBECFEFD1E8DEBFCDBF00E00CBF13E0A0E0B2E0EAE1F8EE01E00BBF02C007900D92A230B107D9F727E1A2E0B3E001C01D92A43DB207E1F70E9405310E941B31FDCF0C9400007F934A
S284004D807FB7F8949D9AA5988AEF4DD08AEF4BD09D9886E448D081E0959980E08F9380EF42D08F917FBF7F9108957F937FB7F8949D9AA59886E037D09D988AE034D0889495990894881F8F9384E62DD08F917FBF7F9108959F937F9398E0E7DF879577959A959923D1F7872F7F919F9108957F937FB7F894A5989D9A8F9386E014D08F91BD
S284004E00879508F49D988F9384E60DD08F919D987FBF7F9108959F9398E0E9DF9A959923E1F79F91089500000000000000008A958823C9F708955F937F937FB7F894CF93DF93C0E0D0E07F935091B2007091B2007517E1F3739521965091B2005717D9F77F91CE01DF91CF917FBF7F915F9108956B980895FC018785811112C062E073E0B0
S284004E8081E290E00E94403280910203823021F46FE087E992E0D6D181E00E94653104C069E087EA92E0CED12FB7F89480918D0490918E04906190938E0480938D042FBF0895E0E9F0E0808182608083A1E9B0E08C9188618C9380818E7F80838C9182608C9380E29EE49093970080939600808180688083089580913E03813051F018F044
S284004F008230A9F008956FD1DCDF0E947D3181E031C08AE397E290932E0380932D0387E193E00E948EC382E080933E03089581E090E090930F0380930E0390930D0380930C0380930B0380911003807F8160809310038BE093E090930703809306038BED97E2909309038093080383E093E00E94294185E080933E032FB7F89480918D042B
S284004F8090918E04906190938E0480938D042FBF0895A0E0B0E08093370390933803A0933903B0933A0381E080933B0381E393E00C94E6E00895CF93DF93EC0180E00E9487316CA18EA19FA13DD162E08EEA92E039D1EEA1FFA1828190E0C097218130E0205331096AE0629FA001639F500D1124840F951F208130E02053310964E6629FEB
S284005000A001639F500D1124840F951F48EE53E0849F9001859F300D949F300D112421368AEE380728F43093300320932F0306C088E893E19093300380932F0380912F03909130038133954730F088E893E19093300380932F0380ED97E090939900809398006B9A64E081EB92E0ECD084E498E290933D0380933C0380912F039091300320
S28400508088DFDF91CF91089588E795E090939900809398006B9A88E397E290933D0380933C0366E086EB92E0CDD08EE398E071CF08950895089508950895CF92DF92FF920F931F93CF93DF93E42FF0E0F0903B042AEF30E02F1931092E173F0734F150913A0420E030E0EC01C60FD11D0AEF10E02E173F07ACF4852F90E0BC01615C7C4F0A
S2840051006B01BE01620F731FDB015C91D6015C932F5F3F4F0196B8010E948CF2582FE8CF50933A04F40EF0923B04DF91CF911F910F91FF90DF90CF9008951F93CF93DF9310926E0410926F0410913B04112309F446C080913904ECE3F4E01333E0F4212F30E0CAEFD0E0AF014C535440421753075CF490E0DC01A15CBC4F4C914193019688
S284005180BE010E948CF2EFCF8093390410936E0410923B0418C02AEF30E090E0DC01A15CBC4F4C9141930196B9010E948CF294E0EE36F90791F78093390482E380936E04125310933B0481E080936F0440916E0450E06CE374E088E695E00E9447E4DF91CF911F91089588EC809373051092740589E190E0909376058093750586E080934C
S284005200770510927805109279051092880510927D0510927C0510927F0510927E05109281051092800510928305109282058DE998E2909387058093860588E695E00C94E8E30895462F20916F04222319F060E034CF0895FC01ACE3B4E0633370F4862F90E09D012C533440281739071CF421912D93F7CF40936E040CC021912D9324E0FE
S284005280AE36B207D1F722E320936E04425362E314DF81E080936F0440916E0450E06CE374E088E695E00C9447E40895A2E0B0E0ECE5F9E20C9410F36C010091BD051091BE05E12CF12C8091C1059091C205E816F906A8F45801B8016C5F7F4F42E050E0CE0101960E94D6F30A5F1F4F29813A812C153D0539F08FEFE81AF80AE4CF80E0B3
S28400530090E001C0C5012296EAE00C942CF3ADE0B0E0EDE8F9E20C9412F37C016B0123E0969587952A95E1F7FC01E354FA4F228D30E0B70167707727062E02C0369527950A94E2F78E010F5F1F4F20FF42C027E0E7EDF5E0D80101900D922A95E1F7A0E020E030E04A2F50E048175907D8F4F801E40FF51F4081542F569555754575540FA1
S284005380452F4695469543735373450F4083E42FEF7042954F7050E04E0F511D240F351FAF5FE0CFE0E0D801A80FB91F4E2F50E04617570780F44C9150E00E2E02C0569547950A94E2F741705527240F351FEF5FEDCF2FEF3FEF1B870A8746E0429FC001439F900D112404969987888786E090E09D878C8769E37BE2CE01089672D18D8161
S2840054009E81E816F90639F084E090EA9093F1058093F005E1D589819A81F601918380832D96E8E00C942EF3A6E0B0E0EAE1FAE20C9414F37C018B0180E090E0FC0133E0F695E7953A95E1F7EE0DFF1D6081AC0147705527262F30E0042E02C0369527950A94E2F720FF0DC021E030E001C0220F4A95EAF720952623208318DF009731F481
S28400548031C0019683339105C9F62CC046E050E0BC01CE0101960E94D6F389819A81F80193838283B8018D819E8131DFF801808191810596918380838B819C819583848382819381892B39F480E090EA9093F1058093F00581D58D819E81F7019087878381E006C08FEF9FEFF7019087878380E02696E6E00C9430F3A8E0B0E0E2E8FAE2D1
S2840055000C940EF37C01A090BF05B090C005FC01868182FD09C000E010E0812C76E0972ECC24C394D12C0CC047E050E06FEF70E0C7010E9406F46DC0882483940F5F1F4F8091C3059091C4050817190708F05BC0909EB001919E700D11246A0D7B1D46E050E0CE0101960E94D6F32D813E81F90163E0F695E7956A95E1F7EE0DFF1D40817B
S28400558027703327842F90E0022E02C0969587950A94E2F780FFD2CFC60102C0880F991F2A95E2F79C01209524232083812C882D90E02B813C818217930708F0BDCF880F991F69817A81680F791F42E050E0CE0107960E94D6F38F819885FC0153E0F695E7955A95E1F7EE0DFF1D87709927960102C0220F331F8A95E2F7C9019081982B4D
S28400560090838394D4CF882021F000E010E0812C97CF2896ECE00C942AF3CF93DF93EC018FEF9FEF98878F8387E0FB01DE0101900D928A95E1F7CE015FDFE7EDF5E0919188818923899385E0EE3DF807C1F7DF91CF9108958091EB059091EC05A7C208951092E8058AE29BE29093EA058093E90508950895E0EDF5E0DC013D91CD01208117
S284005680232B2193B5E0E73DFB07B1F78091ED0584608093ED0508950E9486E7882311F0DFD5FACF0895A2E0B0E0E9E5FBE20C9416F38B0189839A83EFDFB80189819A810E94A9E6019631F08BE20933180721F4E3DF02C081E001C080E02296E4E00C9432F3A2E0B0E0E7E7FBE20C9416F38B0189839A83D1DFB80189819A810E9436E6A7
S284005700019631F08BE20933180721F4C5DF02C081E001C080E02296E4E00C9432F3A2E1B0E0E5E9FBE20C940BF38091ED05982F92609093ED0582FF0AC060ED75E080E794E06BDF8091ED058B7F8093ED05CC24C394D12C7E013DE0E30EF11C55E0A52EB12C4E0182E1880E911CBE01695F7F4F80E794E059DE882309F462C060907704C1
S28400578070907804F30163E0F695E7956A95E1F7E354FA4FC30187709927960102C0220F331F8A95E2F7C901809593898923838BFC82EB82BE82AD828F81988505979A83898369E37BE2CE0101968BDF4B855C8569857A8580E05ED0582E8D8558123AC08889998968167906A9F52B853C858E859F852817390771F59C828B82DE82CD826D
S28400580000E010E02B853C850217130708F0ADCF2F813885200F311F3A83298369E37BE2CE0101965EDFAB81BC81E985FA85E00FF11F9C91808198130DC00F5F1F4FE2CF8091ED058D7F8093ED0560E070E08FE001D21CC05D86798A688A8B859C859F878E87FC82EB8285E090E09E838D838F81988505979A8389836FE87BE2CE01079609
S28400588012DF69E37BE2CE0101960DDF6296EFE00C9427F3FB01460F571FE417F50719F09191890FFACF08954F925F927F928F929F92AF92BF92CF92DF92EF92FF920F931F93CF93DF93CDB7DEB762970FB6F894DEBF0FBECDBF80E094E49093BE058093BD0586E994E49093C0058093BF0506E914E400501444C80166E070E00E9478F2F0
S284005900892B39F080E290EA9093F1058093F00563D326E030E0C801B9010E9478F24091C1055091C205642B752B7093C2056093C10504EB14E406591444C801B9010E9478F2892B39F081E290EA9093F1058093F00542D3C80166E070E00E9478F28091C3059091C405682B792B7093C4056093C3050091BD051091BE051092C5051092AE
S284005980C6051092C7051092C80587E0E7EDF5E0DF011D928A95E9F7D12CEE24E394F12C8091C1059091C2052D2D30E028173907C8F546E050E0B801CE0101960E94D6F32B813C812B5F3F4F8091C5059091C605A091C705B091C805820F931FA11DB11D8093C5059093C605A093C705B093C8058D819E81FC0133E0F695E7953A95E1F78D
S284005A00E354FA4F87709927970102C0220F331F8A95E2F7C901928D982B928F0A5F1F4FD394BECF26E0289F6001299FD00C112434E0C30ED11CE12CF12CCE010796988B8F8786E090E09A8B898BA12CB12C00E010E096E0792E22E2822E20EA922EF80183E0F695E7958A95E1F7E354FA4F828D90E098012770332702C0969587952A9506
S284005A80E2F780FF41C07A9CC0017B9C900D112404969E878D8769E37BE2CE010D9621DE8B859C858017910749F48F819885A985BA858C159D05AE05BF0559F01C870B87CF82D886E986FA8669E37BE2CE010D96EADDC801EBDB2C01009729F49092F1058092F00579D246E050E0B201CE0101960E94D6F38B819C810596C80ED91EE11C6A
S284005B00F11C8FEFA81AB80A0F5F1F4F0333110509F0A5CFA5DD62960FB6F894DEBF0FBECDBFDF91CF911F910F91FF90EF90DF90CF90BF90AF909F908F907F905F904F90089520E0FC013191CF01311105C02F5F2730C1F780E0089581E0089527E0FB0111922A95E9F7FC0123E0F695E7952A95E1F7E60FF71F8770992721E030E001C0C4
S284005B80220F8A95EAF78081822B8083CB01B4CC0895A7EDB5E0FC013D9120812323219325E0AE3DB207C1F7CCCF0895A7E0B0E0ECEDFDE20C9417F3BE016F5F7F4FCEDFCE010196E6DFCE010196BBDF182F882339F0CE0101964EDD8091ED0581FF9FDD812F2796E3E00C9433F308950895A2E0B0E0EDEFFDE20C9418F380917904882375
S284005C00E9F0BE016F5F7F4F81E290E039D4BE016E5F7F4F8DE190E033D48981823071F48A8181110BC086EF9DE290938204809381048AE794E00E9435C002C00E9454DE2296E2E00C9434F38091790408950C9485E90895A0E0B0E0E0E3FEE20C9410F3B82E7B01082F10E093E0169507959A95E1F78770C1E0D0E001C0CC0F8A95EAF761
S284005C80AC2E8FE38B1538F484E090E89093F1058093F005A1D1F801ED57FB4F80818C2311F1C0918B04D0918C0485E0C82E80E8D82E2097C1F0FE01E00FF11F82818A2171F02A853B85232B29F4D092F105C092F00582D1EA85FB85B7018B2D19950990D881C02DE6CFCDB7DEB7EAE00C942CF3E82FF0E023E0F695E7952A95E1F7ED57F5
S284005D00FB4F208130E0877041E050E002C0440F551F8A95E2F72423352381E0232B09F480E00895282F30E043E0369527954A95E1F7620F731F877021E030E001C0220F8A95EAF7FB019281922381E009F480E008951F93CF93DF93182FEB01803438F023E030E83093F1052093F00535D1BE01812FD8DF81112AC0BE018BE894E09AD065
S284005D8081110BC088E0FE013296DF011D928A95E9F7BE018BE894E09DD0412F50E063E0569547956A95E1F7177021E030E001C0220F1A95EAF7C40FD51F8A81822B8A83FA01ED57FB4F8081822B8083DF91CF911F9108951F93CF93DF93182FEB01803438F023E030E83093F1052093F005F4D0BE01812F97DF882369F1212F30E073E081
S284005E00369527957A95E1F7177041E050E0012E01C0440F0A94EAF7942F9095C20FD31F8A8189238A83E0918B04F0918C04309759F0DF01A20FB31F12968C91842351F40190F081E02DF3CFF901ED57FB4F808189238083DF91CF911F910895DC01ED91FC911197309721F0208131812D933C93CF01089561157105A1F0DC01ED91FC912F
S284005E801197E617F70759F4208131812D933C930FC0808191818617970729F0FC013097C1F780E00895DB018D919C919183808381E00895DC01ED91FC91309739F0E617F70731F00190F081E02DF7CF80E0089581E008950F931F93CF93DF938C01EB01E9DF882349F080E090E89093F1058093F0055AD080E014C019821882D801ED91EC
S284005F00FC911197309719F4CD93DC9308C080819181009711F0FC01FACFD183C08381E0DF91CF911F910F910895CF93DF93FC0182819381009781F40E9438E1C22FD32F0E94515144E0FC0121913191CF01C227D3274150C1F7CE010E94CBF381E0809306028EE092E00E94E6E0DF91CF91089580E092E00C94C251089580910602882399
S284005F8069F08EE092E00E9416E185E99FE290930D0280930C0210920602EACF08958EE092E00C9416E1089582E090E09093F3058093F2058091F0059091F1059093F5058093F405E091EE05F091EF05309719F082EF95E01995089583E090E09093F3058093F2058091F0059091F1059093F5058093F405E091EE05F091EF05309719F076
S28400600082EF95E019950895EF920F93FC01618372834F3740F081E090E89093F1058093F005C2DF20C0403808F04FE7440F808181700187842BE0FA80F9808334832383CB01AC016081669504962181328174E0679F200D311D11244217530720F4DC0111971C92EECF0F91EF900895A0E0B0E0ECE3F0E30C9411F3EC018B01B42E0E94D7
S28400608038E169017A018D819E81AF81B885A7019601281B390B4A0B5B0BCA01B9012B813C8140E050E00E949FF22F3F31054105510518F42223F9F001C02FEF89819A81BC0138813695049649815A81E4E03E9F400D511D11246417750748F4FC013291432F231708F4422F341B3083E9CFCD82DE82EF82F886A981BA814881842F869522
S2840061009D0154E0859F200D311D1124C901E0E0F0E0A817B907C0F413965C911397552359F02D913C9111972017310729F412962C9112972B15C1F0309719F02381521708F4FD011496E5CF40FD06C0309771F0838181110BC002C0309751F011830083B2828985838304C080E003C082E001C081E0CDB7DEB7E9E00C942DF3FECE0895C8
S2840061800895CF93DF9360911B0270911C0280E090E0E1E0F0E09F01082E02C0220F331F0A94E2F740918D0450918E044623572342235323452B11F16FB7F89440918D0450918E04209530952423352330938E0420938D046FBFFC01EE0FFF1FE354FD4FC081D181209739F486E090E89093F1058093F005F1DEFE01199504C001968E30F7
S284006200910549F6DF91CF9108950E94DFDE0E9493B0882371F02FB7F89480918D0490918E04806190938E0480938D042FBF81E0089582E00895A5DF60E070E08BE20ADD80918D0490918E04892B09F4D0DC20918D0430918E0481E0232B09F480E0089590CF0895FC012081211105C021E02193CF010C94E6E00895FC012081213021F426
S2840062801192CF010C9416E10895A5E0B0E0EBE4F1E30C9414F37C012A833B834C835D836983EADFF7011082698163872A813B814C815D812783308741875287158704872596E6E00C9430F30895813031F018F0823029F008952F9A08952E9A08952C9A0895813031F018F0823029F008952F9808952E9808952C980895279A269A249AB4
S2840063002F9881E0EEDF82E0ECDF80E00895813039F018F0823039F0089585B1805806C085B190E402C085B190E1892785B9089588E3E0E7F2E1DF011D928A95E9F7E1E9F2E185E080839AE0918312821382148291E095831682178280939B1247E850E069EF7AE48BEE92E10E94D6F347E150E062EE7AE489E592E10E94D6F343E050E0BD
S2840063806FED7AE486E592E10E94D6F343E450E06CE97AE488EA92E10E94D6F380E69CE0E6EFF5E0DF019C011D9221503040E1F70895A4E0B0E0EFEDF1E30C9418F3BC011A8219821C821B828827811521E0920769F0811522E09207B9F0892BE9F4660F771F660F771F6A59764B07C07727660F771F660F771F6655774B44E050E0CE0137
S28400640001960E94D6F30FC07727660F771F660F771F665E774BF1CF8AE090E69093F1058093F005D9DD69817A818B819C812496E2E00C9434F37CDF37CA0895A4E0B0E0E4E2F2E30C9414F37C018B01B2DFEE24E11422E0F20669F026E030E63093F1052093F00569837A838B839C83B5DD7A816981F801718360832496E6E00C9430F3E4
S284006480A4E0B0E0E6E4F2E30C9414F38C017B0190DFE114F10479F420E030E63093F1052093F00569837A838B839C8395DD9C818B817A81698100270115110549F0011521E0120751F4AC01C7010E94D6F30CC0AC01C7010E94ECF307C081E090E69093F1058093F00578DD2496E6E00C9430F3A0E0B0E0EEE7F2E30C9412F38C01EB018F
S28400650058DF6B017C01209739F484E090E69093F1058093F00560DD00270115110539F085E090E69093F1058093F00555DDA701BE01C6010E94ECF3CDB7DEB7E8E00C942EF3FC0193A5892F887090FF09C0882379F081E027A130A52236310550F408C0882331F081E027A130A52436310508F480E08170089521E030E001C0220F8A9590
S284006580EAF780919204822B809392042FB7F89480918D0490918E04806290938E0480938D042FBF0895CF93DF93E0917713F09178138E179F0718F482E894E446C08E1B9F0B6CE670E00E9478F280917213681718F083E894E439C08CE6689FE00DF11D11248781869590E08230910559F014F00397D1F5809176138823B1F1815080931B
S284006600761332C080917513882319F0815080937513DF01AC5ABF4FCD91DC9120917A1330917B13CE01821B930B63E270E00E9478F2C217D30718F484E894E406C080917313681740F085E894E49093F1058093F005AADC0CC0D90183E2689FA00DB11D11248C9181111C9287818E7F8783DF91CF910895CF93DF93EC011EA28CA19DA118
S284006680892B39F484E494E49093F1058093F005A3DCECA1FDA1CE0186961995DF91CF910895EF92FF920F931F93CF93DF93A0917213409177135091781320E030E090E09A1709F45AC0FA01E20FF31FB90164597F4FB781B0FD63C07F0194E5E90EF11CD7011D921C928230B1F010F08330F1F59091761340917413941708F03EC09F5FFA
S28400670090937613138214821582168290859F709087128235C01091751390917313191760F50091791340917A1350917B1390E09017B9F0EA014D5D5F4FBA0163527109DB016C9161110BC01F5F1093751341E048836896D701CD93DC93428302C09F5FE7CF4091791349130BC007C081E894E49093F1058093F0052FDC80E090E012C099
S2840067809085907F9087880F81608783118210828091771390917813820F931F03C09F5F9B018ECFCDB7DEB7E6E00C9430F32091A30421502093A304BC018DEB94E08ADB81E0D9CE0F931F93CF93DF938C01C0919304D091940480918F049091900480519140813F954048F4B80183E994E072DBCD2B59F480E0BFDE08C083E694E490933D
S284006800F1058093F005E8DBEFCFDF91CF911F910F910895BC016F5071098FEB94E05ADB81E0A9CEBC016351710981EC94E052DB81E0A1CE2091A3042F5F2093A3040C942A916F927F929F92AF92BF92CF92DF92EF92FF920F931F93CF93DF931F92CDB7DEB78C017B01FB01E25AFF4F87ED93E3918380833E9782E08083D80157968D9129
S2840068809C9158973196918380839C968C919C97379680833196108231969B968C919B978095881F8827881F8083319681E08083319680839B968C919B9786FD0BC021E057968D919C915897883F9F4F08F020E0822F01C081E0F701E35AFF4F81708083C8012FDEF701ED5AFF4F6F0197012C5A3F4F3901882309F442C090902414409124
S2840069002514242F30E08091281490E001972817390739F4D80197968C91499D80191124982EA92CB12CC5014E968236910538F081E594E49093F1058093F0054DDB309124142091251480913A1490913B14F80161A572A5329F600D711D1124A5014E960E94ECF38AE0890DD6018C9380913A1490913B144496F301918380830EC0D801BA
S28400698097968C919797885F808399968D919C919A970897D9018D939C93F301C080D180D6012C912C7F2F7E2C93F8018789908D237F883F9F4F10F02860D6012C93F60180818F7D8083D8019B969C9192FD03C08F7B808322C08064F6018083D70118962C911897207F216018962C93C8012983A8DD29812F70882341F080912A14829591
S284006A00807F822BF701808708C0809157128295807F822BD70118968C93C80192DDF60190818823A1F0906890839091251480858C7F911106C08160808780912814818709C08260808780912514818703C09F77F6019083D80191968C919197F601818394968D919C9195979383828392968D919C9193979583848396968C918683C8016C
S284006A8060DD882331F080912914D60117968C9308C08091BA0491E0980F9093BA04F6018783C7010996C6DE80E00F90DF91CF911F910F91FF90EF90DF90CF90BF90AF909F907F906F900895E0913814F0913914BF0180819181B5CEE7E1F4E1F093E813E093E71392E09093E31320918A1330918B133093E5132093E4139BE09093E613FB
S284006B001092EB131092EC1391E09093ED139093EE131092EF1325ED37E33093F2132093F1139093F01390819078926090689083909191139093181420918D1330918E1330931A142093191420918F133091901330931C1420931B1490918C1390931D149091921390931E1492E090931F1490918813909320149091891390932114909128
S284006B802214909300141092831310928413109285131092861380937C138CE993E14ACEA4E0B0E0E6EDF5E30C9416F3182FBE016F5F7F4F8AE190E063DC2091A8043091A9044091AA045091AB04A12FB0E00E94F8F209811A812B813C81600F711F821F931F2496E4E00C9432F30F931F93CF93DF93EC018C0107551109FC013C97019014
S284006C00F081E02D6FEF818192810E944D88882361F0FE01329787ED93E39183808323971882C8010E941A9102C0CE01C0DDDF91CF911F910F91089569E773E180E191E01FDC6AE773E18EE092E0F8DB80917A1390917B1320E030917913231748F4FC0133E2239FE00DF11D112410822F5FF3CF62E773E18FE091E003DC67E773E18DE063
S284006C8092E0DCDB20917213E0917713F091781380E0821739F097819E7F97838F5FE459FF4FF7CF9091791390937313823008F0815080937413109275131092761364E274E188E291E0DCDB62E873E189E291E0D7DB61E873E188E191E0D2DB80918113882351F06DE773E18FE092E0A7DB6AE374E180E192E0A2DB309181132091821313
S284006D0080917D1390917E13329F800D911D11249093801380937F1310927C13089564EC74E082E192E08ADB63EC74E087E191E0A7DB8091C304E091C404F091C504882349F0309739F489E294E49093F1058093F0052AC99F0146E1849F200D311D1124C90128EAE817F90718F4258B7696FACF08951F93CF93DF93EC01162F0097B1F0B8
S284006D808D819E81892B91F083E994E067D81F83ED81FE81CE01079619958091930490919404892B59F080E0E6DB08C08BE694E49093F1058093F0050FD9E6CFDF91CF911F910895A1E1B0E0E8EEF6E30C9408F38C01262E29873A874B875C870E94E3DCE091AC0429853A854B855C85EE2361F130907213C090AF04D090B004E090B10472
S284006E00F090B2042B013C014C185D086E087F084D825E826F827886E0917713F0917813198A66246A94762C430169827A828B829C8246015701861A970AA80AB90A8D869E86AF86B88A0BC006E218E3A3C0A781A0FD09C0A989AF5FA98BE459FF4FB989B311F5CF40C0B085BF70B23099F7AA7FA23081F783809480A580B6808114910490
S284006E80A104B10439F3E017F10721F34D805E806F807884481459046A047B0468F44D845E846F847888840C951CA61CB71C83829482A582B68204C0138214821582168283809480A580B68049805A806B807C8084149504A604B70408F0BCCF89829A82AB82BC82B7CF211046C08090831390908413A0908513B090861381149104A10427
S284006F00B104C9F12B013C014C185D086E087F08481459046A047B0488F4C80CD91CEA1CFB1CC61AD70AE80AF90AC0928313D0928413E0928513F092861308C0109283131092841310928513109286138091831390918413A0918513B091861349805A806B807C8084159505A605B70520F489839A83AB83BC8389819A81AB81BC8128175F
S284006F8039074A075B0710F4DA01C90106E218E39C01AD0161E08CEA94E077D98CEA94E061D96196E2E10C9424F38091A30481508093A30480917C13833009F43CC0823039F082E594E49093F1058093F00504D8E0912314EE2379F181E080937C13A0915812B0E011972AE030E00E94F2F29B01AC018091A4049091A504A091A604B091EB
S284007000A704280F391F4A1F5B1FA0915712B0E00E94F8F29B01AC0160938313709384138093851390938613E150E093231461E080E090E0C7CE10927C13109283131092841310928513109286130895A4E0B0E0ECE2F8E30C9410F32FEF3FEFA90110E0AA24AA94B12C80917213181708F054C0E0917713F09178138CE6189FE00DF11D05
S2840070801124678160FF46C07085872F8F70823009F040C0862F8A7F8230E1F583819481A581B681C090B304D090B404E090B504F090B6048C199D09AE09BF0983839483A583B6830097A105B105E9F4872F807F846080876E7F663059F4C5010090581202C0880F991F0A94E2F780958093271481E029833A834B835C833DDA29813A8150
S2840071004B815C8107C082179307A407B50710F49C01AD011F5FA7CF8091831390918413A0918513B09186130097A105B10551F1C090B304D090B404E090B504F090B6048C199D09AE09BF098093831390938413A0938513B09386130097A105B10559F482E029833A834B835C83B6DC29813A814B815C8107C082179307A407B50710F473
S2840071809C01AD012F3FEFEF3E074E075E0751F006E218E361E08CEA94E077D88CEA94E061D803C08CEA94E067D82496EAE00C942CF3A0E0B0E0EFEDF8E30C940FF38C01962EC091C404D091C5048091C3046E0196E1899FC00CD11C1124F8018589811109C07E01F6E1EF0EF11C58018CE0A80EB11C09C085E294E432C08A3A89F0669656
S284007200F6E1EF0EF11CF801CC15DD0508F04AC0908521853285F70131978081843A69F7F7013E9780819813EACF89859A852817390729F748E050E0B801CE010E94DFF3892BE9F6F8018385F7013B9790818913D6CF813059F0833091F086E294E49093F1058093F0050E94D42F1DC0F801248535858C859D852817390709F617C0F80189
S2840072809489F701329780819813B9CF48E050E0BE01645F7F4FC5010E94DFF3892B09F0AECF04C0958A80E090E001C0CE01CDB7DEB7EBE00C942BF3CF93DF93EC010097B1F18AEA8D8B0E94515148E050E0BC01CE010E94DFF3892B51F582E88D8B888581508E3F20F58B858330C9F48C8981508E3FE8F42C853D854E855F8568897989FC
S2840073008A899B89A0E00E9473F371F480E194E49093F1058093F0050E94D42F08C0813019F086EA8D8B03C01D8A81E001C080E0DF91CF910895CF93DF93EC01009761F16FA74115510551F0FA01408151816281738148AB59AB6AAB7BAB04C018AA19AA1AAA1BAAEDA5FEA5309749F484E594E49093F1058093F0050E94D42F0DC0CE0150
S2840073808F961995CE01DDD8882331F0109239141092381481E0EFD8DF91CF910895A1E0B0E0E5EDF9E30C9416F38C01FC012081318180917A1390917B132817390740F487E494E49093F1058093F0050E94EC2FF8018081918120917A1330917B13821B930B63E270E00E9478F280917313681750F088E494E49093F1058093F005698331
S2840074000E94EC2F698180917A1390917B13F3E26F9F800D911D11242196E4E00C9432F3A3E0B0E0E6E1FAE30C9416F38C01675F7F4F7A836983BE016D5F7F4F8DE090E01FD88B81D80197965C9197974091BA04882309F442C089819A81FC01E95BFF4F21E0208357962D913C9158973196318320833296585F50839996ED91FC919A97E9
S2840074809C01255B3F4F3897D901ED93FC938FEF8183D80194968D919C9195979383828392968D919C9193979583848396968C91868381E0840F8093BA044783D901ED91FC918081807888608F778083E981FA81EB5AFF4F87ED93E344C089819A81FC01E95BFF4F22E0208331962DEF3FEF318320833296575F5083D8019996ED91FC9116
S2840075009A979C01255B3F4F3997D901ED93FC93D80157968D919C9158979283818394968D919C9195979483838392968D919C9193979683858396968C91878381E0840F8093BA044087D901ED91FC91808180788C608F778083E981FA81EB5AFF4F85EF95E391838083E981FA81D8019C968C919C97E15BFF4F8083E981FA81E05BFF4F74
S284007580809156128083E981FA81EF5AFF4F9B968C918095881F8827881F8083E981FA81EE5AFF4F81E08083E981FA81ED5AFF4F8083E981FA81EC5AFF4F808389819A8139D980E02396E4E00C9432F3DC01ED91FC91909339148093381410922514109226148091571280932A142091241430E087A190A5B9010E9478F2462F6093281481
S28400760087A190A5B9010E9478F2892B19F04F5F409328148FEF90E00090581202C0880F991F0A94E2F780958E7F809327148091BA0491E0980F9093BA04809329140895A0E0B0E0E6E2FBE30C940FF3EC016B01942E59010091C4041091C5048091C304780196E1899FE00CF11C1124209761F0C017D107F0F583E294E49093F105809380
S284007680F0050E94EC2F35C0E801CE01801B910B66E170E00E9478F2892B79F084E294E49093F1058093F0050E94EC2F06C01D89143A39F01A3A29F06696CE15DF05B8F313C088859812F8CF89859A85C816D90699F748E050E0B501CE010E94DFF3892B59F7143A49F703C080E090E004C0CE0102C06696CACFCDB7DEB7EBE00C942BF3E8
S2840077004F925F927F928F929F92AF92BF92CF92DF92EF92FF920F931F93CF93DF931F92CDB7DEB72C017B010E9451516C0157018AE6A80EB11CF501008111814114510431F0E114F10419F0C114D10451F484E194E49093F1058093F0050E94D42F88EA5EC058EAF20164A175A1960146A1C801598366DF8C015981009709F44FC0F20124
S28400778084899589892B19F5F8017384F3E07F121EC048018CE0880E911CC4010E94D1BF892BA9F4F2017086D2011B9688E0F40101900D928A95E1F780E29CE3F201958B848BC20106960E94CBBF80E028C0F50111830083F80183858330B1F4C8010C960E94D1BF009711F459EABCCFF8012489F20121A3FC0180819181F201908F878B60
S284007800B701C2011ED80BC0F80184859585F201908F878BB701C20103DE01C0852F0F90DF91CF911F910F91FF90EF90DF90CF90BF90AF909F908F907F905F904F900895FF920F931F93CF93DF938C010351110920917213C0917713D0917813F12CF216E9F08F8180FF16C0888199818017910789F4BE01C80144DF882381F040E050E0CB
S284007880682FC80158DDCE010E94D33281E00E94BB3204C0F394C459DF4FE1CF80917213F81640F085E194E49093F1058093F0050E94EC2FCDB7DEB7E5E00C9431F3EF92FF921F93CF93DF931F921F92CDB7DEB77B010097A1F06115710589F0FC01158A148AF701E659FF4F11821082B70108DF182F882389F0C7010E94D3320DC023E1C6
S28400790034E43093F1052093F00589839A830E94EC2F89819A81E2CF812F0F900F90DF91CF911F91FF90EF900895A1E0B0E0EBE9FCE30C9414F38C01262FDC01ED90FC90009709F444C0E114F10409F440C02E3C61F0822F8F7D803D41F0213D11F082E005C0F70183A587FFFACF83E0F801EB59FF4F4081518162817381D701D0964D9331
S2840079805D936D937C93D3979F962C93833071F0D801ED91FC918689811108C0F701158A148AB801C701ACDE883AE1F4A701405D5F4FD7019F966C91F80180819181BBDCC8010E94D33281E00E94BB320BC08FE494E49093F1058093F00529830E94EC2F2981B5CF2196E6E00C9430F3CF93DF93EC0162DC882309F454C060E0CE01D9DBC1
S284007A00892BC1F5209709F43EC08D8981113BC05091C3042091C4043091C50440E0451781F0C9012A5E3F4FF90131976081683A31F424EAFC01258B009731F432C04F5FEECF8EEA8D8B2DC0209719F03D89332349F087E294E49093F1058093F0050E94D42F1AC036E1FE01DC0101900D923A95E1F706C066EACE019CDB009791F024EA2D
S284007A80FC01258B09C080E294E49093F1058093F0050E94EC2FBCCF60E070E080E10E942A2EDF91CF910895CF93DF93EC010097D9F08091C4049091C504C817D907A0F02091C30436E1239F800D911D1124C817D90750F48D89843A11F08A3A71F488EA8D8BDF91CF91089581E294E49093F1058093F0050E94EC2FEDCF82E294E4909310
S284007B00F1058093F0050E94EC2FE9CFCF93DF93EC01D2DB882359F064EACE014ADB009731F0C2DF60E070E080E10E942A2EDF91CF9108952091C4043091C504009751F0FC0176968091C30496E1899F200D311D112408C0F901F6CF8589843A49F08A3A39F07696E217F307B8F380E090E00895CF010895CF93DF93EC01BC0181EC94E0D1
S284007B800E946A2F1D8A1C8A81E00E94BB32DF91CF910895CF93DF93EC01BC018FEB94E00E946A2F198A188A81E00E94BB32DF91CF910895AAE0B0E0E0EEFDE30C940EF310919B12BE01665F7F4F87E091E00E944032BE016F5F7F4F8AE190E00E944032C980DA80EB80FC80812F90E0A0E0B0E08C159D05AE05BF0578F0CC0CDD1CEE1C5C
S284007C00FF1CC982DA82EB82FC82BE016F5F7F4F8AE190E00E947832C12ED12C87E0C80ED11CEE24D7FCE094FE2CC092A804D092A904E092AA04F092AB042A8530E0A3E0B0E00E94E3F29B01AC01C701B6010E945DF209811A812B813C81600F711F821F931F6093A4047093A5048093A6049093A70481E08887BE01675F7F4F87E091E08A
S284007C800E944032BE01685F7F4F84E290E00E944032898590E0A0E0B0E0880F991FAA1FBB1F8F3F9105A105B10529F020F08FEF90E0A0E0B0E00E94D035E885EE2309F45AC0812C912C54018B019C0101501E4F2F4F3F4F800E911EA21EB31E660F771F881F991FE15081F718867501640129E0F694E794D794C7942A95D1F7D501C40188
S284007D009170AA27BB2741E050E060E070E0892B8A2B8B2B19F440E050E0BA01C40ED51EE61EF71E1E821D821F82BE01695F7F4F81E191E00E944032BE016B5F7F4F88E092E00E941E32970186010F3F11052105310529F020F00FEF10E020E030E06D817E81C12CEE24E39420E032E04F8185E994E00E9404302A96ECE00C942AF388231E
S284007D8031F00E94C8F38093BA041092A3041092C2041092C1041092C0041092BF041092BE041092BD041092BC041092BB048AE090E0A0E0B0E08093311490933214A0933314B093341484E695E3909337148093361481E08093351410928913109292131092871310928E1310928D131092881310928C131092901310928F1310928B131B
S284007E0010928A131092911310927C13109283131092841310928513109286138CE6E3E9F3E1DF011D928A95E9F783E2EFEFF3E1DF011D928A95E9F78091821390E0019620918113289FA001299F500D112460E070E080917D1390917E130E9406F487E194E19093E8138093E713A4CE4F925F927F928F929F92AF92BF92CF92DF92EF9255
S284007E80FF920F931F93CF93DF931F92CDB7DEB77C01009781F02C0127E0421A510880919304909194048415950529F4D20112968C91893149F086E694E49093F1058093F0050E94D42FCBC080918F04909190048115B7E09B0709F07FC00091C1041091C2040115110551F081EC94E00E942E2F40E050E063EAC8011EDAEFCF6CE6C62E4F
S284007F00D12C7CE6772EE2E4AE2EE4E4BE2EF3E48F2EF4E49F2E0091BD041091BE040115110509F444C0B8018DEB94E00E943A2F8091771390917813F801E81BF90BCF01B6010E9478F280917213681740F0B092F105A092F00569830E94EC2F6981E0917713F0917813679DE00DF11D1124808191812781269530E02130310561F02230DB
S284007F80310549F2232B61F4A8014B5F5F4FD80112966C9103C040E050E067EACCD9BBCF9092F1058092F0050E94EC2FB4CF10E0809172131817D8F48091771390917813BCE61B9F800D911D1124FC01278120FD0E94D3321F5FECCF8115924041F087E694E49093F1058093F0050E94EC2F109292041092910481E0C2DE0E941C360E945F
S2840080008F3682E393E09093900480938F04D7018C91F201828783E994E00E942E2FD20118968D919C911997892B41F489E694E49093F1058093F0050E94EC2FD2011896ED91FC911997C701039619958091930490919404892B19F080E00E94BB320F90DF91CF911F910F91FF90EF90DF90CF90BF90AF909F908F907F905F904F900895BE
S284008080CF93DF93C0919304D0919404209741F484E694E49093F1058093F0050E94EC2F8A818A38F9F0853C09F44FC0893109F06CC080918F04909190048031914019F480E092E002C080E097E09093900480938F0486E39FE39E838D83CE0103960E94E9A75BC080918F0490919004823323E0920719F08031964049F48FE394E09093B7
S284008100900480938F0456DD1D8202C083EA8D8383E994E00E942E2F8B819C81892B41F48AE694E49093F1058093F0050E94EC2FEB81FC81CE01059619958091930490919404892B51F180E018C080918F04909190048F339440A1F480E095E09093900480938F0482E090E09C838B838CEA94E00E943C311092A30481E00E94BB320DC0B4
S28400818063EACE010E94B93608C085E694E49093F1058093F0050E94EC2FDF91CF910895AAE0B0E0E6EDF0E40C9418F3DC011396ED91FC9114972181328140E450E05A834983AE01495F5F4F5C834B8341E050E05E834D836F3FBFEF7B0719F437FF15C003C02617370789F098878F837A876987BE016F5F7F4F8EE10E942A2E81E02D8187
S2840082003E81232B19F080E001C081E02A96E2E00C9434F3009729F48091A1049091A2040895FC01808191810895CF93C82FE0E0F0E0CF01EFDFFC01009739F0A381B4818C91C813F6CFCF0102C080E090E0CF910895CF93DF93EC010097D9F086EA8F83EB81FC813097A9F080819FEF980F903F80F4DBDF892B69F421E08D819E81892BD2
S28400828009F020E02A83BE0181EA94E00E946A2F1F82DF91CF910895DF92EF92FF920F931F93CF93DF938C01009741F480E394E49093F1058093F0050E94EC2FC0E0D0E0A1E3EA2EA4E4FA2ECE01A4DFEC01009789F18A818111F8CF8B819C81892B31F4F092F105E092F0050E94EC2FF80160A171A1CE0155DF882339F3EB81FC81D08022
S2840083006D2DF801878190850E944D888823E1F2F801D18AED81FE81309749F482E394E49093F1058093F0050E94D42F03C0C8011995CACFCDB7DEB7E7E00C942FF3A1E3B0E0E5EAF1E40C940EF38C01B62EDC015A96ED90FC905B9755966D917C915697F701478185E994E00E943630882309F414C1D70111968C919FEF980F9E3F28F490
S28400838054DF6C01009719F408C1C12CD12CF801228983899489213009F022E02F8399878887D70111968C918A8BF801858996890E94D4BFFC01009799F083E08B8B708161815281438134812581968187817E8B6F8B588F498F3A8F2B8F9C8F8D8F02C082E08B8BD80155968D919C9156979D8B8C8B57968D919C9158979F8F8E8FF70196
S284008400868188A3848195819AA389A3828193819CA38BA359968C9190E09C012A5031093EA32DA319A6208127FD04C09C012850310906C02085237029F49C01295031093EA32DA32DA13EA1821B930BF801228D338D280F391F38A72FA3BAA682A18BA7848D8CA7468D578D60A171A14DA75EA76FA778AB858D89ABD7018C9187FF48C03E
S28400848018968C918370823009F042C0E0917F13F0918013808190E09EA38DA38080912CAA24A394B12C2091871330E080917D1390917E13A216B3064CF5E0917F13F0918013EA0DFB1D408150E0209182132A9DB0012B9D700D1124680F791F880D991D0E94ECF3E0917F13F0918013EA0DFB1D20818DA19EA1820F911D9EA38DA3BFEF58
S284008500AB1ABB0A8081880E911CCDCF98A78FA3C114D10449F0D6011596ED91FC911697CE010196199539C0F8018289813021F4CE010196B1DE31C0D70111968C918F3F41F5E12CF12CC70165DE7C01009729F1D7011396ED91FC9114978081882399F312968C918111EFCF69A17AA1C70118DE882349F3D7011396ED91FC9114978081B8
S2840085808A8B1596ED91FC911697CE0101961995DACFCE0101960E9435C7C8010E943A33E196ECE00C942AF3A1E0B0E0EAEDF2E40C9410F35C01DC015A960D911C915B97F80181812FEF280F2E3F80F429832DDE7C012981009751F0D80114966D917C911597DEDD882309F405C105C02E3F08F401C1E12CF12CF801808187FF04C09085E0
S284008600937009F0F7C086FFF7C08C70883009F4F1C0D50155968D919C915697883FBFEF9B0708F0E7C0E114F10421F0F70122812111E0C0D5015A960D911C915B97F801208126FD02C090E0D2C02370213009F027E0F0907213E0917713F091781330E0422F50E0B801640F751F3F15E9F0A781A530B1F4DF01AF5ABF4F0D90BC91A02D2B
S2840086808A179B0769F4DF01AC5ABF4FCD90DC90C40ED51EDB01EC90D601DC90ED1499F23F5FE459FF4FE1CF82E029830E9451332981009741F2FC01EC5AFF4F0190F081E02DDF0158973FEA11963C9311971396BC92AE92129762E0DC01A05BBF4F6C93D50155964D915C915697DC01AF5ABF4F11965C934E9317961C9211961C9231E049
S28400870011963C9311963C9311961C9247ED53E3129611965C934E9311973C9330813C7F32603083D8014C914C70337F342B30834C914295417040FB34F93E7D3F7B30834C9147FB442740F940FB37F930834C9130E0DC01AD5ABF4F7D0144FF0DC0D5015A964D915C915B97420F531FDA012C912183F701608337C048E04C93D8011696A9
S2840087804C911697418312964D915C9113975383428314964D915C9115975583448311964C914683D5015A964D915C915B97420F531FDA012C912783D8012C9127FF13C018962C91237031F41086F70120812F5F208309C0D7012C912D5F2C93D80118962C912370208709960E941A3491E081E08927A1C190E001C091E0F801808187FF0B
S28400880092C18085837009F48EC1D5015A960D911C915B9759968C91F801F18420918113222309F487C196EFE92EE80E80917C13813009F456C030F0843008F06BC180E494E46AC1D084B1E0DB1274C12F1508F471C1809182138E1508F46CC190E00196289FA001299F500D112460E070E080917D1390917E130E9406F48FEA8093221426
S284008880D0927C13F0928713F5018589968990938B1380938A13D80111968C91119780938C1312968D919C91139790938E1380938D1314968D919C9115979093901380938F1316968C9116978093911317968C9180939213809157128093231410928813F12CF8018085982F9370923011F0F11021C18C7F09F01EC1809187138F1508F442
S28400890019C120918A1330918B13D50155968D919C9156972817390709F00CC190918C13F8018181981306C120918D1330918E13828193812817390709F0FCC020918F1330919013848195812817390709F0F2C09091911386819813EDC09091921387819813E8C020918813409158120F2D10E0822F90E0840F911D081719070CF0DAC0D7
S2840089808F2D642F0E946CF2D92EF21668F48F2D891B8093881321E030E001C0220F4A95EAF72195209389132091821380917D1390917E134E2D50E0D5015A966D917C915B97665F7F4FF29E800D911D11240E94ECF3E0917F13F0918013E00FF11FE08270918813209187137F1111C090915812822F8F19981708F4892F41E050E0082E39
S284008A0001C0440F0A94EAF741954093891341E050E00D2C01C0440F0A94EAF760918913642B609389136F3F79F4FF24FA94F70E822F90E04091581250E0871B9109481759070CF4CA01F80E8F2D90E030E0215031098217930751F46F3F21F483E00E946C3563C082E00E946C3564C0A0915812B0E011979D01270F311D8217930711F04B
S284008A806F3F09F582E00E946C35809189138F3F09F050C08091581290918813980F909388132091871321502F19821708F4282F81E090E0022E01C0880F0A94EAF781958093891337C02AE030E00E94F2F29B01AC018091A4049091A504A091A604B091A704280F391F4A1F5B1FA0915712B0E00E94F8F29B01AC016093831370938413B5
S284008B00809385139093861361E080E090E00E94E23610C083E594E49093F1058093F0050E94EC2F07C0992329F06FEAC50107DC80E001C081E02196EAE00C942CF3A7E3B0E0E5EAF5E40C9408F3A0908F04B090900420E1A21621E0B20609F469C12DE4222E24E4322E88248394912C8DEB94E00E942E2F7C01009709F45AC100917713C8
S284008B8010917813C701801B910B6CE670E00E9478F280917213681748F089E494E49093F1058093F0050E94D42F42C13CE6639F000D111D1124D80117968C91B0E1AB16B6E0BB0621F0A114E5E0BE0699F58E7F843019F5C8018C5A9F4F0E94CF396C01DC0111966C91119712968D919C911397892B51F4EAE4F4E4F093F105E093F00516
S284008C006CAB0E94EC2F6CA9D70112968C91811104C0F6018281938192DBA7014B5F5F4F63EAD8018D919C910E949B39C7010E94D3329CCF8695482E512CB1E04B165104B1F054F4452809F0EAC0D70112966C91C8010E94953C8ACFF2E04F16510409F4BBC023E04216510409F47BC0D8C0F80180858F70813009F079CF60807180D7015B
S284008C8019968C910E94D0359B01AC01C0905712D12CF801808582958F70C81AD108D70112966C9161111EC02FAB3CAB4DAB5EAB0E94C8F3FC01F170D20102C0AA0FBB1FCA94E2F72FA93CA94DA95EA90E9402F36E0F7F1F811D911DF80163837483858396832DC06E3C59F0603F49F0603D39F0613D91F4D3019B968C9187FF0DC0A70118
S284008D004B5F5F4FC3010E949B39C7010E94D33281E00E94BB328CC00E94C8F39170E8EEF3E002C0EE0FFF1FCA94E2F78E0F9F1FA0E0B0E0F80183839483A583B683D80118968C911897807F826018968C93189713962D913D914D915C91169760E0C80102C2F80180858F70813009F0FFCE2091251430E08091281490E001972817390748
S284008D8009F4B5C1E091581270912714272F30E080E090E0682F8E1708F0A9C10196A901062E02C0559547950A94E2F740FFF2CFC401062E01C0880F0A94EAF7809587238093271480912614860F809325148BE294E10E94E6E0CACEC8018C5A9F4F0E94CF398C01DC0111966C91119712968D919C911397892B41F43092F1052092F005CF
S284008E006CAB0E94EC2F6CA9F8018281938197DAC7010E94D33281E00E94BB32A7CE2EE434E43093F1052093F0050E94EC2F9ECE1BAA1AAAAAE04A2EA4E35A2EBFEA2B2E13E0312EAA24A394B12C66246A94712C95E4892E94E4992E8FEB94E00E942E2F8C01C0908F04D0909004009761F1D80150968D919C915197892B09F077C15A9696
S284008E80ED91FC915B9780818370813009F06EC18281853009F46AC155968D919C9156970E94D4BF892B09F061C122E0F80124838589968996838583518A408AC80102960E94CBBFC9CFC1FE11C050E5C52E54E4D52E62E0462E72E1A72E74E4B72EE8E05E2EF2E18F2EF4E39F2E3BC00091C1041091C2040115110509F458C0B80181EC2D
S284008F0094E00E943A2F40E050E063EAC8010E949B39ECCF8689833081F57801F9E1EF0EF11CC7010E94D1BF892B39F5D8011B96F701852D01900D928A95E1F7D80156968C91569718968C93189755969C928E925497C80106960E94CBBF81EC94E00E942E2F0091C1041091C20401151105F1F0F80184899589892B69F2809138149091AF
S284008F803914892B09F4BCC2C8010E94A132882309F4B6C2C8010E94A132882309F4B0C2F8010081118101151105A1F780918F04909190048115B5E09B0721F08031F6E09F0769F5F12C0EC02CE6F29E80011124E0917713F0917813E00FF11F8781833031F0F39480917213F81670F320C080858F70843011F08230A1F740E050E063EA75
S284009000808191810E949B398091771390917813800F911F805A9F4F0E94D332E2CF8F33944029F4F12C80917213F81648F080918F04909190048115954009F07EC351C000917713109178138CE6F89E000D111D1124D80117968C91179780FF40C018969C911897292F2F702430C9F5282F2A7F2230A9F5907F79F19160905118969C93C7
S2840090808E7F823071F4C80109960E941A34F801238134814581568160E0C8010E94E2361EC08630E1F4809127148E7F80932714809126148093251480912A14815080932A14E0913814F0913914BF01808191810E94213404C067EAC8010E94953CF394A2CF8091A304882309F4A8C226C3F70181850E94D0359B01AC01A0915712F80153
S284009100808582958F70A81BC40102C0880F991FAA95E2F7DC010E9402F36B017C0100913814109139140E94C8F39170C80ED91EE11CF11CD8011396CD92DD92ED92FC921697E0913814F09139148085807F826080878091381490913914FC01238134814581568160E00E94E23600CDD8015A96ED90FC905B97BFE3CB16B4E0DB0669F0A5
S284009180D7018C918370813041F0F80183A1811104C0C8010E943A33A4C1D7014C91642F607446FF11C0509175132091721330E08091761390E0850F911D821793074CF780917313581728F7242F2C70243009F3662331F0842F83708230D9F243FDD9CF45FDD7CFF801D288F1E0DF1671F032E0D312CFCF4370842F90E0009721F0029726
S28400920009F47AC0C6CF2C3031F0C801CDD9882309F467C1BECFD80155966D917C915697F701408585E994E00E943630882309F4B0CFD80159968C91893008F4AACFB1E0BF83F7018181928199878887D80155968D919C9156970E94D4BFFC01009791F03B8A708161815281438134812581968187817E8B6F8B588F498F3A8F2B8F9C8FC9
S2840092808D8F01C0DB8AF801858996899D8B8C8B8789908D9F8F8E8FD70117968C91179788A315968D919C9116979AA389A313968D919C9114979CA38BA3818D90E009979EA38DA3828D938D099698A78FA319A62AA682A18BA7848D8CA7868D978DA0A1B1A18DA79EA7AFA7B8AB858D89ABCE0101960E944C414DCF423031F09092F10523
S2840093008092F0050E94EC2FC0907713D090781380917213F6012CE6829FE00DF11D1124CF01C816D90608F034CFD60117966C91179760FFD2C018962C9118972F70223009F0CBC0F601EC5AFF4F0190F081E02D2D913C91D80155964D915C915697D90157962D913C9158974217530709F0B5C0D70117963C91179727813213AEC0149630
S2840093804D915C911597248135814217530709F0A4C012964D915C911397228133814217530709F09AC011963C9111972681321394C016963C91218132138FC06E7F623031F4F6018085807F836080873FC0663009F083C0D70119969C911997809126149813D7CE60915812262F30E0C501062E01C0880F0A94EAF781951A969C911A9773
S284009400982B1A969C931A97F6018085807F836080871A96EC91EF3F99F54091281450E070912614E70FCA01871B9109281739070CF4C9018E0F8093251490E0415051098417950741F4C6010E94E63A60E0C6010E94953C9ECE760F709326148091571280932A1470932514930102C0220F331F6A95E2F7B90160956E7F6093271423C0C2
S284009480E095E093271480E090E02E2F30E0782F8617C8F40196A901072E02C0559547950A94E2F740FFF3CFC501072E01C0880F0A94EAF780958E238093271480912614870F80932514E0913814F0913914BF01808191810E9421345CCE3CE6C30ED11C20CFD8015C968C915C978AAB5D968C918BABBE016E5C7F4F8BE30E942A2EACCCA3
S284009500C8010E94A132882361F080913A1490913B14892B09F4BDC0D8019B968C9182FFB8C0F80187A190A58536910518F083A583FFB1C0D80196963C90332031F0832D0E941541892B09F448C0F80183A52689382F347082FF0AC0223031F48789908D883F9F4FD0F502C02130B9F18EEF820F823038F4D80191968C91815F8E3068F11E
S2840095808CC021118AC0332309F487C0F80164A075A087D67C01009719F080E090E00CC0B092F105A092F0050E94D42F76C0DC011B962C91213089F09701432DB3010E94203B0097A1F769C0813008F475C0823009F49AC0833009F48AC026EAE12CF12C612C712CB80181EC94E02FAB0E943A2F2FA921111CC0E114F10431F4D092F10567
S284009600C092F0050E94EC2FF30111830083C8010E94A132882319F0C3010E94E63AB301C801F7011995282F882309F49ACC40E050E0622FC8010E949B3993CC0091930410919404F8018281853C41F08DE694E49093F1058093F0050E94EC2FD80113968D919C9114978D7F14969C938E931397892B09F062C080E00E94BF3E80E196E072
S2840096809093900480938F0460E0C8010E94B93654C02AEAA3CF20EAA1CFD80156968C91813009F091CF80E00E9451333C0130E1E32E3AE3F32E0DC0C8010E94A132882371F083E00E9451333C014FE5E42E4CE3F42E6114710409F469CC20E083CFF80183A582FF02C081E0EDCF80E0EBCFC80149960E94D1BF0097F1F0DC018D919C9154
S284009700F801908F878B468AC8010E94A132882311F083E008C0D8019B968C9182FF02C081E001C080E00E9451333C0121E2E22E24E3F22ECECF29EA51CFE796E2E10C9424F3AFE1B0E0E7EAFBE40C9415F3009749F485E495E49093F1058093F0050E94D42F82C0FC012081233009F07DC0218132813A83298328E03396DE011396019080
S2840097800D922A95E1F7FC0123852B87248535853D872C8728E03E96DE011E9601900D922A95E1F7FC01218D2D8F238D2E8F0789108DF688F6E0FF1508F056C0F8018081982F9370933009F04FC0807E09F04CC08181811149C0BE01615E7F4F84E190E00E944032F801208126952695277030E08F8D90E028173907B9F58281982F9370AF
S284009800933091F5982F907F79F58C708C3091F481E08B87F8E0FF1538F5F801838194819F878E876FEF0E944D888823E9F0F80129E003C0F801329727E085819681998F888F878190859F8B8E8BF21AFA8E020F111D1C8F0B8FE0919F04F091A004309719F0CE01019619956F96E5E00C9431F380E191E09093900480938F041092940471
S2840098801092930410929204109291041092A2041092A1040E941C360C9408A8CF93DF93EC016DE172E085E20E94A92E6DE172E088E30E94A92E209749F480E694E49093F1058093F0050E94D42F05C089E18A83CE010E94E233DF91CF910895009741F481E694E49093F1058093F0050C94D42F2AE8FC0122830C94E233009741F482E650
S28400990094E49093F1058093F0050C94D42F25ECFC0122830C94E233CF933091791380917A1390917B1320E0231751F08396FC01B3974081442311F081E029C02F5FF4CFC0E080917213C817E0F40E94242E9CE6C99F900111244091771350917813FA01E20FF31F882341F0878180FF08C080858F70823021F0E0CF878180FDDDCFCF5F51
S284009980E0CF81E090917C13911101C080E0CF9108951F93CF93DF93EB01853239F41881BBDF91E09827912398831FC08833E9F4388140917213E0917713F091781380E0841771F0278120FF07C090859F70923019F42A7F223031F08F5FE459FF4FF0CF80E001C081E0832B8883DF91CF911F910895FC01808184FD0C948F360895A2E041
S284009A00B0E0E5E0FDE40C9418F3E0919104F09192042F2F30E09E2F9F5F983008F090E0692F70E0A901092E02C0569547950A94E2F740FF26C09093910481E090E0062E01C0880F0A94EAF78F2780939204660F771F6058744B42E050E0CE0101960E94D6F389819A81892B41F480E094E49093F1058093F0050E94EC2FE981FA8119959D
S284009A8004C0E913C9CFE093910480919204882361F02FB7F89480918D0490918E04806290938E0480938D042FBF2296E2E00C9434F38091A312853091F028F4882349F0823069F004C0843141F0863141F080E0089580919C128B3010F488E0089582E00895833014F083E01BC096E0980F923010F48BEF15C098E0980F923010F489EF91
S284009B000FC09AE0980F923010F487EF09C09EE0980F943010F484EF03C0823F0CF48FEE8093A1120895C5DF282F220F220F280F30E0A90160E8869F400D511D1124CA0108958091A3128530E9F028F4882349F0823079F004C0843189F0863189F080E0089580919C12882349F08B3058F489E1089580919C12811105C002C082E30895FB
S284009B8088E2089580E10895CF93DF93EC01D9DFE82F9E01A0ECB3E00E94E3F29B01AC01AE2FB0E00E94F8F228EE33E040E050E00E949FF2CA01B901DF91CF910895CF93DF93B1DFEC01BDDF282F2C9FC0012D9F900D1124BC0180E090E028EE33E040E050E00E949FF22F5F20939B12DF91CF910895CF93DF938BE080939C1280E098EFCD
S284009C00AFEFB7E080939D1290939E12A0939F12B093A01261EA72E183E090E00E9440328091A1125EDF61EA72E183E090E00E947832C1E0C093A2121092A31274DF9093A5128093A41235DF94E0899F800D11248093A6122EDF8093A71286E390E0A0E0B0E08093701290937112A0937212B09373121092741210927512C093761210927D
S284009C80781210927712109279120E94C8F380937A12EBE7F2E18FEF80838183828383838483858386838783CFEFDFEFD0938412C09383120E94C8F38093851285E08093861284E08093871283E08093881280938912D0938B12C0938A1280E280938C1210928D1210928E12D0939012C0938F121092991210929A1262DFDF91CF91089511
S284009D00A4E0B0E0E6E8FEE40C9418F3DC014C9150E0CA01805491098434910508F0D7C0865A9D4DFC010C94DDF211968C918093751208C011968D919C911297909378128093771280E00DC111968C91853308F007C180937912F6CF11968C9180937A12F1CF11968C91119780937B1212968C91129780937C1213968C91139780937D1212
S284009D8014968C91149780937E1215968C91159780937F1216968C9116978093801217968C9117978093811218968C9180938212C9CF11968D919C9112979093841280938312C0CF11968C9180938512BBCF11968C91863008F0C4C080938712B3CF11968C9190918612981708F4BAC080938912A9CF11968D919C91129790938B12809311
S284009E008A12A0CF11968C9180938D129BCF11968D919C9112979093901280938F1292CF11968D919C911297AFDE69837A838B839C83BE016F5F7F4F03C0BD016F5F7F4F82E090E071C011967C91119712966C91129713965C91139714964C91149715963C91159716962C91169717969C91179718968C9170939112609392125093931256
S284009E80409394123093951220939612909397128093981257CF11968C918093741252CF11968C91883008F05BC0809388124ACF11968C9180938C1245CF11968C918093861240CF11968C9180939A123BCF4830510508F043C042565D4DFA010C94DDF28BEF3FC011962C9180919D1290919E12A0919F12B091A012022E04C0B695A795D6
S284009F00979587950A94D2F780FF2AC020939C1223C011968C9190E2980F903408F5E1DD61EA72E183E090E00E9478320BCF11968C918430A8F48093A21204CF11968C91853041F018F4833058F404C0843111F0863131F48093A31232DEF4CE84EF01C088EE2496E2E00C9434F3A4E0B0E0EBEBFFE40C940AF3609087126091861270E081
S284009F80E0918912F0E0262D30E0CB018E1B9F0B281739070CF4C901AA2797FDA095BA2F0097A105B10521F481E090E0A0E0B0E0712CC12CD12C76018C019D01015011092109310942E0442E512C872C912CA12CB12C081519052A053B05B0F0AF01470D511D41505109520102C0AA0CBB1C4A95E2F74501AA2497FCA094BA2CC80CD91C9B
S28400A000EA1CFB1C7394E1CF262D30E040E050E0281B390B4A0B5B0B61507109A2E0B0E002C0AA0FBB1F6A95E2F711970E9402F39B01AC012C0D3D1D4E1D5F1DA4E1B0E00E94F8F29B01AC0169833A834B835C836ADD29813A814B815C81280F391F411D511D29833A834B835C836BDDA82FB0E029813A814B815C810E94F8F228EE33E02E
S28400A08040E050E00E949FF2CA01B9012496E0E10C9426F356DDE82F20918C1230E0A0ECB3E00E94E3F29B01AC01AE2FB0E00E94F8F228EE33E040E050E00E949FF2CA01B9010895A4E0B0E0E8E6F0E50C9412F38C01FC01408150E0FA01E054F109E434F10508F0ADC0EA55FD4D0C94DDF280917512F801818380E0D0C080917712909125
S28400A1007812BEC080917912F4CF80917A12F1CF70917B1260917C1250917D1240917E1230917F122091801290918112809182125BC08091831290918412A2C080918512D8CF80918712D5CF80918912D2CF80918A1290918B1294C080918D12CACF80918F12909190128CC0BE016F5F7F4F82E090E00E944032C980DA80EB80FC80C1141D
S28400A180D104E104F10491F0DCDC282F30E0A0ECB3E00E94E3F228EE33E040E050E00E949FF2C701B6010E949FF202C024EF31E0F801328321839FCFBC016F5F7F4F82E090E00E94403297CF7091911260919212509193124091941230919512209196129091971280919812F801718362835383448335832683978380877DCF809174127C
S28400A20078CF8091881275CF80918C1272CFFC01118271CF8091701290917112A0917212B091731226C08091861263CF80919A1260CF30DFF80161837283838394835BCF4830510548F5FA01E651FD4D0C94DDF280919C124ECF8091A1124BCF8091A21248CF80919D1290919E12A0919F12B091A012F80181839283A383B4833CCF53DCC1
S28400A280F8019283818337CF14DCF4E08F9F800D11242FCF0EDC2DCF84EF2496E8E00C942EF381E992E1089548E050E0BC0181E992E10E94DFF321E0892B09F020E0822F0895CF92DF92EF92FF92CF936B017C01F0DBC82F36DC2C2F30E0A82FB0E00E94E3F29B01AC01C701B6010E945DF228EE33E040E050E00E949FF2CA01B901CF9181
S28400A300FF90EF90DF90CF9008952FB7F89480910A0590910B05946090930B0580930A053FB7F8948091C60481110FC04FB7F89480918D0490918E04816090938E0480938D044FBF81E08093C6043FBF2FBF0895BC0188EC94E00E946A2F8091C704811101C0D3CF0895FC011282F2CF21E0FC012283EECF22E0FC012283EACF23E0FC0142
S28400A3802283E6CF25E0FC0122831186108622E02783DECFA1E0B0E0E0EDF1E50C9417F31092C9041092C8045AD11FB7F894CE0101960E9419D6811104C082E08093C70402C01092C70410920B0510920A051FBF2196E3E00C9433F3A2E0B0E0E2EFF1E50C9416F31FB7F8941092C604CE0102960E9419D6882339F08091C7048230C9F485
S28400A4001092C70416C081E090E00A8002C0880F991F0A94E2F78095909520910A0530910B052823392330930B0520930A0580E001C081E01FBF8111BAC081E08093C7048A818A3029F50091C8041091C9042091290230912A0241E050E00115110539F4CE0101960E9419D681114BC033C0CA01F801028002C0880F991F0A94E2F78223E4
S28400A4809323892B09F065C0F80100811181E5CF90E08C30910520F7FC01EE50FD4D0C94DDF2B0D214C0B7D212C026D410C0C1D30EC05AD30CC00E949ED309C00E9422D306C03DD104C00E946DD301C0A5D0811127C0C6CF2FB7F8948091C60481110FC03FB7F89480918D0490918E04816090938E0480938D043FBF81E08093C6042FBF52
S28400A50056C08091D104811152C08091C8049091C904892B11F0F9DE4AC01092C70447C0813009F044C04FB7F89421E030E00A8002C0220F331F0A94E2F780910A0590910B05822B932B90930B0580930A054FBF2EC0B80188EC94E00E943A2FF801428150E04930510508F07BCFFA01E250FD4DC8010C94DDF293D393E002C03CD394E047
S28400A5809A83A5CF87D295E0FBCF0E948AD396E0F7CF0E94FFD292E0F3CFB5D098E0F0CF0E944DD399E0ECCF06D09BE0E9CF2296E4E00C9432F3CF93DF93EC0118868B819C819C01215031092F333105C8F4805C9E4F9C838B838A81873031F0883081F4CE010E94C5B003C0CE010E94ABB0882339F0813061F4D0930905C093080507C03E
S28400A6001886EE81FF81CE010896199580E08093CA04DF91CF910895CF93DF93C0910805D09109058A81873031F0883041F4CE010E94C5B007C0CE010E94ABB003C081E0888702C0811106C0EE81FF81CE010896199580E08093CA04DF91CF910895AEE0B0E0E5E3F3E50C9416F30E94DFB082E088871E861D861A86198681E08F83CE01BF
S28400A68001960E940DB48B859C850E94CBF373D00E94B2D385D2ECD26AD30E9448D368D00E9487D38EE48983809187128A83CE0101960E94D2B48FE48983809189128A83CE0101960E94D2B489E58983809188128A83CE0101960E94D2B480E589830FEF1FEF1B830A83CE0101960E94D2B483E589831B830A83CE0101960E94D2B42E96AD
S28400A700E4E00C9432F31F93CF93DF93EC010E940DB4182F882339F0813051F4D0930905C093080505C0EC85FD85CE01089619951093CB04812FDF91CF911F9108951F93CF93DF93C0910805D0910905CE010E940DB4182F811105C0EC85FD85CE01089619951093CB04812FDF91CF911F9108951092CB040895A2E0B0E0E1ECF3E50C94AC
S28400A78018F367E577E180E092E00E941E32BE016F5F7F4F80E091E00E94403229813A81809157179091581790935C1780935B1790935E1780935D179093601780935F17280F391F309362172093611710925A171092591763E677E183E292E00E941E32BE016F5F7F4F8EE291E00E94403229813A818091631790916417909368178093BA
S28400A800671790936A178093691790936C1780936B17280F391F30936E1720936D1710926617109265172296E2E00C9434F39CE0899FF0011124E95AF84E86819781019608959CE0899FF0011124E95AF84E4FB7F894A681B7818C9190E001968A0F9B1F978386831C9226813781808591852817390751F48481958191878087808191819A
S28400A88095838483978386834FBF08959CE0899FF0011124E95AF84EA681B78182819381A817B90721F081E09C91911101C080E0089581E0EBDF8823F9F080910A0590910B05816090930B0580930A052FB7F8948091C60481110FC03FB7F89480918D0490918E04816090938E0480938D043FBF81E08093C6042FBF80E0C8DF8823F9F055
S28400A90080910A0590910B05826090930B0580930A052FB7F8948091C60481110FC03FB7F89480918D0490918E04816090938E0480938D043FBF81E08093C6042FBF0895A6E3B0E0E6EAF4E50C9417F3182F6FDFFC01208130E0DC01A20FB31F12968C912F5F3F4F2E0F3F1FD9016C91813220F4811103C081E001C080E2629566956695D5
S28400A9806370689FB00111248FEF869FA001879F500D1124CA0160E670E00E9478F2D9016C93BF01CE0101960E9401D4882319F18A81982F977029F4807619F48B818C70B1F020911B0230911C022E7F30931C0220931B02CE010196A4D420911B0230911C02216030931C0220931B0204C080919C12898FE6CF812F24DF80E0E696E3E0F2
S28400AA000C9433F381E042DF882311F081E098DF50DF80E0089580E039DF882311F080E08FDF47DF80E00895A9E0B0E0EAE1F5E50C9415F38C018091CE0465E0813029F4C0D0F82E811121C01EC080E0BAD0F82E81111BC0F8018381898388E03496DE01129601900D928A95E1F7CE0101960E94D2B4F82E8091CE04823039F48091CD0416
S28400AA80AFD065E09ED01092CE048F2D2996E5E00C9431F3A9E0B0E0E0E5F5E50C9416F38C01DC0113968C91813530F48E3480F48823D1F09EEF09C08F36B1F028F4833599F08935D1F40CC090E1980F9330A8F4813F41F4F80194812091CC04921339C091E00CC08935E1F3909173179093CD04963119F492E09093CE0490E02091CE04FD
S28400AB00211111C0911113C0898388E0F8013496DE01129601900D928A95E1F7CE0101960E94D2B402C0C8017FDF811108C0D8011C96ED91FC911D97199580E004C010930905009308058093CF042996E4E00C9432F39093CC04909173179093CD04963109F0BECF91E0C7CFA1E0B0E0EAEBF5E50C9416F30091080510910905C80154DF6F
S28400AB80811108C0D8011C96ED91FC911D978983199589818093CF042196E4E00C9432F31092CF041092CE041092CC040895882331F0813011F083E0089586E1089589E1089560933C14F3DF0C946FB5882331F0813011F088E0089586E1089589E108958850823130F4E82FF0E0E752FD4F8081089588E008951F93CF93DF93EC01109108
S28400AC0073178B81E3DF181729F064E08B81D9DF811105C0EC81FD81199580E004C0D0930905C09308058093D004DF91CF911F910895A1E0B0E0EFE1F6E50C9416F3009108051091090564E0D80113968C91B9DF811108C0D8011496ED91FC9115978983199589818093D0042196E4E00C9432F31092D0040895CF93DF93EC0163E080E01B
S28400AC80A0DF811109C082E08093D104CE0103960E9443D50E94CDB5DF91CF910895CF93DF93EC0189AD83DF80937117D0930905C09308058091881280933D140E94C8F390933F1480933E1480917317893151F482E08093D104CE0103960E9443D50E94CDB505C081E08093D104CE01C4DF8093D204DF91CF910895A2E0B0E0E2E8F6E5B5
S28400AD000C9416F300910805109109058091D104813021F4C801AFDF811123C00E9476B00E944DB01A8219820E9401B4D801DC968C93DC97DA96ED91FC91DB97C801CC9619958091881290E020913D14821B91099A838983BE016F5F7F4F8DE30E942A2E80E08093D2042296E4E00C9432F31092D2041092D104089580913D14815080932A
S28400AD803D140E9402DF63E080E01BDF81110CC0809108059091090522E02093D10403960E9443D50C94CDB581E08093D2048093D10480910A0590910B05886090930B0580930A0508952FB7F89480918D0490918E04846090938E0480938D042FBF0895BC0180EF96E10E946A2F8091DF1681110CC02FB7F89480918D0490918E0484605A
S28400AE0090938E0480938D042FBF0895CF93DF93DC0112964C9150E0FA013197E031F10508F053C0E95FFC4D0C94DDF2DC011C96ED91FC911D970E963DC0DC011B96ED91FC911C970D9636C0DC011796ED91FC91189709962FC0DC015196ED91FC915297439628C0DC015396ED91FC9154974596199543C0DC011996ED91FC911A970B965E
S28400AE8019C0DC011E96ED91FC911F97409612C0FC01C08DC470D0E0018CF28DE02D4B961995CD2B51F511C0DC011496ED91FC9115970696199509C0809150178E7F03C0809150178D7F809350171092DF16209150178091F0169091F116892B11F4222361F02FB7F89480918D0490918E04846090938E0480938D042FBFDF91CF91089562
S28400AF00CF93DF938091DF16882319F0833009F06AC080915017882389F080FF09C08FE08093DF160E94076661EF0E945F645BC080E18093DF160E94BFD955C080912B02882309F450C0C091F016D091F116209709F449C080EF96E10E942E2F8A818093DF16D093E216C093E1168A8190E0FC013197EE30F10518F5E95EFC4D0C94DDF207
S28400AF800E9450621AC00E942A6217C05CD415C0C7D713C0AAD411C00E941FD80EC00E9466D80BC00E941D6408C0EED006C052D304C00E94CBDA01C01ED4811114C01092DF168091F0169091F116892B61F02FB7F89480918D0490918E04846090938E0480938D042FBFDF91CF91089527E0FC012283F6CE28E0FC012283F2CE2BE0FC0171
S28400B0002283EECE22E0FC012283EACECF93DF93EC018B81882331F183E08A838093DF161092F1161092F016109250176CE272E085E20E94A92EBE0180EF96E10E946A2FA9D983EE96E10E9416E12FB7F89480918D0490918E04846090938E0480938D042FBF04C084E08A83CE01BADEDF91CF9108952AE0FC012283B3CE25E0FC01228370
S28400B080AFCE21E0FC012283ABCE26E0FC012283A7CE2CE0FC012283A3CE2DE0FC0122839FCE2091DF16233011F00C94C8A308952091DF16233011F00C9452AC08952091DF16233011F00C94EA9F08952091DF16233011F00C94A0AF08952091DF16233011F00C9497A708952091DF16233011F00C9478AF08958091501781608093501797
S28400B1008091DF16811101C05ECE0895809150178260809350178091DF16811101C053CE08952091DF16211104C021E12093DF161DC3089580915017811105C00E94726791E0982701C091E0892F08951F93CF93DF93EB011881EEDF91E0982791239883DF91CF911F910895CF93DF93C091E116D091E216FC0180810E942EDA8CA3CE01EA
S28400B18045DEDF91CF9108951F93CF93DF93C091E116D091E21680918A1290918B12998B888B13E01A8B7DD8DE01539628E0FC0101900D922A95E1F71B8F8B818C8F8C818D8F8D818E8F8E818F8F8F8188A3888589A389858AA38A858BA38D85811105C01CA2CE0113DE80E077C08BE08093FF168091851291E0980F90938512809302177B
S28400B200809100178078209101172C6083628F77809300172C7C209301178FEF9FEF9093041780930317EB817C816D815E814F81388599858A85E09305177093061760930717509308174093091730930A1790930B1780930C17206C2093011780918A1290918B1290930E1780930D171AD828E0FC01AFE0B7E101900D922A95E1F780911A
S28400B2808A1290918B12909318178093171780918F129091901290931A17809319178B859C8590931D1780931C1780919C1280931B1784EB98E5909337178093361780918D12882311F081E001C082E0809335178CEF96E148D881E0DF91CF911F910895A8E0B0E0E6E7F9E50C9418F3FC018281807C81F08089898381898A8382898B83D2
S28400B30083898C8384898D8385898E8386898F8387898887CE010196E0DE2896E2E00C9434F3EF92FF920F931F93CF93DF93EC018A81807C8038C1F4AE014C5C5F4FBE016D5C7F4F888999890E94FCD8811144C0488150E0FA013197EB30F10508F03CC0EB5DFC4D0C94DDF2803C91F7288939894A895B896C897D897E0184E3E80EF11C7E
S28400B3808E010D5C1F4F8E899F890E943AD9DECFCE018DD621C0CE01ADD01EC0CE010E94F6D71AC0CE010E9476D816C08DA980FD05C0CE010E94156681119DDECE0173D00BC0CE018DDF08C080919A12882321F09DDE02C0CE01A7D7CDB7DEB7E6E00C9430F381E080939A12089510929A12089583E08093E01610924C1765E07AE58CEF29
S28400B40096E10C944664F4CF08958091E1169091E216FCDC1092E0160895A3E0B0E0E3E1FAE50C9418F381E18B83CE010196EEDC2396E2E00C9434F3CF93DF93C091E116D091E216FC018081833028F4813048F00E942EDA03C0833001F58BEE888BC8DF1CC08BEE888B81E08093ED1683E09AE59093EF168093EE160E94B54F6093E91629
S28400B4807093EA168093EB169093EC1682E08093E01683EE96E10E94E6E0DF91CF9108951092E0160895AEE0B0E0E9E5FAE50C9418F3FC01228122952695269523702983268537853B832A8328E07096DE01149601900D922A95E1F7FC0123A92C8723812D8784A98E87CE010196FEDD2E96E2E00C9434F3ACE1B0E0E0E8FAE50C940CF3F5
S28400B500FC01428142954695469543704983268537853B832A8328E07096DE01149601900D922A95E1F7FC01628066946694F62DF3706F2EFC87FC01248135813E872D8728E03696DE011F9601900D922A95E1F7FC0172A87F8A20A931A9398F288F23A92A8F23812B8F84A98C8F8091E016882309F44CC08090E1169090E2168EEF840FFA
S28400B580823008F063C0F4018381481320C0423029F42C813D818681978127C0433009F055C02C813D814E815F8168857985F401A680B780C084D184E284F384048515858A859B850E946AF309F040C023C0823091F0833021F0811139C0423051F42C813D8180918312909184122817390771F511C0433059F548E050E06BE772E1CE0186
S28400B60004960E94DFF3892B29F020C0CE0101964FDD1CC0F2E06F1209C02F85388980918F12909190122817390781F4772029F0CE0101963DDDF401108A8091E016823029F483EE96E10E9416E1D2DE6C96EEE00C9428F3CF93E091E116F091E2168381882349F08250823030F088EE808BCF01CDDB80E079C087E08093FF1680918512B9
S28400B68091E0980F909385128093021720910017207E236020622093001784819581909304178093031793819370990F990F80910117837F892B809301178381811102C02F7B01C0206420930017809100178F7780930017809101178C7C8093011788E03696A5E0B7E101900D928A95E1F780918A1290918B1290930E1780930D178091E3
